{
  "contractName": "ChallanSystem",
  "abi": [
    {
      "inputs": [],
      "stateMutability": "nonpayable",
      "type": "constructor"
    },
    {
      "inputs": [
        {
          "internalType": "string",
          "name": "",
          "type": "string"
        }
      ],
      "name": "ActiveChallan",
      "outputs": [
        {
          "internalType": "string",
          "name": "LicenseID",
          "type": "string"
        },
        {
          "internalType": "string",
          "name": "CitizenName",
          "type": "string"
        },
        {
          "internalType": "string",
          "name": "CitizenCNIC",
          "type": "string"
        },
        {
          "internalType": "enum ChallanSystem.VehicleType",
          "name": "CarType",
          "type": "uint8"
        },
        {
          "internalType": "string",
          "name": "CarNumberPlate",
          "type": "string"
        },
        {
          "internalType": "string",
          "name": "timeStamp",
          "type": "string"
        },
        {
          "internalType": "uint256",
          "name": "Fine",
          "type": "uint256"
        },
        {
          "internalType": "bool",
          "name": "status",
          "type": "bool"
        }
      ],
      "stateMutability": "view",
      "type": "function",
      "constant": true
    },
    {
      "inputs": [
        {
          "internalType": "string",
          "name": "",
          "type": "string"
        },
        {
          "internalType": "uint256",
          "name": "",
          "type": "uint256"
        }
      ],
      "name": "ChallanHistory",
      "outputs": [
        {
          "internalType": "string",
          "name": "LicenseID",
          "type": "string"
        },
        {
          "internalType": "string",
          "name": "CitizenName",
          "type": "string"
        },
        {
          "internalType": "string",
          "name": "CitizenCNIC",
          "type": "string"
        },
        {
          "internalType": "enum ChallanSystem.VehicleType",
          "name": "CarType",
          "type": "uint8"
        },
        {
          "internalType": "string",
          "name": "CarNumberPlate",
          "type": "string"
        },
        {
          "internalType": "string",
          "name": "timeStamp",
          "type": "string"
        },
        {
          "internalType": "uint256",
          "name": "Fine",
          "type": "uint256"
        },
        {
          "internalType": "bool",
          "name": "status",
          "type": "bool"
        }
      ],
      "stateMutability": "view",
      "type": "function",
      "constant": true
    },
    {
      "inputs": [],
      "name": "Owner",
      "outputs": [
        {
          "internalType": "address",
          "name": "",
          "type": "address"
        }
      ],
      "stateMutability": "view",
      "type": "function",
      "constant": true
    },
    {
      "inputs": [
        {
          "internalType": "uint256",
          "name": "",
          "type": "uint256"
        }
      ],
      "name": "RuleList",
      "outputs": [
        {
          "internalType": "string",
          "name": "Description",
          "type": "string"
        },
        {
          "internalType": "uint256",
          "name": "ACategoryVehicle_Fine",
          "type": "uint256"
        },
        {
          "internalType": "uint256",
          "name": "BCategoryVehicle_Fine",
          "type": "uint256"
        },
        {
          "internalType": "uint256",
          "name": "CCategoryVehicle_Fine",
          "type": "uint256"
        },
        {
          "internalType": "bool",
          "name": "status",
          "type": "bool"
        }
      ],
      "stateMutability": "view",
      "type": "function",
      "constant": true
    },
    {
      "inputs": [
        {
          "internalType": "address",
          "name": "",
          "type": "address"
        }
      ],
      "name": "TP",
      "outputs": [
        {
          "internalType": "bool",
          "name": "",
          "type": "bool"
        }
      ],
      "stateMutability": "view",
      "type": "function",
      "constant": true
    },
    {
      "inputs": [],
      "name": "testStatus",
      "outputs": [
        {
          "internalType": "uint256",
          "name": "",
          "type": "uint256"
        }
      ],
      "stateMutability": "view",
      "type": "function",
      "constant": true
    },
    {
      "inputs": [],
      "name": "testValue",
      "outputs": [
        {
          "internalType": "uint256",
          "name": "",
          "type": "uint256"
        }
      ],
      "stateMutability": "view",
      "type": "function",
      "constant": true
    },
    {
      "inputs": [
        {
          "internalType": "address",
          "name": "_TP",
          "type": "address"
        }
      ],
      "name": "addTrafficPolice",
      "outputs": [],
      "stateMutability": "nonpayable",
      "type": "function"
    },
    {
      "inputs": [
        {
          "internalType": "string",
          "name": "_description",
          "type": "string"
        },
        {
          "internalType": "uint256",
          "name": "_Afine",
          "type": "uint256"
        },
        {
          "internalType": "uint256",
          "name": "_Bfine",
          "type": "uint256"
        },
        {
          "internalType": "uint256",
          "name": "_Cfine",
          "type": "uint256"
        }
      ],
      "name": "addTrafficRule",
      "outputs": [],
      "stateMutability": "nonpayable",
      "type": "function"
    },
    {
      "inputs": [
        {
          "internalType": "uint256",
          "name": "_ruleID",
          "type": "uint256"
        },
        {
          "internalType": "uint256",
          "name": "_Afine",
          "type": "uint256"
        },
        {
          "internalType": "uint256",
          "name": "_Bfine",
          "type": "uint256"
        },
        {
          "internalType": "uint256",
          "name": "_Cfine",
          "type": "uint256"
        }
      ],
      "name": "updatePriceForRule",
      "outputs": [],
      "stateMutability": "nonpayable",
      "type": "function"
    },
    {
      "inputs": [
        {
          "internalType": "uint256",
          "name": "_ruleID",
          "type": "uint256"
        }
      ],
      "name": "deactivateRule",
      "outputs": [],
      "stateMutability": "nonpayable",
      "type": "function"
    },
    {
      "inputs": [
        {
          "internalType": "uint256",
          "name": "_ruleID",
          "type": "uint256"
        }
      ],
      "name": "activateRule",
      "outputs": [],
      "stateMutability": "nonpayable",
      "type": "function"
    },
    {
      "inputs": [
        {
          "internalType": "string",
          "name": "_LicenseID",
          "type": "string"
        },
        {
          "internalType": "string",
          "name": "_Name",
          "type": "string"
        },
        {
          "internalType": "string",
          "name": "_CNIC",
          "type": "string"
        },
        {
          "internalType": "enum ChallanSystem.VehicleType",
          "name": "_CarType",
          "type": "uint8"
        },
        {
          "internalType": "string",
          "name": "_carPlate",
          "type": "string"
        },
        {
          "internalType": "uint256[]",
          "name": "_voilatedRules",
          "type": "uint256[]"
        },
        {
          "internalType": "string",
          "name": "_timeStamp",
          "type": "string"
        }
      ],
      "name": "addChallan",
      "outputs": [],
      "stateMutability": "nonpayable",
      "type": "function"
    },
    {
      "inputs": [
        {
          "internalType": "string",
          "name": "_LicenseID",
          "type": "string"
        }
      ],
      "name": "getCurrentChallan",
      "outputs": [
        {
          "components": [
            {
              "internalType": "string",
              "name": "LicenseID",
              "type": "string"
            },
            {
              "internalType": "string",
              "name": "CitizenName",
              "type": "string"
            },
            {
              "internalType": "string",
              "name": "CitizenCNIC",
              "type": "string"
            },
            {
              "internalType": "enum ChallanSystem.VehicleType",
              "name": "CarType",
              "type": "uint8"
            },
            {
              "internalType": "string",
              "name": "CarNumberPlate",
              "type": "string"
            },
            {
              "internalType": "uint256[]",
              "name": "VoilationCode",
              "type": "uint256[]"
            },
            {
              "internalType": "string",
              "name": "timeStamp",
              "type": "string"
            },
            {
              "internalType": "uint256",
              "name": "Fine",
              "type": "uint256"
            },
            {
              "internalType": "bool",
              "name": "status",
              "type": "bool"
            }
          ],
          "internalType": "struct ChallanSystem.Challan",
          "name": "",
          "type": "tuple"
        }
      ],
      "stateMutability": "view",
      "type": "function",
      "constant": true
    },
    {
      "inputs": [
        {
          "internalType": "string",
          "name": "_LicenseID",
          "type": "string"
        }
      ],
      "name": "getAllChallan",
      "outputs": [
        {
          "components": [
            {
              "internalType": "string",
              "name": "LicenseID",
              "type": "string"
            },
            {
              "internalType": "string",
              "name": "CitizenName",
              "type": "string"
            },
            {
              "internalType": "string",
              "name": "CitizenCNIC",
              "type": "string"
            },
            {
              "internalType": "enum ChallanSystem.VehicleType",
              "name": "CarType",
              "type": "uint8"
            },
            {
              "internalType": "string",
              "name": "CarNumberPlate",
              "type": "string"
            },
            {
              "internalType": "uint256[]",
              "name": "VoilationCode",
              "type": "uint256[]"
            },
            {
              "internalType": "string",
              "name": "timeStamp",
              "type": "string"
            },
            {
              "internalType": "uint256",
              "name": "Fine",
              "type": "uint256"
            },
            {
              "internalType": "bool",
              "name": "status",
              "type": "bool"
            }
          ],
          "internalType": "struct ChallanSystem.Challan[]",
          "name": "",
          "type": "tuple[]"
        }
      ],
      "stateMutability": "view",
      "type": "function",
      "constant": true
    },
    {
      "inputs": [],
      "name": "getTrafficRules",
      "outputs": [
        {
          "components": [
            {
              "internalType": "string",
              "name": "Description",
              "type": "string"
            },
            {
              "internalType": "uint256",
              "name": "ACategoryVehicle_Fine",
              "type": "uint256"
            },
            {
              "internalType": "uint256",
              "name": "BCategoryVehicle_Fine",
              "type": "uint256"
            },
            {
              "internalType": "uint256",
              "name": "CCategoryVehicle_Fine",
              "type": "uint256"
            },
            {
              "internalType": "bool",
              "name": "status",
              "type": "bool"
            }
          ],
          "internalType": "struct ChallanSystem.VoilationRule[]",
          "name": "",
          "type": "tuple[]"
        }
      ],
      "stateMutability": "view",
      "type": "function",
      "constant": true
    },
    {
      "inputs": [],
      "name": "test",
      "outputs": [
        {
          "internalType": "uint256",
          "name": "",
          "type": "uint256"
        }
      ],
      "stateMutability": "payable",
      "type": "function",
      "payable": true
    },
    {
      "inputs": [
        {
          "internalType": "string",
          "name": "_LicenseID",
          "type": "string"
        }
      ],
      "name": "payChallan",
      "outputs": [],
      "stateMutability": "payable",
      "type": "function",
      "payable": true
    }
  ],
  "bytecode": "0x60806040523480156200001157600080fd5b50336000806101000a81548173ffffffffffffffffffffffffffffffffffffffff021916908373ffffffffffffffffffffffffffffffffffffffff16021790555060046040518060a001604052806040518060400160405280602081526020017f457863656564696e672070726573637269626564207370656564206c696d697481525081526020016014815260200160328152602001604b81526020016001151581525090806001815401808255809150506001900390600052602060002090600502016000909190919091506000820151816000019080519060200190620000fd929190620004a0565b5060208201518160010155604082015181600201556060820151816003015560808201518160040160006101000a81548160ff021916908315150217905550505060046040518060a001604052806040518060800160405280604b81526020016200399d604b913981526020016000815260200160328152602001604b81526020016001151581525090806001815401808255809150506001900390600052602060002090600502016000909190919091506000820151816000019080519060200190620001cd929190620004a0565b5060208201518160010155604082015181600201556060820151816003015560808201518160040160006101000a81548160ff021916908315150217905550505060046040518060a001604052806040518060600160405280602f8152602001620039e8602f9139815260200160148152602001603281526020016064815260200160011515815250908060018154018082558091505060019003906000526020600020906005020160009091909190915060008201518160000190805190602001906200029d929190620004a0565b5060208201518160010155604082015181600201556060820151816003015560808201518160040160006101000a81548160ff021916908315150217905550505060046040518060a001604052806040518060400160405280601b81526020017f4f7665726c6f6164696e67206120676f6f64732076656869636c6500000000008152508152602001600081526020016032815260200160328152602001600115158152509080600181540180825580915050600190039060005260206000209060050201600090919091909150600082015181600001908051906020019062000389929190620004a0565b5060208201518160010155604082015181600201556060820151816003015560808201518160040160006101000a81548160ff021916908315150217905550505060046040518060a0016040528060405180606001604052806036815260200162003a1760369139815260200160148152602001601e815260200160328152602001600115158152509080600181540180825580915050600190039060005260206000209060050201600090919091909150600082015181600001908051906020019062000459929190620004a0565b5060208201518160010155604082015181600201556060820151816003015560808201518160040160006101000a81548160ff0219169083151502179055505050620005b5565b828054620004ae906200057f565b90600052602060002090601f016020900481019282620004d257600085556200051e565b82601f10620004ed57805160ff19168380011785556200051e565b828001600101855582156200051e579182015b828111156200051d57825182559160200191906001019062000500565b5b5090506200052d919062000531565b5090565b5b808211156200054c57600081600090555060010162000532565b5090565b7f4e487b7100000000000000000000000000000000000000000000000000000000600052602260045260246000fd5b600060028204905060018216806200059857607f821691505b60208210811415620005af57620005ae62000550565b5b50919050565b6133d880620005c56000396000f3fe6080604052600436106101095760003560e01c80636794fa9f11610095578063b4a99a4e11610064578063b4a99a4e1461037e578063e051347b146103a9578063f0661a64146103e6578063f111ea331461040f578063f8a8fd6d1461044c57610109565b80636794fa9f146102cf57806373f13d1d146102eb5780638af5de721461031657806395490de01461034157610109565b80632e2c0aae116100dc5780632e2c0aae146101e857806332fd20cd146102115780633a758ccc1461023a5780633ed70cd5146102635780635c3b0a39146102a457610109565b806301ccde531461010e57806320e2bf85146101375780632b942d5b1461017b5780632be4c289146101a4575b600080fd5b34801561011a57600080fd5b506101356004803603810190610130919061250d565b61046a565b005b34801561014357600080fd5b5061015e60048036038101906101599190612657565b610a01565b6040516101729897969594939291906127c9565b60405180910390f35b34801561018757600080fd5b506101a2600480360381019061019d919061286a565b610d21565b005b3480156101b057600080fd5b506101cb60048036038101906101c69190612897565b610dba565b6040516101df9897969594939291906127c9565b60405180910390f35b3480156101f457600080fd5b5061020f600480360381019061020a919061294e565b6110f7565b005b34801561021d57600080fd5b50610238600480360381019061023391906129d6565b61124c565b005b34801561024657600080fd5b50610261600480360381019061025c919061286a565b611339565b005b34801561026f57600080fd5b5061028a6004803603810190610285919061286a565b6113d2565b60405161029b959493929190612a3d565b60405180910390f35b3480156102b057600080fd5b506102b96114ad565b6040516102c69190612a97565b60405180910390f35b6102e960048036038101906102e49190612ab2565b6114b3565b005b3480156102f757600080fd5b50610300611587565b60405161030d9190612c9f565b60405180910390f35b34801561032257600080fd5b5061032b6116b1565b6040516103389190612a97565b60405180910390f35b34801561034d57600080fd5b5061036860048036038101906103639190612ab2565b6116b7565b6040516103759190612e67565b60405180910390f35b34801561038a57600080fd5b50610393611a85565b6040516103a09190612eca565b60405180910390f35b3480156103b557600080fd5b506103d060048036038101906103cb9190612f11565b611aa9565b6040516103dd9190612f3e565b60405180910390f35b3480156103f257600080fd5b5061040d60048036038101906104089190612f11565b611ac9565b005b34801561041b57600080fd5b5061043660048036038101906104319190612ab2565b611b7c565b6040516104439190613103565b60405180910390f35b610454611f8f565b6040516104619190612a97565b60405180910390f35b6000151560028860405161047e9190613161565b908152602001604051809103902060080160009054906101000a900460ff161515146104a957600080fd5b6000805b83518110156106d057600060058111156104ca576104c9612728565b5b8660058111156104dd576104dc612728565b5b14156105355760048482815181106104f8576104f7613178565b5b60200260200101518154811061051157610510613178565b5b9060005260206000209060050201600101548261052e91906131d6565b91506106bd565b6002600581111561054957610548612728565b5b86600581111561055c5761055b612728565b5b148061058c57506001600581111561057757610576612728565b5b86600581111561058a57610589612728565b5b145b156105e35760048482815181106105a6576105a5613178565b5b6020026020010151815481106105bf576105be613178565b5b906000526020600020906005020160020154826105dc91906131d6565b91506106bc565b600360058111156105f7576105f6612728565b5b86600581111561060a57610609612728565b5b148061063a57506004600581111561062557610624612728565b5b86600581111561063857610637612728565b5b145b80610668575060058081111561065357610652612728565b5b86600581111561066657610665612728565b5b145b156106bb57600484828151811061068257610681613178565b5b60200260200101518154811061069b5761069a613178565b5b906000526020600020906005020160030154826106b891906131d6565b91505b5b5b80806106c89061322c565b9150506104ad565b5060405180610120016040528089815260200188815260200187815260200186600581111561070257610701612728565b5b8152602001858152602001848152602001838152602001828152602001600115158152506002896040516107369190613161565b908152602001604051809103902060008201518160000190805190602001906107609291906120df565b50602082015181600101908051906020019061077d9291906120df565b50604082015181600201908051906020019061079a9291906120df565b5060608201518160030160006101000a81548160ff021916908360058111156107c6576107c5612728565b5b021790555060808201518160040190805190602001906107e79291906120df565b5060a0820151816005019080519060200190610804929190612165565b5060c08201518160060190805190602001906108219291906120df565b5060e082015181600701556101008201518160080160006101000a81548160ff0219169083151502179055509050506001886040516108609190613161565b90815260200160405180910390206040518061012001604052808a815260200189815260200188815260200187600581111561089f5761089e612728565b5b815260200186815260200185815260200184815260200183815260200160011515815250908060018154018082558091505060019003906000526020600020906009020160009091909190915060008201518160000190805190602001906109089291906120df565b5060208201518160010190805190602001906109259291906120df565b5060408201518160020190805190602001906109429291906120df565b5060608201518160030160006101000a81548160ff0219169083600581111561096e5761096d612728565b5b0217905550608082015181600401908051906020019061098f9291906120df565b5060a08201518160050190805190602001906109ac929190612165565b5060c08201518160060190805190602001906109c99291906120df565b5060e082015181600701556101008201518160080160006101000a81548160ff02191690831515021790555050505050505050505050565b600281805160208101820180518482526020830160208501208183528095505050505050600091509050806000018054610a3a906132a4565b80601f0160208091040260200160405190810160405280929190818152602001828054610a66906132a4565b8015610ab35780601f10610a8857610100808354040283529160200191610ab3565b820191906000526020600020905b815481529060010190602001808311610a9657829003601f168201915b505050505090806001018054610ac8906132a4565b80601f0160208091040260200160405190810160405280929190818152602001828054610af4906132a4565b8015610b415780601f10610b1657610100808354040283529160200191610b41565b820191906000526020600020905b815481529060010190602001808311610b2457829003601f168201915b505050505090806002018054610b56906132a4565b80601f0160208091040260200160405190810160405280929190818152602001828054610b82906132a4565b8015610bcf5780601f10610ba457610100808354040283529160200191610bcf565b820191906000526020600020905b815481529060010190602001808311610bb257829003601f168201915b5050505050908060030160009054906101000a900460ff1690806004018054610bf7906132a4565b80601f0160208091040260200160405190810160405280929190818152602001828054610c23906132a4565b8015610c705780601f10610c4557610100808354040283529160200191610c70565b820191906000526020600020905b815481529060010190602001808311610c5357829003601f168201915b505050505090806006018054610c85906132a4565b80601f0160208091040260200160405190810160405280929190818152602001828054610cb1906132a4565b8015610cfe5780601f10610cd357610100808354040283529160200191610cfe565b820191906000526020600020905b815481529060010190602001808311610ce157829003601f168201915b5050505050908060070154908060080160009054906101000a900460ff16905088565b60008054906101000a900473ffffffffffffffffffffffffffffffffffffffff1673ffffffffffffffffffffffffffffffffffffffff163373ffffffffffffffffffffffffffffffffffffffff1614610d7957600080fd5b600160048281548110610d8f57610d8e613178565b5b906000526020600020906005020160040160006101000a81548160ff02191690831515021790555050565b6001828051602081018201805184825260208301602085012081835280955050505050508181548110610dec57600080fd5b906000526020600020906009020160009150915050806000018054610e10906132a4565b80601f0160208091040260200160405190810160405280929190818152602001828054610e3c906132a4565b8015610e895780601f10610e5e57610100808354040283529160200191610e89565b820191906000526020600020905b815481529060010190602001808311610e6c57829003601f168201915b505050505090806001018054610e9e906132a4565b80601f0160208091040260200160405190810160405280929190818152602001828054610eca906132a4565b8015610f175780601f10610eec57610100808354040283529160200191610f17565b820191906000526020600020905b815481529060010190602001808311610efa57829003601f168201915b505050505090806002018054610f2c906132a4565b80601f0160208091040260200160405190810160405280929190818152602001828054610f58906132a4565b8015610fa55780601f10610f7a57610100808354040283529160200191610fa5565b820191906000526020600020905b815481529060010190602001808311610f8857829003601f168201915b5050505050908060030160009054906101000a900460ff1690806004018054610fcd906132a4565b80601f0160208091040260200160405190810160405280929190818152602001828054610ff9906132a4565b80156110465780601f1061101b57610100808354040283529160200191611046565b820191906000526020600020905b81548152906001019060200180831161102957829003601f168201915b50505050509080600601805461105b906132a4565b80601f0160208091040260200160405190810160405280929190818152602001828054611087906132a4565b80156110d45780601f106110a9576101008083540402835291602001916110d4565b820191906000526020600020905b8154815290600101906020018083116110b757829003601f168201915b5050505050908060070154908060080160009054906101000a900460ff16905088565b60008054906101000a900473ffffffffffffffffffffffffffffffffffffffff1673ffffffffffffffffffffffffffffffffffffffff163373ffffffffffffffffffffffffffffffffffffffff161461114f57600080fd5b60046040518060a0016040528087878080601f016020809104026020016040519081016040528093929190818152602001838380828437600081840152601f19601f82011690508083019250505050505050815260200185815260200184815260200183815260200160011515815250908060018154018082558091505060019003906000526020600020906005020160009091909190915060008201518160000190805190602001906112049291906120df565b5060208201518160010155604082015181600201556060820151816003015560808201518160040160006101000a81548160ff02191690831515021790555050505050505050565b60008054906101000a900473ffffffffffffffffffffffffffffffffffffffff1673ffffffffffffffffffffffffffffffffffffffff163373ffffffffffffffffffffffffffffffffffffffff16146112a457600080fd5b60048054905084106112b557600080fd5b82600485815481106112ca576112c9613178565b5b90600052602060002090600502016001018190555081600485815481106112f4576112f3613178565b5b906000526020600020906005020160020181905550806004858154811061131e5761131d613178565b5b90600052602060002090600502016003018190555050505050565b60008054906101000a900473ffffffffffffffffffffffffffffffffffffffff1673ffffffffffffffffffffffffffffffffffffffff163373ffffffffffffffffffffffffffffffffffffffff161461139157600080fd5b6000600482815481106113a7576113a6613178565b5b906000526020600020906005020160040160006101000a81548160ff02191690831515021790555050565b600481815481106113e257600080fd5b9060005260206000209060050201600091509050806000018054611405906132a4565b80601f0160208091040260200160405190810160405280929190818152602001828054611431906132a4565b801561147e5780601f106114535761010080835404028352916020019161147e565b820191906000526020600020905b81548152906001019060200180831161146157829003601f168201915b5050505050908060010154908060020154908060030154908060040160009054906101000a900460ff16905085565b60065481565b60011515600283836040516114c99291906132fb565b908152602001604051809103902060080160009054906101000a900460ff161515146114f457600080fd5b670de0b6b3a76400006002838360405161150f9291906132fb565b90815260200160405180910390206007015461152b9190613314565b341461153657600080fd5b61158382828080601f016020809104026020016040519081016040528093929190818152602001838380828437600081840152601f19601f82011690508083019250505050505050611f9e565b5050565b60606004805480602002602001604051908101604052809291908181526020016000905b828210156116a857838290600052602060002090600502016040518060a00160405290816000820180546115de906132a4565b80601f016020809104026020016040519081016040528092919081815260200182805461160a906132a4565b80156116575780601f1061162c57610100808354040283529160200191611657565b820191906000526020600020905b81548152906001019060200180831161163a57829003601f168201915b505050505081526020016001820154815260200160028201548152602001600382015481526020016004820160009054906101000a900460ff161515151581525050815260200190600101906115ab565b50505050905090565b60055481565b6116bf6121b2565b600283836040516116d19291906132fb565b9081526020016040518091039020604051806101200160405290816000820180546116fb906132a4565b80601f0160208091040260200160405190810160405280929190818152602001828054611727906132a4565b80156117745780601f1061174957610100808354040283529160200191611774565b820191906000526020600020905b81548152906001019060200180831161175757829003601f168201915b5050505050815260200160018201805461178d906132a4565b80601f01602080910402602001604051908101604052809291908181526020018280546117b9906132a4565b80156118065780601f106117db57610100808354040283529160200191611806565b820191906000526020600020905b8154815290600101906020018083116117e957829003601f168201915b5050505050815260200160028201805461181f906132a4565b80601f016020809104026020016040519081016040528092919081815260200182805461184b906132a4565b80156118985780601f1061186d57610100808354040283529160200191611898565b820191906000526020600020905b81548152906001019060200180831161187b57829003601f168201915b505050505081526020016003820160009054906101000a900460ff1660058111156118c6576118c5612728565b5b60058111156118d8576118d7612728565b5b81526020016004820180546118ec906132a4565b80601f0160208091040260200160405190810160405280929190818152602001828054611918906132a4565b80156119655780601f1061193a57610100808354040283529160200191611965565b820191906000526020600020905b81548152906001019060200180831161194857829003601f168201915b50505050508152602001600582018054806020026020016040519081016040528092919081815260200182805480156119bd57602002820191906000526020600020905b8154815260200190600101908083116119a9575b505050505081526020016006820180546119d6906132a4565b80601f0160208091040260200160405190810160405280929190818152602001828054611a02906132a4565b8015611a4f5780601f10611a2457610100808354040283529160200191611a4f565b820191906000526020600020905b815481529060010190602001808311611a3257829003601f168201915b50505050508152602001600782015481526020016008820160009054906101000a900460ff161515151581525050905092915050565b60008054906101000a900473ffffffffffffffffffffffffffffffffffffffff1681565b60036020528060005260406000206000915054906101000a900460ff1681565b60008054906101000a900473ffffffffffffffffffffffffffffffffffffffff1673ffffffffffffffffffffffffffffffffffffffff163373ffffffffffffffffffffffffffffffffffffffff1614611b2157600080fd5b6001600360008373ffffffffffffffffffffffffffffffffffffffff1673ffffffffffffffffffffffffffffffffffffffff16815260200190815260200160002060006101000a81548160ff02191690831515021790555050565b606060018383604051611b909291906132fb565b9081526020016040518091039020805480602002602001604051908101604052809291908181526020016000905b82821015611f83578382906000526020600020906009020160405180610120016040529081600082018054611bf2906132a4565b80601f0160208091040260200160405190810160405280929190818152602001828054611c1e906132a4565b8015611c6b5780601f10611c4057610100808354040283529160200191611c6b565b820191906000526020600020905b815481529060010190602001808311611c4e57829003601f168201915b50505050508152602001600182018054611c84906132a4565b80601f0160208091040260200160405190810160405280929190818152602001828054611cb0906132a4565b8015611cfd5780601f10611cd257610100808354040283529160200191611cfd565b820191906000526020600020905b815481529060010190602001808311611ce057829003601f168201915b50505050508152602001600282018054611d16906132a4565b80601f0160208091040260200160405190810160405280929190818152602001828054611d42906132a4565b8015611d8f5780601f10611d6457610100808354040283529160200191611d8f565b820191906000526020600020905b815481529060010190602001808311611d7257829003601f168201915b505050505081526020016003820160009054906101000a900460ff166005811115611dbd57611dbc612728565b5b6005811115611dcf57611dce612728565b5b8152602001600482018054611de3906132a4565b80601f0160208091040260200160405190810160405280929190818152602001828054611e0f906132a4565b8015611e5c5780601f10611e3157610100808354040283529160200191611e5c565b820191906000526020600020905b815481529060010190602001808311611e3f57829003601f168201915b5050505050815260200160058201805480602002602001604051908101604052809291908181526020018280548015611eb457602002820191906000526020600020905b815481526020019060010190808311611ea0575b50505050508152602001600682018054611ecd906132a4565b80601f0160208091040260200160405190810160405280929190818152602001828054611ef9906132a4565b8015611f465780601f10611f1b57610100808354040283529160200191611f46565b820191906000526020600020905b815481529060010190602001808311611f2957829003601f168201915b50505050508152602001600782015481526020016008820160009054906101000a900460ff16151515158152505081526020019060010190611bbe565b50505050905092915050565b60003460058190555034905090565b6000600182604051611fb09190613161565b90815260200160405180910390208054905090506000600183604051611fd69190613161565b9081526020016040518091039020600183611ff1919061336e565b8154811061200257612001613178565b5b906000526020600020906009020160080160006101000a81548160ff02191690831515021790555060028260405161203a9190613161565b9081526020016040518091039020600080820160006120599190612212565b6001820160006120699190612212565b6002820160006120799190612212565b6003820160006101000a81549060ff021916905560048201600061209d9190612212565b6005820160006120ad9190612252565b6006820160006120bd9190612212565b60078201600090556008820160006101000a81549060ff021916905550505050565b8280546120eb906132a4565b90600052602060002090601f01602090048101928261210d5760008555612154565b82601f1061212657805160ff1916838001178555612154565b82800160010185558215612154579182015b82811115612153578251825591602001919060010190612138565b5b5090506121619190612273565b5090565b8280548282559060005260206000209081019282156121a1579160200282015b828111156121a0578251825591602001919060010190612185565b5b5090506121ae9190612273565b5090565b604051806101200160405280606081526020016060815260200160608152602001600060058111156121e7576121e6612728565b5b8152602001606081526020016060815260200160608152602001600081526020016000151581525090565b50805461221e906132a4565b6000825580601f10612230575061224f565b601f01602090049060005260206000209081019061224e9190612273565b5b50565b50805460008255906000526020600020908101906122709190612273565b50565b5b8082111561228c576000816000905550600101612274565b5090565b6000604051905090565b600080fd5b600080fd5b600080fd5b600080fd5b6000601f19601f8301169050919050565b7f4e487b7100000000000000000000000000000000000000000000000000000000600052604160045260246000fd5b6122f7826122ae565b810181811067ffffffffffffffff82111715612316576123156122bf565b5b80604052505050565b6000612329612290565b905061233582826122ee565b919050565b600067ffffffffffffffff821115612355576123546122bf565b5b61235e826122ae565b9050602081019050919050565b82818337600083830152505050565b600061238d6123888461233a565b61231f565b9050828152602081018484840111156123a9576123a86122a9565b5b6123b484828561236b565b509392505050565b600082601f8301126123d1576123d06122a4565b5b81356123e184826020860161237a565b91505092915050565b600681106123f757600080fd5b50565b600081359050612409816123ea565b92915050565b600067ffffffffffffffff82111561242a576124296122bf565b5b602082029050602081019050919050565b600080fd5b6000819050919050565b61245381612440565b811461245e57600080fd5b50565b6000813590506124708161244a565b92915050565b60006124896124848461240f565b61231f565b905080838252602082019050602084028301858111156124ac576124ab61243b565b5b835b818110156124d557806124c18882612461565b8452602084019350506020810190506124ae565b5050509392505050565b600082601f8301126124f4576124f36122a4565b5b8135612504848260208601612476565b91505092915050565b600080600080600080600060e0888a03121561252c5761252b61229a565b5b600088013567ffffffffffffffff81111561254a5761254961229f565b5b6125568a828b016123bc565b975050602088013567ffffffffffffffff8111156125775761257661229f565b5b6125838a828b016123bc565b965050604088013567ffffffffffffffff8111156125a4576125a361229f565b5b6125b08a828b016123bc565b95505060606125c18a828b016123fa565b945050608088013567ffffffffffffffff8111156125e2576125e161229f565b5b6125ee8a828b016123bc565b93505060a088013567ffffffffffffffff81111561260f5761260e61229f565b5b61261b8a828b016124df565b92505060c088013567ffffffffffffffff81111561263c5761263b61229f565b5b6126488a828b016123bc565b91505092959891949750929550565b60006020828403121561266d5761266c61229a565b5b600082013567ffffffffffffffff81111561268b5761268a61229f565b5b612697848285016123bc565b91505092915050565b600081519050919050565b600082825260208201905092915050565b60005b838110156126da5780820151818401526020810190506126bf565b838111156126e9576000848401525b50505050565b60006126fa826126a0565b61270481856126ab565b93506127148185602086016126bc565b61271d816122ae565b840191505092915050565b7f4e487b7100000000000000000000000000000000000000000000000000000000600052602160045260246000fd5b6006811061276857612767612728565b5b50565b600081905061277982612757565b919050565b60006127898261276b565b9050919050565b6127998161277e565b82525050565b6127a881612440565b82525050565b60008115159050919050565b6127c3816127ae565b82525050565b60006101008201905081810360008301526127e4818b6126ef565b905081810360208301526127f8818a6126ef565b9050818103604083015261280c81896126ef565b905061281b6060830188612790565b818103608083015261282d81876126ef565b905081810360a083015261284181866126ef565b905061285060c083018561279f565b61285d60e08301846127ba565b9998505050505050505050565b6000602082840312156128805761287f61229a565b5b600061288e84828501612461565b91505092915050565b600080604083850312156128ae576128ad61229a565b5b600083013567ffffffffffffffff8111156128cc576128cb61229f565b5b6128d8858286016123bc565b92505060206128e985828601612461565b9150509250929050565b600080fd5b60008083601f84011261290e5761290d6122a4565b5b8235905067ffffffffffffffff81111561292b5761292a6128f3565b5b6020830191508360018202830111156129475761294661243b565b5b9250929050565b60008060008060006080868803121561296a5761296961229a565b5b600086013567ffffffffffffffff8111156129885761298761229f565b5b612994888289016128f8565b955095505060206129a788828901612461565b93505060406129b888828901612461565b92505060606129c988828901612461565b9150509295509295909350565b600080600080608085870312156129f0576129ef61229a565b5b60006129fe87828801612461565b9450506020612a0f87828801612461565b9350506040612a2087828801612461565b9250506060612a3187828801612461565b91505092959194509250565b600060a0820190508181036000830152612a5781886126ef565b9050612a66602083018761279f565b612a73604083018661279f565b612a80606083018561279f565b612a8d60808301846127ba565b9695505050505050565b6000602082019050612aac600083018461279f565b92915050565b60008060208385031215612ac957612ac861229a565b5b600083013567ffffffffffffffff811115612ae757612ae661229f565b5b612af3858286016128f8565b92509250509250929050565b600081519050919050565b600082825260208201905092915050565b6000819050602082019050919050565b600082825260208201905092915050565b6000612b47826126a0565b612b518185612b2b565b9350612b618185602086016126bc565b612b6a816122ae565b840191505092915050565b612b7e81612440565b82525050565b612b8d816127ae565b82525050565b600060a0830160008301518482036000860152612bb08282612b3c565b9150506020830151612bc56020860182612b75565b506040830151612bd86040860182612b75565b506060830151612beb6060860182612b75565b506080830151612bfe6080860182612b84565b508091505092915050565b6000612c158383612b93565b905092915050565b6000602082019050919050565b6000612c3582612aff565b612c3f8185612b0a565b935083602082028501612c5185612b1b565b8060005b85811015612c8d5784840389528151612c6e8582612c09565b9450612c7983612c1d565b925060208a01995050600181019050612c55565b50829750879550505050505092915050565b60006020820190508181036000830152612cb98184612c2a565b905092915050565b612cca8161277e565b82525050565b600081519050919050565b600082825260208201905092915050565b6000819050602082019050919050565b6000612d088383612b75565b60208301905092915050565b6000602082019050919050565b6000612d2c82612cd0565b612d368185612cdb565b9350612d4183612cec565b8060005b83811015612d72578151612d598882612cfc565b9750612d6483612d14565b925050600181019050612d45565b5085935050505092915050565b6000610120830160008301518482036000860152612d9d8282612b3c565b91505060208301518482036020860152612db78282612b3c565b91505060408301518482036040860152612dd18282612b3c565b9150506060830151612de66060860182612cc1565b5060808301518482036080860152612dfe8282612b3c565b91505060a083015184820360a0860152612e188282612d21565b91505060c083015184820360c0860152612e328282612b3c565b91505060e0830151612e4760e0860182612b75565b50610100830151612e5c610100860182612b84565b508091505092915050565b60006020820190508181036000830152612e818184612d7f565b905092915050565b600073ffffffffffffffffffffffffffffffffffffffff82169050919050565b6000612eb482612e89565b9050919050565b612ec481612ea9565b82525050565b6000602082019050612edf6000830184612ebb565b92915050565b612eee81612ea9565b8114612ef957600080fd5b50565b600081359050612f0b81612ee5565b92915050565b600060208284031215612f2757612f2661229a565b5b6000612f3584828501612efc565b91505092915050565b6000602082019050612f5360008301846127ba565b92915050565b600081519050919050565b600082825260208201905092915050565b6000819050602082019050919050565b6000610120830160008301518482036000860152612fa38282612b3c565b91505060208301518482036020860152612fbd8282612b3c565b91505060408301518482036040860152612fd78282612b3c565b9150506060830151612fec6060860182612cc1565b50608083015184820360808601526130048282612b3c565b91505060a083015184820360a086015261301e8282612d21565b91505060c083015184820360c08601526130388282612b3c565b91505060e083015161304d60e0860182612b75565b50610100830151613062610100860182612b84565b508091505092915050565b60006130798383612f85565b905092915050565b6000602082019050919050565b600061309982612f59565b6130a38185612f64565b9350836020820285016130b585612f75565b8060005b858110156130f157848403895281516130d2858261306d565b94506130dd83613081565b925060208a019950506001810190506130b9565b50829750879550505050505092915050565b6000602082019050818103600083015261311d818461308e565b905092915050565b600081905092915050565b600061313b826126a0565b6131458185613125565b93506131558185602086016126bc565b80840191505092915050565b600061316d8284613130565b915081905092915050565b7f4e487b7100000000000000000000000000000000000000000000000000000000600052603260045260246000fd5b7f4e487b7100000000000000000000000000000000000000000000000000000000600052601160045260246000fd5b60006131e182612440565b91506131ec83612440565b9250827fffffffffffffffffffffffffffffffffffffffffffffffffffffffffffffffff03821115613221576132206131a7565b5b828201905092915050565b600061323782612440565b91507fffffffffffffffffffffffffffffffffffffffffffffffffffffffffffffffff82141561326a576132696131a7565b5b600182019050919050565b7f4e487b7100000000000000000000000000000000000000000000000000000000600052602260045260246000fd5b600060028204905060018216806132bc57607f821691505b602082108114156132d0576132cf613275565b5b50919050565b60006132e28385613125565b93506132ef83858461236b565b82840190509392505050565b60006133088284866132d6565b91508190509392505050565b600061331f82612440565b915061332a83612440565b9250817fffffffffffffffffffffffffffffffffffffffffffffffffffffffffffffffff0483118215151615613363576133626131a7565b5b828202905092915050565b600061337982612440565b915061338483612440565b925082821015613397576133966131a7565b5b82820390509291505056fea26469706673582212207be4bae44823e65cc5886ba03f59466e86f953b413802c7e2ec88ddc5ad9949a64736f6c634300080a00334361727279696e672070617373656e6765727320696e2061207075626c696320736572766963652076656869636c6520657863656564696e67207065726d69737369626c65206c696d697456696f6c6174696f6e206f662074726166666963207369676e616c7328456c656374726f6e69632f4d616e75616c2944726976696e672061206d6f746f722076656869636c65206174206e6967687420776974686f75742070726f706572206c6967687473",
  "immutableReferences": {},
  "source": "// SPDX-License-Identifier: MIT\r\npragma solidity >=0.4.22 <0.9.0;\r\n\r\ncontract ChallanSystem{\r\n    enum VehicleType {Motorcycle,Motorcar,Jeep,PublicServiceVehicle,PrivateCarrier,PublicCarrier}\r\n\r\n    struct Challan{\r\n    string LicenseID; //license id of citizen\r\n    string CitizenName; \r\n    string CitizenCNIC;\r\n    VehicleType CarType; \r\n    string CarNumberPlate;\r\n    uint[] VoilationCode;  //------list of voilated rules\r\n    string timeStamp;\r\n    uint Fine;\r\n    bool status;\r\n    }\r\n\r\n    struct VoilationRule{\r\n    string Description; //description of the rule\r\n    uint ACategoryVehicle_Fine;   //includes motorcycle\r\n    uint BCategoryVehicle_Fine;  //includes Motorcar,Jeep,\r\n    uint CCategoryVehicle_Fine; //includes PrivateCarrier,PublicCarrier\r\n    bool status;\r\n    }\r\n\r\n    address public Owner; //adminstrator who manages who can add challan etc.\r\n    mapping(string=>Challan[]) public ChallanHistory; //use to store all previous challans of citizens\r\n    mapping(string=>Challan) public ActiveChallan;  //use to store current active challans of citizen\r\n    mapping(address=>bool) public TP; //mapping for traffic police(TP) , who can add Challan\r\n    VoilationRule[] public RuleList; //list of traffic rules\r\n\r\n    uint public testValue;\r\n    uint public testStatus;\r\n\r\n    constructor(){\r\n        Owner=msg.sender;\r\n        \r\n        RuleList.push(VoilationRule(\"Exceeding prescribed speed limit\",20,50,75,true));\r\n        RuleList.push(VoilationRule(\"Carrying passengers in a public service vehicle exceeding permissible limit\",0,50,75,true));\r\n        RuleList.push(VoilationRule(\"Violation of traffic signals(Electronic/Manual)\",20,50,100,true));\r\n        RuleList.push(VoilationRule(\"Overloading a goods vehicle\",0,50,50,true));\r\n        RuleList.push(VoilationRule(\"Driving a motor vehicle at night without proper lights\",20,30,50,true));\r\n        //append all rules in the start of the application\r\n    }\r\n\r\n////////////////////////////////////////////////////////////////functions related to admin\r\n    function addTrafficPolice(address _TP) public{//add traffic police who can add challans\r\n        require(msg.sender==Owner);\r\n        TP[_TP]=true;\r\n    }\r\n\r\n    function addTrafficRule(string calldata _description,uint _Afine,uint _Bfine,uint _Cfine) public{  \r\n        require(msg.sender==Owner);\r\n        RuleList.push(VoilationRule(_description,_Afine,_Bfine,_Cfine,true));\r\n    }\r\n\r\n    function updatePriceForRule(uint _ruleID,uint _Afine,uint _Bfine,uint _Cfine) public{ //update price of rule by giving its rule code \r\n        require(msg.sender==Owner);\r\n        require(_ruleID<(RuleList.length));\r\n        RuleList[_ruleID]. ACategoryVehicle_Fine=_Afine;\r\n        RuleList[_ruleID]. BCategoryVehicle_Fine=_Bfine;\r\n        RuleList[_ruleID]. CCategoryVehicle_Fine=_Cfine;\r\n    }\r\n\r\n    \r\n    function deactivateRule(uint _ruleID) public{\r\n        require(msg.sender==Owner);\r\n        RuleList[_ruleID].status=false;\r\n    }\r\n\r\n    function activateRule(uint _ruleID) public{\r\n        require(msg.sender==Owner);\r\n        RuleList[_ruleID].status=true;\r\n    } \r\n\r\n    //////////////////////////////////////////////////////////////////////////////////////////////////////////\r\n\r\n    function deleteActiveChallan(string memory _LicenseID) internal { //removes user from active challan\r\n        uint length=ChallanHistory[_LicenseID].length;\r\n        ChallanHistory[_LicenseID][length-1].status=false; //change status in its list of challans\r\n        delete ActiveChallan[_LicenseID];\r\n    }\r\n\r\n    function addChallan(string memory _LicenseID,string memory _Name,string memory _CNIC,VehicleType _CarType,string memory _carPlate,uint[] memory _voilatedRules,string memory _timeStamp) public{\r\n        // require(TP[msg.sender]==true); //only filled by traffic police officer\r\n        require(ActiveChallan[_LicenseID].status==false);\r\n        uint VoilationFee=0;\r\n        for(uint i=0;i<_voilatedRules.length;i++){\r\n            if(_CarType==VehicleType.Motorcycle){\r\n                VoilationFee+=RuleList[_voilatedRules[i]].ACategoryVehicle_Fine;\r\n            }else if(_CarType==VehicleType.Jeep || _CarType==VehicleType.Motorcar){\r\n                VoilationFee+=RuleList[_voilatedRules[i]].BCategoryVehicle_Fine;\r\n            }else if(_CarType==VehicleType.PublicServiceVehicle || _CarType==VehicleType.PrivateCarrier || _CarType==VehicleType.PublicCarrier){\r\n                VoilationFee+=RuleList[_voilatedRules[i]].CCategoryVehicle_Fine;\r\n            }\r\n        }\r\n        ActiveChallan[_LicenseID]=Challan(_LicenseID,_Name,_CNIC,_CarType,_carPlate,_voilatedRules,_timeStamp,VoilationFee,true);\r\n        ChallanHistory[_LicenseID].push(Challan(_LicenseID,_Name,_CNIC,_CarType,_carPlate,_voilatedRules,_timeStamp,VoilationFee,true));\r\n        \r\n    }\r\n\r\n\r\n    function getCurrentChallan(string calldata _LicenseID) public view returns(Challan memory){\r\n        return ActiveChallan[_LicenseID];\r\n    }\r\n\r\n    function getAllChallan(string calldata _LicenseID) public view returns(Challan[] memory){\r\n        return ChallanHistory[_LicenseID];\r\n    }\r\n\r\n    function getTrafficRules() public view returns(VoilationRule[] memory){\r\n        return RuleList;\r\n    }\r\n\r\n    function test() public payable returns(uint){\r\n        testValue=msg.value;\r\n        return msg.value;\r\n    }\r\n\r\n    function payChallan(string calldata _LicenseID) public payable{\r\n        require(ActiveChallan[_LicenseID].status==true);\r\n        require(msg.value==(ActiveChallan[_LicenseID].Fine*1e18));  //uint tempo=n*1e18;  //equivalent to n ether\r\n        deleteActiveChallan(_LicenseID);\r\n    }\r\n}",
  "sourcePath": "F:\\BL project\\contracts\\ChallanSystem.sol",
  "compiler": {
    "name": "solc",
    "version": "0.8.10+commit.fc410830.Emscripten.clang"
  },
  "schemaVersion": "3.4.3",
  "updatedAt": "2021-12-19T23:08:41.063Z",
  "networkType": "ethereum",
  "devdoc": {
    "kind": "dev",
    "methods": {},
    "version": 1
  },
  "userdoc": {
    "kind": "user",
    "methods": {},
    "version": 1
  }
}