{
  "contractName": "Final11",
  "abi": [
    {
      "inputs": [],
      "stateMutability": "nonpayable",
      "type": "constructor"
    },
    {
      "inputs": [
        {
          "internalType": "string",
          "name": "",
          "type": "string"
        }
      ],
      "name": "ActiveChallan",
      "outputs": [
        {
          "internalType": "string",
          "name": "LicenseID",
          "type": "string"
        },
        {
          "internalType": "string",
          "name": "CitizenName",
          "type": "string"
        },
        {
          "internalType": "string",
          "name": "CitizenCNIC",
          "type": "string"
        },
        {
          "internalType": "enum Final11.VehicleType",
          "name": "CarType",
          "type": "uint8"
        },
        {
          "internalType": "string",
          "name": "CarNumberPlate",
          "type": "string"
        },
        {
          "internalType": "string",
          "name": "timeStamp",
          "type": "string"
        },
        {
          "internalType": "uint256",
          "name": "Fine",
          "type": "uint256"
        },
        {
          "internalType": "bool",
          "name": "status",
          "type": "bool"
        }
      ],
      "stateMutability": "view",
      "type": "function"
    },
    {
      "inputs": [
        {
          "internalType": "string",
          "name": "",
          "type": "string"
        },
        {
          "internalType": "uint256",
          "name": "",
          "type": "uint256"
        }
      ],
      "name": "ChallanHistory",
      "outputs": [
        {
          "internalType": "string",
          "name": "LicenseID",
          "type": "string"
        },
        {
          "internalType": "string",
          "name": "CitizenName",
          "type": "string"
        },
        {
          "internalType": "string",
          "name": "CitizenCNIC",
          "type": "string"
        },
        {
          "internalType": "enum Final11.VehicleType",
          "name": "CarType",
          "type": "uint8"
        },
        {
          "internalType": "string",
          "name": "CarNumberPlate",
          "type": "string"
        },
        {
          "internalType": "string",
          "name": "timeStamp",
          "type": "string"
        },
        {
          "internalType": "uint256",
          "name": "Fine",
          "type": "uint256"
        },
        {
          "internalType": "bool",
          "name": "status",
          "type": "bool"
        }
      ],
      "stateMutability": "view",
      "type": "function"
    },
    {
      "inputs": [],
      "name": "Owner",
      "outputs": [
        {
          "internalType": "address",
          "name": "",
          "type": "address"
        }
      ],
      "stateMutability": "view",
      "type": "function"
    },
    {
      "inputs": [
        {
          "internalType": "uint256",
          "name": "",
          "type": "uint256"
        }
      ],
      "name": "RuleList",
      "outputs": [
        {
          "internalType": "string",
          "name": "Description",
          "type": "string"
        },
        {
          "internalType": "uint256",
          "name": "ACategoryVehicle_Fine",
          "type": "uint256"
        },
        {
          "internalType": "uint256",
          "name": "BCategoryVehicle_Fine",
          "type": "uint256"
        },
        {
          "internalType": "uint256",
          "name": "CCategoryVehicle_Fine",
          "type": "uint256"
        },
        {
          "internalType": "bool",
          "name": "status",
          "type": "bool"
        }
      ],
      "stateMutability": "view",
      "type": "function"
    },
    {
      "inputs": [
        {
          "internalType": "address",
          "name": "",
          "type": "address"
        }
      ],
      "name": "TP",
      "outputs": [
        {
          "internalType": "bool",
          "name": "",
          "type": "bool"
        }
      ],
      "stateMutability": "view",
      "type": "function"
    },
    {
      "inputs": [],
      "name": "testStatus",
      "outputs": [
        {
          "internalType": "uint256",
          "name": "",
          "type": "uint256"
        }
      ],
      "stateMutability": "view",
      "type": "function"
    },
    {
      "inputs": [],
      "name": "testValue",
      "outputs": [
        {
          "internalType": "uint256",
          "name": "",
          "type": "uint256"
        }
      ],
      "stateMutability": "view",
      "type": "function"
    },
    {
      "inputs": [
        {
          "internalType": "address",
          "name": "_TP",
          "type": "address"
        }
      ],
      "name": "addTrafficPolice",
      "outputs": [],
      "stateMutability": "nonpayable",
      "type": "function"
    },
    {
      "inputs": [
        {
          "internalType": "string",
          "name": "_description",
          "type": "string"
        },
        {
          "internalType": "uint256",
          "name": "_Afine",
          "type": "uint256"
        },
        {
          "internalType": "uint256",
          "name": "_Bfine",
          "type": "uint256"
        },
        {
          "internalType": "uint256",
          "name": "_Cfine",
          "type": "uint256"
        }
      ],
      "name": "addTrafficRule",
      "outputs": [],
      "stateMutability": "nonpayable",
      "type": "function"
    },
    {
      "inputs": [
        {
          "internalType": "uint256",
          "name": "_ruleID",
          "type": "uint256"
        },
        {
          "internalType": "uint256",
          "name": "_Afine",
          "type": "uint256"
        },
        {
          "internalType": "uint256",
          "name": "_Bfine",
          "type": "uint256"
        },
        {
          "internalType": "uint256",
          "name": "_Cfine",
          "type": "uint256"
        }
      ],
      "name": "updatePriceForRule",
      "outputs": [],
      "stateMutability": "nonpayable",
      "type": "function"
    },
    {
      "inputs": [
        {
          "internalType": "uint256",
          "name": "_ruleID",
          "type": "uint256"
        }
      ],
      "name": "deactivateRule",
      "outputs": [],
      "stateMutability": "nonpayable",
      "type": "function"
    },
    {
      "inputs": [
        {
          "internalType": "uint256",
          "name": "_ruleID",
          "type": "uint256"
        }
      ],
      "name": "activateRule",
      "outputs": [],
      "stateMutability": "nonpayable",
      "type": "function"
    },
    {
      "inputs": [
        {
          "internalType": "string",
          "name": "_LicenseID",
          "type": "string"
        },
        {
          "internalType": "string",
          "name": "_Name",
          "type": "string"
        },
        {
          "internalType": "string",
          "name": "_CNIC",
          "type": "string"
        },
        {
          "internalType": "enum Final11.VehicleType",
          "name": "_CarType",
          "type": "uint8"
        },
        {
          "internalType": "string",
          "name": "_carPlate",
          "type": "string"
        },
        {
          "internalType": "uint256[]",
          "name": "_voilatedRules",
          "type": "uint256[]"
        },
        {
          "internalType": "string",
          "name": "_timeStamp",
          "type": "string"
        }
      ],
      "name": "addChallan",
      "outputs": [],
      "stateMutability": "nonpayable",
      "type": "function"
    },
    {
      "inputs": [
        {
          "internalType": "string",
          "name": "_LicenseID",
          "type": "string"
        }
      ],
      "name": "getCurrentChallan",
      "outputs": [
        {
          "components": [
            {
              "internalType": "string",
              "name": "LicenseID",
              "type": "string"
            },
            {
              "internalType": "string",
              "name": "CitizenName",
              "type": "string"
            },
            {
              "internalType": "string",
              "name": "CitizenCNIC",
              "type": "string"
            },
            {
              "internalType": "enum Final11.VehicleType",
              "name": "CarType",
              "type": "uint8"
            },
            {
              "internalType": "string",
              "name": "CarNumberPlate",
              "type": "string"
            },
            {
              "internalType": "uint256[]",
              "name": "VoilationCode",
              "type": "uint256[]"
            },
            {
              "internalType": "string",
              "name": "timeStamp",
              "type": "string"
            },
            {
              "internalType": "uint256",
              "name": "Fine",
              "type": "uint256"
            },
            {
              "internalType": "bool",
              "name": "status",
              "type": "bool"
            }
          ],
          "internalType": "struct Final11.Challan",
          "name": "",
          "type": "tuple"
        }
      ],
      "stateMutability": "view",
      "type": "function"
    },
    {
      "inputs": [
        {
          "internalType": "string",
          "name": "_LicenseID",
          "type": "string"
        }
      ],
      "name": "getAllChallan",
      "outputs": [
        {
          "components": [
            {
              "internalType": "string",
              "name": "LicenseID",
              "type": "string"
            },
            {
              "internalType": "string",
              "name": "CitizenName",
              "type": "string"
            },
            {
              "internalType": "string",
              "name": "CitizenCNIC",
              "type": "string"
            },
            {
              "internalType": "enum Final11.VehicleType",
              "name": "CarType",
              "type": "uint8"
            },
            {
              "internalType": "string",
              "name": "CarNumberPlate",
              "type": "string"
            },
            {
              "internalType": "uint256[]",
              "name": "VoilationCode",
              "type": "uint256[]"
            },
            {
              "internalType": "string",
              "name": "timeStamp",
              "type": "string"
            },
            {
              "internalType": "uint256",
              "name": "Fine",
              "type": "uint256"
            },
            {
              "internalType": "bool",
              "name": "status",
              "type": "bool"
            }
          ],
          "internalType": "struct Final11.Challan[]",
          "name": "",
          "type": "tuple[]"
        }
      ],
      "stateMutability": "view",
      "type": "function"
    },
    {
      "inputs": [],
      "name": "getTrafficRules",
      "outputs": [
        {
          "components": [
            {
              "internalType": "string",
              "name": "Description",
              "type": "string"
            },
            {
              "internalType": "uint256",
              "name": "ACategoryVehicle_Fine",
              "type": "uint256"
            },
            {
              "internalType": "uint256",
              "name": "BCategoryVehicle_Fine",
              "type": "uint256"
            },
            {
              "internalType": "uint256",
              "name": "CCategoryVehicle_Fine",
              "type": "uint256"
            },
            {
              "internalType": "bool",
              "name": "status",
              "type": "bool"
            }
          ],
          "internalType": "struct Final11.VoilationRule[]",
          "name": "",
          "type": "tuple[]"
        }
      ],
      "stateMutability": "view",
      "type": "function"
    },
    {
      "inputs": [],
      "name": "test",
      "outputs": [
        {
          "internalType": "uint256",
          "name": "",
          "type": "uint256"
        }
      ],
      "stateMutability": "payable",
      "type": "function"
    },
    {
      "inputs": [
        {
          "internalType": "string",
          "name": "_LicenseID",
          "type": "string"
        }
      ],
      "name": "payChallan",
      "outputs": [],
      "stateMutability": "payable",
      "type": "function"
    }
  ],
  "bytecode": "0x60806040523480156200001157600080fd5b50336000806101000a81548173ffffffffffffffffffffffffffffffffffffffff021916908373ffffffffffffffffffffffffffffffffffffffff16021790555060046040518060a001604052806040518060400160405280602081526020017f457863656564696e672070726573637269626564207370656564206c696d6974815250815260200160c881526020016101f481526020016102ee81526020016001151581525090806001815401808255809150506001900390600052602060002090600502016000909190919091506000820151816000019080519060200190620000ff929190620004aa565b5060208201518160010155604082015181600201556060820151816003015560808201518160040160006101000a81548160ff021916908315150217905550505060046040518060a001604052806040518060800160405280604b81526020016200391a604b91398152602001600081526020016101f481526020016102ee81526020016001151581525090806001815401808255809150506001900390600052602060002090600502016000909190919091506000820151816000019080519060200190620001d1929190620004aa565b5060208201518160010155604082015181600201556060820151816003015560808201518160040160006101000a81548160ff021916908315150217905550505060046040518060a001604052806040518060600160405280602f815260200162003965602f9139815260200160c881526020016101f481526020016103e881526020016001151581525090806001815401808255809150506001900390600052602060002090600502016000909190919091506000820151816000019080519060200190620002a3929190620004aa565b5060208201518160010155604082015181600201556060820151816003015560808201518160040160006101000a81548160ff021916908315150217905550505060046040518060a001604052806040518060400160405280601b81526020017f4f7665726c6f6164696e67206120676f6f64732076656869636c6500000000008152508152602001600081526020016101f481526020016101f48152602001600115158152509080600181540180825580915050600190039060005260206000209060050201600090919091909150600082015181600001908051906020019062000391929190620004aa565b5060208201518160010155604082015181600201556060820151816003015560808201518160040160006101000a81548160ff021916908315150217905550505060046040518060a001604052806040518060600160405280603681526020016200399460369139815260200160c8815260200161012c81526020016101f48152602001600115158152509080600181540180825580915050600190039060005260206000209060050201600090919091909150600082015181600001908051906020019062000463929190620004aa565b5060208201518160010155604082015181600201556060820151816003015560808201518160040160006101000a81548160ff0219169083151502179055505050620005bf565b828054620004b89062000589565b90600052602060002090601f016020900481019282620004dc576000855562000528565b82601f10620004f757805160ff191683800117855562000528565b8280016001018555821562000528579182015b82811115620005275782518255916020019190600101906200050a565b5b5090506200053791906200053b565b5090565b5b80821115620005565760008160009055506001016200053c565b5090565b7f4e487b7100000000000000000000000000000000000000000000000000000000600052602260045260246000fd5b60006002820490506001821680620005a257607f821691505b60208210811415620005b957620005b86200055a565b5b50919050565b61334b80620005cf6000396000f3fe6080604052600436106101095760003560e01c80636794fa9f11610095578063b4a99a4e11610064578063b4a99a4e1461037e578063e051347b146103a9578063f0661a64146103e6578063f111ea331461040f578063f8a8fd6d1461044c57610109565b80636794fa9f146102cf57806373f13d1d146102eb5780638af5de721461031657806395490de01461034157610109565b80632e2c0aae116100dc5780632e2c0aae146101e857806332fd20cd146102115780633a758ccc1461023a5780633ed70cd5146102635780635c3b0a39146102a457610109565b806301ccde531461010e57806320e2bf85146101375780632b942d5b1461017b5780632be4c289146101a4575b600080fd5b34801561011a57600080fd5b5061013560048036038101906101309190612480565b61046a565b005b34801561014357600080fd5b5061015e600480360381019061015991906125ca565b610974565b60405161017298979695949392919061273c565b60405180910390f35b34801561018757600080fd5b506101a2600480360381019061019d91906127dd565b610c94565b005b3480156101b057600080fd5b506101cb60048036038101906101c6919061280a565b610d2d565b6040516101df98979695949392919061273c565b60405180910390f35b3480156101f457600080fd5b5061020f600480360381019061020a91906128c1565b61106a565b005b34801561021d57600080fd5b5061023860048036038101906102339190612949565b6111bf565b005b34801561024657600080fd5b50610261600480360381019061025c91906127dd565b6112ac565b005b34801561026f57600080fd5b5061028a600480360381019061028591906127dd565b611345565b60405161029b9594939291906129b0565b60405180910390f35b3480156102b057600080fd5b506102b9611420565b6040516102c69190612a0a565b60405180910390f35b6102e960048036038101906102e49190612a25565b611426565b005b3480156102f757600080fd5b506103006114fa565b60405161030d9190612c12565b60405180910390f35b34801561032257600080fd5b5061032b611624565b6040516103389190612a0a565b60405180910390f35b34801561034d57600080fd5b5061036860048036038101906103639190612a25565b61162a565b6040516103759190612dda565b60405180910390f35b34801561038a57600080fd5b506103936119f8565b6040516103a09190612e3d565b60405180910390f35b3480156103b557600080fd5b506103d060048036038101906103cb9190612e84565b611a1c565b6040516103dd9190612eb1565b60405180910390f35b3480156103f257600080fd5b5061040d60048036038101906104089190612e84565b611a3c565b005b34801561041b57600080fd5b5061043660048036038101906104319190612a25565b611aef565b6040516104439190613076565b60405180910390f35b610454611f02565b6040516104619190612a0a565b60405180910390f35b6000805b8351811015610643576000600581111561048b5761048a61269b565b5b86600581111561049e5761049d61269b565b5b14156104dc57600481815481106104b8576104b7613098565b5b906000526020600020906005020160010154826104d591906130f6565b9150610630565b600260058111156104f0576104ef61269b565b5b8660058111156105035761050261269b565b5b148061053357506001600581111561051e5761051d61269b565b5b8660058111156105315761053061269b565b5b145b15610570576004818154811061054c5761054b613098565b5b9060005260206000209060050201600201548261056991906130f6565b915061062f565b600360058111156105845761058361269b565b5b8660058111156105975761059661269b565b5b14806105c75750600460058111156105b2576105b161269b565b5b8660058111156105c5576105c461269b565b5b145b806105f557506005808111156105e0576105df61269b565b5b8660058111156105f3576105f261269b565b5b145b1561062e576004818154811061060e5761060d613098565b5b9060005260206000209060050201600301548261062b91906130f6565b91505b5b5b808061063b9061314c565b91505061046e565b506040518061012001604052808981526020018881526020018781526020018660058111156106755761067461269b565b5b8152602001858152602001848152602001838152602001828152602001600115158152506002896040516106a991906131d1565b908152602001604051809103902060008201518160000190805190602001906106d3929190612052565b5060208201518160010190805190602001906106f0929190612052565b50604082015181600201908051906020019061070d929190612052565b5060608201518160030160006101000a81548160ff021916908360058111156107395761073861269b565b5b0217905550608082015181600401908051906020019061075a929190612052565b5060a08201518160050190805190602001906107779291906120d8565b5060c0820151816006019080519060200190610794929190612052565b5060e082015181600701556101008201518160080160006101000a81548160ff0219169083151502179055509050506001886040516107d391906131d1565b90815260200160405180910390206040518061012001604052808a81526020018981526020018881526020018760058111156108125761081161269b565b5b8152602001868152602001858152602001848152602001838152602001600115158152509080600181540180825580915050600190039060005260206000209060090201600090919091909150600082015181600001908051906020019061087b929190612052565b506020820151816001019080519060200190610898929190612052565b5060408201518160020190805190602001906108b5929190612052565b5060608201518160030160006101000a81548160ff021916908360058111156108e1576108e061269b565b5b02179055506080820151816004019080519060200190610902929190612052565b5060a082015181600501908051906020019061091f9291906120d8565b5060c082015181600601908051906020019061093c929190612052565b5060e082015181600701556101008201518160080160006101000a81548160ff02191690831515021790555050505050505050505050565b6002818051602081018201805184825260208301602085012081835280955050505050506000915090508060000180546109ad90613217565b80601f01602080910402602001604051908101604052809291908181526020018280546109d990613217565b8015610a265780601f106109fb57610100808354040283529160200191610a26565b820191906000526020600020905b815481529060010190602001808311610a0957829003601f168201915b505050505090806001018054610a3b90613217565b80601f0160208091040260200160405190810160405280929190818152602001828054610a6790613217565b8015610ab45780601f10610a8957610100808354040283529160200191610ab4565b820191906000526020600020905b815481529060010190602001808311610a9757829003601f168201915b505050505090806002018054610ac990613217565b80601f0160208091040260200160405190810160405280929190818152602001828054610af590613217565b8015610b425780601f10610b1757610100808354040283529160200191610b42565b820191906000526020600020905b815481529060010190602001808311610b2557829003601f168201915b5050505050908060030160009054906101000a900460ff1690806004018054610b6a90613217565b80601f0160208091040260200160405190810160405280929190818152602001828054610b9690613217565b8015610be35780601f10610bb857610100808354040283529160200191610be3565b820191906000526020600020905b815481529060010190602001808311610bc657829003601f168201915b505050505090806006018054610bf890613217565b80601f0160208091040260200160405190810160405280929190818152602001828054610c2490613217565b8015610c715780601f10610c4657610100808354040283529160200191610c71565b820191906000526020600020905b815481529060010190602001808311610c5457829003601f168201915b5050505050908060070154908060080160009054906101000a900460ff16905088565b60008054906101000a900473ffffffffffffffffffffffffffffffffffffffff1673ffffffffffffffffffffffffffffffffffffffff163373ffffffffffffffffffffffffffffffffffffffff1614610cec57600080fd5b600160048281548110610d0257610d01613098565b5b906000526020600020906005020160040160006101000a81548160ff02191690831515021790555050565b6001828051602081018201805184825260208301602085012081835280955050505050508181548110610d5f57600080fd5b906000526020600020906009020160009150915050806000018054610d8390613217565b80601f0160208091040260200160405190810160405280929190818152602001828054610daf90613217565b8015610dfc5780601f10610dd157610100808354040283529160200191610dfc565b820191906000526020600020905b815481529060010190602001808311610ddf57829003601f168201915b505050505090806001018054610e1190613217565b80601f0160208091040260200160405190810160405280929190818152602001828054610e3d90613217565b8015610e8a5780601f10610e5f57610100808354040283529160200191610e8a565b820191906000526020600020905b815481529060010190602001808311610e6d57829003601f168201915b505050505090806002018054610e9f90613217565b80601f0160208091040260200160405190810160405280929190818152602001828054610ecb90613217565b8015610f185780601f10610eed57610100808354040283529160200191610f18565b820191906000526020600020905b815481529060010190602001808311610efb57829003601f168201915b5050505050908060030160009054906101000a900460ff1690806004018054610f4090613217565b80601f0160208091040260200160405190810160405280929190818152602001828054610f6c90613217565b8015610fb95780601f10610f8e57610100808354040283529160200191610fb9565b820191906000526020600020905b815481529060010190602001808311610f9c57829003601f168201915b505050505090806006018054610fce90613217565b80601f0160208091040260200160405190810160405280929190818152602001828054610ffa90613217565b80156110475780601f1061101c57610100808354040283529160200191611047565b820191906000526020600020905b81548152906001019060200180831161102a57829003601f168201915b5050505050908060070154908060080160009054906101000a900460ff16905088565b60008054906101000a900473ffffffffffffffffffffffffffffffffffffffff1673ffffffffffffffffffffffffffffffffffffffff163373ffffffffffffffffffffffffffffffffffffffff16146110c257600080fd5b60046040518060a0016040528087878080601f016020809104026020016040519081016040528093929190818152602001838380828437600081840152601f19601f8201169050808301925050505050505081526020018581526020018481526020018381526020016001151581525090806001815401808255809150506001900390600052602060002090600502016000909190919091506000820151816000019080519060200190611177929190612052565b5060208201518160010155604082015181600201556060820151816003015560808201518160040160006101000a81548160ff02191690831515021790555050505050505050565b60008054906101000a900473ffffffffffffffffffffffffffffffffffffffff1673ffffffffffffffffffffffffffffffffffffffff163373ffffffffffffffffffffffffffffffffffffffff161461121757600080fd5b600480549050841061122857600080fd5b826004858154811061123d5761123c613098565b5b906000526020600020906005020160010181905550816004858154811061126757611266613098565b5b906000526020600020906005020160020181905550806004858154811061129157611290613098565b5b90600052602060002090600502016003018190555050505050565b60008054906101000a900473ffffffffffffffffffffffffffffffffffffffff1673ffffffffffffffffffffffffffffffffffffffff163373ffffffffffffffffffffffffffffffffffffffff161461130457600080fd5b60006004828154811061131a57611319613098565b5b906000526020600020906005020160040160006101000a81548160ff02191690831515021790555050565b6004818154811061135557600080fd5b906000526020600020906005020160009150905080600001805461137890613217565b80601f01602080910402602001604051908101604052809291908181526020018280546113a490613217565b80156113f15780601f106113c6576101008083540402835291602001916113f1565b820191906000526020600020905b8154815290600101906020018083116113d457829003601f168201915b5050505050908060010154908060020154908060030154908060040160009054906101000a900460ff16905085565b60065481565b600115156002838360405161143c92919061326e565b908152602001604051809103902060080160009054906101000a900460ff1615151461146757600080fd5b670de0b6b3a76400006002838360405161148292919061326e565b90815260200160405180910390206007015461149e9190613287565b34146114a957600080fd5b6114f682828080601f016020809104026020016040519081016040528093929190818152602001838380828437600081840152601f19601f82011690508083019250505050505050611f11565b5050565b60606004805480602002602001604051908101604052809291908181526020016000905b8282101561161b57838290600052602060002090600502016040518060a001604052908160008201805461155190613217565b80601f016020809104026020016040519081016040528092919081815260200182805461157d90613217565b80156115ca5780601f1061159f576101008083540402835291602001916115ca565b820191906000526020600020905b8154815290600101906020018083116115ad57829003601f168201915b505050505081526020016001820154815260200160028201548152602001600382015481526020016004820160009054906101000a900460ff1615151515815250508152602001906001019061151e565b50505050905090565b60055481565b611632612125565b6002838360405161164492919061326e565b90815260200160405180910390206040518061012001604052908160008201805461166e90613217565b80601f016020809104026020016040519081016040528092919081815260200182805461169a90613217565b80156116e75780601f106116bc576101008083540402835291602001916116e7565b820191906000526020600020905b8154815290600101906020018083116116ca57829003601f168201915b5050505050815260200160018201805461170090613217565b80601f016020809104026020016040519081016040528092919081815260200182805461172c90613217565b80156117795780601f1061174e57610100808354040283529160200191611779565b820191906000526020600020905b81548152906001019060200180831161175c57829003601f168201915b5050505050815260200160028201805461179290613217565b80601f01602080910402602001604051908101604052809291908181526020018280546117be90613217565b801561180b5780601f106117e05761010080835404028352916020019161180b565b820191906000526020600020905b8154815290600101906020018083116117ee57829003601f168201915b505050505081526020016003820160009054906101000a900460ff1660058111156118395761183861269b565b5b600581111561184b5761184a61269b565b5b815260200160048201805461185f90613217565b80601f016020809104026020016040519081016040528092919081815260200182805461188b90613217565b80156118d85780601f106118ad576101008083540402835291602001916118d8565b820191906000526020600020905b8154815290600101906020018083116118bb57829003601f168201915b505050505081526020016005820180548060200260200160405190810160405280929190818152602001828054801561193057602002820191906000526020600020905b81548152602001906001019080831161191c575b5050505050815260200160068201805461194990613217565b80601f016020809104026020016040519081016040528092919081815260200182805461197590613217565b80156119c25780601f10611997576101008083540402835291602001916119c2565b820191906000526020600020905b8154815290600101906020018083116119a557829003601f168201915b50505050508152602001600782015481526020016008820160009054906101000a900460ff161515151581525050905092915050565b60008054906101000a900473ffffffffffffffffffffffffffffffffffffffff1681565b60036020528060005260406000206000915054906101000a900460ff1681565b60008054906101000a900473ffffffffffffffffffffffffffffffffffffffff1673ffffffffffffffffffffffffffffffffffffffff163373ffffffffffffffffffffffffffffffffffffffff1614611a9457600080fd5b6001600360008373ffffffffffffffffffffffffffffffffffffffff1673ffffffffffffffffffffffffffffffffffffffff16815260200190815260200160002060006101000a81548160ff02191690831515021790555050565b606060018383604051611b0392919061326e565b9081526020016040518091039020805480602002602001604051908101604052809291908181526020016000905b82821015611ef6578382906000526020600020906009020160405180610120016040529081600082018054611b6590613217565b80601f0160208091040260200160405190810160405280929190818152602001828054611b9190613217565b8015611bde5780601f10611bb357610100808354040283529160200191611bde565b820191906000526020600020905b815481529060010190602001808311611bc157829003601f168201915b50505050508152602001600182018054611bf790613217565b80601f0160208091040260200160405190810160405280929190818152602001828054611c2390613217565b8015611c705780601f10611c4557610100808354040283529160200191611c70565b820191906000526020600020905b815481529060010190602001808311611c5357829003601f168201915b50505050508152602001600282018054611c8990613217565b80601f0160208091040260200160405190810160405280929190818152602001828054611cb590613217565b8015611d025780601f10611cd757610100808354040283529160200191611d02565b820191906000526020600020905b815481529060010190602001808311611ce557829003601f168201915b505050505081526020016003820160009054906101000a900460ff166005811115611d3057611d2f61269b565b5b6005811115611d4257611d4161269b565b5b8152602001600482018054611d5690613217565b80601f0160208091040260200160405190810160405280929190818152602001828054611d8290613217565b8015611dcf5780601f10611da457610100808354040283529160200191611dcf565b820191906000526020600020905b815481529060010190602001808311611db257829003601f168201915b5050505050815260200160058201805480602002602001604051908101604052809291908181526020018280548015611e2757602002820191906000526020600020905b815481526020019060010190808311611e13575b50505050508152602001600682018054611e4090613217565b80601f0160208091040260200160405190810160405280929190818152602001828054611e6c90613217565b8015611eb95780601f10611e8e57610100808354040283529160200191611eb9565b820191906000526020600020905b815481529060010190602001808311611e9c57829003601f168201915b50505050508152602001600782015481526020016008820160009054906101000a900460ff16151515158152505081526020019060010190611b31565b50505050905092915050565b60003460058190555034905090565b6000600182604051611f2391906131d1565b90815260200160405180910390208054905090506000600183604051611f4991906131d1565b9081526020016040518091039020600183611f6491906132e1565b81548110611f7557611f74613098565b5b906000526020600020906009020160080160006101000a81548160ff021916908315150217905550600282604051611fad91906131d1565b908152602001604051809103902060008082016000611fcc9190612185565b600182016000611fdc9190612185565b600282016000611fec9190612185565b6003820160006101000a81549060ff02191690556004820160006120109190612185565b60058201600061202091906121c5565b6006820160006120309190612185565b60078201600090556008820160006101000a81549060ff021916905550505050565b82805461205e90613217565b90600052602060002090601f01602090048101928261208057600085556120c7565b82601f1061209957805160ff19168380011785556120c7565b828001600101855582156120c7579182015b828111156120c65782518255916020019190600101906120ab565b5b5090506120d491906121e6565b5090565b828054828255906000526020600020908101928215612114579160200282015b828111156121135782518255916020019190600101906120f8565b5b50905061212191906121e6565b5090565b6040518061012001604052806060815260200160608152602001606081526020016000600581111561215a5761215961269b565b5b8152602001606081526020016060815260200160608152602001600081526020016000151581525090565b50805461219190613217565b6000825580601f106121a357506121c2565b601f0160209004906000526020600020908101906121c191906121e6565b5b50565b50805460008255906000526020600020908101906121e391906121e6565b50565b5b808211156121ff5760008160009055506001016121e7565b5090565b6000604051905090565b600080fd5b600080fd5b600080fd5b600080fd5b6000601f19601f8301169050919050565b7f4e487b7100000000000000000000000000000000000000000000000000000000600052604160045260246000fd5b61226a82612221565b810181811067ffffffffffffffff8211171561228957612288612232565b5b80604052505050565b600061229c612203565b90506122a88282612261565b919050565b600067ffffffffffffffff8211156122c8576122c7612232565b5b6122d182612221565b9050602081019050919050565b82818337600083830152505050565b60006123006122fb846122ad565b612292565b90508281526020810184848401111561231c5761231b61221c565b5b6123278482856122de565b509392505050565b600082601f83011261234457612343612217565b5b81356123548482602086016122ed565b91505092915050565b6006811061236a57600080fd5b50565b60008135905061237c8161235d565b92915050565b600067ffffffffffffffff82111561239d5761239c612232565b5b602082029050602081019050919050565b600080fd5b6000819050919050565b6123c6816123b3565b81146123d157600080fd5b50565b6000813590506123e3816123bd565b92915050565b60006123fc6123f784612382565b612292565b9050808382526020820190506020840283018581111561241f5761241e6123ae565b5b835b81811015612448578061243488826123d4565b845260208401935050602081019050612421565b5050509392505050565b600082601f83011261246757612466612217565b5b81356124778482602086016123e9565b91505092915050565b600080600080600080600060e0888a03121561249f5761249e61220d565b5b600088013567ffffffffffffffff8111156124bd576124bc612212565b5b6124c98a828b0161232f565b975050602088013567ffffffffffffffff8111156124ea576124e9612212565b5b6124f68a828b0161232f565b965050604088013567ffffffffffffffff81111561251757612516612212565b5b6125238a828b0161232f565b95505060606125348a828b0161236d565b945050608088013567ffffffffffffffff81111561255557612554612212565b5b6125618a828b0161232f565b93505060a088013567ffffffffffffffff81111561258257612581612212565b5b61258e8a828b01612452565b92505060c088013567ffffffffffffffff8111156125af576125ae612212565b5b6125bb8a828b0161232f565b91505092959891949750929550565b6000602082840312156125e0576125df61220d565b5b600082013567ffffffffffffffff8111156125fe576125fd612212565b5b61260a8482850161232f565b91505092915050565b600081519050919050565b600082825260208201905092915050565b60005b8381101561264d578082015181840152602081019050612632565b8381111561265c576000848401525b50505050565b600061266d82612613565b612677818561261e565b935061268781856020860161262f565b61269081612221565b840191505092915050565b7f4e487b7100000000000000000000000000000000000000000000000000000000600052602160045260246000fd5b600681106126db576126da61269b565b5b50565b60008190506126ec826126ca565b919050565b60006126fc826126de565b9050919050565b61270c816126f1565b82525050565b61271b816123b3565b82525050565b60008115159050919050565b61273681612721565b82525050565b6000610100820190508181036000830152612757818b612662565b9050818103602083015261276b818a612662565b9050818103604083015261277f8189612662565b905061278e6060830188612703565b81810360808301526127a08187612662565b905081810360a08301526127b48186612662565b90506127c360c0830185612712565b6127d060e083018461272d565b9998505050505050505050565b6000602082840312156127f3576127f261220d565b5b6000612801848285016123d4565b91505092915050565b600080604083850312156128215761282061220d565b5b600083013567ffffffffffffffff81111561283f5761283e612212565b5b61284b8582860161232f565b925050602061285c858286016123d4565b9150509250929050565b600080fd5b60008083601f84011261288157612880612217565b5b8235905067ffffffffffffffff81111561289e5761289d612866565b5b6020830191508360018202830111156128ba576128b96123ae565b5b9250929050565b6000806000806000608086880312156128dd576128dc61220d565b5b600086013567ffffffffffffffff8111156128fb576128fa612212565b5b6129078882890161286b565b9550955050602061291a888289016123d4565b935050604061292b888289016123d4565b925050606061293c888289016123d4565b9150509295509295909350565b600080600080608085870312156129635761296261220d565b5b6000612971878288016123d4565b9450506020612982878288016123d4565b9350506040612993878288016123d4565b92505060606129a4878288016123d4565b91505092959194509250565b600060a08201905081810360008301526129ca8188612662565b90506129d96020830187612712565b6129e66040830186612712565b6129f36060830185612712565b612a00608083018461272d565b9695505050505050565b6000602082019050612a1f6000830184612712565b92915050565b60008060208385031215612a3c57612a3b61220d565b5b600083013567ffffffffffffffff811115612a5a57612a59612212565b5b612a668582860161286b565b92509250509250929050565b600081519050919050565b600082825260208201905092915050565b6000819050602082019050919050565b600082825260208201905092915050565b6000612aba82612613565b612ac48185612a9e565b9350612ad481856020860161262f565b612add81612221565b840191505092915050565b612af1816123b3565b82525050565b612b0081612721565b82525050565b600060a0830160008301518482036000860152612b238282612aaf565b9150506020830151612b386020860182612ae8565b506040830151612b4b6040860182612ae8565b506060830151612b5e6060860182612ae8565b506080830151612b716080860182612af7565b508091505092915050565b6000612b888383612b06565b905092915050565b6000602082019050919050565b6000612ba882612a72565b612bb28185612a7d565b935083602082028501612bc485612a8e565b8060005b85811015612c005784840389528151612be18582612b7c565b9450612bec83612b90565b925060208a01995050600181019050612bc8565b50829750879550505050505092915050565b60006020820190508181036000830152612c2c8184612b9d565b905092915050565b612c3d816126f1565b82525050565b600081519050919050565b600082825260208201905092915050565b6000819050602082019050919050565b6000612c7b8383612ae8565b60208301905092915050565b6000602082019050919050565b6000612c9f82612c43565b612ca98185612c4e565b9350612cb483612c5f565b8060005b83811015612ce5578151612ccc8882612c6f565b9750612cd783612c87565b925050600181019050612cb8565b5085935050505092915050565b6000610120830160008301518482036000860152612d108282612aaf565b91505060208301518482036020860152612d2a8282612aaf565b91505060408301518482036040860152612d448282612aaf565b9150506060830151612d596060860182612c34565b5060808301518482036080860152612d718282612aaf565b91505060a083015184820360a0860152612d8b8282612c94565b91505060c083015184820360c0860152612da58282612aaf565b91505060e0830151612dba60e0860182612ae8565b50610100830151612dcf610100860182612af7565b508091505092915050565b60006020820190508181036000830152612df48184612cf2565b905092915050565b600073ffffffffffffffffffffffffffffffffffffffff82169050919050565b6000612e2782612dfc565b9050919050565b612e3781612e1c565b82525050565b6000602082019050612e526000830184612e2e565b92915050565b612e6181612e1c565b8114612e6c57600080fd5b50565b600081359050612e7e81612e58565b92915050565b600060208284031215612e9a57612e9961220d565b5b6000612ea884828501612e6f565b91505092915050565b6000602082019050612ec6600083018461272d565b92915050565b600081519050919050565b600082825260208201905092915050565b6000819050602082019050919050565b6000610120830160008301518482036000860152612f168282612aaf565b91505060208301518482036020860152612f308282612aaf565b91505060408301518482036040860152612f4a8282612aaf565b9150506060830151612f5f6060860182612c34565b5060808301518482036080860152612f778282612aaf565b91505060a083015184820360a0860152612f918282612c94565b91505060c083015184820360c0860152612fab8282612aaf565b91505060e0830151612fc060e0860182612ae8565b50610100830151612fd5610100860182612af7565b508091505092915050565b6000612fec8383612ef8565b905092915050565b6000602082019050919050565b600061300c82612ecc565b6130168185612ed7565b93508360208202850161302885612ee8565b8060005b8581101561306457848403895281516130458582612fe0565b945061305083612ff4565b925060208a0199505060018101905061302c565b50829750879550505050505092915050565b600060208201905081810360008301526130908184613001565b905092915050565b7f4e487b7100000000000000000000000000000000000000000000000000000000600052603260045260246000fd5b7f4e487b7100000000000000000000000000000000000000000000000000000000600052601160045260246000fd5b6000613101826123b3565b915061310c836123b3565b9250827fffffffffffffffffffffffffffffffffffffffffffffffffffffffffffffffff03821115613141576131406130c7565b5b828201905092915050565b6000613157826123b3565b91507fffffffffffffffffffffffffffffffffffffffffffffffffffffffffffffffff82141561318a576131896130c7565b5b600182019050919050565b600081905092915050565b60006131ab82612613565b6131b58185613195565b93506131c581856020860161262f565b80840191505092915050565b60006131dd82846131a0565b915081905092915050565b7f4e487b7100000000000000000000000000000000000000000000000000000000600052602260045260246000fd5b6000600282049050600182168061322f57607f821691505b60208210811415613243576132426131e8565b5b50919050565b60006132558385613195565b93506132628385846122de565b82840190509392505050565b600061327b828486613249565b91508190509392505050565b6000613292826123b3565b915061329d836123b3565b9250817fffffffffffffffffffffffffffffffffffffffffffffffffffffffffffffffff04831182151516156132d6576132d56130c7565b5b828202905092915050565b60006132ec826123b3565b91506132f7836123b3565b92508282101561330a576133096130c7565b5b82820390509291505056fea2646970667358221220c2f556ac78487fcbe100b6a362a1ca038d6ee61355a433f3b46cface1ae7854464736f6c634300080a00334361727279696e672070617373656e6765727320696e2061207075626c696320736572766963652076656869636c6520657863656564696e67207065726d69737369626c65206c696d697456696f6c6174696f6e206f662074726166666963207369676e616c7328456c656374726f6e69632f4d616e75616c2944726976696e672061206d6f746f722076656869636c65206174206e6967687420776974686f75742070726f706572206c6967687473",
  "immutableReferences": {},
  "source": "// SPDX-License-Identifier: MIT\r\npragma solidity >=0.4.22 <0.9.0;\r\n\r\ncontract Final11{\r\n    enum VehicleType {Motorcycle,Motorcar,Jeep,PublicServiceVehicle,PrivateCarrier,PublicCarrier}\r\n\r\n    struct Challan{\r\n    string LicenseID; //license id of citizen\r\n    string CitizenName; \r\n    string CitizenCNIC;\r\n    VehicleType CarType; \r\n    string CarNumberPlate;\r\n    uint[] VoilationCode;  //------list of voilated rules\r\n    string timeStamp;\r\n    uint Fine;\r\n    bool status;\r\n    }\r\n\r\n    struct VoilationRule{\r\n    string Description; //description of the rule\r\n    uint ACategoryVehicle_Fine;   //includes motorcycle\r\n    uint BCategoryVehicle_Fine;  //includes Motorcar,Jeep,\r\n    uint CCategoryVehicle_Fine; //includes PrivateCarrier,PublicCarrier\r\n    bool status;\r\n    }\r\n\r\n    address public Owner; //adminstrator who manages who can add challan etc.\r\n    mapping(string=>Challan[]) public ChallanHistory; //use to store all previous challans of citizens\r\n    mapping(string=>Challan) public ActiveChallan;  //use to store current active challans of citizen\r\n    mapping(address=>bool) public TP; //mapping for traffic police(TP) , who can add Challan\r\n    VoilationRule[] public RuleList; //list of traffic rules\r\n\r\n    uint public testValue;\r\n    uint public testStatus;\r\n\r\n    constructor(){\r\n        Owner=msg.sender;\r\n        \r\n        RuleList.push(VoilationRule(\"Exceeding prescribed speed limit\",200,500,750,true));\r\n        RuleList.push(VoilationRule(\"Carrying passengers in a public service vehicle exceeding permissible limit\",0,500,750,true));\r\n        RuleList.push(VoilationRule(\"Violation of traffic signals(Electronic/Manual)\",200,500,1000,true));\r\n        RuleList.push(VoilationRule(\"Overloading a goods vehicle\",0,500,500,true));\r\n        RuleList.push(VoilationRule(\"Driving a motor vehicle at night without proper lights\",200,300,500,true));\r\n        //append all rules in the start of the application\r\n    }\r\n\r\n////////////////////////////////////////////////////////////////functions related to admin\r\n    function addTrafficPolice(address _TP) public{//add traffic police who can add challans\r\n        require(msg.sender==Owner);\r\n        TP[_TP]=true;\r\n    }\r\n\r\n    function addTrafficRule(string calldata _description,uint _Afine,uint _Bfine,uint _Cfine) public{  \r\n        require(msg.sender==Owner);\r\n        RuleList.push(VoilationRule(_description,_Afine,_Bfine,_Cfine,true));\r\n    }\r\n\r\n    function updatePriceForRule(uint _ruleID,uint _Afine,uint _Bfine,uint _Cfine) public{ //update price of rule by giving its rule code \r\n        require(msg.sender==Owner);\r\n        require(_ruleID<(RuleList.length));\r\n        RuleList[_ruleID]. ACategoryVehicle_Fine=_Afine;\r\n        RuleList[_ruleID]. BCategoryVehicle_Fine=_Bfine;\r\n        RuleList[_ruleID]. CCategoryVehicle_Fine=_Cfine;\r\n    }\r\n\r\n    \r\n    function deactivateRule(uint _ruleID) public{\r\n        require(msg.sender==Owner);\r\n        RuleList[_ruleID].status=false;\r\n    }\r\n\r\n    function activateRule(uint _ruleID) public{\r\n        require(msg.sender==Owner);\r\n        RuleList[_ruleID].status=true;\r\n    } \r\n\r\n    //////////////////////////////////////////////////////////////////////////////////////////////////////////\r\n\r\n    function deleteActiveChallan(string memory _LicenseID) internal { //removes user from active challan\r\n        uint length=ChallanHistory[_LicenseID].length;\r\n        ChallanHistory[_LicenseID][length-1].status=false; //change status in its list of challans\r\n        delete ActiveChallan[_LicenseID];\r\n    }\r\n\r\n    function addChallan(string memory _LicenseID,string memory _Name,string memory _CNIC,VehicleType _CarType,string memory _carPlate,uint[] memory _voilatedRules,string memory _timeStamp) public{\r\n        // require(TP[msg.sender]==true); //only filled by traffic police officer\r\n        uint VoilationFee=0;\r\n        for(uint i=0;i<_voilatedRules.length;i++){\r\n            if(_CarType==VehicleType.Motorcycle){\r\n                VoilationFee+=RuleList[i].ACategoryVehicle_Fine;\r\n            }else if(_CarType==VehicleType.Jeep || _CarType==VehicleType.Motorcar){\r\n                VoilationFee+=RuleList[i].BCategoryVehicle_Fine;\r\n            }else if(_CarType==VehicleType.PublicServiceVehicle || _CarType==VehicleType.PrivateCarrier || _CarType==VehicleType.PublicCarrier){\r\n                VoilationFee+=RuleList[i].CCategoryVehicle_Fine;\r\n            }\r\n        }\r\n        ActiveChallan[_LicenseID]=Challan(_LicenseID,_Name,_CNIC,_CarType,_carPlate,_voilatedRules,_timeStamp,VoilationFee,true);\r\n        ChallanHistory[_LicenseID].push(Challan(_LicenseID,_Name,_CNIC,_CarType,_carPlate,_voilatedRules,_timeStamp,VoilationFee,true));\r\n        \r\n    }\r\n\r\n\r\n    function getCurrentChallan(string calldata _LicenseID) public view returns(Challan memory){\r\n        return ActiveChallan[_LicenseID];\r\n    }\r\n\r\n    function getAllChallan(string calldata _LicenseID) public view returns(Challan[] memory){\r\n        return ChallanHistory[_LicenseID];\r\n    }\r\n\r\n    function getTrafficRules() public view returns(VoilationRule[] memory){\r\n        return RuleList;\r\n    }\r\n\r\n    function test() public payable returns(uint){\r\n        testValue=msg.value;\r\n        return msg.value;\r\n    }\r\n\r\n    function payChallan(string calldata _LicenseID) public payable{\r\n        require(ActiveChallan[_LicenseID].status==true);\r\n        require(msg.value==(ActiveChallan[_LicenseID].Fine*1e18));  //uint tempo=n*1e18;  //equivalent to n ether\r\n        deleteActiveChallan(_LicenseID);\r\n    }\r\n}",
  "sourcePath": "F:\\BL project\\contracts\\Final11.sol",
  "compiler": {
    "name": "solc",
    "version": "0.8.10+commit.fc410830.Emscripten.clang"
  },
  "schemaVersion": "3.4.3",
  "updatedAt": "2021-12-19T18:26:55.099Z",
  "devdoc": {
    "kind": "dev",
    "methods": {},
    "version": 1
  },
  "userdoc": {
    "kind": "user",
    "methods": {},
    "version": 1
  }
}