{
  "contractName": "Final6",
  "abi": [
    {
      "inputs": [],
      "stateMutability": "nonpayable",
      "type": "constructor"
    },
    {
      "inputs": [
        {
          "internalType": "string",
          "name": "",
          "type": "string"
        }
      ],
      "name": "ActiveChallan",
      "outputs": [
        {
          "internalType": "string",
          "name": "LicenseID",
          "type": "string"
        },
        {
          "internalType": "string",
          "name": "CitizenName",
          "type": "string"
        },
        {
          "internalType": "string",
          "name": "CitizenCNIC",
          "type": "string"
        },
        {
          "internalType": "enum Final6.VehicleType",
          "name": "CarType",
          "type": "uint8"
        },
        {
          "internalType": "string",
          "name": "CarNumberPlate",
          "type": "string"
        },
        {
          "internalType": "string",
          "name": "timeStamp",
          "type": "string"
        },
        {
          "internalType": "uint256",
          "name": "Fine",
          "type": "uint256"
        },
        {
          "internalType": "bool",
          "name": "status",
          "type": "bool"
        }
      ],
      "stateMutability": "view",
      "type": "function"
    },
    {
      "inputs": [],
      "name": "Owner",
      "outputs": [
        {
          "internalType": "address",
          "name": "",
          "type": "address"
        }
      ],
      "stateMutability": "view",
      "type": "function"
    },
    {
      "inputs": [
        {
          "internalType": "string",
          "name": "",
          "type": "string"
        },
        {
          "internalType": "uint256",
          "name": "",
          "type": "uint256"
        }
      ],
      "name": "PreviousChallan",
      "outputs": [
        {
          "internalType": "string",
          "name": "LicenseID",
          "type": "string"
        },
        {
          "internalType": "string",
          "name": "CitizenName",
          "type": "string"
        },
        {
          "internalType": "string",
          "name": "CitizenCNIC",
          "type": "string"
        },
        {
          "internalType": "enum Final6.VehicleType",
          "name": "CarType",
          "type": "uint8"
        },
        {
          "internalType": "string",
          "name": "CarNumberPlate",
          "type": "string"
        },
        {
          "internalType": "string",
          "name": "timeStamp",
          "type": "string"
        },
        {
          "internalType": "uint256",
          "name": "Fine",
          "type": "uint256"
        },
        {
          "internalType": "bool",
          "name": "status",
          "type": "bool"
        }
      ],
      "stateMutability": "view",
      "type": "function"
    },
    {
      "inputs": [
        {
          "internalType": "uint256",
          "name": "",
          "type": "uint256"
        }
      ],
      "name": "RuleList",
      "outputs": [
        {
          "internalType": "string",
          "name": "Description",
          "type": "string"
        },
        {
          "internalType": "uint256",
          "name": "ACategoryVehicle_Fine",
          "type": "uint256"
        },
        {
          "internalType": "uint256",
          "name": "BCategoryVehicle_Fine",
          "type": "uint256"
        },
        {
          "internalType": "uint256",
          "name": "CCategoryVehicle_Fine",
          "type": "uint256"
        },
        {
          "internalType": "bool",
          "name": "status",
          "type": "bool"
        }
      ],
      "stateMutability": "view",
      "type": "function"
    },
    {
      "inputs": [
        {
          "internalType": "address",
          "name": "",
          "type": "address"
        }
      ],
      "name": "TP",
      "outputs": [
        {
          "internalType": "bool",
          "name": "",
          "type": "bool"
        }
      ],
      "stateMutability": "view",
      "type": "function"
    },
    {
      "inputs": [
        {
          "internalType": "address",
          "name": "_TP",
          "type": "address"
        }
      ],
      "name": "addTrafficPolice",
      "outputs": [],
      "stateMutability": "nonpayable",
      "type": "function"
    },
    {
      "inputs": [
        {
          "internalType": "string",
          "name": "_description",
          "type": "string"
        },
        {
          "internalType": "uint256",
          "name": "_Afine",
          "type": "uint256"
        },
        {
          "internalType": "uint256",
          "name": "_Bfine",
          "type": "uint256"
        },
        {
          "internalType": "uint256",
          "name": "_Cfine",
          "type": "uint256"
        }
      ],
      "name": "addTrafficRule",
      "outputs": [],
      "stateMutability": "nonpayable",
      "type": "function"
    },
    {
      "inputs": [
        {
          "internalType": "uint256",
          "name": "_ruleID",
          "type": "uint256"
        },
        {
          "internalType": "uint256",
          "name": "_Afine",
          "type": "uint256"
        },
        {
          "internalType": "uint256",
          "name": "_Bfine",
          "type": "uint256"
        },
        {
          "internalType": "uint256",
          "name": "_Cfine",
          "type": "uint256"
        }
      ],
      "name": "updatePriceForRule",
      "outputs": [],
      "stateMutability": "nonpayable",
      "type": "function"
    },
    {
      "inputs": [
        {
          "internalType": "uint256",
          "name": "_ruleID",
          "type": "uint256"
        }
      ],
      "name": "deactivateRule",
      "outputs": [],
      "stateMutability": "nonpayable",
      "type": "function"
    },
    {
      "inputs": [
        {
          "internalType": "uint256",
          "name": "_ruleID",
          "type": "uint256"
        }
      ],
      "name": "activateRule",
      "outputs": [],
      "stateMutability": "nonpayable",
      "type": "function"
    },
    {
      "inputs": [
        {
          "internalType": "string",
          "name": "_LicenseID",
          "type": "string"
        },
        {
          "internalType": "string",
          "name": "_Name",
          "type": "string"
        },
        {
          "internalType": "string",
          "name": "_CNIC",
          "type": "string"
        },
        {
          "internalType": "enum Final6.VehicleType",
          "name": "_Car",
          "type": "uint8"
        },
        {
          "internalType": "string",
          "name": "_carPlate",
          "type": "string"
        },
        {
          "internalType": "uint256[]",
          "name": "_voilatedRules",
          "type": "uint256[]"
        },
        {
          "internalType": "string",
          "name": "_timeStamp",
          "type": "string"
        }
      ],
      "name": "addChallan",
      "outputs": [],
      "stateMutability": "nonpayable",
      "type": "function"
    },
    {
      "inputs": [
        {
          "internalType": "enum Final6.VehicleType",
          "name": "_temp",
          "type": "uint8"
        }
      ],
      "name": "test",
      "outputs": [
        {
          "internalType": "enum Final6.VehicleType",
          "name": "",
          "type": "uint8"
        }
      ],
      "stateMutability": "pure",
      "type": "function"
    },
    {
      "inputs": [
        {
          "internalType": "string",
          "name": "_LicenseID",
          "type": "string"
        }
      ],
      "name": "getCurrentChallan",
      "outputs": [
        {
          "components": [
            {
              "internalType": "string",
              "name": "LicenseID",
              "type": "string"
            },
            {
              "internalType": "string",
              "name": "CitizenName",
              "type": "string"
            },
            {
              "internalType": "string",
              "name": "CitizenCNIC",
              "type": "string"
            },
            {
              "internalType": "enum Final6.VehicleType",
              "name": "CarType",
              "type": "uint8"
            },
            {
              "internalType": "string",
              "name": "CarNumberPlate",
              "type": "string"
            },
            {
              "internalType": "uint256[]",
              "name": "VoilationCode",
              "type": "uint256[]"
            },
            {
              "internalType": "string",
              "name": "timeStamp",
              "type": "string"
            },
            {
              "internalType": "uint256",
              "name": "Fine",
              "type": "uint256"
            },
            {
              "internalType": "bool",
              "name": "status",
              "type": "bool"
            }
          ],
          "internalType": "struct Final6.Challan",
          "name": "",
          "type": "tuple"
        }
      ],
      "stateMutability": "view",
      "type": "function"
    }
  ],
  "bytecode": "0x608060405234801561001057600080fd5b50336000806101000a81548173ffffffffffffffffffffffffffffffffffffffff021916908373ffffffffffffffffffffffffffffffffffffffff160217905550612335806100606000396000f3fe608060405234801561001057600080fd5b50600436106100cf5760003560e01c80633ed70cd51161008c578063b4a99a4e11610066578063b4a99a4e14610232578063e051347b14610250578063f0661a6414610280578063f1820bdc1461029c576100cf565b80633ed70cd51461019757806356beeaf0146101cb57806395490de014610202576100cf565b806301ccde53146100d457806320e2bf85146100f05780632b942d5b146101275780632e2c0aae1461014357806332fd20cd1461015f5780633a758ccc1461017b575b600080fd5b6100ee60048036038101906100e991906117f1565b6102cc565b005b61010a6004803603810190610105919061193b565b6104a9565b60405161011e989796959493929190611aad565b60405180910390f35b610141600480360381019061013c9190611b4e565b6107c9565b005b61015d60048036038101906101589190611bd6565b610862565b005b61017960048036038101906101749190611c5e565b6109b7565b005b61019560048036038101906101909190611b4e565b610aa4565b005b6101b160048036038101906101ac9190611b4e565b610b3d565b6040516101c2959493929190611cc5565b60405180910390f35b6101e560048036038101906101e09190611d1f565b610c18565b6040516101f9989796959493929190611aad565b60405180910390f35b61021c60048036038101906102179190611d7b565b610f55565b6040516102299190611fd6565b60405180910390f35b61023a611323565b6040516102479190612039565b60405180910390f35b61026a60048036038101906102659190612080565b611347565b60405161027791906120ad565b60405180910390f35b61029a60048036038101906102959190612080565b611367565b005b6102b660048036038101906102b191906120c8565b61141a565b6040516102c391906120f5565b60405180910390f35b6000805b835181101561031f57600481815481106102ed576102ec612110565b5b9060005260206000209060050201600101548261030a919061216e565b91508080610317906121c4565b9150506102d0565b5060405180610120016040528089815260200188815260200187815260200186600581111561035157610350611a0c565b5b8152602001858152602001848152602001838152602001828152602001600115158152506002896040516103859190612249565b908152602001604051809103902060008201518160000190805190602001906103af929190611424565b5060208201518160010190805190602001906103cc929190611424565b5060408201518160020190805190602001906103e9929190611424565b5060608201518160030160006101000a81548160ff0219169083600581111561041557610414611a0c565b5b02179055506080820151816004019080519060200190610436929190611424565b5060a08201518160050190805190602001906104539291906114aa565b5060c0820151816006019080519060200190610470929190611424565b5060e082015181600701556101008201518160080160006101000a81548160ff0219169083151502179055509050505050505050505050565b6002818051602081018201805184825260208301602085012081835280955050505050506000915090508060000180546104e29061228f565b80601f016020809104026020016040519081016040528092919081815260200182805461050e9061228f565b801561055b5780601f106105305761010080835404028352916020019161055b565b820191906000526020600020905b81548152906001019060200180831161053e57829003601f168201915b5050505050908060010180546105709061228f565b80601f016020809104026020016040519081016040528092919081815260200182805461059c9061228f565b80156105e95780601f106105be576101008083540402835291602001916105e9565b820191906000526020600020905b8154815290600101906020018083116105cc57829003601f168201915b5050505050908060020180546105fe9061228f565b80601f016020809104026020016040519081016040528092919081815260200182805461062a9061228f565b80156106775780601f1061064c57610100808354040283529160200191610677565b820191906000526020600020905b81548152906001019060200180831161065a57829003601f168201915b5050505050908060030160009054906101000a900460ff169080600401805461069f9061228f565b80601f01602080910402602001604051908101604052809291908181526020018280546106cb9061228f565b80156107185780601f106106ed57610100808354040283529160200191610718565b820191906000526020600020905b8154815290600101906020018083116106fb57829003601f168201915b50505050509080600601805461072d9061228f565b80601f01602080910402602001604051908101604052809291908181526020018280546107599061228f565b80156107a65780601f1061077b576101008083540402835291602001916107a6565b820191906000526020600020905b81548152906001019060200180831161078957829003601f168201915b5050505050908060070154908060080160009054906101000a900460ff16905088565b60008054906101000a900473ffffffffffffffffffffffffffffffffffffffff1673ffffffffffffffffffffffffffffffffffffffff163373ffffffffffffffffffffffffffffffffffffffff161461082157600080fd5b60016004828154811061083757610836612110565b5b906000526020600020906005020160040160006101000a81548160ff02191690831515021790555050565b60008054906101000a900473ffffffffffffffffffffffffffffffffffffffff1673ffffffffffffffffffffffffffffffffffffffff163373ffffffffffffffffffffffffffffffffffffffff16146108ba57600080fd5b60046040518060a0016040528087878080601f016020809104026020016040519081016040528093929190818152602001838380828437600081840152601f19601f820116905080830192505050505050508152602001858152602001848152602001838152602001600115158152509080600181540180825580915050600190039060005260206000209060050201600090919091909150600082015181600001908051906020019061096f929190611424565b5060208201518160010155604082015181600201556060820151816003015560808201518160040160006101000a81548160ff02191690831515021790555050505050505050565b60008054906101000a900473ffffffffffffffffffffffffffffffffffffffff1673ffffffffffffffffffffffffffffffffffffffff163373ffffffffffffffffffffffffffffffffffffffff1614610a0f57600080fd5b6004805490508410610a2057600080fd5b8260048581548110610a3557610a34612110565b5b9060005260206000209060050201600101819055508160048581548110610a5f57610a5e612110565b5b9060005260206000209060050201600101819055508060048581548110610a8957610a88612110565b5b90600052602060002090600502016001018190555050505050565b60008054906101000a900473ffffffffffffffffffffffffffffffffffffffff1673ffffffffffffffffffffffffffffffffffffffff163373ffffffffffffffffffffffffffffffffffffffff1614610afc57600080fd5b600060048281548110610b1257610b11612110565b5b906000526020600020906005020160040160006101000a81548160ff02191690831515021790555050565b60048181548110610b4d57600080fd5b9060005260206000209060050201600091509050806000018054610b709061228f565b80601f0160208091040260200160405190810160405280929190818152602001828054610b9c9061228f565b8015610be95780601f10610bbe57610100808354040283529160200191610be9565b820191906000526020600020905b815481529060010190602001808311610bcc57829003601f168201915b5050505050908060010154908060020154908060030154908060040160009054906101000a900460ff16905085565b6001828051602081018201805184825260208301602085012081835280955050505050508181548110610c4a57600080fd5b906000526020600020906009020160009150915050806000018054610c6e9061228f565b80601f0160208091040260200160405190810160405280929190818152602001828054610c9a9061228f565b8015610ce75780601f10610cbc57610100808354040283529160200191610ce7565b820191906000526020600020905b815481529060010190602001808311610cca57829003601f168201915b505050505090806001018054610cfc9061228f565b80601f0160208091040260200160405190810160405280929190818152602001828054610d289061228f565b8015610d755780601f10610d4a57610100808354040283529160200191610d75565b820191906000526020600020905b815481529060010190602001808311610d5857829003601f168201915b505050505090806002018054610d8a9061228f565b80601f0160208091040260200160405190810160405280929190818152602001828054610db69061228f565b8015610e035780601f10610dd857610100808354040283529160200191610e03565b820191906000526020600020905b815481529060010190602001808311610de657829003601f168201915b5050505050908060030160009054906101000a900460ff1690806004018054610e2b9061228f565b80601f0160208091040260200160405190810160405280929190818152602001828054610e579061228f565b8015610ea45780601f10610e7957610100808354040283529160200191610ea4565b820191906000526020600020905b815481529060010190602001808311610e8757829003601f168201915b505050505090806006018054610eb99061228f565b80601f0160208091040260200160405190810160405280929190818152602001828054610ee59061228f565b8015610f325780601f10610f0757610100808354040283529160200191610f32565b820191906000526020600020905b815481529060010190602001808311610f1557829003601f168201915b5050505050908060070154908060080160009054906101000a900460ff16905088565b610f5d6114f7565b60028383604051610f6f9291906122e6565b908152602001604051809103902060405180610120016040529081600082018054610f999061228f565b80601f0160208091040260200160405190810160405280929190818152602001828054610fc59061228f565b80156110125780601f10610fe757610100808354040283529160200191611012565b820191906000526020600020905b815481529060010190602001808311610ff557829003601f168201915b5050505050815260200160018201805461102b9061228f565b80601f01602080910402602001604051908101604052809291908181526020018280546110579061228f565b80156110a45780601f10611079576101008083540402835291602001916110a4565b820191906000526020600020905b81548152906001019060200180831161108757829003601f168201915b505050505081526020016002820180546110bd9061228f565b80601f01602080910402602001604051908101604052809291908181526020018280546110e99061228f565b80156111365780601f1061110b57610100808354040283529160200191611136565b820191906000526020600020905b81548152906001019060200180831161111957829003601f168201915b505050505081526020016003820160009054906101000a900460ff16600581111561116457611163611a0c565b5b600581111561117657611175611a0c565b5b815260200160048201805461118a9061228f565b80601f01602080910402602001604051908101604052809291908181526020018280546111b69061228f565b80156112035780601f106111d857610100808354040283529160200191611203565b820191906000526020600020905b8154815290600101906020018083116111e657829003601f168201915b505050505081526020016005820180548060200260200160405190810160405280929190818152602001828054801561125b57602002820191906000526020600020905b815481526020019060010190808311611247575b505050505081526020016006820180546112749061228f565b80601f01602080910402602001604051908101604052809291908181526020018280546112a09061228f565b80156112ed5780601f106112c2576101008083540402835291602001916112ed565b820191906000526020600020905b8154815290600101906020018083116112d057829003601f168201915b50505050508152602001600782015481526020016008820160009054906101000a900460ff161515151581525050905092915050565b60008054906101000a900473ffffffffffffffffffffffffffffffffffffffff1681565b60036020528060005260406000206000915054906101000a900460ff1681565b60008054906101000a900473ffffffffffffffffffffffffffffffffffffffff1673ffffffffffffffffffffffffffffffffffffffff163373ffffffffffffffffffffffffffffffffffffffff16146113bf57600080fd5b6001600360008373ffffffffffffffffffffffffffffffffffffffff1673ffffffffffffffffffffffffffffffffffffffff16815260200190815260200160002060006101000a81548160ff02191690831515021790555050565b6000819050919050565b8280546114309061228f565b90600052602060002090601f0160209004810192826114525760008555611499565b82601f1061146b57805160ff1916838001178555611499565b82800160010185558215611499579182015b8281111561149857825182559160200191906001019061147d565b5b5090506114a69190611557565b5090565b8280548282559060005260206000209081019282156114e6579160200282015b828111156114e55782518255916020019190600101906114ca565b5b5090506114f39190611557565b5090565b6040518061012001604052806060815260200160608152602001606081526020016000600581111561152c5761152b611a0c565b5b8152602001606081526020016060815260200160608152602001600081526020016000151581525090565b5b80821115611570576000816000905550600101611558565b5090565b6000604051905090565b600080fd5b600080fd5b600080fd5b600080fd5b6000601f19601f8301169050919050565b7f4e487b7100000000000000000000000000000000000000000000000000000000600052604160045260246000fd5b6115db82611592565b810181811067ffffffffffffffff821117156115fa576115f96115a3565b5b80604052505050565b600061160d611574565b905061161982826115d2565b919050565b600067ffffffffffffffff821115611639576116386115a3565b5b61164282611592565b9050602081019050919050565b82818337600083830152505050565b600061167161166c8461161e565b611603565b90508281526020810184848401111561168d5761168c61158d565b5b61169884828561164f565b509392505050565b600082601f8301126116b5576116b4611588565b5b81356116c584826020860161165e565b91505092915050565b600681106116db57600080fd5b50565b6000813590506116ed816116ce565b92915050565b600067ffffffffffffffff82111561170e5761170d6115a3565b5b602082029050602081019050919050565b600080fd5b6000819050919050565b61173781611724565b811461174257600080fd5b50565b6000813590506117548161172e565b92915050565b600061176d611768846116f3565b611603565b905080838252602082019050602084028301858111156117905761178f61171f565b5b835b818110156117b957806117a58882611745565b845260208401935050602081019050611792565b5050509392505050565b600082601f8301126117d8576117d7611588565b5b81356117e884826020860161175a565b91505092915050565b600080600080600080600060e0888a0312156118105761180f61157e565b5b600088013567ffffffffffffffff81111561182e5761182d611583565b5b61183a8a828b016116a0565b975050602088013567ffffffffffffffff81111561185b5761185a611583565b5b6118678a828b016116a0565b965050604088013567ffffffffffffffff81111561188857611887611583565b5b6118948a828b016116a0565b95505060606118a58a828b016116de565b945050608088013567ffffffffffffffff8111156118c6576118c5611583565b5b6118d28a828b016116a0565b93505060a088013567ffffffffffffffff8111156118f3576118f2611583565b5b6118ff8a828b016117c3565b92505060c088013567ffffffffffffffff8111156119205761191f611583565b5b61192c8a828b016116a0565b91505092959891949750929550565b6000602082840312156119515761195061157e565b5b600082013567ffffffffffffffff81111561196f5761196e611583565b5b61197b848285016116a0565b91505092915050565b600081519050919050565b600082825260208201905092915050565b60005b838110156119be5780820151818401526020810190506119a3565b838111156119cd576000848401525b50505050565b60006119de82611984565b6119e8818561198f565b93506119f88185602086016119a0565b611a0181611592565b840191505092915050565b7f4e487b7100000000000000000000000000000000000000000000000000000000600052602160045260246000fd5b60068110611a4c57611a4b611a0c565b5b50565b6000819050611a5d82611a3b565b919050565b6000611a6d82611a4f565b9050919050565b611a7d81611a62565b82525050565b611a8c81611724565b82525050565b60008115159050919050565b611aa781611a92565b82525050565b6000610100820190508181036000830152611ac8818b6119d3565b90508181036020830152611adc818a6119d3565b90508181036040830152611af081896119d3565b9050611aff6060830188611a74565b8181036080830152611b1181876119d3565b905081810360a0830152611b2581866119d3565b9050611b3460c0830185611a83565b611b4160e0830184611a9e565b9998505050505050505050565b600060208284031215611b6457611b6361157e565b5b6000611b7284828501611745565b91505092915050565b600080fd5b60008083601f840112611b9657611b95611588565b5b8235905067ffffffffffffffff811115611bb357611bb2611b7b565b5b602083019150836001820283011115611bcf57611bce61171f565b5b9250929050565b600080600080600060808688031215611bf257611bf161157e565b5b600086013567ffffffffffffffff811115611c1057611c0f611583565b5b611c1c88828901611b80565b95509550506020611c2f88828901611745565b9350506040611c4088828901611745565b9250506060611c5188828901611745565b9150509295509295909350565b60008060008060808587031215611c7857611c7761157e565b5b6000611c8687828801611745565b9450506020611c9787828801611745565b9350506040611ca887828801611745565b9250506060611cb987828801611745565b91505092959194509250565b600060a0820190508181036000830152611cdf81886119d3565b9050611cee6020830187611a83565b611cfb6040830186611a83565b611d086060830185611a83565b611d156080830184611a9e565b9695505050505050565b60008060408385031215611d3657611d3561157e565b5b600083013567ffffffffffffffff811115611d5457611d53611583565b5b611d60858286016116a0565b9250506020611d7185828601611745565b9150509250929050565b60008060208385031215611d9257611d9161157e565b5b600083013567ffffffffffffffff811115611db057611daf611583565b5b611dbc85828601611b80565b92509250509250929050565b600082825260208201905092915050565b6000611de482611984565b611dee8185611dc8565b9350611dfe8185602086016119a0565b611e0781611592565b840191505092915050565b611e1b81611a62565b82525050565b600081519050919050565b600082825260208201905092915050565b6000819050602082019050919050565b611e5681611724565b82525050565b6000611e688383611e4d565b60208301905092915050565b6000602082019050919050565b6000611e8c82611e21565b611e968185611e2c565b9350611ea183611e3d565b8060005b83811015611ed2578151611eb98882611e5c565b9750611ec483611e74565b925050600181019050611ea5565b5085935050505092915050565b611ee881611a92565b82525050565b6000610120830160008301518482036000860152611f0c8282611dd9565b91505060208301518482036020860152611f268282611dd9565b91505060408301518482036040860152611f408282611dd9565b9150506060830151611f556060860182611e12565b5060808301518482036080860152611f6d8282611dd9565b91505060a083015184820360a0860152611f878282611e81565b91505060c083015184820360c0860152611fa18282611dd9565b91505060e0830151611fb660e0860182611e4d565b50610100830151611fcb610100860182611edf565b508091505092915050565b60006020820190508181036000830152611ff08184611eee565b905092915050565b600073ffffffffffffffffffffffffffffffffffffffff82169050919050565b600061202382611ff8565b9050919050565b61203381612018565b82525050565b600060208201905061204e600083018461202a565b92915050565b61205d81612018565b811461206857600080fd5b50565b60008135905061207a81612054565b92915050565b6000602082840312156120965761209561157e565b5b60006120a48482850161206b565b91505092915050565b60006020820190506120c26000830184611a9e565b92915050565b6000602082840312156120de576120dd61157e565b5b60006120ec848285016116de565b91505092915050565b600060208201905061210a6000830184611a74565b92915050565b7f4e487b7100000000000000000000000000000000000000000000000000000000600052603260045260246000fd5b7f4e487b7100000000000000000000000000000000000000000000000000000000600052601160045260246000fd5b600061217982611724565b915061218483611724565b9250827fffffffffffffffffffffffffffffffffffffffffffffffffffffffffffffffff038211156121b9576121b861213f565b5b828201905092915050565b60006121cf82611724565b91507fffffffffffffffffffffffffffffffffffffffffffffffffffffffffffffffff8214156122025761220161213f565b5b600182019050919050565b600081905092915050565b600061222382611984565b61222d818561220d565b935061223d8185602086016119a0565b80840191505092915050565b60006122558284612218565b915081905092915050565b7f4e487b7100000000000000000000000000000000000000000000000000000000600052602260045260246000fd5b600060028204905060018216806122a757607f821691505b602082108114156122bb576122ba612260565b5b50919050565b60006122cd838561220d565b93506122da83858461164f565b82840190509392505050565b60006122f38284866122c1565b9150819050939250505056fea2646970667358221220a8198f73fa38521ad0f32f88a0911c48753357035d4cfac4415f82fa346b848964736f6c634300080a0033",
  "immutableReferences": {},
  "source": "// SPDX-License-Identifier: MIT\r\npragma solidity >=0.4.22 <0.9.0;\r\n\r\ncontract Final6{\r\n    enum VehicleType {Motorcycle,Motorcar,Jeep,PublicServiceVehicle,PrivateCarrier,PublicCarrier}\r\n\r\n    struct Challan{\r\n    string LicenseID; //license id of citizen\r\n    string CitizenName; \r\n    string CitizenCNIC;\r\n    VehicleType CarType; \r\n    string CarNumberPlate;\r\n    uint[] VoilationCode;  //------list of voilated rules\r\n    string timeStamp;\r\n    uint Fine;\r\n    bool status;\r\n    }\r\n\r\n    struct VoilationRule{\r\n    string Description; //description of the rule\r\n    // uint Fine; \r\n    uint ACategoryVehicle_Fine;  //includes motorcycle\r\n    uint BCategoryVehicle_Fine;\r\n    uint CCategoryVehicle_Fine;\r\n    bool status;\r\n    }\r\n\r\n    address public Owner; //adminstrator who manages who can add challan etc.\r\n    mapping(string=>Challan[]) public PreviousChallan; //use to store all previous challans of citizens\r\n    mapping(string=>Challan) public ActiveChallan;  //use to store current active challans of citizen\r\n    mapping(address=>bool) public TP; //mapping for traffic police(TP) , who can add Challan\r\n    VoilationRule[] public RuleList; //list of traffic rules\r\n\r\n    constructor(){\r\n        Owner=msg.sender;\r\n    }\r\n\r\n////////////////////////////////////////////////////////////////functions related to admin\r\n    function addTrafficPolice(address _TP) public{//add traffic police who can add challans\r\n        require(msg.sender==Owner);\r\n        TP[_TP]=true;\r\n    }\r\n\r\n    function addTrafficRule(string calldata _description,uint _Afine,uint _Bfine,uint _Cfine) public{  \r\n        require(msg.sender==Owner);\r\n        RuleList.push(VoilationRule(_description,_Afine,_Bfine,_Cfine,true));\r\n    }\r\n\r\n    function updatePriceForRule(uint _ruleID,uint _Afine,uint _Bfine,uint _Cfine) public{ //update price of rule by giving its rule code \r\n        require(msg.sender==Owner);\r\n        require(_ruleID<(RuleList.length));\r\n        RuleList[_ruleID]. ACategoryVehicle_Fine=_Afine;\r\n        RuleList[_ruleID]. ACategoryVehicle_Fine=_Bfine;\r\n        RuleList[_ruleID]. ACategoryVehicle_Fine=_Cfine;\r\n    }\r\n\r\n    \r\n    function deactivateRule(uint _ruleID) public{\r\n        require(msg.sender==Owner);\r\n        RuleList[_ruleID].status=false;\r\n    }\r\n\r\n    function activateRule(uint _ruleID) public{\r\n        require(msg.sender==Owner);\r\n        RuleList[_ruleID].status=true;\r\n    } \r\n\r\n    //////////////////////////////////////////////////////////////////////////////////////////////////////////\r\n\r\n    function deleteActiveChallan(string memory _LicenseID) internal { //removes user from active challan\r\n        delete ActiveChallan[_LicenseID];\r\n    }\r\n\r\n    function addChallan(string memory _LicenseID,string memory _Name,string memory _CNIC,VehicleType _Car,string memory _carPlate,uint[] memory _voilatedRules,string memory _timeStamp) public{\r\n        // require(TP[msg.sender]==true);\r\n        uint VoilationFee=0;\r\n        for(uint i=0;i<_voilatedRules.length;i++){\r\n            VoilationFee+=RuleList[i].ACategoryVehicle_Fine;\r\n        }\r\n        ActiveChallan[_LicenseID]=Challan(_LicenseID,_Name,_CNIC,_Car,_carPlate,_voilatedRules,_timeStamp,VoilationFee,true);\r\n    }\r\n\r\n    function test(VehicleType _temp) public pure returns(VehicleType){\r\n        return _temp;\r\n    }\r\n\r\n    function getCurrentChallan(string calldata _LicenseID) public view returns(Challan memory){\r\n        return ActiveChallan[_LicenseID];\r\n    }\r\n    // function getChallan(string calldata) public returns(){\r\n\r\n    // } \r\n\r\n    // function getChallan(string calldata LicenseID) public{\r\n        \r\n    // }\r\n    \r\n\r\n}",
  "sourcePath": "F:\\BL project\\contracts\\Final6.sol",
  "compiler": {
    "name": "solc",
    "version": "0.8.10+commit.fc410830.Emscripten.clang"
  },
  "schemaVersion": "3.4.3",
  "updatedAt": "2021-12-19T23:05:32.261Z",
  "devdoc": {
    "kind": "dev",
    "methods": {},
    "version": 1
  },
  "userdoc": {
    "kind": "user",
    "methods": {},
    "version": 1
  }
}