{
  "contractName": "Final2",
  "abi": [
    {
      "inputs": [],
      "stateMutability": "nonpayable",
      "type": "constructor"
    },
    {
      "inputs": [
        {
          "internalType": "string",
          "name": "",
          "type": "string"
        }
      ],
      "name": "ActiveChallan",
      "outputs": [
        {
          "internalType": "string",
          "name": "LicenseID",
          "type": "string"
        },
        {
          "internalType": "string",
          "name": "CitizenName",
          "type": "string"
        },
        {
          "internalType": "string",
          "name": "CitizenCNIC",
          "type": "string"
        },
        {
          "internalType": "enum Final2.VehicleType",
          "name": "CarType",
          "type": "uint8"
        },
        {
          "internalType": "string",
          "name": "CarNumberPlate",
          "type": "string"
        },
        {
          "internalType": "string",
          "name": "timeStamp",
          "type": "string"
        },
        {
          "internalType": "uint256",
          "name": "Fine",
          "type": "uint256"
        },
        {
          "internalType": "bool",
          "name": "status",
          "type": "bool"
        }
      ],
      "stateMutability": "view",
      "type": "function"
    },
    {
      "inputs": [],
      "name": "Owner",
      "outputs": [
        {
          "internalType": "address",
          "name": "",
          "type": "address"
        }
      ],
      "stateMutability": "view",
      "type": "function"
    },
    {
      "inputs": [
        {
          "internalType": "string",
          "name": "",
          "type": "string"
        },
        {
          "internalType": "uint256",
          "name": "",
          "type": "uint256"
        }
      ],
      "name": "PreviousChallan",
      "outputs": [
        {
          "internalType": "string",
          "name": "LicenseID",
          "type": "string"
        },
        {
          "internalType": "string",
          "name": "CitizenName",
          "type": "string"
        },
        {
          "internalType": "string",
          "name": "CitizenCNIC",
          "type": "string"
        },
        {
          "internalType": "enum Final2.VehicleType",
          "name": "CarType",
          "type": "uint8"
        },
        {
          "internalType": "string",
          "name": "CarNumberPlate",
          "type": "string"
        },
        {
          "internalType": "string",
          "name": "timeStamp",
          "type": "string"
        },
        {
          "internalType": "uint256",
          "name": "Fine",
          "type": "uint256"
        },
        {
          "internalType": "bool",
          "name": "status",
          "type": "bool"
        }
      ],
      "stateMutability": "view",
      "type": "function"
    },
    {
      "inputs": [
        {
          "internalType": "uint256",
          "name": "",
          "type": "uint256"
        }
      ],
      "name": "RuleList",
      "outputs": [
        {
          "internalType": "string",
          "name": "Description",
          "type": "string"
        },
        {
          "internalType": "uint256",
          "name": "ACategoryVehicle_Fine",
          "type": "uint256"
        },
        {
          "internalType": "uint256",
          "name": "BCategoryVehicle_Fine",
          "type": "uint256"
        },
        {
          "internalType": "uint256",
          "name": "CCategoryVehicle_Fine",
          "type": "uint256"
        },
        {
          "internalType": "bool",
          "name": "status",
          "type": "bool"
        }
      ],
      "stateMutability": "view",
      "type": "function"
    },
    {
      "inputs": [
        {
          "internalType": "address",
          "name": "",
          "type": "address"
        }
      ],
      "name": "TP",
      "outputs": [
        {
          "internalType": "bool",
          "name": "",
          "type": "bool"
        }
      ],
      "stateMutability": "view",
      "type": "function"
    },
    {
      "inputs": [
        {
          "internalType": "address",
          "name": "_TP",
          "type": "address"
        }
      ],
      "name": "addTrafficPolice",
      "outputs": [],
      "stateMutability": "nonpayable",
      "type": "function"
    },
    {
      "inputs": [
        {
          "internalType": "string",
          "name": "_description",
          "type": "string"
        },
        {
          "internalType": "uint256",
          "name": "_Afine",
          "type": "uint256"
        },
        {
          "internalType": "uint256",
          "name": "_Bfine",
          "type": "uint256"
        },
        {
          "internalType": "uint256",
          "name": "_Cfine",
          "type": "uint256"
        }
      ],
      "name": "addTrafficRule",
      "outputs": [],
      "stateMutability": "nonpayable",
      "type": "function"
    },
    {
      "inputs": [
        {
          "internalType": "uint256",
          "name": "_ruleID",
          "type": "uint256"
        },
        {
          "internalType": "uint256",
          "name": "_Afine",
          "type": "uint256"
        },
        {
          "internalType": "uint256",
          "name": "_Bfine",
          "type": "uint256"
        },
        {
          "internalType": "uint256",
          "name": "_Cfine",
          "type": "uint256"
        }
      ],
      "name": "updatePriceForRule",
      "outputs": [],
      "stateMutability": "nonpayable",
      "type": "function"
    },
    {
      "inputs": [
        {
          "internalType": "uint256",
          "name": "_ruleID",
          "type": "uint256"
        }
      ],
      "name": "deactivateRule",
      "outputs": [],
      "stateMutability": "nonpayable",
      "type": "function"
    },
    {
      "inputs": [
        {
          "internalType": "uint256",
          "name": "_ruleID",
          "type": "uint256"
        }
      ],
      "name": "activateRule",
      "outputs": [],
      "stateMutability": "nonpayable",
      "type": "function"
    },
    {
      "inputs": [
        {
          "internalType": "string",
          "name": "_LicenseID",
          "type": "string"
        },
        {
          "internalType": "string",
          "name": "_Name",
          "type": "string"
        },
        {
          "internalType": "string",
          "name": "_CNIC",
          "type": "string"
        },
        {
          "internalType": "enum Final2.VehicleType",
          "name": "_Car",
          "type": "uint8"
        },
        {
          "internalType": "string",
          "name": "_carPlate",
          "type": "string"
        },
        {
          "internalType": "uint256[]",
          "name": "_voilatedRules",
          "type": "uint256[]"
        },
        {
          "internalType": "string",
          "name": "_timeStamp",
          "type": "string"
        }
      ],
      "name": "addChallan",
      "outputs": [],
      "stateMutability": "nonpayable",
      "type": "function"
    },
    {
      "inputs": [
        {
          "internalType": "enum Final2.VehicleType",
          "name": "_temp",
          "type": "uint8"
        }
      ],
      "name": "test",
      "outputs": [
        {
          "internalType": "enum Final2.VehicleType",
          "name": "",
          "type": "uint8"
        }
      ],
      "stateMutability": "pure",
      "type": "function"
    }
  ],
  "bytecode": "0x608060405234801561001057600080fd5b50336000806101000a81548173ffffffffffffffffffffffffffffffffffffffff021916908373ffffffffffffffffffffffffffffffffffffffff160217905550611c5e806100606000396000f3fe608060405234801561001057600080fd5b50600436106100b45760003560e01c80633ed70cd5116100715780633ed70cd51461017c57806356beeaf0146101b0578063b4a99a4e146101e7578063e051347b14610205578063f0661a6414610235578063f1820bdc14610251576100b4565b806301ccde53146100b957806320e2bf85146100d55780632b942d5b1461010c5780632e2c0aae1461012857806332fd20cd146101445780633a758ccc14610160575b600080fd5b6100d360048036038101906100ce91906113d5565b610281565b005b6100ef60048036038101906100ea919061151f565b6104bb565b604051610103989796959493929190611691565b60405180910390f35b61012660048036038101906101219190611732565b6107db565b005b610142600480360381019061013d91906117ba565b610874565b005b61015e60048036038101906101599190611842565b6109c9565b005b61017a60048036038101906101759190611732565b610ab6565b005b61019660048036038101906101919190611732565b610b4f565b6040516101a79594939291906118a9565b60405180910390f35b6101ca60048036038101906101c59190611903565b610c2a565b6040516101de989796959493929190611691565b60405180910390f35b6101ef610f67565b6040516101fc91906119a0565b60405180910390f35b61021f600480360381019061021a91906119e7565b610f8b565b60405161022c9190611a14565b60405180910390f35b61024f600480360381019061024a91906119e7565b610fab565b005b61026b60048036038101906102669190611a2f565b61105e565b6040516102789190611a5c565b60405180910390f35b60011515600360003373ffffffffffffffffffffffffffffffffffffffff1673ffffffffffffffffffffffffffffffffffffffff16815260200190815260200160002060009054906101000a900460ff161515146102de57600080fd5b6000805b835181101561033157600481815481106102ff576102fe611a77565b5b9060005260206000209060050201600101548261031c9190611ad5565b9150808061032990611b2b565b9150506102e2565b50604051806101200160405280898152602001888152602001878152602001866005811115610363576103626115f0565b5b8152602001858152602001848152602001838152602001828152602001600115158152506002896040516103979190611bb0565b908152602001604051809103902060008201518160000190805190602001906103c1929190611068565b5060208201518160010190805190602001906103de929190611068565b5060408201518160020190805190602001906103fb929190611068565b5060608201518160030160006101000a81548160ff02191690836005811115610427576104266115f0565b5b02179055506080820151816004019080519060200190610448929190611068565b5060a08201518160050190805190602001906104659291906110ee565b5060c0820151816006019080519060200190610482929190611068565b5060e082015181600701556101008201518160080160006101000a81548160ff0219169083151502179055509050505050505050505050565b6002818051602081018201805184825260208301602085012081835280955050505050506000915090508060000180546104f490611bf6565b80601f016020809104026020016040519081016040528092919081815260200182805461052090611bf6565b801561056d5780601f106105425761010080835404028352916020019161056d565b820191906000526020600020905b81548152906001019060200180831161055057829003601f168201915b50505050509080600101805461058290611bf6565b80601f01602080910402602001604051908101604052809291908181526020018280546105ae90611bf6565b80156105fb5780601f106105d0576101008083540402835291602001916105fb565b820191906000526020600020905b8154815290600101906020018083116105de57829003601f168201915b50505050509080600201805461061090611bf6565b80601f016020809104026020016040519081016040528092919081815260200182805461063c90611bf6565b80156106895780601f1061065e57610100808354040283529160200191610689565b820191906000526020600020905b81548152906001019060200180831161066c57829003601f168201915b5050505050908060030160009054906101000a900460ff16908060040180546106b190611bf6565b80601f01602080910402602001604051908101604052809291908181526020018280546106dd90611bf6565b801561072a5780601f106106ff5761010080835404028352916020019161072a565b820191906000526020600020905b81548152906001019060200180831161070d57829003601f168201915b50505050509080600601805461073f90611bf6565b80601f016020809104026020016040519081016040528092919081815260200182805461076b90611bf6565b80156107b85780601f1061078d576101008083540402835291602001916107b8565b820191906000526020600020905b81548152906001019060200180831161079b57829003601f168201915b5050505050908060070154908060080160009054906101000a900460ff16905088565b60008054906101000a900473ffffffffffffffffffffffffffffffffffffffff1673ffffffffffffffffffffffffffffffffffffffff163373ffffffffffffffffffffffffffffffffffffffff161461083357600080fd5b60016004828154811061084957610848611a77565b5b906000526020600020906005020160040160006101000a81548160ff02191690831515021790555050565b60008054906101000a900473ffffffffffffffffffffffffffffffffffffffff1673ffffffffffffffffffffffffffffffffffffffff163373ffffffffffffffffffffffffffffffffffffffff16146108cc57600080fd5b60046040518060a0016040528087878080601f016020809104026020016040519081016040528093929190818152602001838380828437600081840152601f19601f8201169050808301925050505050505081526020018581526020018481526020018381526020016001151581525090806001815401808255809150506001900390600052602060002090600502016000909190919091506000820151816000019080519060200190610981929190611068565b5060208201518160010155604082015181600201556060820151816003015560808201518160040160006101000a81548160ff02191690831515021790555050505050505050565b60008054906101000a900473ffffffffffffffffffffffffffffffffffffffff1673ffffffffffffffffffffffffffffffffffffffff163373ffffffffffffffffffffffffffffffffffffffff1614610a2157600080fd5b6004805490508410610a3257600080fd5b8260048581548110610a4757610a46611a77565b5b9060005260206000209060050201600101819055508160048581548110610a7157610a70611a77565b5b9060005260206000209060050201600101819055508060048581548110610a9b57610a9a611a77565b5b90600052602060002090600502016001018190555050505050565b60008054906101000a900473ffffffffffffffffffffffffffffffffffffffff1673ffffffffffffffffffffffffffffffffffffffff163373ffffffffffffffffffffffffffffffffffffffff1614610b0e57600080fd5b600060048281548110610b2457610b23611a77565b5b906000526020600020906005020160040160006101000a81548160ff02191690831515021790555050565b60048181548110610b5f57600080fd5b9060005260206000209060050201600091509050806000018054610b8290611bf6565b80601f0160208091040260200160405190810160405280929190818152602001828054610bae90611bf6565b8015610bfb5780601f10610bd057610100808354040283529160200191610bfb565b820191906000526020600020905b815481529060010190602001808311610bde57829003601f168201915b5050505050908060010154908060020154908060030154908060040160009054906101000a900460ff16905085565b6001828051602081018201805184825260208301602085012081835280955050505050508181548110610c5c57600080fd5b906000526020600020906009020160009150915050806000018054610c8090611bf6565b80601f0160208091040260200160405190810160405280929190818152602001828054610cac90611bf6565b8015610cf95780601f10610cce57610100808354040283529160200191610cf9565b820191906000526020600020905b815481529060010190602001808311610cdc57829003601f168201915b505050505090806001018054610d0e90611bf6565b80601f0160208091040260200160405190810160405280929190818152602001828054610d3a90611bf6565b8015610d875780601f10610d5c57610100808354040283529160200191610d87565b820191906000526020600020905b815481529060010190602001808311610d6a57829003601f168201915b505050505090806002018054610d9c90611bf6565b80601f0160208091040260200160405190810160405280929190818152602001828054610dc890611bf6565b8015610e155780601f10610dea57610100808354040283529160200191610e15565b820191906000526020600020905b815481529060010190602001808311610df857829003601f168201915b5050505050908060030160009054906101000a900460ff1690806004018054610e3d90611bf6565b80601f0160208091040260200160405190810160405280929190818152602001828054610e6990611bf6565b8015610eb65780601f10610e8b57610100808354040283529160200191610eb6565b820191906000526020600020905b815481529060010190602001808311610e9957829003601f168201915b505050505090806006018054610ecb90611bf6565b80601f0160208091040260200160405190810160405280929190818152602001828054610ef790611bf6565b8015610f445780601f10610f1957610100808354040283529160200191610f44565b820191906000526020600020905b815481529060010190602001808311610f2757829003601f168201915b5050505050908060070154908060080160009054906101000a900460ff16905088565b60008054906101000a900473ffffffffffffffffffffffffffffffffffffffff1681565b60036020528060005260406000206000915054906101000a900460ff1681565b60008054906101000a900473ffffffffffffffffffffffffffffffffffffffff1673ffffffffffffffffffffffffffffffffffffffff163373ffffffffffffffffffffffffffffffffffffffff161461100357600080fd5b6001600360008373ffffffffffffffffffffffffffffffffffffffff1673ffffffffffffffffffffffffffffffffffffffff16815260200190815260200160002060006101000a81548160ff02191690831515021790555050565b6000819050919050565b82805461107490611bf6565b90600052602060002090601f01602090048101928261109657600085556110dd565b82601f106110af57805160ff19168380011785556110dd565b828001600101855582156110dd579182015b828111156110dc5782518255916020019190600101906110c1565b5b5090506110ea919061113b565b5090565b82805482825590600052602060002090810192821561112a579160200282015b8281111561112957825182559160200191906001019061110e565b5b509050611137919061113b565b5090565b5b8082111561115457600081600090555060010161113c565b5090565b6000604051905090565b600080fd5b600080fd5b600080fd5b600080fd5b6000601f19601f8301169050919050565b7f4e487b7100000000000000000000000000000000000000000000000000000000600052604160045260246000fd5b6111bf82611176565b810181811067ffffffffffffffff821117156111de576111dd611187565b5b80604052505050565b60006111f1611158565b90506111fd82826111b6565b919050565b600067ffffffffffffffff82111561121d5761121c611187565b5b61122682611176565b9050602081019050919050565b82818337600083830152505050565b600061125561125084611202565b6111e7565b90508281526020810184848401111561127157611270611171565b5b61127c848285611233565b509392505050565b600082601f8301126112995761129861116c565b5b81356112a9848260208601611242565b91505092915050565b600681106112bf57600080fd5b50565b6000813590506112d1816112b2565b92915050565b600067ffffffffffffffff8211156112f2576112f1611187565b5b602082029050602081019050919050565b600080fd5b6000819050919050565b61131b81611308565b811461132657600080fd5b50565b60008135905061133881611312565b92915050565b600061135161134c846112d7565b6111e7565b9050808382526020820190506020840283018581111561137457611373611303565b5b835b8181101561139d57806113898882611329565b845260208401935050602081019050611376565b5050509392505050565b600082601f8301126113bc576113bb61116c565b5b81356113cc84826020860161133e565b91505092915050565b600080600080600080600060e0888a0312156113f4576113f3611162565b5b600088013567ffffffffffffffff81111561141257611411611167565b5b61141e8a828b01611284565b975050602088013567ffffffffffffffff81111561143f5761143e611167565b5b61144b8a828b01611284565b965050604088013567ffffffffffffffff81111561146c5761146b611167565b5b6114788a828b01611284565b95505060606114898a828b016112c2565b945050608088013567ffffffffffffffff8111156114aa576114a9611167565b5b6114b68a828b01611284565b93505060a088013567ffffffffffffffff8111156114d7576114d6611167565b5b6114e38a828b016113a7565b92505060c088013567ffffffffffffffff81111561150457611503611167565b5b6115108a828b01611284565b91505092959891949750929550565b60006020828403121561153557611534611162565b5b600082013567ffffffffffffffff81111561155357611552611167565b5b61155f84828501611284565b91505092915050565b600081519050919050565b600082825260208201905092915050565b60005b838110156115a2578082015181840152602081019050611587565b838111156115b1576000848401525b50505050565b60006115c282611568565b6115cc8185611573565b93506115dc818560208601611584565b6115e581611176565b840191505092915050565b7f4e487b7100000000000000000000000000000000000000000000000000000000600052602160045260246000fd5b600681106116305761162f6115f0565b5b50565b60008190506116418261161f565b919050565b600061165182611633565b9050919050565b61166181611646565b82525050565b61167081611308565b82525050565b60008115159050919050565b61168b81611676565b82525050565b60006101008201905081810360008301526116ac818b6115b7565b905081810360208301526116c0818a6115b7565b905081810360408301526116d481896115b7565b90506116e36060830188611658565b81810360808301526116f581876115b7565b905081810360a083015261170981866115b7565b905061171860c0830185611667565b61172560e0830184611682565b9998505050505050505050565b60006020828403121561174857611747611162565b5b600061175684828501611329565b91505092915050565b600080fd5b60008083601f84011261177a5761177961116c565b5b8235905067ffffffffffffffff8111156117975761179661175f565b5b6020830191508360018202830111156117b3576117b2611303565b5b9250929050565b6000806000806000608086880312156117d6576117d5611162565b5b600086013567ffffffffffffffff8111156117f4576117f3611167565b5b61180088828901611764565b9550955050602061181388828901611329565b935050604061182488828901611329565b925050606061183588828901611329565b9150509295509295909350565b6000806000806080858703121561185c5761185b611162565b5b600061186a87828801611329565b945050602061187b87828801611329565b935050604061188c87828801611329565b925050606061189d87828801611329565b91505092959194509250565b600060a08201905081810360008301526118c381886115b7565b90506118d26020830187611667565b6118df6040830186611667565b6118ec6060830185611667565b6118f96080830184611682565b9695505050505050565b6000806040838503121561191a57611919611162565b5b600083013567ffffffffffffffff81111561193857611937611167565b5b61194485828601611284565b925050602061195585828601611329565b9150509250929050565b600073ffffffffffffffffffffffffffffffffffffffff82169050919050565b600061198a8261195f565b9050919050565b61199a8161197f565b82525050565b60006020820190506119b56000830184611991565b92915050565b6119c48161197f565b81146119cf57600080fd5b50565b6000813590506119e1816119bb565b92915050565b6000602082840312156119fd576119fc611162565b5b6000611a0b848285016119d2565b91505092915050565b6000602082019050611a296000830184611682565b92915050565b600060208284031215611a4557611a44611162565b5b6000611a53848285016112c2565b91505092915050565b6000602082019050611a716000830184611658565b92915050565b7f4e487b7100000000000000000000000000000000000000000000000000000000600052603260045260246000fd5b7f4e487b7100000000000000000000000000000000000000000000000000000000600052601160045260246000fd5b6000611ae082611308565b9150611aeb83611308565b9250827fffffffffffffffffffffffffffffffffffffffffffffffffffffffffffffffff03821115611b2057611b1f611aa6565b5b828201905092915050565b6000611b3682611308565b91507fffffffffffffffffffffffffffffffffffffffffffffffffffffffffffffffff821415611b6957611b68611aa6565b5b600182019050919050565b600081905092915050565b6000611b8a82611568565b611b948185611b74565b9350611ba4818560208601611584565b80840191505092915050565b6000611bbc8284611b7f565b915081905092915050565b7f4e487b7100000000000000000000000000000000000000000000000000000000600052602260045260246000fd5b60006002820490506001821680611c0e57607f821691505b60208210811415611c2257611c21611bc7565b5b5091905056fea264697066735822122097985c4be08e86f07bdc91328f242c821ef3a5971227733dbf5a203ea067fcbf64736f6c634300080a0033",
  "immutableReferences": {},
  "source": "// SPDX-License-Identifier: MIT\r\npragma solidity >=0.4.22 <0.9.0;\r\n\r\ncontract Final2{\r\n    enum VehicleType {Motorcycle,Motorcar,Jeep,PublicServiceVehicle,PrivateCarrier,PublicCarrier}\r\n\r\n    struct Challan{\r\n    string LicenseID; //license id of citizen\r\n    string CitizenName; \r\n    string CitizenCNIC;\r\n    VehicleType CarType; \r\n    string CarNumberPlate;\r\n    uint[] VoilationCode;  //------list of voilated rules\r\n    string timeStamp;\r\n    uint Fine;\r\n    bool status;\r\n    }\r\n\r\n    struct VoilationRule{\r\n    string Description; //description of the rule\r\n    // uint Fine; \r\n    uint ACategoryVehicle_Fine;  //includes motorcycle\r\n    uint BCategoryVehicle_Fine;\r\n    uint CCategoryVehicle_Fine;\r\n    bool status;\r\n    }\r\n\r\n    address public Owner; //adminstrator who manages who can add challan etc.\r\n    mapping(string=>Challan[]) public PreviousChallan; //use to store all previous challans of citizens\r\n    mapping(string=>Challan) public ActiveChallan;  //use to store current active challans of citizen\r\n    mapping(address=>bool) public TP; //mapping for traffic police(TP) , who can add Challan\r\n    VoilationRule[] public RuleList; //list of traffic rules\r\n\r\n    constructor(){\r\n        Owner=msg.sender;\r\n    }\r\n\r\n////////////////////////////////////////////////////////////////functions related to admin\r\n    function addTrafficPolice(address _TP) public{//add traffic police who can add challans\r\n        require(msg.sender==Owner);\r\n        TP[_TP]=true;\r\n    }\r\n\r\n    function addTrafficRule(string calldata _description,uint _Afine,uint _Bfine,uint _Cfine) public{  \r\n        require(msg.sender==Owner);\r\n        RuleList.push(VoilationRule(_description,_Afine,_Bfine,_Cfine,true));\r\n    }\r\n\r\n    function updatePriceForRule(uint _ruleID,uint _Afine,uint _Bfine,uint _Cfine) public{ //update price of rule by giving its rule code \r\n        require(msg.sender==Owner);\r\n        require(_ruleID<(RuleList.length));\r\n        RuleList[_ruleID]. ACategoryVehicle_Fine=_Afine;\r\n        RuleList[_ruleID]. ACategoryVehicle_Fine=_Bfine;\r\n        RuleList[_ruleID]. ACategoryVehicle_Fine=_Cfine;\r\n    }\r\n\r\n    \r\n    function deactivateRule(uint _ruleID) public{\r\n        require(msg.sender==Owner);\r\n        RuleList[_ruleID].status=false;\r\n    }\r\n\r\n    function activateRule(uint _ruleID) public{\r\n        require(msg.sender==Owner);\r\n        RuleList[_ruleID].status=true;\r\n    } \r\n\r\n    //////////////////////////////////////////////////////////////////////////////////////////////////////////\r\n\r\n    function deleteActiveChallan(string memory _LicenseID) internal { //removes user from active challan\r\n        delete ActiveChallan[_LicenseID];\r\n    }\r\n\r\n    function addChallan(string memory _LicenseID,string memory _Name,string memory _CNIC,VehicleType _Car,string memory _carPlate,uint[] memory _voilatedRules,string memory _timeStamp) public{\r\n        require(TP[msg.sender]==true);\r\n        uint VoilationFee=0;\r\n        for(uint i=0;i<_voilatedRules.length;i++){\r\n            VoilationFee+=RuleList[i].ACategoryVehicle_Fine;\r\n        }\r\n        ActiveChallan[_LicenseID]=Challan(_LicenseID,_Name,_CNIC,_Car,_carPlate,_voilatedRules,_timeStamp,VoilationFee,true);\r\n    }\r\n\r\n    function test(VehicleType _temp) public pure returns(VehicleType){\r\n        return _temp;\r\n    }\r\n\r\n    // function getChallan(string calldata) public returns(){\r\n\r\n    // } \r\n\r\n    // function getChallan(string calldata LicenseID) public{\r\n        \r\n    // }\r\n    \r\n\r\n}",
  "sourcePath": "F:\\BL project\\contracts\\Final2.sol",
  "compiler": {
    "name": "solc",
    "version": "0.8.10+commit.fc410830.Emscripten.clang"
  },
  "schemaVersion": "3.4.3",
  "updatedAt": "2021-12-19T15:22:11.865Z",
  "devdoc": {
    "kind": "dev",
    "methods": {},
    "version": 1
  },
  "userdoc": {
    "kind": "user",
    "methods": {},
    "version": 1
  }
}