{
  "contractName": "Final10",
  "abi": [
    {
      "inputs": [],
      "stateMutability": "nonpayable",
      "type": "constructor"
    },
    {
      "inputs": [
        {
          "internalType": "string",
          "name": "",
          "type": "string"
        }
      ],
      "name": "ActiveChallan",
      "outputs": [
        {
          "internalType": "string",
          "name": "LicenseID",
          "type": "string"
        },
        {
          "internalType": "string",
          "name": "CitizenName",
          "type": "string"
        },
        {
          "internalType": "string",
          "name": "CitizenCNIC",
          "type": "string"
        },
        {
          "internalType": "enum Final10.VehicleType",
          "name": "CarType",
          "type": "uint8"
        },
        {
          "internalType": "string",
          "name": "CarNumberPlate",
          "type": "string"
        },
        {
          "internalType": "string",
          "name": "timeStamp",
          "type": "string"
        },
        {
          "internalType": "uint256",
          "name": "Fine",
          "type": "uint256"
        },
        {
          "internalType": "bool",
          "name": "status",
          "type": "bool"
        }
      ],
      "stateMutability": "view",
      "type": "function"
    },
    {
      "inputs": [
        {
          "internalType": "string",
          "name": "",
          "type": "string"
        },
        {
          "internalType": "uint256",
          "name": "",
          "type": "uint256"
        }
      ],
      "name": "ChallanHistory",
      "outputs": [
        {
          "internalType": "string",
          "name": "LicenseID",
          "type": "string"
        },
        {
          "internalType": "string",
          "name": "CitizenName",
          "type": "string"
        },
        {
          "internalType": "string",
          "name": "CitizenCNIC",
          "type": "string"
        },
        {
          "internalType": "enum Final10.VehicleType",
          "name": "CarType",
          "type": "uint8"
        },
        {
          "internalType": "string",
          "name": "CarNumberPlate",
          "type": "string"
        },
        {
          "internalType": "string",
          "name": "timeStamp",
          "type": "string"
        },
        {
          "internalType": "uint256",
          "name": "Fine",
          "type": "uint256"
        },
        {
          "internalType": "bool",
          "name": "status",
          "type": "bool"
        }
      ],
      "stateMutability": "view",
      "type": "function"
    },
    {
      "inputs": [],
      "name": "Owner",
      "outputs": [
        {
          "internalType": "address",
          "name": "",
          "type": "address"
        }
      ],
      "stateMutability": "view",
      "type": "function"
    },
    {
      "inputs": [
        {
          "internalType": "uint256",
          "name": "",
          "type": "uint256"
        }
      ],
      "name": "RuleList",
      "outputs": [
        {
          "internalType": "string",
          "name": "Description",
          "type": "string"
        },
        {
          "internalType": "uint256",
          "name": "ACategoryVehicle_Fine",
          "type": "uint256"
        },
        {
          "internalType": "uint256",
          "name": "BCategoryVehicle_Fine",
          "type": "uint256"
        },
        {
          "internalType": "uint256",
          "name": "CCategoryVehicle_Fine",
          "type": "uint256"
        },
        {
          "internalType": "bool",
          "name": "status",
          "type": "bool"
        }
      ],
      "stateMutability": "view",
      "type": "function"
    },
    {
      "inputs": [
        {
          "internalType": "address",
          "name": "",
          "type": "address"
        }
      ],
      "name": "TP",
      "outputs": [
        {
          "internalType": "bool",
          "name": "",
          "type": "bool"
        }
      ],
      "stateMutability": "view",
      "type": "function"
    },
    {
      "inputs": [
        {
          "internalType": "address",
          "name": "_TP",
          "type": "address"
        }
      ],
      "name": "addTrafficPolice",
      "outputs": [],
      "stateMutability": "nonpayable",
      "type": "function"
    },
    {
      "inputs": [
        {
          "internalType": "string",
          "name": "_description",
          "type": "string"
        },
        {
          "internalType": "uint256",
          "name": "_Afine",
          "type": "uint256"
        },
        {
          "internalType": "uint256",
          "name": "_Bfine",
          "type": "uint256"
        },
        {
          "internalType": "uint256",
          "name": "_Cfine",
          "type": "uint256"
        }
      ],
      "name": "addTrafficRule",
      "outputs": [],
      "stateMutability": "nonpayable",
      "type": "function"
    },
    {
      "inputs": [
        {
          "internalType": "uint256",
          "name": "_ruleID",
          "type": "uint256"
        },
        {
          "internalType": "uint256",
          "name": "_Afine",
          "type": "uint256"
        },
        {
          "internalType": "uint256",
          "name": "_Bfine",
          "type": "uint256"
        },
        {
          "internalType": "uint256",
          "name": "_Cfine",
          "type": "uint256"
        }
      ],
      "name": "updatePriceForRule",
      "outputs": [],
      "stateMutability": "nonpayable",
      "type": "function"
    },
    {
      "inputs": [
        {
          "internalType": "uint256",
          "name": "_ruleID",
          "type": "uint256"
        }
      ],
      "name": "deactivateRule",
      "outputs": [],
      "stateMutability": "nonpayable",
      "type": "function"
    },
    {
      "inputs": [
        {
          "internalType": "uint256",
          "name": "_ruleID",
          "type": "uint256"
        }
      ],
      "name": "activateRule",
      "outputs": [],
      "stateMutability": "nonpayable",
      "type": "function"
    },
    {
      "inputs": [
        {
          "internalType": "string",
          "name": "_LicenseID",
          "type": "string"
        },
        {
          "internalType": "string",
          "name": "_Name",
          "type": "string"
        },
        {
          "internalType": "string",
          "name": "_CNIC",
          "type": "string"
        },
        {
          "internalType": "enum Final10.VehicleType",
          "name": "_CarType",
          "type": "uint8"
        },
        {
          "internalType": "string",
          "name": "_carPlate",
          "type": "string"
        },
        {
          "internalType": "uint256[]",
          "name": "_voilatedRules",
          "type": "uint256[]"
        },
        {
          "internalType": "string",
          "name": "_timeStamp",
          "type": "string"
        }
      ],
      "name": "addChallan",
      "outputs": [],
      "stateMutability": "nonpayable",
      "type": "function"
    },
    {
      "inputs": [
        {
          "internalType": "string",
          "name": "_LicenseID",
          "type": "string"
        }
      ],
      "name": "getCurrentChallan",
      "outputs": [
        {
          "components": [
            {
              "internalType": "string",
              "name": "LicenseID",
              "type": "string"
            },
            {
              "internalType": "string",
              "name": "CitizenName",
              "type": "string"
            },
            {
              "internalType": "string",
              "name": "CitizenCNIC",
              "type": "string"
            },
            {
              "internalType": "enum Final10.VehicleType",
              "name": "CarType",
              "type": "uint8"
            },
            {
              "internalType": "string",
              "name": "CarNumberPlate",
              "type": "string"
            },
            {
              "internalType": "uint256[]",
              "name": "VoilationCode",
              "type": "uint256[]"
            },
            {
              "internalType": "string",
              "name": "timeStamp",
              "type": "string"
            },
            {
              "internalType": "uint256",
              "name": "Fine",
              "type": "uint256"
            },
            {
              "internalType": "bool",
              "name": "status",
              "type": "bool"
            }
          ],
          "internalType": "struct Final10.Challan",
          "name": "",
          "type": "tuple"
        }
      ],
      "stateMutability": "view",
      "type": "function"
    },
    {
      "inputs": [
        {
          "internalType": "string",
          "name": "_LicenseID",
          "type": "string"
        }
      ],
      "name": "getAllChallan",
      "outputs": [
        {
          "components": [
            {
              "internalType": "string",
              "name": "LicenseID",
              "type": "string"
            },
            {
              "internalType": "string",
              "name": "CitizenName",
              "type": "string"
            },
            {
              "internalType": "string",
              "name": "CitizenCNIC",
              "type": "string"
            },
            {
              "internalType": "enum Final10.VehicleType",
              "name": "CarType",
              "type": "uint8"
            },
            {
              "internalType": "string",
              "name": "CarNumberPlate",
              "type": "string"
            },
            {
              "internalType": "uint256[]",
              "name": "VoilationCode",
              "type": "uint256[]"
            },
            {
              "internalType": "string",
              "name": "timeStamp",
              "type": "string"
            },
            {
              "internalType": "uint256",
              "name": "Fine",
              "type": "uint256"
            },
            {
              "internalType": "bool",
              "name": "status",
              "type": "bool"
            }
          ],
          "internalType": "struct Final10.Challan[]",
          "name": "",
          "type": "tuple[]"
        }
      ],
      "stateMutability": "view",
      "type": "function"
    },
    {
      "inputs": [],
      "name": "getTrafficRules",
      "outputs": [
        {
          "components": [
            {
              "internalType": "string",
              "name": "Description",
              "type": "string"
            },
            {
              "internalType": "uint256",
              "name": "ACategoryVehicle_Fine",
              "type": "uint256"
            },
            {
              "internalType": "uint256",
              "name": "BCategoryVehicle_Fine",
              "type": "uint256"
            },
            {
              "internalType": "uint256",
              "name": "CCategoryVehicle_Fine",
              "type": "uint256"
            },
            {
              "internalType": "bool",
              "name": "status",
              "type": "bool"
            }
          ],
          "internalType": "struct Final10.VoilationRule[]",
          "name": "",
          "type": "tuple[]"
        }
      ],
      "stateMutability": "view",
      "type": "function"
    },
    {
      "inputs": [],
      "name": "test",
      "outputs": [
        {
          "internalType": "uint256",
          "name": "",
          "type": "uint256"
        }
      ],
      "stateMutability": "payable",
      "type": "function"
    },
    {
      "inputs": [
        {
          "internalType": "string",
          "name": "_LicenseID",
          "type": "string"
        }
      ],
      "name": "payChallan",
      "outputs": [
        {
          "internalType": "uint256",
          "name": "",
          "type": "uint256"
        }
      ],
      "stateMutability": "payable",
      "type": "function"
    }
  ],
  "bytecode": "0x60806040523480156200001157600080fd5b50336000806101000a81548173ffffffffffffffffffffffffffffffffffffffff021916908373ffffffffffffffffffffffffffffffffffffffff16021790555060046040518060a001604052806040518060400160405280602081526020017f457863656564696e672070726573637269626564207370656564206c696d6974815250815260200160c881526020016101f481526020016102ee81526020016001151581525090806001815401808255809150506001900390600052602060002090600502016000909190919091506000820151816000019080519060200190620000ff929190620004aa565b5060208201518160010155604082015181600201556060820151816003015560808201518160040160006101000a81548160ff021916908315150217905550505060046040518060a001604052806040518060800160405280604b815260200162003805604b91398152602001600081526020016101f481526020016102ee81526020016001151581525090806001815401808255809150506001900390600052602060002090600502016000909190919091506000820151816000019080519060200190620001d1929190620004aa565b5060208201518160010155604082015181600201556060820151816003015560808201518160040160006101000a81548160ff021916908315150217905550505060046040518060a001604052806040518060600160405280602f815260200162003850602f9139815260200160c881526020016101f481526020016103e881526020016001151581525090806001815401808255809150506001900390600052602060002090600502016000909190919091506000820151816000019080519060200190620002a3929190620004aa565b5060208201518160010155604082015181600201556060820151816003015560808201518160040160006101000a81548160ff021916908315150217905550505060046040518060a001604052806040518060400160405280601b81526020017f4f7665726c6f6164696e67206120676f6f64732076656869636c6500000000008152508152602001600081526020016101f481526020016101f48152602001600115158152509080600181540180825580915050600190039060005260206000209060050201600090919091909150600082015181600001908051906020019062000391929190620004aa565b5060208201518160010155604082015181600201556060820151816003015560808201518160040160006101000a81548160ff021916908315150217905550505060046040518060a001604052806040518060600160405280603681526020016200387f60369139815260200160c8815260200161012c81526020016101f48152602001600115158152509080600181540180825580915050600190039060005260206000209060050201600090919091909150600082015181600001908051906020019062000463929190620004aa565b5060208201518160010155604082015181600201556060820151816003015560808201518160040160006101000a81548160ff0219169083151502179055505050620005bf565b828054620004b89062000589565b90600052602060002090601f016020900481019282620004dc576000855562000528565b82601f10620004f757805160ff191683800117855562000528565b8280016001018555821562000528579182015b82811115620005275782518255916020019190600101906200050a565b5b5090506200053791906200053b565b5090565b5b80821115620005565760008160009055506001016200053c565b5090565b7f4e487b7100000000000000000000000000000000000000000000000000000000600052602260045260246000fd5b60006002820490506001821680620005a257607f821691505b60208210811415620005b957620005b86200055a565b5b50919050565b61323680620005cf6000396000f3fe6080604052600436106100f35760003560e01c80636794fa9f1161008a578063e051347b11610059578063e051347b14610351578063f0661a641461038e578063f111ea33146103b7578063f8a8fd6d146103f4576100f3565b80636794fa9f1461028e57806373f13d1d146102be57806395490de0146102e9578063b4a99a4e14610326576100f3565b80632e2c0aae116100c65780632e2c0aae146101d257806332fd20cd146101fb5780633a758ccc146102245780633ed70cd51461024d576100f3565b806301ccde53146100f857806320e2bf85146101215780632b942d5b146101655780632be4c2891461018e575b600080fd5b34801561010457600080fd5b5061011f600480360381019061011a91906123c5565b610412565b005b34801561012d57600080fd5b506101486004803603810190610143919061250f565b61091c565b60405161015c989796959493929190612681565b60405180910390f35b34801561017157600080fd5b5061018c60048036038101906101879190612722565b610c3c565b005b34801561019a57600080fd5b506101b560048036038101906101b0919061274f565b610cd5565b6040516101c9989796959493929190612681565b60405180910390f35b3480156101de57600080fd5b506101f960048036038101906101f49190612806565b611012565b005b34801561020757600080fd5b50610222600480360381019061021d919061288e565b611167565b005b34801561023057600080fd5b5061024b60048036038101906102469190612722565b611254565b005b34801561025957600080fd5b50610274600480360381019061026f9190612722565b6112ed565b6040516102859594939291906128f5565b60405180910390f35b6102a860048036038101906102a3919061294f565b6113c8565b6040516102b5919061299c565b60405180910390f35b3480156102ca57600080fd5b506102d361144c565b6040516102e09190612b57565b60405180910390f35b3480156102f557600080fd5b50610310600480360381019061030b919061294f565b611576565b60405161031d9190612d1f565b60405180910390f35b34801561033257600080fd5b5061033b611944565b6040516103489190612d82565b60405180910390f35b34801561035d57600080fd5b5061037860048036038101906103739190612dc9565b611968565b6040516103859190612df6565b60405180910390f35b34801561039a57600080fd5b506103b560048036038101906103b09190612dc9565b611988565b005b3480156103c357600080fd5b506103de60048036038101906103d9919061294f565b611a3b565b6040516103eb9190612fbb565b60405180910390f35b6103fc611e4e565b604051610409919061299c565b60405180910390f35b6000805b83518110156105eb5760006005811115610433576104326125e0565b5b866005811115610446576104456125e0565b5b141561048457600481815481106104605761045f612fdd565b5b9060005260206000209060050201600101548261047d919061303b565b91506105d8565b60026005811115610498576104976125e0565b5b8660058111156104ab576104aa6125e0565b5b14806104db5750600160058111156104c6576104c56125e0565b5b8660058111156104d9576104d86125e0565b5b145b1561051857600481815481106104f4576104f3612fdd565b5b90600052602060002090600502016002015482610511919061303b565b91506105d7565b6003600581111561052c5761052b6125e0565b5b86600581111561053f5761053e6125e0565b5b148061056f57506004600581111561055a576105596125e0565b5b86600581111561056d5761056c6125e0565b5b145b8061059d5750600580811115610588576105876125e0565b5b86600581111561059b5761059a6125e0565b5b145b156105d657600481815481106105b6576105b5612fdd565b5b906000526020600020906005020160030154826105d3919061303b565b91505b5b5b80806105e390613091565b915050610416565b5060405180610120016040528089815260200188815260200187815260200186600581111561061d5761061c6125e0565b5b8152602001858152602001848152602001838152602001828152602001600115158152506002896040516106519190613116565b9081526020016040518091039020600082015181600001908051906020019061067b929190611f97565b506020820151816001019080519060200190610698929190611f97565b5060408201518160020190805190602001906106b5929190611f97565b5060608201518160030160006101000a81548160ff021916908360058111156106e1576106e06125e0565b5b02179055506080820151816004019080519060200190610702929190611f97565b5060a082015181600501908051906020019061071f92919061201d565b5060c082015181600601908051906020019061073c929190611f97565b5060e082015181600701556101008201518160080160006101000a81548160ff02191690831515021790555090505060018860405161077b9190613116565b90815260200160405180910390206040518061012001604052808a81526020018981526020018881526020018760058111156107ba576107b96125e0565b5b81526020018681526020018581526020018481526020018381526020016001151581525090806001815401808255809150506001900390600052602060002090600902016000909190919091506000820151816000019080519060200190610823929190611f97565b506020820151816001019080519060200190610840929190611f97565b50604082015181600201908051906020019061085d929190611f97565b5060608201518160030160006101000a81548160ff02191690836005811115610889576108886125e0565b5b021790555060808201518160040190805190602001906108aa929190611f97565b5060a08201518160050190805190602001906108c792919061201d565b5060c08201518160060190805190602001906108e4929190611f97565b5060e082015181600701556101008201518160080160006101000a81548160ff02191690831515021790555050505050505050505050565b6002818051602081018201805184825260208301602085012081835280955050505050506000915090508060000180546109559061315c565b80601f01602080910402602001604051908101604052809291908181526020018280546109819061315c565b80156109ce5780601f106109a3576101008083540402835291602001916109ce565b820191906000526020600020905b8154815290600101906020018083116109b157829003601f168201915b5050505050908060010180546109e39061315c565b80601f0160208091040260200160405190810160405280929190818152602001828054610a0f9061315c565b8015610a5c5780601f10610a3157610100808354040283529160200191610a5c565b820191906000526020600020905b815481529060010190602001808311610a3f57829003601f168201915b505050505090806002018054610a719061315c565b80601f0160208091040260200160405190810160405280929190818152602001828054610a9d9061315c565b8015610aea5780601f10610abf57610100808354040283529160200191610aea565b820191906000526020600020905b815481529060010190602001808311610acd57829003601f168201915b5050505050908060030160009054906101000a900460ff1690806004018054610b129061315c565b80601f0160208091040260200160405190810160405280929190818152602001828054610b3e9061315c565b8015610b8b5780601f10610b6057610100808354040283529160200191610b8b565b820191906000526020600020905b815481529060010190602001808311610b6e57829003601f168201915b505050505090806006018054610ba09061315c565b80601f0160208091040260200160405190810160405280929190818152602001828054610bcc9061315c565b8015610c195780601f10610bee57610100808354040283529160200191610c19565b820191906000526020600020905b815481529060010190602001808311610bfc57829003601f168201915b5050505050908060070154908060080160009054906101000a900460ff16905088565b60008054906101000a900473ffffffffffffffffffffffffffffffffffffffff1673ffffffffffffffffffffffffffffffffffffffff163373ffffffffffffffffffffffffffffffffffffffff1614610c9457600080fd5b600160048281548110610caa57610ca9612fdd565b5b906000526020600020906005020160040160006101000a81548160ff02191690831515021790555050565b6001828051602081018201805184825260208301602085012081835280955050505050508181548110610d0757600080fd5b906000526020600020906009020160009150915050806000018054610d2b9061315c565b80601f0160208091040260200160405190810160405280929190818152602001828054610d579061315c565b8015610da45780601f10610d7957610100808354040283529160200191610da4565b820191906000526020600020905b815481529060010190602001808311610d8757829003601f168201915b505050505090806001018054610db99061315c565b80601f0160208091040260200160405190810160405280929190818152602001828054610de59061315c565b8015610e325780601f10610e0757610100808354040283529160200191610e32565b820191906000526020600020905b815481529060010190602001808311610e1557829003601f168201915b505050505090806002018054610e479061315c565b80601f0160208091040260200160405190810160405280929190818152602001828054610e739061315c565b8015610ec05780601f10610e9557610100808354040283529160200191610ec0565b820191906000526020600020905b815481529060010190602001808311610ea357829003601f168201915b5050505050908060030160009054906101000a900460ff1690806004018054610ee89061315c565b80601f0160208091040260200160405190810160405280929190818152602001828054610f149061315c565b8015610f615780601f10610f3657610100808354040283529160200191610f61565b820191906000526020600020905b815481529060010190602001808311610f4457829003601f168201915b505050505090806006018054610f769061315c565b80601f0160208091040260200160405190810160405280929190818152602001828054610fa29061315c565b8015610fef5780601f10610fc457610100808354040283529160200191610fef565b820191906000526020600020905b815481529060010190602001808311610fd257829003601f168201915b5050505050908060070154908060080160009054906101000a900460ff16905088565b60008054906101000a900473ffffffffffffffffffffffffffffffffffffffff1673ffffffffffffffffffffffffffffffffffffffff163373ffffffffffffffffffffffffffffffffffffffff161461106a57600080fd5b60046040518060a0016040528087878080601f016020809104026020016040519081016040528093929190818152602001838380828437600081840152601f19601f820116905080830192505050505050508152602001858152602001848152602001838152602001600115158152509080600181540180825580915050600190039060005260206000209060050201600090919091909150600082015181600001908051906020019061111f929190611f97565b5060208201518160010155604082015181600201556060820151816003015560808201518160040160006101000a81548160ff02191690831515021790555050505050505050565b60008054906101000a900473ffffffffffffffffffffffffffffffffffffffff1673ffffffffffffffffffffffffffffffffffffffff163373ffffffffffffffffffffffffffffffffffffffff16146111bf57600080fd5b60048054905084106111d057600080fd5b82600485815481106111e5576111e4612fdd565b5b906000526020600020906005020160010181905550816004858154811061120f5761120e612fdd565b5b906000526020600020906005020160020181905550806004858154811061123957611238612fdd565b5b90600052602060002090600502016003018190555050505050565b60008054906101000a900473ffffffffffffffffffffffffffffffffffffffff1673ffffffffffffffffffffffffffffffffffffffff163373ffffffffffffffffffffffffffffffffffffffff16146112ac57600080fd5b6000600482815481106112c2576112c1612fdd565b5b906000526020600020906005020160040160006101000a81548160ff02191690831515021790555050565b600481815481106112fd57600080fd5b90600052602060002090600502016000915090508060000180546113209061315c565b80601f016020809104026020016040519081016040528092919081815260200182805461134c9061315c565b80156113995780601f1061136e57610100808354040283529160200191611399565b820191906000526020600020905b81548152906001019060200180831161137c57829003601f168201915b5050505050908060010154908060020154908060030154908060040160009054906101000a900460ff16905085565b600080600190508034111561142e5761142484848080601f016020809104026020016040519081016040528093929190818152602001838380828437600081840152601f19601f82011690508083019250505050505050611e56565b6000915050611446565b80341415611440576001915050611446565b60029150505b92915050565b60606004805480602002602001604051908101604052809291908181526020016000905b8282101561156d57838290600052602060002090600502016040518060a00160405290816000820180546114a39061315c565b80601f01602080910402602001604051908101604052809291908181526020018280546114cf9061315c565b801561151c5780601f106114f15761010080835404028352916020019161151c565b820191906000526020600020905b8154815290600101906020018083116114ff57829003601f168201915b505050505081526020016001820154815260200160028201548152602001600382015481526020016004820160009054906101000a900460ff16151515158152505081526020019060010190611470565b50505050905090565b61157e61206a565b600283836040516115909291906131b3565b9081526020016040518091039020604051806101200160405290816000820180546115ba9061315c565b80601f01602080910402602001604051908101604052809291908181526020018280546115e69061315c565b80156116335780601f1061160857610100808354040283529160200191611633565b820191906000526020600020905b81548152906001019060200180831161161657829003601f168201915b5050505050815260200160018201805461164c9061315c565b80601f01602080910402602001604051908101604052809291908181526020018280546116789061315c565b80156116c55780601f1061169a576101008083540402835291602001916116c5565b820191906000526020600020905b8154815290600101906020018083116116a857829003601f168201915b505050505081526020016002820180546116de9061315c565b80601f016020809104026020016040519081016040528092919081815260200182805461170a9061315c565b80156117575780601f1061172c57610100808354040283529160200191611757565b820191906000526020600020905b81548152906001019060200180831161173a57829003601f168201915b505050505081526020016003820160009054906101000a900460ff166005811115611785576117846125e0565b5b6005811115611797576117966125e0565b5b81526020016004820180546117ab9061315c565b80601f01602080910402602001604051908101604052809291908181526020018280546117d79061315c565b80156118245780601f106117f957610100808354040283529160200191611824565b820191906000526020600020905b81548152906001019060200180831161180757829003601f168201915b505050505081526020016005820180548060200260200160405190810160405280929190818152602001828054801561187c57602002820191906000526020600020905b815481526020019060010190808311611868575b505050505081526020016006820180546118959061315c565b80601f01602080910402602001604051908101604052809291908181526020018280546118c19061315c565b801561190e5780601f106118e35761010080835404028352916020019161190e565b820191906000526020600020905b8154815290600101906020018083116118f157829003601f168201915b50505050508152602001600782015481526020016008820160009054906101000a900460ff161515151581525050905092915050565b60008054906101000a900473ffffffffffffffffffffffffffffffffffffffff1681565b60036020528060005260406000206000915054906101000a900460ff1681565b60008054906101000a900473ffffffffffffffffffffffffffffffffffffffff1673ffffffffffffffffffffffffffffffffffffffff163373ffffffffffffffffffffffffffffffffffffffff16146119e057600080fd5b6001600360008373ffffffffffffffffffffffffffffffffffffffff1673ffffffffffffffffffffffffffffffffffffffff16815260200190815260200160002060006101000a81548160ff02191690831515021790555050565b606060018383604051611a4f9291906131b3565b9081526020016040518091039020805480602002602001604051908101604052809291908181526020016000905b82821015611e42578382906000526020600020906009020160405180610120016040529081600082018054611ab19061315c565b80601f0160208091040260200160405190810160405280929190818152602001828054611add9061315c565b8015611b2a5780601f10611aff57610100808354040283529160200191611b2a565b820191906000526020600020905b815481529060010190602001808311611b0d57829003601f168201915b50505050508152602001600182018054611b439061315c565b80601f0160208091040260200160405190810160405280929190818152602001828054611b6f9061315c565b8015611bbc5780601f10611b9157610100808354040283529160200191611bbc565b820191906000526020600020905b815481529060010190602001808311611b9f57829003601f168201915b50505050508152602001600282018054611bd59061315c565b80601f0160208091040260200160405190810160405280929190818152602001828054611c019061315c565b8015611c4e5780601f10611c2357610100808354040283529160200191611c4e565b820191906000526020600020905b815481529060010190602001808311611c3157829003601f168201915b505050505081526020016003820160009054906101000a900460ff166005811115611c7c57611c7b6125e0565b5b6005811115611c8e57611c8d6125e0565b5b8152602001600482018054611ca29061315c565b80601f0160208091040260200160405190810160405280929190818152602001828054611cce9061315c565b8015611d1b5780601f10611cf057610100808354040283529160200191611d1b565b820191906000526020600020905b815481529060010190602001808311611cfe57829003601f168201915b5050505050815260200160058201805480602002602001604051908101604052809291908181526020018280548015611d7357602002820191906000526020600020905b815481526020019060010190808311611d5f575b50505050508152602001600682018054611d8c9061315c565b80601f0160208091040260200160405190810160405280929190818152602001828054611db89061315c565b8015611e055780601f10611dda57610100808354040283529160200191611e05565b820191906000526020600020905b815481529060010190602001808311611de857829003601f168201915b50505050508152602001600782015481526020016008820160009054906101000a900460ff16151515158152505081526020019060010190611a7d565b50505050905092915050565b600034905090565b6000600182604051611e689190613116565b90815260200160405180910390208054905090506000600183604051611e8e9190613116565b9081526020016040518091039020600183611ea991906131cc565b81548110611eba57611eb9612fdd565b5b906000526020600020906009020160080160006101000a81548160ff021916908315150217905550600282604051611ef29190613116565b908152602001604051809103902060008082016000611f1191906120ca565b600182016000611f2191906120ca565b600282016000611f3191906120ca565b6003820160006101000a81549060ff0219169055600482016000611f5591906120ca565b600582016000611f65919061210a565b600682016000611f7591906120ca565b60078201600090556008820160006101000a81549060ff021916905550505050565b828054611fa39061315c565b90600052602060002090601f016020900481019282611fc5576000855561200c565b82601f10611fde57805160ff191683800117855561200c565b8280016001018555821561200c579182015b8281111561200b578251825591602001919060010190611ff0565b5b509050612019919061212b565b5090565b828054828255906000526020600020908101928215612059579160200282015b8281111561205857825182559160200191906001019061203d565b5b509050612066919061212b565b5090565b6040518061012001604052806060815260200160608152602001606081526020016000600581111561209f5761209e6125e0565b5b8152602001606081526020016060815260200160608152602001600081526020016000151581525090565b5080546120d69061315c565b6000825580601f106120e85750612107565b601f016020900490600052602060002090810190612106919061212b565b5b50565b5080546000825590600052602060002090810190612128919061212b565b50565b5b8082111561214457600081600090555060010161212c565b5090565b6000604051905090565b600080fd5b600080fd5b600080fd5b600080fd5b6000601f19601f8301169050919050565b7f4e487b7100000000000000000000000000000000000000000000000000000000600052604160045260246000fd5b6121af82612166565b810181811067ffffffffffffffff821117156121ce576121cd612177565b5b80604052505050565b60006121e1612148565b90506121ed82826121a6565b919050565b600067ffffffffffffffff82111561220d5761220c612177565b5b61221682612166565b9050602081019050919050565b82818337600083830152505050565b6000612245612240846121f2565b6121d7565b90508281526020810184848401111561226157612260612161565b5b61226c848285612223565b509392505050565b600082601f8301126122895761228861215c565b5b8135612299848260208601612232565b91505092915050565b600681106122af57600080fd5b50565b6000813590506122c1816122a2565b92915050565b600067ffffffffffffffff8211156122e2576122e1612177565b5b602082029050602081019050919050565b600080fd5b6000819050919050565b61230b816122f8565b811461231657600080fd5b50565b60008135905061232881612302565b92915050565b600061234161233c846122c7565b6121d7565b90508083825260208201905060208402830185811115612364576123636122f3565b5b835b8181101561238d57806123798882612319565b845260208401935050602081019050612366565b5050509392505050565b600082601f8301126123ac576123ab61215c565b5b81356123bc84826020860161232e565b91505092915050565b600080600080600080600060e0888a0312156123e4576123e3612152565b5b600088013567ffffffffffffffff81111561240257612401612157565b5b61240e8a828b01612274565b975050602088013567ffffffffffffffff81111561242f5761242e612157565b5b61243b8a828b01612274565b965050604088013567ffffffffffffffff81111561245c5761245b612157565b5b6124688a828b01612274565b95505060606124798a828b016122b2565b945050608088013567ffffffffffffffff81111561249a57612499612157565b5b6124a68a828b01612274565b93505060a088013567ffffffffffffffff8111156124c7576124c6612157565b5b6124d38a828b01612397565b92505060c088013567ffffffffffffffff8111156124f4576124f3612157565b5b6125008a828b01612274565b91505092959891949750929550565b60006020828403121561252557612524612152565b5b600082013567ffffffffffffffff81111561254357612542612157565b5b61254f84828501612274565b91505092915050565b600081519050919050565b600082825260208201905092915050565b60005b83811015612592578082015181840152602081019050612577565b838111156125a1576000848401525b50505050565b60006125b282612558565b6125bc8185612563565b93506125cc818560208601612574565b6125d581612166565b840191505092915050565b7f4e487b7100000000000000000000000000000000000000000000000000000000600052602160045260246000fd5b600681106126205761261f6125e0565b5b50565b60008190506126318261260f565b919050565b600061264182612623565b9050919050565b61265181612636565b82525050565b612660816122f8565b82525050565b60008115159050919050565b61267b81612666565b82525050565b600061010082019050818103600083015261269c818b6125a7565b905081810360208301526126b0818a6125a7565b905081810360408301526126c481896125a7565b90506126d36060830188612648565b81810360808301526126e581876125a7565b905081810360a08301526126f981866125a7565b905061270860c0830185612657565b61271560e0830184612672565b9998505050505050505050565b60006020828403121561273857612737612152565b5b600061274684828501612319565b91505092915050565b6000806040838503121561276657612765612152565b5b600083013567ffffffffffffffff81111561278457612783612157565b5b61279085828601612274565b92505060206127a185828601612319565b9150509250929050565b600080fd5b60008083601f8401126127c6576127c561215c565b5b8235905067ffffffffffffffff8111156127e3576127e26127ab565b5b6020830191508360018202830111156127ff576127fe6122f3565b5b9250929050565b60008060008060006080868803121561282257612821612152565b5b600086013567ffffffffffffffff8111156128405761283f612157565b5b61284c888289016127b0565b9550955050602061285f88828901612319565b935050604061287088828901612319565b925050606061288188828901612319565b9150509295509295909350565b600080600080608085870312156128a8576128a7612152565b5b60006128b687828801612319565b94505060206128c787828801612319565b93505060406128d887828801612319565b92505060606128e987828801612319565b91505092959194509250565b600060a082019050818103600083015261290f81886125a7565b905061291e6020830187612657565b61292b6040830186612657565b6129386060830185612657565b6129456080830184612672565b9695505050505050565b6000806020838503121561296657612965612152565b5b600083013567ffffffffffffffff81111561298457612983612157565b5b612990858286016127b0565b92509250509250929050565b60006020820190506129b16000830184612657565b92915050565b600081519050919050565b600082825260208201905092915050565b6000819050602082019050919050565b600082825260208201905092915050565b60006129ff82612558565b612a0981856129e3565b9350612a19818560208601612574565b612a2281612166565b840191505092915050565b612a36816122f8565b82525050565b612a4581612666565b82525050565b600060a0830160008301518482036000860152612a6882826129f4565b9150506020830151612a7d6020860182612a2d565b506040830151612a906040860182612a2d565b506060830151612aa36060860182612a2d565b506080830151612ab66080860182612a3c565b508091505092915050565b6000612acd8383612a4b565b905092915050565b6000602082019050919050565b6000612aed826129b7565b612af781856129c2565b935083602082028501612b09856129d3565b8060005b85811015612b455784840389528151612b268582612ac1565b9450612b3183612ad5565b925060208a01995050600181019050612b0d565b50829750879550505050505092915050565b60006020820190508181036000830152612b718184612ae2565b905092915050565b612b8281612636565b82525050565b600081519050919050565b600082825260208201905092915050565b6000819050602082019050919050565b6000612bc08383612a2d565b60208301905092915050565b6000602082019050919050565b6000612be482612b88565b612bee8185612b93565b9350612bf983612ba4565b8060005b83811015612c2a578151612c118882612bb4565b9750612c1c83612bcc565b925050600181019050612bfd565b5085935050505092915050565b6000610120830160008301518482036000860152612c5582826129f4565b91505060208301518482036020860152612c6f82826129f4565b91505060408301518482036040860152612c8982826129f4565b9150506060830151612c9e6060860182612b79565b5060808301518482036080860152612cb682826129f4565b91505060a083015184820360a0860152612cd08282612bd9565b91505060c083015184820360c0860152612cea82826129f4565b91505060e0830151612cff60e0860182612a2d565b50610100830151612d14610100860182612a3c565b508091505092915050565b60006020820190508181036000830152612d398184612c37565b905092915050565b600073ffffffffffffffffffffffffffffffffffffffff82169050919050565b6000612d6c82612d41565b9050919050565b612d7c81612d61565b82525050565b6000602082019050612d976000830184612d73565b92915050565b612da681612d61565b8114612db157600080fd5b50565b600081359050612dc381612d9d565b92915050565b600060208284031215612ddf57612dde612152565b5b6000612ded84828501612db4565b91505092915050565b6000602082019050612e0b6000830184612672565b92915050565b600081519050919050565b600082825260208201905092915050565b6000819050602082019050919050565b6000610120830160008301518482036000860152612e5b82826129f4565b91505060208301518482036020860152612e7582826129f4565b91505060408301518482036040860152612e8f82826129f4565b9150506060830151612ea46060860182612b79565b5060808301518482036080860152612ebc82826129f4565b91505060a083015184820360a0860152612ed68282612bd9565b91505060c083015184820360c0860152612ef082826129f4565b91505060e0830151612f0560e0860182612a2d565b50610100830151612f1a610100860182612a3c565b508091505092915050565b6000612f318383612e3d565b905092915050565b6000602082019050919050565b6000612f5182612e11565b612f5b8185612e1c565b935083602082028501612f6d85612e2d565b8060005b85811015612fa95784840389528151612f8a8582612f25565b9450612f9583612f39565b925060208a01995050600181019050612f71565b50829750879550505050505092915050565b60006020820190508181036000830152612fd58184612f46565b905092915050565b7f4e487b7100000000000000000000000000000000000000000000000000000000600052603260045260246000fd5b7f4e487b7100000000000000000000000000000000000000000000000000000000600052601160045260246000fd5b6000613046826122f8565b9150613051836122f8565b9250827fffffffffffffffffffffffffffffffffffffffffffffffffffffffffffffffff038211156130865761308561300c565b5b828201905092915050565b600061309c826122f8565b91507fffffffffffffffffffffffffffffffffffffffffffffffffffffffffffffffff8214156130cf576130ce61300c565b5b600182019050919050565b600081905092915050565b60006130f082612558565b6130fa81856130da565b935061310a818560208601612574565b80840191505092915050565b600061312282846130e5565b915081905092915050565b7f4e487b7100000000000000000000000000000000000000000000000000000000600052602260045260246000fd5b6000600282049050600182168061317457607f821691505b602082108114156131885761318761312d565b5b50919050565b600061319a83856130da565b93506131a7838584612223565b82840190509392505050565b60006131c082848661318e565b91508190509392505050565b60006131d7826122f8565b91506131e2836122f8565b9250828210156131f5576131f461300c565b5b82820390509291505056fea2646970667358221220331ed5677c08b404bf9295cd960df632e48e9d838fadf61f0ea1101d39dcbc3f64736f6c634300080a00334361727279696e672070617373656e6765727320696e2061207075626c696320736572766963652076656869636c6520657863656564696e67207065726d69737369626c65206c696d697456696f6c6174696f6e206f662074726166666963207369676e616c7328456c656374726f6e69632f4d616e75616c2944726976696e672061206d6f746f722076656869636c65206174206e6967687420776974686f75742070726f706572206c6967687473",
  "immutableReferences": {},
  "source": "// SPDX-License-Identifier: MIT\r\npragma solidity >=0.4.22 <0.9.0;\r\n\r\ncontract Final10{\r\n    enum VehicleType {Motorcycle,Motorcar,Jeep,PublicServiceVehicle,PrivateCarrier,PublicCarrier}\r\n\r\n    struct Challan{\r\n    string LicenseID; //license id of citizen\r\n    string CitizenName; \r\n    string CitizenCNIC;\r\n    VehicleType CarType; \r\n    string CarNumberPlate;\r\n    uint[] VoilationCode;  //------list of voilated rules\r\n    string timeStamp;\r\n    uint Fine;\r\n    bool status;\r\n    }\r\n\r\n    struct VoilationRule{\r\n    string Description; //description of the rule\r\n    uint ACategoryVehicle_Fine;   //includes motorcycle\r\n    uint BCategoryVehicle_Fine;  //includes Motorcar,Jeep,\r\n    uint CCategoryVehicle_Fine; //includes PrivateCarrier,PublicCarrier\r\n    bool status;\r\n    }\r\n\r\n    address public Owner; //adminstrator who manages who can add challan etc.\r\n    mapping(string=>Challan[]) public ChallanHistory; //use to store all previous challans of citizens\r\n    mapping(string=>Challan) public ActiveChallan;  //use to store current active challans of citizen\r\n    mapping(address=>bool) public TP; //mapping for traffic police(TP) , who can add Challan\r\n    VoilationRule[] public RuleList; //list of traffic rules\r\n\r\n    constructor(){\r\n        Owner=msg.sender;\r\n        \r\n        RuleList.push(VoilationRule(\"Exceeding prescribed speed limit\",200,500,750,true));\r\n        RuleList.push(VoilationRule(\"Carrying passengers in a public service vehicle exceeding permissible limit\",0,500,750,true));\r\n        RuleList.push(VoilationRule(\"Violation of traffic signals(Electronic/Manual)\",200,500,1000,true));\r\n        RuleList.push(VoilationRule(\"Overloading a goods vehicle\",0,500,500,true));\r\n        RuleList.push(VoilationRule(\"Driving a motor vehicle at night without proper lights\",200,300,500,true));\r\n        //append all rules in the start of the application\r\n    }\r\n\r\n////////////////////////////////////////////////////////////////functions related to admin\r\n    function addTrafficPolice(address _TP) public{//add traffic police who can add challans\r\n        require(msg.sender==Owner);\r\n        TP[_TP]=true;\r\n    }\r\n\r\n    function addTrafficRule(string calldata _description,uint _Afine,uint _Bfine,uint _Cfine) public{  \r\n        require(msg.sender==Owner);\r\n        RuleList.push(VoilationRule(_description,_Afine,_Bfine,_Cfine,true));\r\n    }\r\n\r\n    function updatePriceForRule(uint _ruleID,uint _Afine,uint _Bfine,uint _Cfine) public{ //update price of rule by giving its rule code \r\n        require(msg.sender==Owner);\r\n        require(_ruleID<(RuleList.length));\r\n        RuleList[_ruleID]. ACategoryVehicle_Fine=_Afine;\r\n        RuleList[_ruleID]. BCategoryVehicle_Fine=_Bfine;\r\n        RuleList[_ruleID]. CCategoryVehicle_Fine=_Cfine;\r\n    }\r\n\r\n    \r\n    function deactivateRule(uint _ruleID) public{\r\n        require(msg.sender==Owner);\r\n        RuleList[_ruleID].status=false;\r\n    }\r\n\r\n    function activateRule(uint _ruleID) public{\r\n        require(msg.sender==Owner);\r\n        RuleList[_ruleID].status=true;\r\n    } \r\n\r\n    //////////////////////////////////////////////////////////////////////////////////////////////////////////\r\n\r\n    function deleteActiveChallan(string memory _LicenseID) internal { //removes user from active challan\r\n        uint length=ChallanHistory[_LicenseID].length;\r\n        ChallanHistory[_LicenseID][length-1].status=false; //change status in its list of challans\r\n        delete ActiveChallan[_LicenseID];\r\n    }\r\n\r\n    function addChallan(string memory _LicenseID,string memory _Name,string memory _CNIC,VehicleType _CarType,string memory _carPlate,uint[] memory _voilatedRules,string memory _timeStamp) public{\r\n        // require(TP[msg.sender]==true); //only filled by traffic police officer\r\n        uint VoilationFee=0;\r\n        for(uint i=0;i<_voilatedRules.length;i++){\r\n            if(_CarType==VehicleType.Motorcycle){\r\n                VoilationFee+=RuleList[i].ACategoryVehicle_Fine;\r\n            }else if(_CarType==VehicleType.Jeep || _CarType==VehicleType.Motorcar){\r\n                VoilationFee+=RuleList[i].BCategoryVehicle_Fine;\r\n            }else if(_CarType==VehicleType.PublicServiceVehicle || _CarType==VehicleType.PrivateCarrier || _CarType==VehicleType.PublicCarrier){\r\n                VoilationFee+=RuleList[i].CCategoryVehicle_Fine;\r\n            }\r\n        }\r\n        ActiveChallan[_LicenseID]=Challan(_LicenseID,_Name,_CNIC,_CarType,_carPlate,_voilatedRules,_timeStamp,VoilationFee,true);\r\n        ChallanHistory[_LicenseID].push(Challan(_LicenseID,_Name,_CNIC,_CarType,_carPlate,_voilatedRules,_timeStamp,VoilationFee,true));\r\n        \r\n    }\r\n\r\n\r\n    function getCurrentChallan(string calldata _LicenseID) public view returns(Challan memory){\r\n        return ActiveChallan[_LicenseID];\r\n    }\r\n\r\n    function getAllChallan(string calldata _LicenseID) public view returns(Challan[] memory){\r\n        return ChallanHistory[_LicenseID];\r\n    }\r\n\r\n    function getTrafficRules() public view returns(VoilationRule[] memory){\r\n        return RuleList;\r\n    }\r\n\r\n    function test() public payable returns(uint){\r\n        return msg.value;\r\n    }\r\n\r\n    function payChallan(string calldata _LicenseID) public payable returns(uint){\r\n        uint temp=1;\r\n        if(msg.value>temp){\r\n            deleteActiveChallan(_LicenseID);\r\n            return 0;\r\n        }else if(msg.value==temp){\r\n            return 1;\r\n        }else{\r\n            return 2;\r\n        }\r\n    }\r\n\r\n    // function getChallan(string calldata) public returns(){\r\n\r\n    // } \r\n\r\n    // function getChallan(string calldata LicenseID) public{\r\n        \r\n    // }\r\n    \r\n\r\n}",
  "sourcePath": "F:\\BL project\\contracts\\Final10.sol",
  "compiler": {
    "name": "solc",
    "version": "0.8.10+commit.fc410830.Emscripten.clang"
  },
  "schemaVersion": "3.4.3",
  "updatedAt": "2021-12-19T22:48:01.154Z",
  "devdoc": {
    "kind": "dev",
    "methods": {},
    "version": 1
  },
  "userdoc": {
    "kind": "user",
    "methods": {},
    "version": 1
  }
}