{
  "contractName": "Final",
  "abi": [
    {
      "inputs": [],
      "stateMutability": "nonpayable",
      "type": "constructor"
    },
    {
      "inputs": [
        {
          "internalType": "string",
          "name": "",
          "type": "string"
        }
      ],
      "name": "ActiveChallan",
      "outputs": [
        {
          "internalType": "string",
          "name": "LicenseID",
          "type": "string"
        },
        {
          "internalType": "string",
          "name": "CitizenName",
          "type": "string"
        },
        {
          "internalType": "string",
          "name": "CitizenCNIC",
          "type": "string"
        },
        {
          "internalType": "enum Final.VehicleType",
          "name": "CarType",
          "type": "uint8"
        },
        {
          "internalType": "string",
          "name": "CarNumberPlate",
          "type": "string"
        },
        {
          "internalType": "string",
          "name": "timeStamp",
          "type": "string"
        },
        {
          "internalType": "uint256",
          "name": "Fine",
          "type": "uint256"
        },
        {
          "internalType": "bool",
          "name": "status",
          "type": "bool"
        }
      ],
      "stateMutability": "view",
      "type": "function"
    },
    {
      "inputs": [],
      "name": "Owner",
      "outputs": [
        {
          "internalType": "address",
          "name": "",
          "type": "address"
        }
      ],
      "stateMutability": "view",
      "type": "function"
    },
    {
      "inputs": [
        {
          "internalType": "string",
          "name": "",
          "type": "string"
        },
        {
          "internalType": "uint256",
          "name": "",
          "type": "uint256"
        }
      ],
      "name": "PreviousChallan",
      "outputs": [
        {
          "internalType": "string",
          "name": "LicenseID",
          "type": "string"
        },
        {
          "internalType": "string",
          "name": "CitizenName",
          "type": "string"
        },
        {
          "internalType": "string",
          "name": "CitizenCNIC",
          "type": "string"
        },
        {
          "internalType": "enum Final.VehicleType",
          "name": "CarType",
          "type": "uint8"
        },
        {
          "internalType": "string",
          "name": "CarNumberPlate",
          "type": "string"
        },
        {
          "internalType": "string",
          "name": "timeStamp",
          "type": "string"
        },
        {
          "internalType": "uint256",
          "name": "Fine",
          "type": "uint256"
        },
        {
          "internalType": "bool",
          "name": "status",
          "type": "bool"
        }
      ],
      "stateMutability": "view",
      "type": "function"
    },
    {
      "inputs": [
        {
          "internalType": "uint256",
          "name": "",
          "type": "uint256"
        }
      ],
      "name": "RuleList",
      "outputs": [
        {
          "internalType": "string",
          "name": "Description",
          "type": "string"
        },
        {
          "internalType": "uint256",
          "name": "Fine",
          "type": "uint256"
        },
        {
          "internalType": "bool",
          "name": "status",
          "type": "bool"
        }
      ],
      "stateMutability": "view",
      "type": "function"
    },
    {
      "inputs": [
        {
          "internalType": "address",
          "name": "",
          "type": "address"
        }
      ],
      "name": "TP",
      "outputs": [
        {
          "internalType": "bool",
          "name": "",
          "type": "bool"
        }
      ],
      "stateMutability": "view",
      "type": "function"
    },
    {
      "inputs": [
        {
          "internalType": "address",
          "name": "_TP",
          "type": "address"
        }
      ],
      "name": "addTrafficPolice",
      "outputs": [],
      "stateMutability": "nonpayable",
      "type": "function"
    },
    {
      "inputs": [
        {
          "internalType": "string",
          "name": "_description",
          "type": "string"
        },
        {
          "internalType": "uint256",
          "name": "_price",
          "type": "uint256"
        }
      ],
      "name": "addTrafficRule",
      "outputs": [],
      "stateMutability": "nonpayable",
      "type": "function"
    },
    {
      "inputs": [
        {
          "internalType": "uint256",
          "name": "_ruleID",
          "type": "uint256"
        },
        {
          "internalType": "uint256",
          "name": "_price",
          "type": "uint256"
        }
      ],
      "name": "updatePriceForRule",
      "outputs": [],
      "stateMutability": "nonpayable",
      "type": "function"
    },
    {
      "inputs": [
        {
          "internalType": "uint256",
          "name": "_ruleID",
          "type": "uint256"
        }
      ],
      "name": "deactivateRule",
      "outputs": [],
      "stateMutability": "nonpayable",
      "type": "function"
    },
    {
      "inputs": [
        {
          "internalType": "uint256",
          "name": "_ruleID",
          "type": "uint256"
        }
      ],
      "name": "activateRule",
      "outputs": [],
      "stateMutability": "nonpayable",
      "type": "function"
    }
  ],
  "bytecode": "0x608060405234801561001057600080fd5b50336000806101000a81548173ffffffffffffffffffffffffffffffffffffffff021916908373ffffffffffffffffffffffffffffffffffffffff1602179055506114df806100606000396000f3fe608060405234801561001057600080fd5b506004361061009e5760003560e01c806356beeaf01161006657806356beeaf014610160578063b4a99a4e14610197578063e051347b146101b5578063e6e75aa9146101e5578063f0661a64146102015761009e565b8063094223fe146100a357806320e2bf85146100bf5780632b942d5b146100f65780633a758ccc146101125780633ed70cd51461012e575b600080fd5b6100bd60048036038101906100b89190610e29565b61021d565b005b6100d960048036038101906100d49190610faf565b6102b4565b6040516100ed989796959493929190611121565b60405180910390f35b610110600480360381019061010b91906111c2565b6105d4565b005b61012c600480360381019061012791906111c2565b61066d565b005b610148600480360381019061014391906111c2565b610706565b604051610157939291906111ef565b60405180910390f35b61017a6004803603810190610175919061122d565b6107d5565b60405161018e989796959493929190611121565b60405180910390f35b61019f610b12565b6040516101ac91906112ca565b60405180910390f35b6101cf60048036038101906101ca9190611311565b610b36565b6040516101dc919061133e565b60405180910390f35b6101ff60048036038101906101fa91906113b9565b610b56565b005b61021b60048036038101906102169190611311565b610c89565b005b60008054906101000a900473ffffffffffffffffffffffffffffffffffffffff1673ffffffffffffffffffffffffffffffffffffffff163373ffffffffffffffffffffffffffffffffffffffff161461027557600080fd5b600480549050821061028657600080fd5b806004838154811061029b5761029a611419565b5b9060005260206000209060030201600101819055505050565b6002818051602081018201805184825260208301602085012081835280955050505050506000915090508060000180546102ed90611477565b80601f016020809104026020016040519081016040528092919081815260200182805461031990611477565b80156103665780601f1061033b57610100808354040283529160200191610366565b820191906000526020600020905b81548152906001019060200180831161034957829003601f168201915b50505050509080600101805461037b90611477565b80601f01602080910402602001604051908101604052809291908181526020018280546103a790611477565b80156103f45780601f106103c9576101008083540402835291602001916103f4565b820191906000526020600020905b8154815290600101906020018083116103d757829003601f168201915b50505050509080600201805461040990611477565b80601f016020809104026020016040519081016040528092919081815260200182805461043590611477565b80156104825780601f1061045757610100808354040283529160200191610482565b820191906000526020600020905b81548152906001019060200180831161046557829003601f168201915b5050505050908060030160009054906101000a900460ff16908060040180546104aa90611477565b80601f01602080910402602001604051908101604052809291908181526020018280546104d690611477565b80156105235780601f106104f857610100808354040283529160200191610523565b820191906000526020600020905b81548152906001019060200180831161050657829003601f168201915b50505050509080600601805461053890611477565b80601f016020809104026020016040519081016040528092919081815260200182805461056490611477565b80156105b15780601f10610586576101008083540402835291602001916105b1565b820191906000526020600020905b81548152906001019060200180831161059457829003601f168201915b5050505050908060070154908060080160009054906101000a900460ff16905088565b60008054906101000a900473ffffffffffffffffffffffffffffffffffffffff1673ffffffffffffffffffffffffffffffffffffffff163373ffffffffffffffffffffffffffffffffffffffff161461062c57600080fd5b60016004828154811061064257610641611419565b5b906000526020600020906003020160020160006101000a81548160ff02191690831515021790555050565b60008054906101000a900473ffffffffffffffffffffffffffffffffffffffff1673ffffffffffffffffffffffffffffffffffffffff163373ffffffffffffffffffffffffffffffffffffffff16146106c557600080fd5b6000600482815481106106db576106da611419565b5b906000526020600020906003020160020160006101000a81548160ff02191690831515021790555050565b6004818154811061071657600080fd5b906000526020600020906003020160009150905080600001805461073990611477565b80601f016020809104026020016040519081016040528092919081815260200182805461076590611477565b80156107b25780601f10610787576101008083540402835291602001916107b2565b820191906000526020600020905b81548152906001019060200180831161079557829003601f168201915b5050505050908060010154908060020160009054906101000a900460ff16905083565b600182805160208101820180518482526020830160208501208183528095505050505050818154811061080757600080fd5b90600052602060002090600902016000915091505080600001805461082b90611477565b80601f016020809104026020016040519081016040528092919081815260200182805461085790611477565b80156108a45780601f10610879576101008083540402835291602001916108a4565b820191906000526020600020905b81548152906001019060200180831161088757829003601f168201915b5050505050908060010180546108b990611477565b80601f01602080910402602001604051908101604052809291908181526020018280546108e590611477565b80156109325780601f1061090757610100808354040283529160200191610932565b820191906000526020600020905b81548152906001019060200180831161091557829003601f168201915b50505050509080600201805461094790611477565b80601f016020809104026020016040519081016040528092919081815260200182805461097390611477565b80156109c05780601f10610995576101008083540402835291602001916109c0565b820191906000526020600020905b8154815290600101906020018083116109a357829003601f168201915b5050505050908060030160009054906101000a900460ff16908060040180546109e890611477565b80601f0160208091040260200160405190810160405280929190818152602001828054610a1490611477565b8015610a615780601f10610a3657610100808354040283529160200191610a61565b820191906000526020600020905b815481529060010190602001808311610a4457829003601f168201915b505050505090806006018054610a7690611477565b80601f0160208091040260200160405190810160405280929190818152602001828054610aa290611477565b8015610aef5780601f10610ac457610100808354040283529160200191610aef565b820191906000526020600020905b815481529060010190602001808311610ad257829003601f168201915b5050505050908060070154908060080160009054906101000a900460ff16905088565b60008054906101000a900473ffffffffffffffffffffffffffffffffffffffff1681565b60036020528060005260406000206000915054906101000a900460ff1681565b60008054906101000a900473ffffffffffffffffffffffffffffffffffffffff1673ffffffffffffffffffffffffffffffffffffffff163373ffffffffffffffffffffffffffffffffffffffff1614610bae57600080fd5b6004604051806060016040528085858080601f016020809104026020016040519081016040528093929190818152602001838380828437600081840152601f19601f8201169050808301925050505050505081526020018381526020016001151581525090806001815401808255809150506001900390600052602060002090600302016000909190919091506000820151816000019080519060200190610c57929190610d3c565b506020820151816001015560408201518160020160006101000a81548160ff0219169083151502179055505050505050565b60008054906101000a900473ffffffffffffffffffffffffffffffffffffffff1673ffffffffffffffffffffffffffffffffffffffff163373ffffffffffffffffffffffffffffffffffffffff1614610ce157600080fd5b6001600360008373ffffffffffffffffffffffffffffffffffffffff1673ffffffffffffffffffffffffffffffffffffffff16815260200190815260200160002060006101000a81548160ff02191690831515021790555050565b828054610d4890611477565b90600052602060002090601f016020900481019282610d6a5760008555610db1565b82601f10610d8357805160ff1916838001178555610db1565b82800160010185558215610db1579182015b82811115610db0578251825591602001919060010190610d95565b5b509050610dbe9190610dc2565b5090565b5b80821115610ddb576000816000905550600101610dc3565b5090565b6000604051905090565b600080fd5b600080fd5b6000819050919050565b610e0681610df3565b8114610e1157600080fd5b50565b600081359050610e2381610dfd565b92915050565b60008060408385031215610e4057610e3f610de9565b5b6000610e4e85828601610e14565b9250506020610e5f85828601610e14565b9150509250929050565b600080fd5b600080fd5b6000601f19601f8301169050919050565b7f4e487b7100000000000000000000000000000000000000000000000000000000600052604160045260246000fd5b610ebc82610e73565b810181811067ffffffffffffffff82111715610edb57610eda610e84565b5b80604052505050565b6000610eee610ddf565b9050610efa8282610eb3565b919050565b600067ffffffffffffffff821115610f1a57610f19610e84565b5b610f2382610e73565b9050602081019050919050565b82818337600083830152505050565b6000610f52610f4d84610eff565b610ee4565b905082815260208101848484011115610f6e57610f6d610e6e565b5b610f79848285610f30565b509392505050565b600082601f830112610f9657610f95610e69565b5b8135610fa6848260208601610f3f565b91505092915050565b600060208284031215610fc557610fc4610de9565b5b600082013567ffffffffffffffff811115610fe357610fe2610dee565b5b610fef84828501610f81565b91505092915050565b600081519050919050565b600082825260208201905092915050565b60005b83811015611032578082015181840152602081019050611017565b83811115611041576000848401525b50505050565b600061105282610ff8565b61105c8185611003565b935061106c818560208601611014565b61107581610e73565b840191505092915050565b7f4e487b7100000000000000000000000000000000000000000000000000000000600052602160045260246000fd5b600681106110c0576110bf611080565b5b50565b60008190506110d1826110af565b919050565b60006110e1826110c3565b9050919050565b6110f1816110d6565b82525050565b61110081610df3565b82525050565b60008115159050919050565b61111b81611106565b82525050565b600061010082019050818103600083015261113c818b611047565b90508181036020830152611150818a611047565b905081810360408301526111648189611047565b905061117360608301886110e8565b81810360808301526111858187611047565b905081810360a08301526111998186611047565b90506111a860c08301856110f7565b6111b560e0830184611112565b9998505050505050505050565b6000602082840312156111d8576111d7610de9565b5b60006111e684828501610e14565b91505092915050565b600060608201905081810360008301526112098186611047565b905061121860208301856110f7565b6112256040830184611112565b949350505050565b6000806040838503121561124457611243610de9565b5b600083013567ffffffffffffffff81111561126257611261610dee565b5b61126e85828601610f81565b925050602061127f85828601610e14565b9150509250929050565b600073ffffffffffffffffffffffffffffffffffffffff82169050919050565b60006112b482611289565b9050919050565b6112c4816112a9565b82525050565b60006020820190506112df60008301846112bb565b92915050565b6112ee816112a9565b81146112f957600080fd5b50565b60008135905061130b816112e5565b92915050565b60006020828403121561132757611326610de9565b5b6000611335848285016112fc565b91505092915050565b60006020820190506113536000830184611112565b92915050565b600080fd5b600080fd5b60008083601f84011261137957611378610e69565b5b8235905067ffffffffffffffff81111561139657611395611359565b5b6020830191508360018202830111156113b2576113b161135e565b5b9250929050565b6000806000604084860312156113d2576113d1610de9565b5b600084013567ffffffffffffffff8111156113f0576113ef610dee565b5b6113fc86828701611363565b9350935050602061140f86828701610e14565b9150509250925092565b7f4e487b7100000000000000000000000000000000000000000000000000000000600052603260045260246000fd5b7f4e487b7100000000000000000000000000000000000000000000000000000000600052602260045260246000fd5b6000600282049050600182168061148f57607f821691505b602082108114156114a3576114a2611448565b5b5091905056fea264697066735822122095bb05047e507ac566a5e6b68b6972903f39810f8178f0ff65ae959fe7c06c4f64736f6c634300080a0033",
  "immutableReferences": {},
  "source": "// SPDX-License-Identifier: MIT\r\npragma solidity >=0.4.22 <0.9.0;\r\n\r\ncontract Final{\r\n    enum VehicleType {Motorcycle,Motorcar,Jeep,PublicServiceVehicle,PrivateCarrier,PublicCarrier}\r\n\r\n    struct Challan{\r\n    string LicenseID; //license id of citizen\r\n    string CitizenName; \r\n    string CitizenCNIC;\r\n    VehicleType CarType; \r\n    string CarNumberPlate;\r\n    uint[] VoilationCode;  //------list of voilated rules\r\n    string timeStamp;\r\n    uint Fine;\r\n    bool status;\r\n    }\r\n\r\n    struct VoilationRule{\r\n    string Description; //description of the rule\r\n    uint Fine; \r\n    bool status;\r\n    }\r\n\r\n    address public Owner; //adminstrator who manages who can add challan etc.\r\n    mapping(string=>Challan[]) public PreviousChallan; //use to store all previous challans of citizens\r\n    mapping(string=>Challan) public ActiveChallan;  //use to store current active challans of citizen\r\n    mapping(address=>bool) public TP; //mapping for traffic police(TP) , who can add Challan\r\n    VoilationRule[] public RuleList; //list of traffic rules\r\n\r\n    constructor(){\r\n        Owner=msg.sender;\r\n    }\r\n\r\n////////////////////////////////////////////////////////////////functions related to admin\r\n    function addTrafficPolice(address _TP) public{//add traffic police who can add challans\r\n        require(msg.sender==Owner);\r\n        TP[_TP]=true;\r\n    }\r\n\r\n    function addTrafficRule(string calldata _description,uint _price) public{  \r\n        require(msg.sender==Owner);\r\n        RuleList.push(VoilationRule(_description,_price,true));\r\n    }\r\n\r\n    function updatePriceForRule(uint _ruleID,uint _price) public{ //update price of rule by giving its rule code \r\n        require(msg.sender==Owner);\r\n        require(_ruleID<(RuleList.length));\r\n        RuleList[_ruleID].Fine=_price;\r\n    }\r\n\r\n    \r\n    function deactivateRule(uint _ruleID) public{\r\n        require(msg.sender==Owner);\r\n        RuleList[_ruleID].status=false;\r\n    }\r\n\r\n    function activateRule(uint _ruleID) public{\r\n        require(msg.sender==Owner);\r\n        RuleList[_ruleID].status=true;\r\n    } \r\n\r\n    //////////////////////////////////////////////////////////////////////////////////////////////////////////\r\n\r\n    function deleteActiveChallan(string memory _LicenseID) internal { //removes user from active challan\r\n        delete ActiveChallan[_LicenseID];\r\n    }\r\n\r\n    // function addChallan(string calldata _LicenseID,string calldata _Name,string calldata _CNIC,VehicleType _Car,string calldata _carPlate,uint[] memory _voilatedRules,string calldata _timeStamp) public{\r\n    //     require(TP[msg.sender]==true);\r\n    //     uint VoilationFee=0;\r\n    //     for(uint i=0;i<_voilatedRules.length;i++){\r\n    //         VoilationFee+=RuleList[i].Fine;\r\n    //     }\r\n    //     ActiveChallan[_LicenseID]=Challan(_LicenseID,_Name,_CNIC,_Car,_carPlate,_voilatedRules,_timeStamp,VoilationFee,true);\r\n    // }\r\n\r\n    // function test(VehicleType _temp) public pure returns(VehicleType){\r\n    //     return _temp;\r\n    // }\r\n\r\n    // function getChallan(string calldata) public returns(){\r\n\r\n    // } \r\n\r\n    // function getChallan(string calldata LicenseID) public{\r\n        \r\n    // }\r\n\r\n\r\n}",
  "sourcePath": "F:\\BL project\\contracts\\Final.sol",
  "compiler": {
    "name": "solc",
    "version": "0.8.10+commit.fc410830.Emscripten.clang"
  },
  "schemaVersion": "3.4.3",
  "updatedAt": "2021-12-19T22:48:01.136Z",
  "devdoc": {
    "kind": "dev",
    "methods": {},
    "version": 1
  },
  "userdoc": {
    "kind": "user",
    "methods": {},
    "version": 1
  }
}