{
  "contractName": "FinalB",
  "abi": [
    {
      "inputs": [],
      "stateMutability": "nonpayable",
      "type": "constructor"
    },
    {
      "inputs": [],
      "name": "testStatus",
      "outputs": [
        {
          "internalType": "uint256",
          "name": "",
          "type": "uint256"
        }
      ],
      "stateMutability": "view",
      "type": "function",
      "constant": true
    },
    {
      "inputs": [],
      "name": "testValue",
      "outputs": [
        {
          "internalType": "uint256",
          "name": "",
          "type": "uint256"
        }
      ],
      "stateMutability": "view",
      "type": "function",
      "constant": true
    },
    {
      "inputs": [
        {
          "internalType": "address",
          "name": "_temp",
          "type": "address"
        }
      ],
      "name": "transferAdmin",
      "outputs": [],
      "stateMutability": "nonpayable",
      "type": "function"
    },
    {
      "inputs": [],
      "name": "getOwner",
      "outputs": [
        {
          "internalType": "address",
          "name": "",
          "type": "address"
        }
      ],
      "stateMutability": "view",
      "type": "function",
      "constant": true
    },
    {
      "inputs": [
        {
          "internalType": "address",
          "name": "_TP",
          "type": "address"
        }
      ],
      "name": "addTrafficPolice",
      "outputs": [],
      "stateMutability": "nonpayable",
      "type": "function"
    },
    {
      "inputs": [
        {
          "internalType": "string",
          "name": "_description",
          "type": "string"
        },
        {
          "internalType": "uint256",
          "name": "_Afine",
          "type": "uint256"
        },
        {
          "internalType": "uint256",
          "name": "_Bfine",
          "type": "uint256"
        },
        {
          "internalType": "uint256",
          "name": "_Cfine",
          "type": "uint256"
        }
      ],
      "name": "addTrafficRule",
      "outputs": [],
      "stateMutability": "nonpayable",
      "type": "function"
    },
    {
      "inputs": [
        {
          "internalType": "uint256",
          "name": "_ruleID",
          "type": "uint256"
        },
        {
          "internalType": "uint256",
          "name": "_Afine",
          "type": "uint256"
        },
        {
          "internalType": "uint256",
          "name": "_Bfine",
          "type": "uint256"
        },
        {
          "internalType": "uint256",
          "name": "_Cfine",
          "type": "uint256"
        }
      ],
      "name": "updatePriceForRule",
      "outputs": [],
      "stateMutability": "nonpayable",
      "type": "function"
    },
    {
      "inputs": [
        {
          "internalType": "uint256",
          "name": "_ruleID",
          "type": "uint256"
        }
      ],
      "name": "deactivateRule",
      "outputs": [],
      "stateMutability": "nonpayable",
      "type": "function"
    },
    {
      "inputs": [
        {
          "internalType": "uint256",
          "name": "_ruleID",
          "type": "uint256"
        }
      ],
      "name": "activateRule",
      "outputs": [],
      "stateMutability": "nonpayable",
      "type": "function"
    },
    {
      "inputs": [
        {
          "internalType": "string",
          "name": "_LicenseID",
          "type": "string"
        },
        {
          "internalType": "string",
          "name": "_Name",
          "type": "string"
        },
        {
          "internalType": "string",
          "name": "_CNIC",
          "type": "string"
        },
        {
          "internalType": "enum FinalB.VehicleType",
          "name": "_CarType",
          "type": "uint8"
        },
        {
          "internalType": "string",
          "name": "_carPlate",
          "type": "string"
        },
        {
          "internalType": "uint256[]",
          "name": "_voilatedRules",
          "type": "uint256[]"
        },
        {
          "internalType": "string",
          "name": "_timeStamp",
          "type": "string"
        }
      ],
      "name": "addChallan",
      "outputs": [],
      "stateMutability": "nonpayable",
      "type": "function"
    },
    {
      "inputs": [
        {
          "internalType": "string",
          "name": "_LicenseID",
          "type": "string"
        }
      ],
      "name": "getCurrentChallan",
      "outputs": [
        {
          "components": [
            {
              "internalType": "string",
              "name": "LicenseID",
              "type": "string"
            },
            {
              "internalType": "string",
              "name": "CitizenName",
              "type": "string"
            },
            {
              "internalType": "string",
              "name": "CitizenCNIC",
              "type": "string"
            },
            {
              "internalType": "enum FinalB.VehicleType",
              "name": "CarType",
              "type": "uint8"
            },
            {
              "internalType": "string",
              "name": "CarNumberPlate",
              "type": "string"
            },
            {
              "internalType": "uint256[]",
              "name": "VoilationCode",
              "type": "uint256[]"
            },
            {
              "internalType": "string",
              "name": "timeStamp",
              "type": "string"
            },
            {
              "internalType": "uint256",
              "name": "Fine",
              "type": "uint256"
            },
            {
              "internalType": "bool",
              "name": "status",
              "type": "bool"
            }
          ],
          "internalType": "struct FinalB.Challan",
          "name": "",
          "type": "tuple"
        }
      ],
      "stateMutability": "view",
      "type": "function",
      "constant": true
    },
    {
      "inputs": [
        {
          "internalType": "string",
          "name": "_LicenseID",
          "type": "string"
        }
      ],
      "name": "getAllChallan",
      "outputs": [
        {
          "components": [
            {
              "internalType": "string",
              "name": "LicenseID",
              "type": "string"
            },
            {
              "internalType": "string",
              "name": "CitizenName",
              "type": "string"
            },
            {
              "internalType": "string",
              "name": "CitizenCNIC",
              "type": "string"
            },
            {
              "internalType": "enum FinalB.VehicleType",
              "name": "CarType",
              "type": "uint8"
            },
            {
              "internalType": "string",
              "name": "CarNumberPlate",
              "type": "string"
            },
            {
              "internalType": "uint256[]",
              "name": "VoilationCode",
              "type": "uint256[]"
            },
            {
              "internalType": "string",
              "name": "timeStamp",
              "type": "string"
            },
            {
              "internalType": "uint256",
              "name": "Fine",
              "type": "uint256"
            },
            {
              "internalType": "bool",
              "name": "status",
              "type": "bool"
            }
          ],
          "internalType": "struct FinalB.Challan[]",
          "name": "",
          "type": "tuple[]"
        }
      ],
      "stateMutability": "view",
      "type": "function",
      "constant": true
    },
    {
      "inputs": [],
      "name": "getTrafficRules",
      "outputs": [
        {
          "components": [
            {
              "internalType": "string",
              "name": "Description",
              "type": "string"
            },
            {
              "internalType": "uint256",
              "name": "ACategoryVehicle_Fine",
              "type": "uint256"
            },
            {
              "internalType": "uint256",
              "name": "BCategoryVehicle_Fine",
              "type": "uint256"
            },
            {
              "internalType": "uint256",
              "name": "CCategoryVehicle_Fine",
              "type": "uint256"
            },
            {
              "internalType": "bool",
              "name": "status",
              "type": "bool"
            }
          ],
          "internalType": "struct FinalB.VoilationRule[]",
          "name": "",
          "type": "tuple[]"
        }
      ],
      "stateMutability": "view",
      "type": "function",
      "constant": true
    },
    {
      "inputs": [],
      "name": "test",
      "outputs": [
        {
          "internalType": "uint256",
          "name": "",
          "type": "uint256"
        }
      ],
      "stateMutability": "payable",
      "type": "function",
      "payable": true
    },
    {
      "inputs": [
        {
          "internalType": "string",
          "name": "_LicenseID",
          "type": "string"
        }
      ],
      "name": "payChallan",
      "outputs": [],
      "stateMutability": "payable",
      "type": "function",
      "payable": true
    }
  ],
  "bytecode": "0x60806040523480156200001157600080fd5b50336000806101000a81548173ffffffffffffffffffffffffffffffffffffffff021916908373ffffffffffffffffffffffffffffffffffffffff16021790555060046040518060a001604052806040518060400160405280602081526020017f457863656564696e672070726573637269626564207370656564206c696d697481525081526020016014815260200160328152602001604b81526020016001151581525090806001815401808255809150506001900390600052602060002090600502016000909190919091506000820151816000019080519060200190620000fd929190620004a0565b5060208201518160010155604082015181600201556060820151816003015560808201518160040160006101000a81548160ff021916908315150217905550505060046040518060a001604052806040518060800160405280604b815260200162002f7c604b913981526020016000815260200160328152602001604b81526020016001151581525090806001815401808255809150506001900390600052602060002090600502016000909190919091506000820151816000019080519060200190620001cd929190620004a0565b5060208201518160010155604082015181600201556060820151816003015560808201518160040160006101000a81548160ff021916908315150217905550505060046040518060a001604052806040518060600160405280602f815260200162002fc7602f9139815260200160148152602001603281526020016064815260200160011515815250908060018154018082558091505060019003906000526020600020906005020160009091909190915060008201518160000190805190602001906200029d929190620004a0565b5060208201518160010155604082015181600201556060820151816003015560808201518160040160006101000a81548160ff021916908315150217905550505060046040518060a001604052806040518060400160405280601b81526020017f4f7665726c6f6164696e67206120676f6f64732076656869636c6500000000008152508152602001600081526020016032815260200160328152602001600115158152509080600181540180825580915050600190039060005260206000209060050201600090919091909150600082015181600001908051906020019062000389929190620004a0565b5060208201518160010155604082015181600201556060820151816003015560808201518160040160006101000a81548160ff021916908315150217905550505060046040518060a0016040528060405180606001604052806036815260200162002ff660369139815260200160148152602001601e815260200160328152602001600115158152509080600181540180825580915050600190039060005260206000209060050201600090919091909150600082015181600001908051906020019062000459929190620004a0565b5060208201518160010155604082015181600201556060820151816003015560808201518160040160006101000a81548160ff0219169083151502179055505050620005b5565b828054620004ae906200057f565b90600052602060002090601f016020900481019282620004d257600085556200051e565b82601f10620004ed57805160ff19168380011785556200051e565b828001600101855582156200051e579182015b828111156200051d57825182559160200191906001019062000500565b5b5090506200052d919062000531565b5090565b5b808211156200054c57600081600090555060010162000532565b5090565b7f4e487b7100000000000000000000000000000000000000000000000000000000600052602260045260246000fd5b600060028204905060018216806200059857607f821691505b60208210811415620005af57620005ae62000550565b5b50919050565b6129b780620005c56000396000f3fe6080604052600436106100e85760003560e01c806373f13d1d1161008a57806395490de01161005957806395490de0146102ab578063f0661a64146102e8578063f111ea3314610311578063f8a8fd6d1461034e576100e8565b806373f13d1d1461020157806375829def1461022c578063893d20e8146102555780638af5de7214610280576100e8565b806332fd20cd116100c657806332fd20cd146101685780633a758ccc146101915780635c3b0a39146101ba5780636794fa9f146101e5576100e8565b806301ccde53146100ed5780632b942d5b146101165780632e2c0aae1461013f575b600080fd5b3480156100f957600080fd5b50610114600480360381019061010f9190611d0f565b61036c565b005b34801561012257600080fd5b5061013d60048036038101906101389190611e59565b6108b5565b005b34801561014b57600080fd5b5061016660048036038101906101619190611ee1565b61094e565b005b34801561017457600080fd5b5061018f600480360381019061018a9190611f69565b610aa9565b005b34801561019d57600080fd5b506101b860048036038101906101b39190611e59565b610b96565b005b3480156101c657600080fd5b506101cf610c2f565b6040516101dc9190611fdf565b60405180910390f35b6101ff60048036038101906101fa9190611ffa565b610c35565b005b34801561020d57600080fd5b50610216610d09565b6040516102239190612231565b60405180910390f35b34801561023857600080fd5b50610253600480360381019061024e91906122b1565b610e33565b005b34801561026157600080fd5b5061026a610ece565b60405161027791906122ed565b60405180910390f35b34801561028c57600080fd5b50610295610ef7565b6040516102a29190611fdf565b60405180910390f35b3480156102b757600080fd5b506102d260048036038101906102cd9190611ffa565b610efd565b6040516102df9190612516565b60405180910390f35b3480156102f457600080fd5b5061030f600480360381019061030a91906122b1565b6112cb565b005b34801561031d57600080fd5b5061033860048036038101906103339190611ffa565b61137e565b60405161034591906126e2565b60405180910390f35b610356611791565b6040516103639190611fdf565b60405180910390f35b600015156002886040516103809190612740565b908152602001604051809103902060080160009054906101000a900460ff161515146103ab57600080fd5b6000805b83518110156105d257600060058111156103cc576103cb612308565b5b8660058111156103df576103de612308565b5b14156104375760048482815181106103fa576103f9612757565b5b60200260200101518154811061041357610412612757565b5b9060005260206000209060050201600101548261043091906127b5565b91506105bf565b6002600581111561044b5761044a612308565b5b86600581111561045e5761045d612308565b5b148061048e57506001600581111561047957610478612308565b5b86600581111561048c5761048b612308565b5b145b156104e55760048482815181106104a8576104a7612757565b5b6020026020010151815481106104c1576104c0612757565b5b906000526020600020906005020160020154826104de91906127b5565b91506105be565b600360058111156104f9576104f8612308565b5b86600581111561050c5761050b612308565b5b148061053c57506004600581111561052757610526612308565b5b86600581111561053a57610539612308565b5b145b8061056a575060058081111561055557610554612308565b5b86600581111561056857610567612308565b5b145b156105bd57600484828151811061058457610583612757565b5b60200260200101518154811061059d5761059c612757565b5b906000526020600020906005020160030154826105ba91906127b5565b91505b5b5b80806105ca9061280b565b9150506103af565b5060006040518061012001604052808a815260200189815260200188815260200187600581111561060657610605612308565b5b81526020018681526020018581526020018481526020018381526020016001151581525090508060028a60405161063d9190612740565b908152602001604051809103902060008201518160000190805190602001906106679291906118e1565b5060208201518160010190805190602001906106849291906118e1565b5060408201518160020190805190602001906106a19291906118e1565b5060608201518160030160006101000a81548160ff021916908360058111156106cd576106cc612308565b5b021790555060808201518160040190805190602001906106ee9291906118e1565b5060a082015181600501908051906020019061070b929190611967565b5060c08201518160060190805190602001906107289291906118e1565b5060e082015181600701556101008201518160080160006101000a81548160ff0219169083151502179055509050506001896040516107679190612740565b908152602001604051809103902081908060018154018082558091505060019003906000526020600020906009020160009091909190915060008201518160000190805190602001906107bb9291906118e1565b5060208201518160010190805190602001906107d89291906118e1565b5060408201518160020190805190602001906107f59291906118e1565b5060608201518160030160006101000a81548160ff0219169083600581111561082157610820612308565b5b021790555060808201518160040190805190602001906108429291906118e1565b5060a082015181600501908051906020019061085f929190611967565b5060c082015181600601908051906020019061087c9291906118e1565b5060e082015181600701556101008201518160080160006101000a81548160ff0219169083151502179055505050505050505050505050565b60008054906101000a900473ffffffffffffffffffffffffffffffffffffffff1673ffffffffffffffffffffffffffffffffffffffff163373ffffffffffffffffffffffffffffffffffffffff161461090d57600080fd5b60016004828154811061092357610922612757565b5b906000526020600020906005020160040160006101000a81548160ff02191690831515021790555050565b60008054906101000a900473ffffffffffffffffffffffffffffffffffffffff1673ffffffffffffffffffffffffffffffffffffffff163373ffffffffffffffffffffffffffffffffffffffff16146109a657600080fd5b60006040518060a0016040528087878080601f016020809104026020016040519081016040528093929190818152602001838380828437600081840152601f19601f82011690508083019250505050505050815260200185815260200184815260200183815260200160011515815250905060048190806001815401808255809150506001900390600052602060002090600502016000909190919091506000820151816000019080519060200190610a609291906118e1565b5060208201518160010155604082015181600201556060820151816003015560808201518160040160006101000a81548160ff0219169083151502179055505050505050505050565b60008054906101000a900473ffffffffffffffffffffffffffffffffffffffff1673ffffffffffffffffffffffffffffffffffffffff163373ffffffffffffffffffffffffffffffffffffffff1614610b0157600080fd5b6004805490508410610b1257600080fd5b8260048581548110610b2757610b26612757565b5b9060005260206000209060050201600101819055508160048581548110610b5157610b50612757565b5b9060005260206000209060050201600201819055508060048581548110610b7b57610b7a612757565b5b90600052602060002090600502016003018190555050505050565b60008054906101000a900473ffffffffffffffffffffffffffffffffffffffff1673ffffffffffffffffffffffffffffffffffffffff163373ffffffffffffffffffffffffffffffffffffffff1614610bee57600080fd5b600060048281548110610c0457610c03612757565b5b906000526020600020906005020160040160006101000a81548160ff02191690831515021790555050565b60065481565b6001151560028383604051610c4b929190612879565b908152602001604051809103902060080160009054906101000a900460ff16151514610c7657600080fd5b670de0b6b3a764000060028383604051610c91929190612879565b908152602001604051809103902060070154610cad9190612892565b3414610cb857600080fd5b610d0582828080601f016020809104026020016040519081016040528093929190818152602001838380828437600081840152601f19601f820116905080830192505050505050506117a0565b5050565b60606004805480602002602001604051908101604052809291908181526020016000905b82821015610e2a57838290600052602060002090600502016040518060a0016040529081600082018054610d609061291b565b80601f0160208091040260200160405190810160405280929190818152602001828054610d8c9061291b565b8015610dd95780601f10610dae57610100808354040283529160200191610dd9565b820191906000526020600020905b815481529060010190602001808311610dbc57829003601f168201915b505050505081526020016001820154815260200160028201548152602001600382015481526020016004820160009054906101000a900460ff16151515158152505081526020019060010190610d2d565b50505050905090565b60008054906101000a900473ffffffffffffffffffffffffffffffffffffffff1673ffffffffffffffffffffffffffffffffffffffff163373ffffffffffffffffffffffffffffffffffffffff1614610e8b57600080fd5b806000806101000a81548173ffffffffffffffffffffffffffffffffffffffff021916908373ffffffffffffffffffffffffffffffffffffffff16021790555050565b60008060009054906101000a900473ffffffffffffffffffffffffffffffffffffffff16905090565b60055481565b610f056119b4565b60028383604051610f17929190612879565b908152602001604051809103902060405180610120016040529081600082018054610f419061291b565b80601f0160208091040260200160405190810160405280929190818152602001828054610f6d9061291b565b8015610fba5780601f10610f8f57610100808354040283529160200191610fba565b820191906000526020600020905b815481529060010190602001808311610f9d57829003601f168201915b50505050508152602001600182018054610fd39061291b565b80601f0160208091040260200160405190810160405280929190818152602001828054610fff9061291b565b801561104c5780601f106110215761010080835404028352916020019161104c565b820191906000526020600020905b81548152906001019060200180831161102f57829003601f168201915b505050505081526020016002820180546110659061291b565b80601f01602080910402602001604051908101604052809291908181526020018280546110919061291b565b80156110de5780601f106110b3576101008083540402835291602001916110de565b820191906000526020600020905b8154815290600101906020018083116110c157829003601f168201915b505050505081526020016003820160009054906101000a900460ff16600581111561110c5761110b612308565b5b600581111561111e5761111d612308565b5b81526020016004820180546111329061291b565b80601f016020809104026020016040519081016040528092919081815260200182805461115e9061291b565b80156111ab5780601f10611180576101008083540402835291602001916111ab565b820191906000526020600020905b81548152906001019060200180831161118e57829003601f168201915b505050505081526020016005820180548060200260200160405190810160405280929190818152602001828054801561120357602002820191906000526020600020905b8154815260200190600101908083116111ef575b5050505050815260200160068201805461121c9061291b565b80601f01602080910402602001604051908101604052809291908181526020018280546112489061291b565b80156112955780601f1061126a57610100808354040283529160200191611295565b820191906000526020600020905b81548152906001019060200180831161127857829003601f168201915b50505050508152602001600782015481526020016008820160009054906101000a900460ff161515151581525050905092915050565b60008054906101000a900473ffffffffffffffffffffffffffffffffffffffff1673ffffffffffffffffffffffffffffffffffffffff163373ffffffffffffffffffffffffffffffffffffffff161461132357600080fd5b6001600360008373ffffffffffffffffffffffffffffffffffffffff1673ffffffffffffffffffffffffffffffffffffffff16815260200190815260200160002060006101000a81548160ff02191690831515021790555050565b606060018383604051611392929190612879565b9081526020016040518091039020805480602002602001604051908101604052809291908181526020016000905b828210156117855783829060005260206000209060090201604051806101200160405290816000820180546113f49061291b565b80601f01602080910402602001604051908101604052809291908181526020018280546114209061291b565b801561146d5780601f106114425761010080835404028352916020019161146d565b820191906000526020600020905b81548152906001019060200180831161145057829003601f168201915b505050505081526020016001820180546114869061291b565b80601f01602080910402602001604051908101604052809291908181526020018280546114b29061291b565b80156114ff5780601f106114d4576101008083540402835291602001916114ff565b820191906000526020600020905b8154815290600101906020018083116114e257829003601f168201915b505050505081526020016002820180546115189061291b565b80601f01602080910402602001604051908101604052809291908181526020018280546115449061291b565b80156115915780601f1061156657610100808354040283529160200191611591565b820191906000526020600020905b81548152906001019060200180831161157457829003601f168201915b505050505081526020016003820160009054906101000a900460ff1660058111156115bf576115be612308565b5b60058111156115d1576115d0612308565b5b81526020016004820180546115e59061291b565b80601f01602080910402602001604051908101604052809291908181526020018280546116119061291b565b801561165e5780601f106116335761010080835404028352916020019161165e565b820191906000526020600020905b81548152906001019060200180831161164157829003601f168201915b50505050508152602001600582018054806020026020016040519081016040528092919081815260200182805480156116b657602002820191906000526020600020905b8154815260200190600101908083116116a2575b505050505081526020016006820180546116cf9061291b565b80601f01602080910402602001604051908101604052809291908181526020018280546116fb9061291b565b80156117485780601f1061171d57610100808354040283529160200191611748565b820191906000526020600020905b81548152906001019060200180831161172b57829003601f168201915b50505050508152602001600782015481526020016008820160009054906101000a900460ff161515151581525050815260200190600101906113c0565b50505050905092915050565b60003460058190555034905090565b60006001826040516117b29190612740565b908152602001604051809103902080549050905060006001836040516117d89190612740565b90815260200160405180910390206001836117f3919061294d565b8154811061180457611803612757565b5b906000526020600020906009020160080160006101000a81548160ff02191690831515021790555060028260405161183c9190612740565b90815260200160405180910390206000808201600061185b9190611a14565b60018201600061186b9190611a14565b60028201600061187b9190611a14565b6003820160006101000a81549060ff021916905560048201600061189f9190611a14565b6005820160006118af9190611a54565b6006820160006118bf9190611a14565b60078201600090556008820160006101000a81549060ff021916905550505050565b8280546118ed9061291b565b90600052602060002090601f01602090048101928261190f5760008555611956565b82601f1061192857805160ff1916838001178555611956565b82800160010185558215611956579182015b8281111561195557825182559160200191906001019061193a565b5b5090506119639190611a75565b5090565b8280548282559060005260206000209081019282156119a3579160200282015b828111156119a2578251825591602001919060010190611987565b5b5090506119b09190611a75565b5090565b604051806101200160405280606081526020016060815260200160608152602001600060058111156119e9576119e8612308565b5b8152602001606081526020016060815260200160608152602001600081526020016000151581525090565b508054611a209061291b565b6000825580601f10611a325750611a51565b601f016020900490600052602060002090810190611a509190611a75565b5b50565b5080546000825590600052602060002090810190611a729190611a75565b50565b5b80821115611a8e576000816000905550600101611a76565b5090565b6000604051905090565b600080fd5b600080fd5b600080fd5b600080fd5b6000601f19601f8301169050919050565b7f4e487b7100000000000000000000000000000000000000000000000000000000600052604160045260246000fd5b611af982611ab0565b810181811067ffffffffffffffff82111715611b1857611b17611ac1565b5b80604052505050565b6000611b2b611a92565b9050611b378282611af0565b919050565b600067ffffffffffffffff821115611b5757611b56611ac1565b5b611b6082611ab0565b9050602081019050919050565b82818337600083830152505050565b6000611b8f611b8a84611b3c565b611b21565b905082815260208101848484011115611bab57611baa611aab565b5b611bb6848285611b6d565b509392505050565b600082601f830112611bd357611bd2611aa6565b5b8135611be3848260208601611b7c565b91505092915050565b60068110611bf957600080fd5b50565b600081359050611c0b81611bec565b92915050565b600067ffffffffffffffff821115611c2c57611c2b611ac1565b5b602082029050602081019050919050565b600080fd5b6000819050919050565b611c5581611c42565b8114611c6057600080fd5b50565b600081359050611c7281611c4c565b92915050565b6000611c8b611c8684611c11565b611b21565b90508083825260208201905060208402830185811115611cae57611cad611c3d565b5b835b81811015611cd75780611cc38882611c63565b845260208401935050602081019050611cb0565b5050509392505050565b600082601f830112611cf657611cf5611aa6565b5b8135611d06848260208601611c78565b91505092915050565b600080600080600080600060e0888a031215611d2e57611d2d611a9c565b5b600088013567ffffffffffffffff811115611d4c57611d4b611aa1565b5b611d588a828b01611bbe565b975050602088013567ffffffffffffffff811115611d7957611d78611aa1565b5b611d858a828b01611bbe565b965050604088013567ffffffffffffffff811115611da657611da5611aa1565b5b611db28a828b01611bbe565b9550506060611dc38a828b01611bfc565b945050608088013567ffffffffffffffff811115611de457611de3611aa1565b5b611df08a828b01611bbe565b93505060a088013567ffffffffffffffff811115611e1157611e10611aa1565b5b611e1d8a828b01611ce1565b92505060c088013567ffffffffffffffff811115611e3e57611e3d611aa1565b5b611e4a8a828b01611bbe565b91505092959891949750929550565b600060208284031215611e6f57611e6e611a9c565b5b6000611e7d84828501611c63565b91505092915050565b600080fd5b60008083601f840112611ea157611ea0611aa6565b5b8235905067ffffffffffffffff811115611ebe57611ebd611e86565b5b602083019150836001820283011115611eda57611ed9611c3d565b5b9250929050565b600080600080600060808688031215611efd57611efc611a9c565b5b600086013567ffffffffffffffff811115611f1b57611f1a611aa1565b5b611f2788828901611e8b565b95509550506020611f3a88828901611c63565b9350506040611f4b88828901611c63565b9250506060611f5c88828901611c63565b9150509295509295909350565b60008060008060808587031215611f8357611f82611a9c565b5b6000611f9187828801611c63565b9450506020611fa287828801611c63565b9350506040611fb387828801611c63565b9250506060611fc487828801611c63565b91505092959194509250565b611fd981611c42565b82525050565b6000602082019050611ff46000830184611fd0565b92915050565b6000806020838503121561201157612010611a9c565b5b600083013567ffffffffffffffff81111561202f5761202e611aa1565b5b61203b85828601611e8b565b92509250509250929050565b600081519050919050565b600082825260208201905092915050565b6000819050602082019050919050565b600081519050919050565b600082825260208201905092915050565b60005b838110156120ad578082015181840152602081019050612092565b838111156120bc576000848401525b50505050565b60006120cd82612073565b6120d7818561207e565b93506120e781856020860161208f565b6120f081611ab0565b840191505092915050565b61210481611c42565b82525050565b60008115159050919050565b61211f8161210a565b82525050565b600060a083016000830151848203600086015261214282826120c2565b915050602083015161215760208601826120fb565b50604083015161216a60408601826120fb565b50606083015161217d60608601826120fb565b5060808301516121906080860182612116565b508091505092915050565b60006121a78383612125565b905092915050565b6000602082019050919050565b60006121c782612047565b6121d18185612052565b9350836020820285016121e385612063565b8060005b8581101561221f5784840389528151612200858261219b565b945061220b836121af565b925060208a019950506001810190506121e7565b50829750879550505050505092915050565b6000602082019050818103600083015261224b81846121bc565b905092915050565b600073ffffffffffffffffffffffffffffffffffffffff82169050919050565b600061227e82612253565b9050919050565b61228e81612273565b811461229957600080fd5b50565b6000813590506122ab81612285565b92915050565b6000602082840312156122c7576122c6611a9c565b5b60006122d58482850161229c565b91505092915050565b6122e781612273565b82525050565b600060208201905061230260008301846122de565b92915050565b7f4e487b7100000000000000000000000000000000000000000000000000000000600052602160045260246000fd5b6006811061234857612347612308565b5b50565b600081905061235982612337565b919050565b60006123698261234b565b9050919050565b6123798161235e565b82525050565b600081519050919050565b600082825260208201905092915050565b6000819050602082019050919050565b60006123b783836120fb565b60208301905092915050565b6000602082019050919050565b60006123db8261237f565b6123e5818561238a565b93506123f08361239b565b8060005b8381101561242157815161240888826123ab565b9750612413836123c3565b9250506001810190506123f4565b5085935050505092915050565b600061012083016000830151848203600086015261244c82826120c2565b9150506020830151848203602086015261246682826120c2565b9150506040830151848203604086015261248082826120c2565b91505060608301516124956060860182612370565b50608083015184820360808601526124ad82826120c2565b91505060a083015184820360a08601526124c782826123d0565b91505060c083015184820360c08601526124e182826120c2565b91505060e08301516124f660e08601826120fb565b5061010083015161250b610100860182612116565b508091505092915050565b60006020820190508181036000830152612530818461242e565b905092915050565b600081519050919050565b600082825260208201905092915050565b6000819050602082019050919050565b600061012083016000830151848203600086015261258282826120c2565b9150506020830151848203602086015261259c82826120c2565b915050604083015184820360408601526125b682826120c2565b91505060608301516125cb6060860182612370565b50608083015184820360808601526125e382826120c2565b91505060a083015184820360a08601526125fd82826123d0565b91505060c083015184820360c086015261261782826120c2565b91505060e083015161262c60e08601826120fb565b50610100830151612641610100860182612116565b508091505092915050565b60006126588383612564565b905092915050565b6000602082019050919050565b600061267882612538565b6126828185612543565b93508360208202850161269485612554565b8060005b858110156126d057848403895281516126b1858261264c565b94506126bc83612660565b925060208a01995050600181019050612698565b50829750879550505050505092915050565b600060208201905081810360008301526126fc818461266d565b905092915050565b600081905092915050565b600061271a82612073565b6127248185612704565b935061273481856020860161208f565b80840191505092915050565b600061274c828461270f565b915081905092915050565b7f4e487b7100000000000000000000000000000000000000000000000000000000600052603260045260246000fd5b7f4e487b7100000000000000000000000000000000000000000000000000000000600052601160045260246000fd5b60006127c082611c42565b91506127cb83611c42565b9250827fffffffffffffffffffffffffffffffffffffffffffffffffffffffffffffffff03821115612800576127ff612786565b5b828201905092915050565b600061281682611c42565b91507fffffffffffffffffffffffffffffffffffffffffffffffffffffffffffffffff82141561284957612848612786565b5b600182019050919050565b60006128608385612704565b935061286d838584611b6d565b82840190509392505050565b6000612886828486612854565b91508190509392505050565b600061289d82611c42565b91506128a883611c42565b9250817fffffffffffffffffffffffffffffffffffffffffffffffffffffffffffffffff04831182151516156128e1576128e0612786565b5b828202905092915050565b7f4e487b7100000000000000000000000000000000000000000000000000000000600052602260045260246000fd5b6000600282049050600182168061293357607f821691505b60208210811415612947576129466128ec565b5b50919050565b600061295882611c42565b915061296383611c42565b92508282101561297657612975612786565b5b82820390509291505056fea2646970667358221220bb0f271fdaf5df88d8624ac8aa9c6139989efcbf2d1cb59a801abf3178a7936464736f6c634300080a00334361727279696e672070617373656e6765727320696e2061207075626c696320736572766963652076656869636c6520657863656564696e67207065726d69737369626c65206c696d697456696f6c6174696f6e206f662074726166666963207369676e616c7328456c656374726f6e69632f4d616e75616c2944726976696e672061206d6f746f722076656869636c65206174206e6967687420776974686f75742070726f706572206c6967687473",
  "immutableReferences": {},
  "source": "// SPDX-License-Identifier: MIT\r\npragma solidity >=0.4.22 <0.9.0;\r\n\r\ncontract FinalB{\r\n    enum VehicleType {Motorcycle,Motorcar,Jeep,PublicServiceVehicle,PrivateCarrier,PublicCarrier}\r\n\r\n    struct Challan{\r\n    string LicenseID; //license id of citizen\r\n    string CitizenName; \r\n    string CitizenCNIC;\r\n    VehicleType CarType; \r\n    string CarNumberPlate;\r\n    uint[] VoilationCode;  //------list of voilated rules\r\n    string timeStamp;\r\n    uint Fine;\r\n    bool status;\r\n    }\r\n\r\n    struct VoilationRule{\r\n    string Description; //description of the rule\r\n    uint ACategoryVehicle_Fine;   //includes motorcycle\r\n    uint BCategoryVehicle_Fine;  //includes Motorcar,Jeep,\r\n    uint CCategoryVehicle_Fine; //includes PrivateCarrier,PublicCarrier\r\n    bool status;\r\n    }\r\n\r\n    address Owner; //adminstrator who manages who can add challan etc.\r\n    mapping(string=>Challan[]) ChallanHistory; //use to store all previous challans of citizens\r\n    mapping(string=>Challan) ActiveChallan;  //use to store current active challans of citizen\r\n    mapping(address=>bool) TP; //mapping for traffic police(TP) , who can add Challan\r\n    VoilationRule[] RuleList; //list of traffic rules\r\n\r\n    uint public testValue;\r\n    uint public testStatus;\r\n\r\n    constructor(){\r\n        Owner=msg.sender;\r\n        \r\n        RuleList.push(VoilationRule(\"Exceeding prescribed speed limit\",20,50,75,true));\r\n        RuleList.push(VoilationRule(\"Carrying passengers in a public service vehicle exceeding permissible limit\",0,50,75,true));\r\n        RuleList.push(VoilationRule(\"Violation of traffic signals(Electronic/Manual)\",20,50,100,true));\r\n        RuleList.push(VoilationRule(\"Overloading a goods vehicle\",0,50,50,true));\r\n        RuleList.push(VoilationRule(\"Driving a motor vehicle at night without proper lights\",20,30,50,true));\r\n        //append all rules in the start of the application\r\n    }\r\n\r\n    \r\n\r\n////////////////////////////////////////////////////////////////functions related to admin\r\n    //working\r\n    function transferAdmin(address _temp) public{//working\r\n        require(msg.sender==Owner);\r\n        Owner=_temp;\r\n    }\r\n\r\n    function getOwner() public view returns(address){\r\n        return Owner;\r\n    }\r\n    //working\r\n    function addTrafficPolice(address _TP) public{//add traffic police who can add challans //woring\r\n        require(msg.sender==Owner);\r\n        TP[_TP]=true;\r\n    }\r\n\r\n    //not working\r\n    function addTrafficRule(string calldata _description,uint _Afine,uint _Bfine,uint _Cfine) public{ \r\n        require(msg.sender==Owner);\r\n        VoilationRule memory temp=VoilationRule(_description,_Afine,_Bfine,_Cfine,true);\r\n        RuleList.push(temp);\r\n    }\r\n\r\n    //working\r\n    function updatePriceForRule(uint _ruleID,uint _Afine,uint _Bfine,uint _Cfine) public{ //update price of rule by giving its rule code \r\n        require(msg.sender==Owner);\r\n        require(_ruleID<(RuleList.length));\r\n        RuleList[_ruleID]. ACategoryVehicle_Fine=_Afine;\r\n        RuleList[_ruleID]. BCategoryVehicle_Fine=_Bfine;\r\n        RuleList[_ruleID]. CCategoryVehicle_Fine=_Cfine;\r\n    }\r\n\r\n    //working\r\n    function deactivateRule(uint _ruleID) public{\r\n        require(msg.sender==Owner);\r\n        RuleList[_ruleID].status=false;\r\n    }\r\n    //working\r\n    function activateRule(uint _ruleID) public{\r\n        require(msg.sender==Owner);\r\n        RuleList[_ruleID].status=true;\r\n    } \r\n\r\n    //////////////////////////////////////////////////////////////////////////////////////////////////////////\r\n\r\n    function deleteActiveChallan(string memory _LicenseID) internal { //removes user from active challan\r\n        uint length=ChallanHistory[_LicenseID].length;\r\n        ChallanHistory[_LicenseID][length-1].status=false; //change status in its list of challans\r\n        delete ActiveChallan[_LicenseID];\r\n    }\r\n\r\n    //not working\r\n    function addChallan(string memory _LicenseID,string memory _Name,string memory _CNIC,VehicleType _CarType,string memory _carPlate,uint[] memory _voilatedRules,string memory _timeStamp) public{\r\n        // require(TP[msg.sender]==true); //only filled by traffic police officer\r\n        require(ActiveChallan[_LicenseID].status==false);\r\n        uint VoilationFee=0;\r\n        for(uint i=0;i<_voilatedRules.length;i++){\r\n            if(_CarType==VehicleType.Motorcycle){\r\n                VoilationFee+=RuleList[_voilatedRules[i]].ACategoryVehicle_Fine;\r\n            }else if(_CarType==VehicleType.Jeep || _CarType==VehicleType.Motorcar){\r\n                VoilationFee+=RuleList[_voilatedRules[i]].BCategoryVehicle_Fine;\r\n            }else if(_CarType==VehicleType.PublicServiceVehicle || _CarType==VehicleType.PrivateCarrier || _CarType==VehicleType.PublicCarrier){\r\n                VoilationFee+=RuleList[_voilatedRules[i]].CCategoryVehicle_Fine;\r\n            }\r\n        }\r\n        Challan memory temp=Challan(_LicenseID,_Name,_CNIC,_CarType,_carPlate,_voilatedRules,_timeStamp,VoilationFee,true);\r\n        ActiveChallan[_LicenseID]=temp;\r\n        ChallanHistory[_LicenseID].push(temp);\r\n        \r\n    }\r\n\r\n\r\n    function getCurrentChallan(string calldata _LicenseID) public view returns(Challan memory){\r\n        return ActiveChallan[_LicenseID];\r\n    }\r\n\r\n    function getAllChallan(string calldata _LicenseID) public view returns(Challan[] memory){\r\n        return ChallanHistory[_LicenseID];\r\n    }\r\n\r\n    function getTrafficRules() public view returns(VoilationRule[] memory){\r\n        return RuleList;\r\n    }\r\n\r\n    //working\r\n    function test() public payable returns(uint){\r\n        testValue=msg.value;\r\n        return msg.value;\r\n    }\r\n\r\n    //working\r\n    function payChallan(string calldata _LicenseID) public payable{\r\n        require(ActiveChallan[_LicenseID].status==true);\r\n        require(msg.value==(ActiveChallan[_LicenseID].Fine*1e18));  //uint tempo=n*1e18;  //equivalent to n ether\r\n        deleteActiveChallan(_LicenseID);\r\n    }\r\n}",
  "sourcePath": "F:\\BL project\\contracts\\FinalB.sol",
  "compiler": {
    "name": "solc",
    "version": "0.8.10+commit.fc410830.Emscripten.clang"
  },
  "schemaVersion": "3.4.3",
  "updatedAt": "2021-12-20T01:46:29.046Z",
  "networkType": "ethereum",
  "devdoc": {
    "kind": "dev",
    "methods": {},
    "version": 1
  },
  "userdoc": {
    "kind": "user",
    "methods": {},
    "version": 1
  }
}