{
  "contractName": "Final4",
  "abi": [
    {
      "inputs": [],
      "stateMutability": "nonpayable",
      "type": "constructor"
    },
    {
      "inputs": [
        {
          "internalType": "string",
          "name": "",
          "type": "string"
        }
      ],
      "name": "ActiveChallan",
      "outputs": [
        {
          "internalType": "string",
          "name": "LicenseID",
          "type": "string"
        },
        {
          "internalType": "string",
          "name": "CitizenName",
          "type": "string"
        },
        {
          "internalType": "string",
          "name": "CitizenCNIC",
          "type": "string"
        },
        {
          "internalType": "enum Final4.VehicleType",
          "name": "CarType",
          "type": "uint8"
        },
        {
          "internalType": "string",
          "name": "CarNumberPlate",
          "type": "string"
        },
        {
          "internalType": "string",
          "name": "timeStamp",
          "type": "string"
        },
        {
          "internalType": "uint256",
          "name": "Fine",
          "type": "uint256"
        },
        {
          "internalType": "bool",
          "name": "status",
          "type": "bool"
        }
      ],
      "stateMutability": "view",
      "type": "function"
    },
    {
      "inputs": [],
      "name": "Owner",
      "outputs": [
        {
          "internalType": "address",
          "name": "",
          "type": "address"
        }
      ],
      "stateMutability": "view",
      "type": "function"
    },
    {
      "inputs": [
        {
          "internalType": "string",
          "name": "",
          "type": "string"
        },
        {
          "internalType": "uint256",
          "name": "",
          "type": "uint256"
        }
      ],
      "name": "PreviousChallan",
      "outputs": [
        {
          "internalType": "string",
          "name": "LicenseID",
          "type": "string"
        },
        {
          "internalType": "string",
          "name": "CitizenName",
          "type": "string"
        },
        {
          "internalType": "string",
          "name": "CitizenCNIC",
          "type": "string"
        },
        {
          "internalType": "enum Final4.VehicleType",
          "name": "CarType",
          "type": "uint8"
        },
        {
          "internalType": "string",
          "name": "CarNumberPlate",
          "type": "string"
        },
        {
          "internalType": "string",
          "name": "timeStamp",
          "type": "string"
        },
        {
          "internalType": "uint256",
          "name": "Fine",
          "type": "uint256"
        },
        {
          "internalType": "bool",
          "name": "status",
          "type": "bool"
        }
      ],
      "stateMutability": "view",
      "type": "function"
    },
    {
      "inputs": [
        {
          "internalType": "uint256",
          "name": "",
          "type": "uint256"
        }
      ],
      "name": "RuleList",
      "outputs": [
        {
          "internalType": "string",
          "name": "Description",
          "type": "string"
        },
        {
          "internalType": "bool",
          "name": "status",
          "type": "bool"
        }
      ],
      "stateMutability": "view",
      "type": "function"
    },
    {
      "inputs": [
        {
          "internalType": "address",
          "name": "",
          "type": "address"
        }
      ],
      "name": "TP",
      "outputs": [
        {
          "internalType": "bool",
          "name": "",
          "type": "bool"
        }
      ],
      "stateMutability": "view",
      "type": "function"
    },
    {
      "inputs": [
        {
          "internalType": "address",
          "name": "_TP",
          "type": "address"
        }
      ],
      "name": "addTrafficPolice",
      "outputs": [],
      "stateMutability": "nonpayable",
      "type": "function"
    },
    {
      "inputs": [
        {
          "internalType": "string",
          "name": "_description",
          "type": "string"
        },
        {
          "internalType": "uint256",
          "name": "_Afine",
          "type": "uint256"
        },
        {
          "internalType": "uint256",
          "name": "_Bfine",
          "type": "uint256"
        },
        {
          "internalType": "uint256",
          "name": "_Cfine",
          "type": "uint256"
        }
      ],
      "name": "addTrafficRule",
      "outputs": [],
      "stateMutability": "nonpayable",
      "type": "function"
    },
    {
      "inputs": [
        {
          "internalType": "uint256",
          "name": "_ruleID",
          "type": "uint256"
        },
        {
          "internalType": "uint256",
          "name": "_Afine",
          "type": "uint256"
        },
        {
          "internalType": "uint256",
          "name": "_Bfine",
          "type": "uint256"
        },
        {
          "internalType": "uint256",
          "name": "_Cfine",
          "type": "uint256"
        }
      ],
      "name": "updatePriceForRule",
      "outputs": [],
      "stateMutability": "nonpayable",
      "type": "function"
    },
    {
      "inputs": [
        {
          "internalType": "uint256",
          "name": "_ruleID",
          "type": "uint256"
        }
      ],
      "name": "deactivateRule",
      "outputs": [],
      "stateMutability": "nonpayable",
      "type": "function"
    },
    {
      "inputs": [
        {
          "internalType": "uint256",
          "name": "_ruleID",
          "type": "uint256"
        }
      ],
      "name": "activateRule",
      "outputs": [],
      "stateMutability": "nonpayable",
      "type": "function"
    },
    {
      "inputs": [
        {
          "internalType": "string",
          "name": "_LicenseID",
          "type": "string"
        },
        {
          "internalType": "string",
          "name": "_Name",
          "type": "string"
        },
        {
          "internalType": "string",
          "name": "_CNIC",
          "type": "string"
        },
        {
          "internalType": "enum Final4.VehicleType",
          "name": "_CarType",
          "type": "uint8"
        },
        {
          "internalType": "string",
          "name": "_carPlate",
          "type": "string"
        },
        {
          "internalType": "uint256[]",
          "name": "_voilatedRules",
          "type": "uint256[]"
        },
        {
          "internalType": "string",
          "name": "_timeStamp",
          "type": "string"
        }
      ],
      "name": "addChallan",
      "outputs": [],
      "stateMutability": "nonpayable",
      "type": "function"
    },
    {
      "inputs": [
        {
          "internalType": "enum Final4.VehicleType",
          "name": "_temp",
          "type": "uint8"
        }
      ],
      "name": "test",
      "outputs": [
        {
          "internalType": "enum Final4.VehicleType",
          "name": "",
          "type": "uint8"
        }
      ],
      "stateMutability": "pure",
      "type": "function"
    },
    {
      "inputs": [
        {
          "internalType": "string",
          "name": "_LicenseID",
          "type": "string"
        }
      ],
      "name": "getCurrentChallan",
      "outputs": [
        {
          "components": [
            {
              "internalType": "string",
              "name": "LicenseID",
              "type": "string"
            },
            {
              "internalType": "string",
              "name": "CitizenName",
              "type": "string"
            },
            {
              "internalType": "string",
              "name": "CitizenCNIC",
              "type": "string"
            },
            {
              "internalType": "enum Final4.VehicleType",
              "name": "CarType",
              "type": "uint8"
            },
            {
              "internalType": "string",
              "name": "CarNumberPlate",
              "type": "string"
            },
            {
              "internalType": "uint256[]",
              "name": "VoilationCode",
              "type": "uint256[]"
            },
            {
              "internalType": "string",
              "name": "timeStamp",
              "type": "string"
            },
            {
              "internalType": "uint256",
              "name": "Fine",
              "type": "uint256"
            },
            {
              "internalType": "bool",
              "name": "status",
              "type": "bool"
            }
          ],
          "internalType": "struct Final4.Challan",
          "name": "",
          "type": "tuple"
        }
      ],
      "stateMutability": "view",
      "type": "function"
    }
  ],
  "bytecode": "0x608060405234801561001057600080fd5b50336000806101000a81548173ffffffffffffffffffffffffffffffffffffffff021916908373ffffffffffffffffffffffffffffffffffffffff160217905550612380806100606000396000f3fe608060405234801561001057600080fd5b50600436106100cf5760003560e01c80633ed70cd51161008c578063b4a99a4e11610066578063b4a99a4e1461022f578063e051347b1461024d578063f0661a641461027d578063f1820bdc14610299576100cf565b80633ed70cd51461019757806356beeaf0146101c857806395490de0146101ff576100cf565b806301ccde53146100d457806320e2bf85146100f05780632b942d5b146101275780632e2c0aae1461014357806332fd20cd1461015f5780633a758ccc1461017b575b600080fd5b6100ee60048036038101906100e99190611866565b6102c9565b005b61010a600480360381019061010591906119b0565b610517565b60405161011e989796959493929190611b22565b60405180910390f35b610141600480360381019061013c9190611bc3565b610837565b005b61015d60048036038101906101589190611c4b565b6108d0565b005b61017960048036038101906101749190611cd3565b610a2d565b005b61019560048036038101906101909190611bc3565b610aeb565b005b6101b160048036038101906101ac9190611bc3565b610b84565b6040516101bf929190611d3a565b60405180910390f35b6101e260048036038101906101dd9190611d6a565b610c4d565b6040516101f6989796959493929190611b22565b60405180910390f35b61021960048036038101906102149190611dc6565b610f8a565b6040516102269190612021565b60405180910390f35b610237611358565b6040516102449190612084565b60405180910390f35b610267600480360381019061026291906120cb565b61137c565b60405161027491906120f8565b60405180910390f35b610297600480360381019061029291906120cb565b61139c565b005b6102b360048036038101906102ae9190612113565b61144f565b6040516102c09190612140565b60405180910390f35b60011515600360003373ffffffffffffffffffffffffffffffffffffffff1673ffffffffffffffffffffffffffffffffffffffff16815260200190815260200160002060009054906101000a900460ff1615151461032657600080fd5b6000805b835181101561038d57600481815481106103475761034661215b565b5b906000526020600020906005020160010160006003811061036b5761036a61215b565b5b01548261037891906121b9565b915080806103859061220f565b91505061032a565b506040518061012001604052808981526020018881526020018781526020018660058111156103bf576103be611a81565b5b8152602001858152602001848152602001838152602001828152602001600115158152506002896040516103f39190612294565b9081526020016040518091039020600082015181600001908051906020019061041d929190611459565b50602082015181600101908051906020019061043a929190611459565b506040820151816002019080519060200190610457929190611459565b5060608201518160030160006101000a81548160ff0219169083600581111561048357610482611a81565b5b021790555060808201518160040190805190602001906104a4929190611459565b5060a08201518160050190805190602001906104c19291906114df565b5060c08201518160060190805190602001906104de929190611459565b5060e082015181600701556101008201518160080160006101000a81548160ff0219169083151502179055509050505050505050505050565b600281805160208101820180518482526020830160208501208183528095505050505050600091509050806000018054610550906122da565b80601f016020809104026020016040519081016040528092919081815260200182805461057c906122da565b80156105c95780601f1061059e576101008083540402835291602001916105c9565b820191906000526020600020905b8154815290600101906020018083116105ac57829003601f168201915b5050505050908060010180546105de906122da565b80601f016020809104026020016040519081016040528092919081815260200182805461060a906122da565b80156106575780601f1061062c57610100808354040283529160200191610657565b820191906000526020600020905b81548152906001019060200180831161063a57829003601f168201915b50505050509080600201805461066c906122da565b80601f0160208091040260200160405190810160405280929190818152602001828054610698906122da565b80156106e55780601f106106ba576101008083540402835291602001916106e5565b820191906000526020600020905b8154815290600101906020018083116106c857829003601f168201915b5050505050908060030160009054906101000a900460ff169080600401805461070d906122da565b80601f0160208091040260200160405190810160405280929190818152602001828054610739906122da565b80156107865780601f1061075b57610100808354040283529160200191610786565b820191906000526020600020905b81548152906001019060200180831161076957829003601f168201915b50505050509080600601805461079b906122da565b80601f01602080910402602001604051908101604052809291908181526020018280546107c7906122da565b80156108145780601f106107e957610100808354040283529160200191610814565b820191906000526020600020905b8154815290600101906020018083116107f757829003601f168201915b5050505050908060070154908060080160009054906101000a900460ff16905088565b60008054906101000a900473ffffffffffffffffffffffffffffffffffffffff1673ffffffffffffffffffffffffffffffffffffffff163373ffffffffffffffffffffffffffffffffffffffff161461088f57600080fd5b6001600482815481106108a5576108a461215b565b5b906000526020600020906005020160040160006101000a81548160ff02191690831515021790555050565b60008054906101000a900473ffffffffffffffffffffffffffffffffffffffff1673ffffffffffffffffffffffffffffffffffffffff163373ffffffffffffffffffffffffffffffffffffffff161461092857600080fd5b6004604051806060016040528087878080601f016020809104026020016040519081016040528093929190818152602001838380828437600081840152601f19601f820116905080830192505050505050508152602001604051806060016040528087815260200186815260200185815250815260200160011515815250908060018154018082558091505060019003906000526020600020906005020160009091909190915060008201518160000190805190602001906109eb929190611459565b50602082015181600101906003610a0392919061152c565b5060408201518160040160006101000a81548160ff02191690831515021790555050505050505050565b60008054906101000a900473ffffffffffffffffffffffffffffffffffffffff1673ffffffffffffffffffffffffffffffffffffffff163373ffffffffffffffffffffffffffffffffffffffff1614610a8557600080fd5b6004805490508410610a9657600080fd5b60405180606001604052808481526020018381526020018281525060048581548110610ac557610ac461215b565b5b9060005260206000209060050201600101906003610ae492919061152c565b5050505050565b60008054906101000a900473ffffffffffffffffffffffffffffffffffffffff1673ffffffffffffffffffffffffffffffffffffffff163373ffffffffffffffffffffffffffffffffffffffff1614610b4357600080fd5b600060048281548110610b5957610b5861215b565b5b906000526020600020906005020160040160006101000a81548160ff02191690831515021790555050565b60048181548110610b9457600080fd5b9060005260206000209060050201600091509050806000018054610bb7906122da565b80601f0160208091040260200160405190810160405280929190818152602001828054610be3906122da565b8015610c305780601f10610c0557610100808354040283529160200191610c30565b820191906000526020600020905b815481529060010190602001808311610c1357829003601f168201915b5050505050908060040160009054906101000a900460ff16905082565b6001828051602081018201805184825260208301602085012081835280955050505050508181548110610c7f57600080fd5b906000526020600020906009020160009150915050806000018054610ca3906122da565b80601f0160208091040260200160405190810160405280929190818152602001828054610ccf906122da565b8015610d1c5780601f10610cf157610100808354040283529160200191610d1c565b820191906000526020600020905b815481529060010190602001808311610cff57829003601f168201915b505050505090806001018054610d31906122da565b80601f0160208091040260200160405190810160405280929190818152602001828054610d5d906122da565b8015610daa5780601f10610d7f57610100808354040283529160200191610daa565b820191906000526020600020905b815481529060010190602001808311610d8d57829003601f168201915b505050505090806002018054610dbf906122da565b80601f0160208091040260200160405190810160405280929190818152602001828054610deb906122da565b8015610e385780601f10610e0d57610100808354040283529160200191610e38565b820191906000526020600020905b815481529060010190602001808311610e1b57829003601f168201915b5050505050908060030160009054906101000a900460ff1690806004018054610e60906122da565b80601f0160208091040260200160405190810160405280929190818152602001828054610e8c906122da565b8015610ed95780601f10610eae57610100808354040283529160200191610ed9565b820191906000526020600020905b815481529060010190602001808311610ebc57829003601f168201915b505050505090806006018054610eee906122da565b80601f0160208091040260200160405190810160405280929190818152602001828054610f1a906122da565b8015610f675780601f10610f3c57610100808354040283529160200191610f67565b820191906000526020600020905b815481529060010190602001808311610f4a57829003601f168201915b5050505050908060070154908060080160009054906101000a900460ff16905088565b610f9261156c565b60028383604051610fa4929190612331565b908152602001604051809103902060405180610120016040529081600082018054610fce906122da565b80601f0160208091040260200160405190810160405280929190818152602001828054610ffa906122da565b80156110475780601f1061101c57610100808354040283529160200191611047565b820191906000526020600020905b81548152906001019060200180831161102a57829003601f168201915b50505050508152602001600182018054611060906122da565b80601f016020809104026020016040519081016040528092919081815260200182805461108c906122da565b80156110d95780601f106110ae576101008083540402835291602001916110d9565b820191906000526020600020905b8154815290600101906020018083116110bc57829003601f168201915b505050505081526020016002820180546110f2906122da565b80601f016020809104026020016040519081016040528092919081815260200182805461111e906122da565b801561116b5780601f106111405761010080835404028352916020019161116b565b820191906000526020600020905b81548152906001019060200180831161114e57829003601f168201915b505050505081526020016003820160009054906101000a900460ff16600581111561119957611198611a81565b5b60058111156111ab576111aa611a81565b5b81526020016004820180546111bf906122da565b80601f01602080910402602001604051908101604052809291908181526020018280546111eb906122da565b80156112385780601f1061120d57610100808354040283529160200191611238565b820191906000526020600020905b81548152906001019060200180831161121b57829003601f168201915b505050505081526020016005820180548060200260200160405190810160405280929190818152602001828054801561129057602002820191906000526020600020905b81548152602001906001019080831161127c575b505050505081526020016006820180546112a9906122da565b80601f01602080910402602001604051908101604052809291908181526020018280546112d5906122da565b80156113225780601f106112f757610100808354040283529160200191611322565b820191906000526020600020905b81548152906001019060200180831161130557829003601f168201915b50505050508152602001600782015481526020016008820160009054906101000a900460ff161515151581525050905092915050565b60008054906101000a900473ffffffffffffffffffffffffffffffffffffffff1681565b60036020528060005260406000206000915054906101000a900460ff1681565b60008054906101000a900473ffffffffffffffffffffffffffffffffffffffff1673ffffffffffffffffffffffffffffffffffffffff163373ffffffffffffffffffffffffffffffffffffffff16146113f457600080fd5b6001600360008373ffffffffffffffffffffffffffffffffffffffff1673ffffffffffffffffffffffffffffffffffffffff16815260200190815260200160002060006101000a81548160ff02191690831515021790555050565b6000819050919050565b828054611465906122da565b90600052602060002090601f01602090048101928261148757600085556114ce565b82601f106114a057805160ff19168380011785556114ce565b828001600101855582156114ce579182015b828111156114cd5782518255916020019190600101906114b2565b5b5090506114db91906115cc565b5090565b82805482825590600052602060002090810192821561151b579160200282015b8281111561151a5782518255916020019190600101906114ff565b5b50905061152891906115cc565b5090565b826003810192821561155b579160200282015b8281111561155a57825182559160200191906001019061153f565b5b50905061156891906115cc565b5090565b604051806101200160405280606081526020016060815260200160608152602001600060058111156115a1576115a0611a81565b5b8152602001606081526020016060815260200160608152602001600081526020016000151581525090565b5b808211156115e55760008160009055506001016115cd565b5090565b6000604051905090565b600080fd5b600080fd5b600080fd5b600080fd5b6000601f19601f8301169050919050565b7f4e487b7100000000000000000000000000000000000000000000000000000000600052604160045260246000fd5b61165082611607565b810181811067ffffffffffffffff8211171561166f5761166e611618565b5b80604052505050565b60006116826115e9565b905061168e8282611647565b919050565b600067ffffffffffffffff8211156116ae576116ad611618565b5b6116b782611607565b9050602081019050919050565b82818337600083830152505050565b60006116e66116e184611693565b611678565b90508281526020810184848401111561170257611701611602565b5b61170d8482856116c4565b509392505050565b600082601f83011261172a576117296115fd565b5b813561173a8482602086016116d3565b91505092915050565b6006811061175057600080fd5b50565b60008135905061176281611743565b92915050565b600067ffffffffffffffff82111561178357611782611618565b5b602082029050602081019050919050565b600080fd5b6000819050919050565b6117ac81611799565b81146117b757600080fd5b50565b6000813590506117c9816117a3565b92915050565b60006117e26117dd84611768565b611678565b9050808382526020820190506020840283018581111561180557611804611794565b5b835b8181101561182e578061181a88826117ba565b845260208401935050602081019050611807565b5050509392505050565b600082601f83011261184d5761184c6115fd565b5b813561185d8482602086016117cf565b91505092915050565b600080600080600080600060e0888a031215611885576118846115f3565b5b600088013567ffffffffffffffff8111156118a3576118a26115f8565b5b6118af8a828b01611715565b975050602088013567ffffffffffffffff8111156118d0576118cf6115f8565b5b6118dc8a828b01611715565b965050604088013567ffffffffffffffff8111156118fd576118fc6115f8565b5b6119098a828b01611715565b955050606061191a8a828b01611753565b945050608088013567ffffffffffffffff81111561193b5761193a6115f8565b5b6119478a828b01611715565b93505060a088013567ffffffffffffffff811115611968576119676115f8565b5b6119748a828b01611838565b92505060c088013567ffffffffffffffff811115611995576119946115f8565b5b6119a18a828b01611715565b91505092959891949750929550565b6000602082840312156119c6576119c56115f3565b5b600082013567ffffffffffffffff8111156119e4576119e36115f8565b5b6119f084828501611715565b91505092915050565b600081519050919050565b600082825260208201905092915050565b60005b83811015611a33578082015181840152602081019050611a18565b83811115611a42576000848401525b50505050565b6000611a53826119f9565b611a5d8185611a04565b9350611a6d818560208601611a15565b611a7681611607565b840191505092915050565b7f4e487b7100000000000000000000000000000000000000000000000000000000600052602160045260246000fd5b60068110611ac157611ac0611a81565b5b50565b6000819050611ad282611ab0565b919050565b6000611ae282611ac4565b9050919050565b611af281611ad7565b82525050565b611b0181611799565b82525050565b60008115159050919050565b611b1c81611b07565b82525050565b6000610100820190508181036000830152611b3d818b611a48565b90508181036020830152611b51818a611a48565b90508181036040830152611b658189611a48565b9050611b746060830188611ae9565b8181036080830152611b868187611a48565b905081810360a0830152611b9a8186611a48565b9050611ba960c0830185611af8565b611bb660e0830184611b13565b9998505050505050505050565b600060208284031215611bd957611bd86115f3565b5b6000611be7848285016117ba565b91505092915050565b600080fd5b60008083601f840112611c0b57611c0a6115fd565b5b8235905067ffffffffffffffff811115611c2857611c27611bf0565b5b602083019150836001820283011115611c4457611c43611794565b5b9250929050565b600080600080600060808688031215611c6757611c666115f3565b5b600086013567ffffffffffffffff811115611c8557611c846115f8565b5b611c9188828901611bf5565b95509550506020611ca4888289016117ba565b9350506040611cb5888289016117ba565b9250506060611cc6888289016117ba565b9150509295509295909350565b60008060008060808587031215611ced57611cec6115f3565b5b6000611cfb878288016117ba565b9450506020611d0c878288016117ba565b9350506040611d1d878288016117ba565b9250506060611d2e878288016117ba565b91505092959194509250565b60006040820190508181036000830152611d548185611a48565b9050611d636020830184611b13565b9392505050565b60008060408385031215611d8157611d806115f3565b5b600083013567ffffffffffffffff811115611d9f57611d9e6115f8565b5b611dab85828601611715565b9250506020611dbc858286016117ba565b9150509250929050565b60008060208385031215611ddd57611ddc6115f3565b5b600083013567ffffffffffffffff811115611dfb57611dfa6115f8565b5b611e0785828601611bf5565b92509250509250929050565b600082825260208201905092915050565b6000611e2f826119f9565b611e398185611e13565b9350611e49818560208601611a15565b611e5281611607565b840191505092915050565b611e6681611ad7565b82525050565b600081519050919050565b600082825260208201905092915050565b6000819050602082019050919050565b611ea181611799565b82525050565b6000611eb38383611e98565b60208301905092915050565b6000602082019050919050565b6000611ed782611e6c565b611ee18185611e77565b9350611eec83611e88565b8060005b83811015611f1d578151611f048882611ea7565b9750611f0f83611ebf565b925050600181019050611ef0565b5085935050505092915050565b611f3381611b07565b82525050565b6000610120830160008301518482036000860152611f578282611e24565b91505060208301518482036020860152611f718282611e24565b91505060408301518482036040860152611f8b8282611e24565b9150506060830151611fa06060860182611e5d565b5060808301518482036080860152611fb88282611e24565b91505060a083015184820360a0860152611fd28282611ecc565b91505060c083015184820360c0860152611fec8282611e24565b91505060e083015161200160e0860182611e98565b50610100830151612016610100860182611f2a565b508091505092915050565b6000602082019050818103600083015261203b8184611f39565b905092915050565b600073ffffffffffffffffffffffffffffffffffffffff82169050919050565b600061206e82612043565b9050919050565b61207e81612063565b82525050565b60006020820190506120996000830184612075565b92915050565b6120a881612063565b81146120b357600080fd5b50565b6000813590506120c58161209f565b92915050565b6000602082840312156120e1576120e06115f3565b5b60006120ef848285016120b6565b91505092915050565b600060208201905061210d6000830184611b13565b92915050565b600060208284031215612129576121286115f3565b5b600061213784828501611753565b91505092915050565b60006020820190506121556000830184611ae9565b92915050565b7f4e487b7100000000000000000000000000000000000000000000000000000000600052603260045260246000fd5b7f4e487b7100000000000000000000000000000000000000000000000000000000600052601160045260246000fd5b60006121c482611799565b91506121cf83611799565b9250827fffffffffffffffffffffffffffffffffffffffffffffffffffffffffffffffff038211156122045761220361218a565b5b828201905092915050565b600061221a82611799565b91507fffffffffffffffffffffffffffffffffffffffffffffffffffffffffffffffff82141561224d5761224c61218a565b5b600182019050919050565b600081905092915050565b600061226e826119f9565b6122788185612258565b9350612288818560208601611a15565b80840191505092915050565b60006122a08284612263565b915081905092915050565b7f4e487b7100000000000000000000000000000000000000000000000000000000600052602260045260246000fd5b600060028204905060018216806122f257607f821691505b60208210811415612306576123056122ab565b5b50919050565b60006123188385612258565b93506123258385846116c4565b82840190509392505050565b600061233e82848661230c565b9150819050939250505056fea2646970667358221220946b3379de828bdc9fd83022f107600816a4c0a72f88cb4f7cf8568b57bd148864736f6c634300080a0033",
  "immutableReferences": {},
  "source": "// SPDX-License-Identifier: MIT\r\npragma solidity >=0.4.22 <0.9.0;\r\n\r\ncontract Final4{\r\n    enum VehicleType {Motorcycle,Motorcar,Jeep,PublicServiceVehicle,PrivateCarrier,PublicCarrier}\r\n\r\n    struct Challan{\r\n    string LicenseID; //license id of citizen\r\n    string CitizenName; \r\n    string CitizenCNIC;\r\n    VehicleType CarType; \r\n    string CarNumberPlate;\r\n    uint[] VoilationCode;  //------list of voilated rules\r\n    string timeStamp;\r\n    uint Fine;\r\n    bool status;\r\n    }\r\n\r\n    struct VoilationRule{\r\n    string Description; //description of the rule\r\n    uint[3] Fine;  \r\n    /*\r\n    0: ACategoryVehicle_Fine //includes Motorcycle\r\n    1: BCategoryVehicle_Fine; //includes Motorcar,Jeep,\r\n    2: CCategoryVehicle_Fine; //includes PrivateCarrier,PublicCarrier\r\n    */\r\n    bool status;\r\n    }\r\n\r\n    address public Owner; //adminstrator who manages who can add challan etc.\r\n    mapping(string=>Challan[]) public PreviousChallan; //use to store all previous challans of citizens\r\n    mapping(string=>Challan) public ActiveChallan;  //use to store current active challans of citizen\r\n    mapping(address=>bool) public TP; //mapping for traffic police(TP) , who can add Challan\r\n    VoilationRule[] public RuleList; //list of traffic rules\r\n\r\n    constructor(){\r\n        Owner=msg.sender;\r\n    }\r\n\r\n////////////////////////////////////////////////////////////////functions related to admin\r\n    function addTrafficPolice(address _TP) public{//add traffic police who can add challans\r\n        require(msg.sender==Owner);\r\n        TP[_TP]=true;\r\n    }\r\n\r\n    function addTrafficRule(string calldata _description,uint _Afine,uint _Bfine,uint _Cfine) public{  \r\n        require(msg.sender==Owner);\r\n        RuleList.push(VoilationRule(_description,[_Afine,_Bfine,_Cfine],true));\r\n    }\r\n\r\n    function updatePriceForRule(uint _ruleID,uint _Afine,uint _Bfine,uint _Cfine) public{ //update price of rule by giving its rule code \r\n        require(msg.sender==Owner);\r\n        require(_ruleID<(RuleList.length));\r\n        RuleList[_ruleID].Fine=[_Afine,_Bfine,_Cfine];\r\n    }\r\n\r\n    \r\n    function deactivateRule(uint _ruleID) public{\r\n        require(msg.sender==Owner);\r\n        RuleList[_ruleID].status=false;\r\n    }\r\n\r\n    function activateRule(uint _ruleID) public{\r\n        require(msg.sender==Owner);\r\n        RuleList[_ruleID].status=true;\r\n    } \r\n\r\n    //////////////////////////////////////////////////////////////////////////////////////////////////////////\r\n\r\n    function deleteActiveChallan(string memory _LicenseID) internal { //removes user from active challan\r\n        delete ActiveChallan[_LicenseID];\r\n    }\r\n\r\n    function addChallan(string memory _LicenseID,string memory _Name,string memory _CNIC,VehicleType _CarType,string memory _carPlate,uint[] memory _voilatedRules,string memory _timeStamp) public{\r\n        require(TP[msg.sender]==true);\r\n        uint VoilationFee=0;\r\n        for(uint i=0;i<_voilatedRules.length;i++){\r\n            // if(_CarType==VehicleType.Motorcycle){\r\n                // VoilationFee+=RuleList[i].Fine[0];\r\n            // }else if(_CarType==VehicleType.Jeep || _CarType==VehicleType.Motorcar){\r\n                // VoilationFee+=RuleList[i].Fine[1];\r\n            // }else if(_CarType==VehicleType.PublicServiceVehicle || _CarType==VehicleType.PrivateCarrier || _CarType==VehicleType.PublicCarrier){\r\n                VoilationFee+=RuleList[i].Fine[0];\r\n            // }\r\n        }\r\n        ActiveChallan[_LicenseID]=Challan(_LicenseID,_Name,_CNIC,_CarType,_carPlate,_voilatedRules,_timeStamp,VoilationFee,true);\r\n    }\r\n\r\n    function test(VehicleType _temp) public pure returns(VehicleType){\r\n        return _temp;\r\n    }\r\n\r\n    function getCurrentChallan(string calldata _LicenseID) public view returns(Challan memory){\r\n        return ActiveChallan[_LicenseID];\r\n    }\r\n\r\n    // function getChallan(string calldata) public returns(){\r\n\r\n    // } \r\n\r\n    // function getChallan(string calldata LicenseID) public{\r\n        \r\n    // }\r\n    \r\n\r\n}",
  "sourcePath": "F:\\BL project\\contracts\\Final4.sol",
  "compiler": {
    "name": "solc",
    "version": "0.8.10+commit.fc410830.Emscripten.clang"
  },
  "schemaVersion": "3.4.3",
  "updatedAt": "2021-12-19T17:50:52.761Z",
  "devdoc": {
    "kind": "dev",
    "methods": {},
    "version": 1
  },
  "userdoc": {
    "kind": "user",
    "methods": {},
    "version": 1
  }
}