{
  "contractName": "FinalA",
  "abi": [
    {
      "inputs": [],
      "stateMutability": "nonpayable",
      "type": "constructor"
    },
    {
      "inputs": [],
      "name": "testStatus",
      "outputs": [
        {
          "internalType": "uint256",
          "name": "",
          "type": "uint256"
        }
      ],
      "stateMutability": "view",
      "type": "function",
      "constant": true
    },
    {
      "inputs": [],
      "name": "testValue",
      "outputs": [
        {
          "internalType": "uint256",
          "name": "",
          "type": "uint256"
        }
      ],
      "stateMutability": "view",
      "type": "function",
      "constant": true
    },
    {
      "inputs": [
        {
          "internalType": "address",
          "name": "_temp",
          "type": "address"
        }
      ],
      "name": "transferAdmin",
      "outputs": [],
      "stateMutability": "nonpayable",
      "type": "function"
    },
    {
      "inputs": [],
      "name": "getOwner",
      "outputs": [
        {
          "internalType": "address",
          "name": "",
          "type": "address"
        }
      ],
      "stateMutability": "view",
      "type": "function",
      "constant": true
    },
    {
      "inputs": [
        {
          "internalType": "address",
          "name": "_TP",
          "type": "address"
        }
      ],
      "name": "addTrafficPolice",
      "outputs": [],
      "stateMutability": "nonpayable",
      "type": "function"
    },
    {
      "inputs": [
        {
          "internalType": "string",
          "name": "_description",
          "type": "string"
        },
        {
          "internalType": "uint256",
          "name": "_Afine",
          "type": "uint256"
        },
        {
          "internalType": "uint256",
          "name": "_Bfine",
          "type": "uint256"
        },
        {
          "internalType": "uint256",
          "name": "_Cfine",
          "type": "uint256"
        }
      ],
      "name": "addTrafficRule",
      "outputs": [],
      "stateMutability": "nonpayable",
      "type": "function"
    },
    {
      "inputs": [
        {
          "internalType": "uint256",
          "name": "_ruleID",
          "type": "uint256"
        },
        {
          "internalType": "uint256",
          "name": "_Afine",
          "type": "uint256"
        },
        {
          "internalType": "uint256",
          "name": "_Bfine",
          "type": "uint256"
        },
        {
          "internalType": "uint256",
          "name": "_Cfine",
          "type": "uint256"
        }
      ],
      "name": "updatePriceForRule",
      "outputs": [],
      "stateMutability": "nonpayable",
      "type": "function"
    },
    {
      "inputs": [
        {
          "internalType": "uint256",
          "name": "_ruleID",
          "type": "uint256"
        }
      ],
      "name": "deactivateRule",
      "outputs": [],
      "stateMutability": "nonpayable",
      "type": "function"
    },
    {
      "inputs": [
        {
          "internalType": "uint256",
          "name": "_ruleID",
          "type": "uint256"
        }
      ],
      "name": "activateRule",
      "outputs": [],
      "stateMutability": "nonpayable",
      "type": "function"
    },
    {
      "inputs": [
        {
          "internalType": "string",
          "name": "_LicenseID",
          "type": "string"
        },
        {
          "internalType": "string",
          "name": "_Name",
          "type": "string"
        },
        {
          "internalType": "string",
          "name": "_CNIC",
          "type": "string"
        },
        {
          "internalType": "enum FinalA.VehicleType",
          "name": "_CarType",
          "type": "uint8"
        },
        {
          "internalType": "string",
          "name": "_carPlate",
          "type": "string"
        },
        {
          "internalType": "uint256[]",
          "name": "_voilatedRules",
          "type": "uint256[]"
        },
        {
          "internalType": "string",
          "name": "_timeStamp",
          "type": "string"
        }
      ],
      "name": "addChallan",
      "outputs": [],
      "stateMutability": "nonpayable",
      "type": "function"
    },
    {
      "inputs": [
        {
          "internalType": "string",
          "name": "_LicenseID",
          "type": "string"
        }
      ],
      "name": "getCurrentChallan",
      "outputs": [
        {
          "components": [
            {
              "internalType": "string",
              "name": "LicenseID",
              "type": "string"
            },
            {
              "internalType": "string",
              "name": "CitizenName",
              "type": "string"
            },
            {
              "internalType": "string",
              "name": "CitizenCNIC",
              "type": "string"
            },
            {
              "internalType": "enum FinalA.VehicleType",
              "name": "CarType",
              "type": "uint8"
            },
            {
              "internalType": "string",
              "name": "CarNumberPlate",
              "type": "string"
            },
            {
              "internalType": "uint256[]",
              "name": "VoilationCode",
              "type": "uint256[]"
            },
            {
              "internalType": "string",
              "name": "timeStamp",
              "type": "string"
            },
            {
              "internalType": "uint256",
              "name": "Fine",
              "type": "uint256"
            },
            {
              "internalType": "bool",
              "name": "status",
              "type": "bool"
            }
          ],
          "internalType": "struct FinalA.Challan",
          "name": "",
          "type": "tuple"
        }
      ],
      "stateMutability": "view",
      "type": "function",
      "constant": true
    },
    {
      "inputs": [
        {
          "internalType": "string",
          "name": "_LicenseID",
          "type": "string"
        }
      ],
      "name": "getAllChallan",
      "outputs": [
        {
          "components": [
            {
              "internalType": "string",
              "name": "LicenseID",
              "type": "string"
            },
            {
              "internalType": "string",
              "name": "CitizenName",
              "type": "string"
            },
            {
              "internalType": "string",
              "name": "CitizenCNIC",
              "type": "string"
            },
            {
              "internalType": "enum FinalA.VehicleType",
              "name": "CarType",
              "type": "uint8"
            },
            {
              "internalType": "string",
              "name": "CarNumberPlate",
              "type": "string"
            },
            {
              "internalType": "uint256[]",
              "name": "VoilationCode",
              "type": "uint256[]"
            },
            {
              "internalType": "string",
              "name": "timeStamp",
              "type": "string"
            },
            {
              "internalType": "uint256",
              "name": "Fine",
              "type": "uint256"
            },
            {
              "internalType": "bool",
              "name": "status",
              "type": "bool"
            }
          ],
          "internalType": "struct FinalA.Challan[]",
          "name": "",
          "type": "tuple[]"
        }
      ],
      "stateMutability": "view",
      "type": "function",
      "constant": true
    },
    {
      "inputs": [],
      "name": "getTrafficRules",
      "outputs": [
        {
          "components": [
            {
              "internalType": "string",
              "name": "Description",
              "type": "string"
            },
            {
              "internalType": "uint256",
              "name": "ACategoryVehicle_Fine",
              "type": "uint256"
            },
            {
              "internalType": "uint256",
              "name": "BCategoryVehicle_Fine",
              "type": "uint256"
            },
            {
              "internalType": "uint256",
              "name": "CCategoryVehicle_Fine",
              "type": "uint256"
            },
            {
              "internalType": "bool",
              "name": "status",
              "type": "bool"
            }
          ],
          "internalType": "struct FinalA.VoilationRule[]",
          "name": "",
          "type": "tuple[]"
        }
      ],
      "stateMutability": "view",
      "type": "function",
      "constant": true
    },
    {
      "inputs": [],
      "name": "test",
      "outputs": [
        {
          "internalType": "uint256",
          "name": "",
          "type": "uint256"
        }
      ],
      "stateMutability": "payable",
      "type": "function",
      "payable": true
    },
    {
      "inputs": [
        {
          "internalType": "string",
          "name": "_LicenseID",
          "type": "string"
        }
      ],
      "name": "payChallan",
      "outputs": [],
      "stateMutability": "payable",
      "type": "function",
      "payable": true
    }
  ],
  "bytecode": "0x60806040523480156200001157600080fd5b50336000806101000a81548173ffffffffffffffffffffffffffffffffffffffff021916908373ffffffffffffffffffffffffffffffffffffffff16021790555060046040518060a001604052806040518060400160405280602081526020017f457863656564696e672070726573637269626564207370656564206c696d697481525081526020016014815260200160328152602001604b81526020016001151581525090806001815401808255809150506001900390600052602060002090600502016000909190919091506000820151816000019080519060200190620000fd929190620004a0565b5060208201518160010155604082015181600201556060820151816003015560808201518160040160006101000a81548160ff021916908315150217905550505060046040518060a001604052806040518060800160405280604b815260200162002fc4604b913981526020016000815260200160328152602001604b81526020016001151581525090806001815401808255809150506001900390600052602060002090600502016000909190919091506000820151816000019080519060200190620001cd929190620004a0565b5060208201518160010155604082015181600201556060820151816003015560808201518160040160006101000a81548160ff021916908315150217905550505060046040518060a001604052806040518060600160405280602f81526020016200300f602f9139815260200160148152602001603281526020016064815260200160011515815250908060018154018082558091505060019003906000526020600020906005020160009091909190915060008201518160000190805190602001906200029d929190620004a0565b5060208201518160010155604082015181600201556060820151816003015560808201518160040160006101000a81548160ff021916908315150217905550505060046040518060a001604052806040518060400160405280601b81526020017f4f7665726c6f6164696e67206120676f6f64732076656869636c6500000000008152508152602001600081526020016032815260200160328152602001600115158152509080600181540180825580915050600190039060005260206000209060050201600090919091909150600082015181600001908051906020019062000389929190620004a0565b5060208201518160010155604082015181600201556060820151816003015560808201518160040160006101000a81548160ff021916908315150217905550505060046040518060a001604052806040518060600160405280603681526020016200303e60369139815260200160148152602001601e815260200160328152602001600115158152509080600181540180825580915050600190039060005260206000209060050201600090919091909150600082015181600001908051906020019062000459929190620004a0565b5060208201518160010155604082015181600201556060820151816003015560808201518160040160006101000a81548160ff0219169083151502179055505050620005b5565b828054620004ae906200057f565b90600052602060002090601f016020900481019282620004d257600085556200051e565b82601f10620004ed57805160ff19168380011785556200051e565b828001600101855582156200051e579182015b828111156200051d57825182559160200191906001019062000500565b5b5090506200052d919062000531565b5090565b5b808211156200054c57600081600090555060010162000532565b5090565b7f4e487b7100000000000000000000000000000000000000000000000000000000600052602260045260246000fd5b600060028204905060018216806200059857607f821691505b60208210811415620005af57620005ae62000550565b5b50919050565b6129ff80620005c56000396000f3fe6080604052600436106100e85760003560e01c806373f13d1d1161008a57806395490de01161005957806395490de0146102ab578063f0661a64146102e8578063f111ea3314610311578063f8a8fd6d1461034e576100e8565b806373f13d1d1461020157806375829def1461022c578063893d20e8146102555780638af5de7214610280576100e8565b806332fd20cd116100c657806332fd20cd146101685780633a758ccc146101915780635c3b0a39146101ba5780636794fa9f146101e5576100e8565b806301ccde53146100ed5780632b942d5b146101165780632e2c0aae1461013f575b600080fd5b3480156100f957600080fd5b50610114600480360381019061010f9190611d57565b61036c565b005b34801561012257600080fd5b5061013d60048036038101906101389190611ea1565b610903565b005b34801561014b57600080fd5b5061016660048036038101906101619190611f29565b61099c565b005b34801561017457600080fd5b5061018f600480360381019061018a9190611fb1565b610af1565b005b34801561019d57600080fd5b506101b860048036038101906101b39190611ea1565b610bde565b005b3480156101c657600080fd5b506101cf610c77565b6040516101dc9190612027565b60405180910390f35b6101ff60048036038101906101fa9190612042565b610c7d565b005b34801561020d57600080fd5b50610216610d51565b6040516102239190612279565b60405180910390f35b34801561023857600080fd5b50610253600480360381019061024e91906122f9565b610e7b565b005b34801561026157600080fd5b5061026a610f16565b6040516102779190612335565b60405180910390f35b34801561028c57600080fd5b50610295610f3f565b6040516102a29190612027565b60405180910390f35b3480156102b757600080fd5b506102d260048036038101906102cd9190612042565b610f45565b6040516102df919061255e565b60405180910390f35b3480156102f457600080fd5b5061030f600480360381019061030a91906122f9565b611313565b005b34801561031d57600080fd5b5061033860048036038101906103339190612042565b6113c6565b604051610345919061272a565b60405180910390f35b6103566117d9565b6040516103639190612027565b60405180910390f35b600015156002886040516103809190612788565b908152602001604051809103902060080160009054906101000a900460ff161515146103ab57600080fd5b6000805b83518110156105d257600060058111156103cc576103cb612350565b5b8660058111156103df576103de612350565b5b14156104375760048482815181106103fa576103f961279f565b5b6020026020010151815481106104135761041261279f565b5b9060005260206000209060050201600101548261043091906127fd565b91506105bf565b6002600581111561044b5761044a612350565b5b86600581111561045e5761045d612350565b5b148061048e57506001600581111561047957610478612350565b5b86600581111561048c5761048b612350565b5b145b156104e55760048482815181106104a8576104a761279f565b5b6020026020010151815481106104c1576104c061279f565b5b906000526020600020906005020160020154826104de91906127fd565b91506105be565b600360058111156104f9576104f8612350565b5b86600581111561050c5761050b612350565b5b148061053c57506004600581111561052757610526612350565b5b86600581111561053a57610539612350565b5b145b8061056a575060058081111561055557610554612350565b5b86600581111561056857610567612350565b5b145b156105bd5760048482815181106105845761058361279f565b5b60200260200101518154811061059d5761059c61279f565b5b906000526020600020906005020160030154826105ba91906127fd565b91505b5b5b80806105ca90612853565b9150506103af565b5060405180610120016040528089815260200188815260200187815260200186600581111561060457610603612350565b5b8152602001858152602001848152602001838152602001828152602001600115158152506002896040516106389190612788565b90815260200160405180910390206000820151816000019080519060200190610662929190611929565b50602082015181600101908051906020019061067f929190611929565b50604082015181600201908051906020019061069c929190611929565b5060608201518160030160006101000a81548160ff021916908360058111156106c8576106c7612350565b5b021790555060808201518160040190805190602001906106e9929190611929565b5060a08201518160050190805190602001906107069291906119af565b5060c0820151816006019080519060200190610723929190611929565b5060e082015181600701556101008201518160080160006101000a81548160ff0219169083151502179055509050506001886040516107629190612788565b90815260200160405180910390206040518061012001604052808a81526020018981526020018881526020018760058111156107a1576107a0612350565b5b8152602001868152602001858152602001848152602001838152602001600115158152509080600181540180825580915050600190039060005260206000209060090201600090919091909150600082015181600001908051906020019061080a929190611929565b506020820151816001019080519060200190610827929190611929565b506040820151816002019080519060200190610844929190611929565b5060608201518160030160006101000a81548160ff021916908360058111156108705761086f612350565b5b02179055506080820151816004019080519060200190610891929190611929565b5060a08201518160050190805190602001906108ae9291906119af565b5060c08201518160060190805190602001906108cb929190611929565b5060e082015181600701556101008201518160080160006101000a81548160ff02191690831515021790555050505050505050505050565b60008054906101000a900473ffffffffffffffffffffffffffffffffffffffff1673ffffffffffffffffffffffffffffffffffffffff163373ffffffffffffffffffffffffffffffffffffffff161461095b57600080fd5b6001600482815481106109715761097061279f565b5b906000526020600020906005020160040160006101000a81548160ff02191690831515021790555050565b60008054906101000a900473ffffffffffffffffffffffffffffffffffffffff1673ffffffffffffffffffffffffffffffffffffffff163373ffffffffffffffffffffffffffffffffffffffff16146109f457600080fd5b60046040518060a0016040528087878080601f016020809104026020016040519081016040528093929190818152602001838380828437600081840152601f19601f8201169050808301925050505050505081526020018581526020018481526020018381526020016001151581525090806001815401808255809150506001900390600052602060002090600502016000909190919091506000820151816000019080519060200190610aa9929190611929565b5060208201518160010155604082015181600201556060820151816003015560808201518160040160006101000a81548160ff02191690831515021790555050505050505050565b60008054906101000a900473ffffffffffffffffffffffffffffffffffffffff1673ffffffffffffffffffffffffffffffffffffffff163373ffffffffffffffffffffffffffffffffffffffff1614610b4957600080fd5b6004805490508410610b5a57600080fd5b8260048581548110610b6f57610b6e61279f565b5b9060005260206000209060050201600101819055508160048581548110610b9957610b9861279f565b5b9060005260206000209060050201600201819055508060048581548110610bc357610bc261279f565b5b90600052602060002090600502016003018190555050505050565b60008054906101000a900473ffffffffffffffffffffffffffffffffffffffff1673ffffffffffffffffffffffffffffffffffffffff163373ffffffffffffffffffffffffffffffffffffffff1614610c3657600080fd5b600060048281548110610c4c57610c4b61279f565b5b906000526020600020906005020160040160006101000a81548160ff02191690831515021790555050565b60065481565b6001151560028383604051610c939291906128c1565b908152602001604051809103902060080160009054906101000a900460ff16151514610cbe57600080fd5b670de0b6b3a764000060028383604051610cd99291906128c1565b908152602001604051809103902060070154610cf591906128da565b3414610d0057600080fd5b610d4d82828080601f016020809104026020016040519081016040528093929190818152602001838380828437600081840152601f19601f820116905080830192505050505050506117e8565b5050565b60606004805480602002602001604051908101604052809291908181526020016000905b82821015610e7257838290600052602060002090600502016040518060a0016040529081600082018054610da890612963565b80601f0160208091040260200160405190810160405280929190818152602001828054610dd490612963565b8015610e215780601f10610df657610100808354040283529160200191610e21565b820191906000526020600020905b815481529060010190602001808311610e0457829003601f168201915b505050505081526020016001820154815260200160028201548152602001600382015481526020016004820160009054906101000a900460ff16151515158152505081526020019060010190610d75565b50505050905090565b60008054906101000a900473ffffffffffffffffffffffffffffffffffffffff1673ffffffffffffffffffffffffffffffffffffffff163373ffffffffffffffffffffffffffffffffffffffff1614610ed357600080fd5b806000806101000a81548173ffffffffffffffffffffffffffffffffffffffff021916908373ffffffffffffffffffffffffffffffffffffffff16021790555050565b60008060009054906101000a900473ffffffffffffffffffffffffffffffffffffffff16905090565b60055481565b610f4d6119fc565b60028383604051610f5f9291906128c1565b908152602001604051809103902060405180610120016040529081600082018054610f8990612963565b80601f0160208091040260200160405190810160405280929190818152602001828054610fb590612963565b80156110025780601f10610fd757610100808354040283529160200191611002565b820191906000526020600020905b815481529060010190602001808311610fe557829003601f168201915b5050505050815260200160018201805461101b90612963565b80601f016020809104026020016040519081016040528092919081815260200182805461104790612963565b80156110945780601f1061106957610100808354040283529160200191611094565b820191906000526020600020905b81548152906001019060200180831161107757829003601f168201915b505050505081526020016002820180546110ad90612963565b80601f01602080910402602001604051908101604052809291908181526020018280546110d990612963565b80156111265780601f106110fb57610100808354040283529160200191611126565b820191906000526020600020905b81548152906001019060200180831161110957829003601f168201915b505050505081526020016003820160009054906101000a900460ff16600581111561115457611153612350565b5b600581111561116657611165612350565b5b815260200160048201805461117a90612963565b80601f01602080910402602001604051908101604052809291908181526020018280546111a690612963565b80156111f35780601f106111c8576101008083540402835291602001916111f3565b820191906000526020600020905b8154815290600101906020018083116111d657829003601f168201915b505050505081526020016005820180548060200260200160405190810160405280929190818152602001828054801561124b57602002820191906000526020600020905b815481526020019060010190808311611237575b5050505050815260200160068201805461126490612963565b80601f016020809104026020016040519081016040528092919081815260200182805461129090612963565b80156112dd5780601f106112b2576101008083540402835291602001916112dd565b820191906000526020600020905b8154815290600101906020018083116112c057829003601f168201915b50505050508152602001600782015481526020016008820160009054906101000a900460ff161515151581525050905092915050565b60008054906101000a900473ffffffffffffffffffffffffffffffffffffffff1673ffffffffffffffffffffffffffffffffffffffff163373ffffffffffffffffffffffffffffffffffffffff161461136b57600080fd5b6001600360008373ffffffffffffffffffffffffffffffffffffffff1673ffffffffffffffffffffffffffffffffffffffff16815260200190815260200160002060006101000a81548160ff02191690831515021790555050565b6060600183836040516113da9291906128c1565b9081526020016040518091039020805480602002602001604051908101604052809291908181526020016000905b828210156117cd57838290600052602060002090600902016040518061012001604052908160008201805461143c90612963565b80601f016020809104026020016040519081016040528092919081815260200182805461146890612963565b80156114b55780601f1061148a576101008083540402835291602001916114b5565b820191906000526020600020905b81548152906001019060200180831161149857829003601f168201915b505050505081526020016001820180546114ce90612963565b80601f01602080910402602001604051908101604052809291908181526020018280546114fa90612963565b80156115475780601f1061151c57610100808354040283529160200191611547565b820191906000526020600020905b81548152906001019060200180831161152a57829003601f168201915b5050505050815260200160028201805461156090612963565b80601f016020809104026020016040519081016040528092919081815260200182805461158c90612963565b80156115d95780601f106115ae576101008083540402835291602001916115d9565b820191906000526020600020905b8154815290600101906020018083116115bc57829003601f168201915b505050505081526020016003820160009054906101000a900460ff16600581111561160757611606612350565b5b600581111561161957611618612350565b5b815260200160048201805461162d90612963565b80601f016020809104026020016040519081016040528092919081815260200182805461165990612963565b80156116a65780601f1061167b576101008083540402835291602001916116a6565b820191906000526020600020905b81548152906001019060200180831161168957829003601f168201915b50505050508152602001600582018054806020026020016040519081016040528092919081815260200182805480156116fe57602002820191906000526020600020905b8154815260200190600101908083116116ea575b5050505050815260200160068201805461171790612963565b80601f016020809104026020016040519081016040528092919081815260200182805461174390612963565b80156117905780601f1061176557610100808354040283529160200191611790565b820191906000526020600020905b81548152906001019060200180831161177357829003601f168201915b50505050508152602001600782015481526020016008820160009054906101000a900460ff16151515158152505081526020019060010190611408565b50505050905092915050565b60003460058190555034905090565b60006001826040516117fa9190612788565b908152602001604051809103902080549050905060006001836040516118209190612788565b908152602001604051809103902060018361183b9190612995565b8154811061184c5761184b61279f565b5b906000526020600020906009020160080160006101000a81548160ff0219169083151502179055506002826040516118849190612788565b9081526020016040518091039020600080820160006118a39190611a5c565b6001820160006118b39190611a5c565b6002820160006118c39190611a5c565b6003820160006101000a81549060ff02191690556004820160006118e79190611a5c565b6005820160006118f79190611a9c565b6006820160006119079190611a5c565b60078201600090556008820160006101000a81549060ff021916905550505050565b82805461193590612963565b90600052602060002090601f016020900481019282611957576000855561199e565b82601f1061197057805160ff191683800117855561199e565b8280016001018555821561199e579182015b8281111561199d578251825591602001919060010190611982565b5b5090506119ab9190611abd565b5090565b8280548282559060005260206000209081019282156119eb579160200282015b828111156119ea5782518255916020019190600101906119cf565b5b5090506119f89190611abd565b5090565b60405180610120016040528060608152602001606081526020016060815260200160006005811115611a3157611a30612350565b5b8152602001606081526020016060815260200160608152602001600081526020016000151581525090565b508054611a6890612963565b6000825580601f10611a7a5750611a99565b601f016020900490600052602060002090810190611a989190611abd565b5b50565b5080546000825590600052602060002090810190611aba9190611abd565b50565b5b80821115611ad6576000816000905550600101611abe565b5090565b6000604051905090565b600080fd5b600080fd5b600080fd5b600080fd5b6000601f19601f8301169050919050565b7f4e487b7100000000000000000000000000000000000000000000000000000000600052604160045260246000fd5b611b4182611af8565b810181811067ffffffffffffffff82111715611b6057611b5f611b09565b5b80604052505050565b6000611b73611ada565b9050611b7f8282611b38565b919050565b600067ffffffffffffffff821115611b9f57611b9e611b09565b5b611ba882611af8565b9050602081019050919050565b82818337600083830152505050565b6000611bd7611bd284611b84565b611b69565b905082815260208101848484011115611bf357611bf2611af3565b5b611bfe848285611bb5565b509392505050565b600082601f830112611c1b57611c1a611aee565b5b8135611c2b848260208601611bc4565b91505092915050565b60068110611c4157600080fd5b50565b600081359050611c5381611c34565b92915050565b600067ffffffffffffffff821115611c7457611c73611b09565b5b602082029050602081019050919050565b600080fd5b6000819050919050565b611c9d81611c8a565b8114611ca857600080fd5b50565b600081359050611cba81611c94565b92915050565b6000611cd3611cce84611c59565b611b69565b90508083825260208201905060208402830185811115611cf657611cf5611c85565b5b835b81811015611d1f5780611d0b8882611cab565b845260208401935050602081019050611cf8565b5050509392505050565b600082601f830112611d3e57611d3d611aee565b5b8135611d4e848260208601611cc0565b91505092915050565b600080600080600080600060e0888a031215611d7657611d75611ae4565b5b600088013567ffffffffffffffff811115611d9457611d93611ae9565b5b611da08a828b01611c06565b975050602088013567ffffffffffffffff811115611dc157611dc0611ae9565b5b611dcd8a828b01611c06565b965050604088013567ffffffffffffffff811115611dee57611ded611ae9565b5b611dfa8a828b01611c06565b9550506060611e0b8a828b01611c44565b945050608088013567ffffffffffffffff811115611e2c57611e2b611ae9565b5b611e388a828b01611c06565b93505060a088013567ffffffffffffffff811115611e5957611e58611ae9565b5b611e658a828b01611d29565b92505060c088013567ffffffffffffffff811115611e8657611e85611ae9565b5b611e928a828b01611c06565b91505092959891949750929550565b600060208284031215611eb757611eb6611ae4565b5b6000611ec584828501611cab565b91505092915050565b600080fd5b60008083601f840112611ee957611ee8611aee565b5b8235905067ffffffffffffffff811115611f0657611f05611ece565b5b602083019150836001820283011115611f2257611f21611c85565b5b9250929050565b600080600080600060808688031215611f4557611f44611ae4565b5b600086013567ffffffffffffffff811115611f6357611f62611ae9565b5b611f6f88828901611ed3565b95509550506020611f8288828901611cab565b9350506040611f9388828901611cab565b9250506060611fa488828901611cab565b9150509295509295909350565b60008060008060808587031215611fcb57611fca611ae4565b5b6000611fd987828801611cab565b9450506020611fea87828801611cab565b9350506040611ffb87828801611cab565b925050606061200c87828801611cab565b91505092959194509250565b61202181611c8a565b82525050565b600060208201905061203c6000830184612018565b92915050565b6000806020838503121561205957612058611ae4565b5b600083013567ffffffffffffffff81111561207757612076611ae9565b5b61208385828601611ed3565b92509250509250929050565b600081519050919050565b600082825260208201905092915050565b6000819050602082019050919050565b600081519050919050565b600082825260208201905092915050565b60005b838110156120f55780820151818401526020810190506120da565b83811115612104576000848401525b50505050565b6000612115826120bb565b61211f81856120c6565b935061212f8185602086016120d7565b61213881611af8565b840191505092915050565b61214c81611c8a565b82525050565b60008115159050919050565b61216781612152565b82525050565b600060a083016000830151848203600086015261218a828261210a565b915050602083015161219f6020860182612143565b5060408301516121b26040860182612143565b5060608301516121c56060860182612143565b5060808301516121d8608086018261215e565b508091505092915050565b60006121ef838361216d565b905092915050565b6000602082019050919050565b600061220f8261208f565b612219818561209a565b93508360208202850161222b856120ab565b8060005b85811015612267578484038952815161224885826121e3565b9450612253836121f7565b925060208a0199505060018101905061222f565b50829750879550505050505092915050565b600060208201905081810360008301526122938184612204565b905092915050565b600073ffffffffffffffffffffffffffffffffffffffff82169050919050565b60006122c68261229b565b9050919050565b6122d6816122bb565b81146122e157600080fd5b50565b6000813590506122f3816122cd565b92915050565b60006020828403121561230f5761230e611ae4565b5b600061231d848285016122e4565b91505092915050565b61232f816122bb565b82525050565b600060208201905061234a6000830184612326565b92915050565b7f4e487b7100000000000000000000000000000000000000000000000000000000600052602160045260246000fd5b600681106123905761238f612350565b5b50565b60008190506123a18261237f565b919050565b60006123b182612393565b9050919050565b6123c1816123a6565b82525050565b600081519050919050565b600082825260208201905092915050565b6000819050602082019050919050565b60006123ff8383612143565b60208301905092915050565b6000602082019050919050565b6000612423826123c7565b61242d81856123d2565b9350612438836123e3565b8060005b8381101561246957815161245088826123f3565b975061245b8361240b565b92505060018101905061243c565b5085935050505092915050565b6000610120830160008301518482036000860152612494828261210a565b915050602083015184820360208601526124ae828261210a565b915050604083015184820360408601526124c8828261210a565b91505060608301516124dd60608601826123b8565b50608083015184820360808601526124f5828261210a565b91505060a083015184820360a086015261250f8282612418565b91505060c083015184820360c0860152612529828261210a565b91505060e083015161253e60e0860182612143565b5061010083015161255361010086018261215e565b508091505092915050565b600060208201905081810360008301526125788184612476565b905092915050565b600081519050919050565b600082825260208201905092915050565b6000819050602082019050919050565b60006101208301600083015184820360008601526125ca828261210a565b915050602083015184820360208601526125e4828261210a565b915050604083015184820360408601526125fe828261210a565b915050606083015161261360608601826123b8565b506080830151848203608086015261262b828261210a565b91505060a083015184820360a08601526126458282612418565b91505060c083015184820360c086015261265f828261210a565b91505060e083015161267460e0860182612143565b5061010083015161268961010086018261215e565b508091505092915050565b60006126a083836125ac565b905092915050565b6000602082019050919050565b60006126c082612580565b6126ca818561258b565b9350836020820285016126dc8561259c565b8060005b8581101561271857848403895281516126f98582612694565b9450612704836126a8565b925060208a019950506001810190506126e0565b50829750879550505050505092915050565b6000602082019050818103600083015261274481846126b5565b905092915050565b600081905092915050565b6000612762826120bb565b61276c818561274c565b935061277c8185602086016120d7565b80840191505092915050565b60006127948284612757565b915081905092915050565b7f4e487b7100000000000000000000000000000000000000000000000000000000600052603260045260246000fd5b7f4e487b7100000000000000000000000000000000000000000000000000000000600052601160045260246000fd5b600061280882611c8a565b915061281383611c8a565b9250827fffffffffffffffffffffffffffffffffffffffffffffffffffffffffffffffff03821115612848576128476127ce565b5b828201905092915050565b600061285e82611c8a565b91507fffffffffffffffffffffffffffffffffffffffffffffffffffffffffffffffff821415612891576128906127ce565b5b600182019050919050565b60006128a8838561274c565b93506128b5838584611bb5565b82840190509392505050565b60006128ce82848661289c565b91508190509392505050565b60006128e582611c8a565b91506128f083611c8a565b9250817fffffffffffffffffffffffffffffffffffffffffffffffffffffffffffffffff0483118215151615612929576129286127ce565b5b828202905092915050565b7f4e487b7100000000000000000000000000000000000000000000000000000000600052602260045260246000fd5b6000600282049050600182168061297b57607f821691505b6020821081141561298f5761298e612934565b5b50919050565b60006129a082611c8a565b91506129ab83611c8a565b9250828210156129be576129bd6127ce565b5b82820390509291505056fea2646970667358221220ac11aedd14f22749fa3e39a5cbe918cc87ef6a21120a2b7c3fa4233ec95bab6964736f6c634300080a00334361727279696e672070617373656e6765727320696e2061207075626c696320736572766963652076656869636c6520657863656564696e67207065726d69737369626c65206c696d697456696f6c6174696f6e206f662074726166666963207369676e616c7328456c656374726f6e69632f4d616e75616c2944726976696e672061206d6f746f722076656869636c65206174206e6967687420776974686f75742070726f706572206c6967687473",
  "immutableReferences": {},
  "source": "// SPDX-License-Identifier: MIT\r\npragma solidity >=0.4.22 <0.9.0;\r\n\r\ncontract FinalA{\r\n    enum VehicleType {Motorcycle,Motorcar,Jeep,PublicServiceVehicle,PrivateCarrier,PublicCarrier}\r\n\r\n    struct Challan{\r\n    string LicenseID; //license id of citizen\r\n    string CitizenName; \r\n    string CitizenCNIC;\r\n    VehicleType CarType; \r\n    string CarNumberPlate;\r\n    uint[] VoilationCode;  //------list of voilated rules\r\n    string timeStamp;\r\n    uint Fine;\r\n    bool status;\r\n    }\r\n\r\n    struct VoilationRule{\r\n    string Description; //description of the rule\r\n    uint ACategoryVehicle_Fine;   //includes motorcycle\r\n    uint BCategoryVehicle_Fine;  //includes Motorcar,Jeep,\r\n    uint CCategoryVehicle_Fine; //includes PrivateCarrier,PublicCarrier\r\n    bool status;\r\n    }\r\n\r\n    address Owner; //adminstrator who manages who can add challan etc.\r\n    mapping(string=>Challan[]) ChallanHistory; //use to store all previous challans of citizens\r\n    mapping(string=>Challan) ActiveChallan;  //use to store current active challans of citizen\r\n    mapping(address=>bool) TP; //mapping for traffic police(TP) , who can add Challan\r\n    VoilationRule[] RuleList; //list of traffic rules\r\n\r\n    uint public testValue;\r\n    uint public testStatus;\r\n\r\n    constructor(){\r\n        Owner=msg.sender;\r\n        \r\n        RuleList.push(VoilationRule(\"Exceeding prescribed speed limit\",20,50,75,true));\r\n        RuleList.push(VoilationRule(\"Carrying passengers in a public service vehicle exceeding permissible limit\",0,50,75,true));\r\n        RuleList.push(VoilationRule(\"Violation of traffic signals(Electronic/Manual)\",20,50,100,true));\r\n        RuleList.push(VoilationRule(\"Overloading a goods vehicle\",0,50,50,true));\r\n        RuleList.push(VoilationRule(\"Driving a motor vehicle at night without proper lights\",20,30,50,true));\r\n        //append all rules in the start of the application\r\n    }\r\n\r\n    \r\n\r\n////////////////////////////////////////////////////////////////functions related to admin\r\n    function transferAdmin(address _temp) public{\r\n        require(msg.sender==Owner);\r\n        Owner=_temp;\r\n    }\r\n\r\n    function getOwner() public view returns(address){\r\n        return Owner;\r\n    }\r\n\r\n    function addTrafficPolice(address _TP) public{//add traffic police who can add challans\r\n        require(msg.sender==Owner);\r\n        TP[_TP]=true;\r\n    }\r\n\r\n    function addTrafficRule(string calldata _description,uint _Afine,uint _Bfine,uint _Cfine) public{  \r\n        require(msg.sender==Owner);\r\n        RuleList.push(VoilationRule(_description,_Afine,_Bfine,_Cfine,true));\r\n    }\r\n\r\n    function updatePriceForRule(uint _ruleID,uint _Afine,uint _Bfine,uint _Cfine) public{ //update price of rule by giving its rule code \r\n        require(msg.sender==Owner);\r\n        require(_ruleID<(RuleList.length));\r\n        RuleList[_ruleID]. ACategoryVehicle_Fine=_Afine;\r\n        RuleList[_ruleID]. BCategoryVehicle_Fine=_Bfine;\r\n        RuleList[_ruleID]. CCategoryVehicle_Fine=_Cfine;\r\n    }\r\n\r\n    \r\n    function deactivateRule(uint _ruleID) public{\r\n        require(msg.sender==Owner);\r\n        RuleList[_ruleID].status=false;\r\n    }\r\n\r\n    function activateRule(uint _ruleID) public{\r\n        require(msg.sender==Owner);\r\n        RuleList[_ruleID].status=true;\r\n    } \r\n\r\n    //////////////////////////////////////////////////////////////////////////////////////////////////////////\r\n\r\n    function deleteActiveChallan(string memory _LicenseID) internal { //removes user from active challan\r\n        uint length=ChallanHistory[_LicenseID].length;\r\n        ChallanHistory[_LicenseID][length-1].status=false; //change status in its list of challans\r\n        delete ActiveChallan[_LicenseID];\r\n    }\r\n\r\n    function addChallan(string memory _LicenseID,string memory _Name,string memory _CNIC,VehicleType _CarType,string memory _carPlate,uint[] memory _voilatedRules,string memory _timeStamp) public{\r\n        // require(TP[msg.sender]==true); //only filled by traffic police officer\r\n        require(ActiveChallan[_LicenseID].status==false);\r\n        uint VoilationFee=0;\r\n        for(uint i=0;i<_voilatedRules.length;i++){\r\n            if(_CarType==VehicleType.Motorcycle){\r\n                VoilationFee+=RuleList[_voilatedRules[i]].ACategoryVehicle_Fine;\r\n            }else if(_CarType==VehicleType.Jeep || _CarType==VehicleType.Motorcar){\r\n                VoilationFee+=RuleList[_voilatedRules[i]].BCategoryVehicle_Fine;\r\n            }else if(_CarType==VehicleType.PublicServiceVehicle || _CarType==VehicleType.PrivateCarrier || _CarType==VehicleType.PublicCarrier){\r\n                VoilationFee+=RuleList[_voilatedRules[i]].CCategoryVehicle_Fine;\r\n            }\r\n        }\r\n        ActiveChallan[_LicenseID]=Challan(_LicenseID,_Name,_CNIC,_CarType,_carPlate,_voilatedRules,_timeStamp,VoilationFee,true);\r\n        ChallanHistory[_LicenseID].push(Challan(_LicenseID,_Name,_CNIC,_CarType,_carPlate,_voilatedRules,_timeStamp,VoilationFee,true));\r\n        \r\n    }\r\n\r\n\r\n    function getCurrentChallan(string calldata _LicenseID) public view returns(Challan memory){\r\n        return ActiveChallan[_LicenseID];\r\n    }\r\n\r\n    function getAllChallan(string calldata _LicenseID) public view returns(Challan[] memory){\r\n        return ChallanHistory[_LicenseID];\r\n    }\r\n\r\n    function getTrafficRules() public view returns(VoilationRule[] memory){\r\n        return RuleList;\r\n    }\r\n\r\n    function test() public payable returns(uint){\r\n        testValue=msg.value;\r\n        return msg.value;\r\n    }\r\n\r\n    function payChallan(string calldata _LicenseID) public payable{\r\n        require(ActiveChallan[_LicenseID].status==true);\r\n        require(msg.value==(ActiveChallan[_LicenseID].Fine*1e18));  //uint tempo=n*1e18;  //equivalent to n ether\r\n        deleteActiveChallan(_LicenseID);\r\n    }\r\n}",
  "sourcePath": "F:\\BL project\\contracts\\FinalA.sol",
  "compiler": {
    "name": "solc",
    "version": "0.8.10+commit.fc410830.Emscripten.clang"
  },
  "schemaVersion": "3.4.3",
  "updatedAt": "2021-12-20T00:42:05.025Z",
  "networkType": "ethereum",
  "devdoc": {
    "kind": "dev",
    "methods": {},
    "version": 1
  },
  "userdoc": {
    "kind": "user",
    "methods": {},
    "version": 1
  }
}