{
  "contractName": "Final5",
  "abi": [
    {
      "inputs": [],
      "stateMutability": "nonpayable",
      "type": "constructor"
    },
    {
      "inputs": [
        {
          "internalType": "string",
          "name": "",
          "type": "string"
        }
      ],
      "name": "ActiveChallan",
      "outputs": [
        {
          "internalType": "string",
          "name": "LicenseID",
          "type": "string"
        },
        {
          "internalType": "string",
          "name": "CitizenName",
          "type": "string"
        },
        {
          "internalType": "string",
          "name": "CitizenCNIC",
          "type": "string"
        },
        {
          "internalType": "enum Final5.VehicleType",
          "name": "CarType",
          "type": "uint8"
        },
        {
          "internalType": "string",
          "name": "CarNumberPlate",
          "type": "string"
        },
        {
          "internalType": "string",
          "name": "timeStamp",
          "type": "string"
        },
        {
          "internalType": "uint256",
          "name": "Fine",
          "type": "uint256"
        },
        {
          "internalType": "bool",
          "name": "status",
          "type": "bool"
        }
      ],
      "stateMutability": "view",
      "type": "function"
    },
    {
      "inputs": [],
      "name": "Owner",
      "outputs": [
        {
          "internalType": "address",
          "name": "",
          "type": "address"
        }
      ],
      "stateMutability": "view",
      "type": "function"
    },
    {
      "inputs": [
        {
          "internalType": "string",
          "name": "",
          "type": "string"
        },
        {
          "internalType": "uint256",
          "name": "",
          "type": "uint256"
        }
      ],
      "name": "PreviousChallan",
      "outputs": [
        {
          "internalType": "string",
          "name": "LicenseID",
          "type": "string"
        },
        {
          "internalType": "string",
          "name": "CitizenName",
          "type": "string"
        },
        {
          "internalType": "string",
          "name": "CitizenCNIC",
          "type": "string"
        },
        {
          "internalType": "enum Final5.VehicleType",
          "name": "CarType",
          "type": "uint8"
        },
        {
          "internalType": "string",
          "name": "CarNumberPlate",
          "type": "string"
        },
        {
          "internalType": "string",
          "name": "timeStamp",
          "type": "string"
        },
        {
          "internalType": "uint256",
          "name": "Fine",
          "type": "uint256"
        },
        {
          "internalType": "bool",
          "name": "status",
          "type": "bool"
        }
      ],
      "stateMutability": "view",
      "type": "function"
    },
    {
      "inputs": [
        {
          "internalType": "uint256",
          "name": "",
          "type": "uint256"
        }
      ],
      "name": "RuleList",
      "outputs": [
        {
          "internalType": "string",
          "name": "Description",
          "type": "string"
        },
        {
          "internalType": "uint256",
          "name": "ACategoryVehicle_Fine",
          "type": "uint256"
        },
        {
          "internalType": "uint256",
          "name": "BCategoryVehicle_Fine",
          "type": "uint256"
        },
        {
          "internalType": "uint256",
          "name": "CCategoryVehicle_Fine",
          "type": "uint256"
        },
        {
          "internalType": "bool",
          "name": "status",
          "type": "bool"
        }
      ],
      "stateMutability": "view",
      "type": "function"
    },
    {
      "inputs": [
        {
          "internalType": "address",
          "name": "",
          "type": "address"
        }
      ],
      "name": "TP",
      "outputs": [
        {
          "internalType": "bool",
          "name": "",
          "type": "bool"
        }
      ],
      "stateMutability": "view",
      "type": "function"
    },
    {
      "inputs": [
        {
          "internalType": "address",
          "name": "_TP",
          "type": "address"
        }
      ],
      "name": "addTrafficPolice",
      "outputs": [],
      "stateMutability": "nonpayable",
      "type": "function"
    },
    {
      "inputs": [
        {
          "internalType": "string",
          "name": "_description",
          "type": "string"
        },
        {
          "internalType": "uint256",
          "name": "_Afine",
          "type": "uint256"
        },
        {
          "internalType": "uint256",
          "name": "_Bfine",
          "type": "uint256"
        },
        {
          "internalType": "uint256",
          "name": "_Cfine",
          "type": "uint256"
        }
      ],
      "name": "addTrafficRule",
      "outputs": [],
      "stateMutability": "nonpayable",
      "type": "function"
    },
    {
      "inputs": [
        {
          "internalType": "uint256",
          "name": "_ruleID",
          "type": "uint256"
        },
        {
          "internalType": "uint256",
          "name": "_Afine",
          "type": "uint256"
        },
        {
          "internalType": "uint256",
          "name": "_Bfine",
          "type": "uint256"
        },
        {
          "internalType": "uint256",
          "name": "_Cfine",
          "type": "uint256"
        }
      ],
      "name": "updatePriceForRule",
      "outputs": [],
      "stateMutability": "nonpayable",
      "type": "function"
    },
    {
      "inputs": [
        {
          "internalType": "uint256",
          "name": "_ruleID",
          "type": "uint256"
        }
      ],
      "name": "deactivateRule",
      "outputs": [],
      "stateMutability": "nonpayable",
      "type": "function"
    },
    {
      "inputs": [
        {
          "internalType": "uint256",
          "name": "_ruleID",
          "type": "uint256"
        }
      ],
      "name": "activateRule",
      "outputs": [],
      "stateMutability": "nonpayable",
      "type": "function"
    },
    {
      "inputs": [
        {
          "internalType": "string",
          "name": "_LicenseID",
          "type": "string"
        },
        {
          "internalType": "string",
          "name": "_Name",
          "type": "string"
        },
        {
          "internalType": "string",
          "name": "_CNIC",
          "type": "string"
        },
        {
          "internalType": "enum Final5.VehicleType",
          "name": "_Car",
          "type": "uint8"
        },
        {
          "internalType": "string",
          "name": "_carPlate",
          "type": "string"
        },
        {
          "internalType": "uint256[]",
          "name": "_voilatedRules",
          "type": "uint256[]"
        },
        {
          "internalType": "string",
          "name": "_timeStamp",
          "type": "string"
        }
      ],
      "name": "addChallan",
      "outputs": [],
      "stateMutability": "nonpayable",
      "type": "function"
    },
    {
      "inputs": [
        {
          "internalType": "enum Final5.VehicleType",
          "name": "_temp",
          "type": "uint8"
        }
      ],
      "name": "test",
      "outputs": [
        {
          "internalType": "enum Final5.VehicleType",
          "name": "",
          "type": "uint8"
        }
      ],
      "stateMutability": "pure",
      "type": "function"
    }
  ],
  "bytecode": "0x608060405234801561001057600080fd5b50336000806101000a81548173ffffffffffffffffffffffffffffffffffffffff021916908373ffffffffffffffffffffffffffffffffffffffff160217905550611c01806100606000396000f3fe608060405234801561001057600080fd5b50600436106100b45760003560e01c80633ed70cd5116100715780633ed70cd51461017c57806356beeaf0146101b0578063b4a99a4e146101e7578063e051347b14610205578063f0661a6414610235578063f1820bdc14610251576100b4565b806301ccde53146100b957806320e2bf85146100d55780632b942d5b1461010c5780632e2c0aae1461012857806332fd20cd146101445780633a758ccc14610160575b600080fd5b6100d360048036038101906100ce9190611378565b610281565b005b6100ef60048036038101906100ea91906114c2565b61045e565b604051610103989796959493929190611634565b60405180910390f35b610126600480360381019061012191906116d5565b61077e565b005b610142600480360381019061013d919061175d565b610817565b005b61015e600480360381019061015991906117e5565b61096c565b005b61017a600480360381019061017591906116d5565b610a59565b005b610196600480360381019061019191906116d5565b610af2565b6040516101a795949392919061184c565b60405180910390f35b6101ca60048036038101906101c591906118a6565b610bcd565b6040516101de989796959493929190611634565b60405180910390f35b6101ef610f0a565b6040516101fc9190611943565b60405180910390f35b61021f600480360381019061021a919061198a565b610f2e565b60405161022c91906119b7565b60405180910390f35b61024f600480360381019061024a919061198a565b610f4e565b005b61026b600480360381019061026691906119d2565b611001565b60405161027891906119ff565b60405180910390f35b6000805b83518110156102d457600481815481106102a2576102a1611a1a565b5b906000526020600020906005020160010154826102bf9190611a78565b915080806102cc90611ace565b915050610285565b5060405180610120016040528089815260200188815260200187815260200186600581111561030657610305611593565b5b81526020018581526020018481526020018381526020018281526020016001151581525060028960405161033a9190611b53565b9081526020016040518091039020600082015181600001908051906020019061036492919061100b565b50602082015181600101908051906020019061038192919061100b565b50604082015181600201908051906020019061039e92919061100b565b5060608201518160030160006101000a81548160ff021916908360058111156103ca576103c9611593565b5b021790555060808201518160040190805190602001906103eb92919061100b565b5060a0820151816005019080519060200190610408929190611091565b5060c082015181600601908051906020019061042592919061100b565b5060e082015181600701556101008201518160080160006101000a81548160ff0219169083151502179055509050505050505050505050565b60028180516020810182018051848252602083016020850120818352809550505050505060009150905080600001805461049790611b99565b80601f01602080910402602001604051908101604052809291908181526020018280546104c390611b99565b80156105105780601f106104e557610100808354040283529160200191610510565b820191906000526020600020905b8154815290600101906020018083116104f357829003601f168201915b50505050509080600101805461052590611b99565b80601f016020809104026020016040519081016040528092919081815260200182805461055190611b99565b801561059e5780601f106105735761010080835404028352916020019161059e565b820191906000526020600020905b81548152906001019060200180831161058157829003601f168201915b5050505050908060020180546105b390611b99565b80601f01602080910402602001604051908101604052809291908181526020018280546105df90611b99565b801561062c5780601f106106015761010080835404028352916020019161062c565b820191906000526020600020905b81548152906001019060200180831161060f57829003601f168201915b5050505050908060030160009054906101000a900460ff169080600401805461065490611b99565b80601f016020809104026020016040519081016040528092919081815260200182805461068090611b99565b80156106cd5780601f106106a2576101008083540402835291602001916106cd565b820191906000526020600020905b8154815290600101906020018083116106b057829003601f168201915b5050505050908060060180546106e290611b99565b80601f016020809104026020016040519081016040528092919081815260200182805461070e90611b99565b801561075b5780601f106107305761010080835404028352916020019161075b565b820191906000526020600020905b81548152906001019060200180831161073e57829003601f168201915b5050505050908060070154908060080160009054906101000a900460ff16905088565b60008054906101000a900473ffffffffffffffffffffffffffffffffffffffff1673ffffffffffffffffffffffffffffffffffffffff163373ffffffffffffffffffffffffffffffffffffffff16146107d657600080fd5b6001600482815481106107ec576107eb611a1a565b5b906000526020600020906005020160040160006101000a81548160ff02191690831515021790555050565b60008054906101000a900473ffffffffffffffffffffffffffffffffffffffff1673ffffffffffffffffffffffffffffffffffffffff163373ffffffffffffffffffffffffffffffffffffffff161461086f57600080fd5b60046040518060a0016040528087878080601f016020809104026020016040519081016040528093929190818152602001838380828437600081840152601f19601f820116905080830192505050505050508152602001858152602001848152602001838152602001600115158152509080600181540180825580915050600190039060005260206000209060050201600090919091909150600082015181600001908051906020019061092492919061100b565b5060208201518160010155604082015181600201556060820151816003015560808201518160040160006101000a81548160ff02191690831515021790555050505050505050565b60008054906101000a900473ffffffffffffffffffffffffffffffffffffffff1673ffffffffffffffffffffffffffffffffffffffff163373ffffffffffffffffffffffffffffffffffffffff16146109c457600080fd5b60048054905084106109d557600080fd5b82600485815481106109ea576109e9611a1a565b5b9060005260206000209060050201600101819055508160048581548110610a1457610a13611a1a565b5b9060005260206000209060050201600101819055508060048581548110610a3e57610a3d611a1a565b5b90600052602060002090600502016001018190555050505050565b60008054906101000a900473ffffffffffffffffffffffffffffffffffffffff1673ffffffffffffffffffffffffffffffffffffffff163373ffffffffffffffffffffffffffffffffffffffff1614610ab157600080fd5b600060048281548110610ac757610ac6611a1a565b5b906000526020600020906005020160040160006101000a81548160ff02191690831515021790555050565b60048181548110610b0257600080fd5b9060005260206000209060050201600091509050806000018054610b2590611b99565b80601f0160208091040260200160405190810160405280929190818152602001828054610b5190611b99565b8015610b9e5780601f10610b7357610100808354040283529160200191610b9e565b820191906000526020600020905b815481529060010190602001808311610b8157829003601f168201915b5050505050908060010154908060020154908060030154908060040160009054906101000a900460ff16905085565b6001828051602081018201805184825260208301602085012081835280955050505050508181548110610bff57600080fd5b906000526020600020906009020160009150915050806000018054610c2390611b99565b80601f0160208091040260200160405190810160405280929190818152602001828054610c4f90611b99565b8015610c9c5780601f10610c7157610100808354040283529160200191610c9c565b820191906000526020600020905b815481529060010190602001808311610c7f57829003601f168201915b505050505090806001018054610cb190611b99565b80601f0160208091040260200160405190810160405280929190818152602001828054610cdd90611b99565b8015610d2a5780601f10610cff57610100808354040283529160200191610d2a565b820191906000526020600020905b815481529060010190602001808311610d0d57829003601f168201915b505050505090806002018054610d3f90611b99565b80601f0160208091040260200160405190810160405280929190818152602001828054610d6b90611b99565b8015610db85780601f10610d8d57610100808354040283529160200191610db8565b820191906000526020600020905b815481529060010190602001808311610d9b57829003601f168201915b5050505050908060030160009054906101000a900460ff1690806004018054610de090611b99565b80601f0160208091040260200160405190810160405280929190818152602001828054610e0c90611b99565b8015610e595780601f10610e2e57610100808354040283529160200191610e59565b820191906000526020600020905b815481529060010190602001808311610e3c57829003601f168201915b505050505090806006018054610e6e90611b99565b80601f0160208091040260200160405190810160405280929190818152602001828054610e9a90611b99565b8015610ee75780601f10610ebc57610100808354040283529160200191610ee7565b820191906000526020600020905b815481529060010190602001808311610eca57829003601f168201915b5050505050908060070154908060080160009054906101000a900460ff16905088565b60008054906101000a900473ffffffffffffffffffffffffffffffffffffffff1681565b60036020528060005260406000206000915054906101000a900460ff1681565b60008054906101000a900473ffffffffffffffffffffffffffffffffffffffff1673ffffffffffffffffffffffffffffffffffffffff163373ffffffffffffffffffffffffffffffffffffffff1614610fa657600080fd5b6001600360008373ffffffffffffffffffffffffffffffffffffffff1673ffffffffffffffffffffffffffffffffffffffff16815260200190815260200160002060006101000a81548160ff02191690831515021790555050565b6000819050919050565b82805461101790611b99565b90600052602060002090601f0160209004810192826110395760008555611080565b82601f1061105257805160ff1916838001178555611080565b82800160010185558215611080579182015b8281111561107f578251825591602001919060010190611064565b5b50905061108d91906110de565b5090565b8280548282559060005260206000209081019282156110cd579160200282015b828111156110cc5782518255916020019190600101906110b1565b5b5090506110da91906110de565b5090565b5b808211156110f75760008160009055506001016110df565b5090565b6000604051905090565b600080fd5b600080fd5b600080fd5b600080fd5b6000601f19601f8301169050919050565b7f4e487b7100000000000000000000000000000000000000000000000000000000600052604160045260246000fd5b61116282611119565b810181811067ffffffffffffffff821117156111815761118061112a565b5b80604052505050565b60006111946110fb565b90506111a08282611159565b919050565b600067ffffffffffffffff8211156111c0576111bf61112a565b5b6111c982611119565b9050602081019050919050565b82818337600083830152505050565b60006111f86111f3846111a5565b61118a565b90508281526020810184848401111561121457611213611114565b5b61121f8482856111d6565b509392505050565b600082601f83011261123c5761123b61110f565b5b813561124c8482602086016111e5565b91505092915050565b6006811061126257600080fd5b50565b60008135905061127481611255565b92915050565b600067ffffffffffffffff8211156112955761129461112a565b5b602082029050602081019050919050565b600080fd5b6000819050919050565b6112be816112ab565b81146112c957600080fd5b50565b6000813590506112db816112b5565b92915050565b60006112f46112ef8461127a565b61118a565b90508083825260208201905060208402830185811115611317576113166112a6565b5b835b81811015611340578061132c88826112cc565b845260208401935050602081019050611319565b5050509392505050565b600082601f83011261135f5761135e61110f565b5b813561136f8482602086016112e1565b91505092915050565b600080600080600080600060e0888a03121561139757611396611105565b5b600088013567ffffffffffffffff8111156113b5576113b461110a565b5b6113c18a828b01611227565b975050602088013567ffffffffffffffff8111156113e2576113e161110a565b5b6113ee8a828b01611227565b965050604088013567ffffffffffffffff81111561140f5761140e61110a565b5b61141b8a828b01611227565b955050606061142c8a828b01611265565b945050608088013567ffffffffffffffff81111561144d5761144c61110a565b5b6114598a828b01611227565b93505060a088013567ffffffffffffffff81111561147a5761147961110a565b5b6114868a828b0161134a565b92505060c088013567ffffffffffffffff8111156114a7576114a661110a565b5b6114b38a828b01611227565b91505092959891949750929550565b6000602082840312156114d8576114d7611105565b5b600082013567ffffffffffffffff8111156114f6576114f561110a565b5b61150284828501611227565b91505092915050565b600081519050919050565b600082825260208201905092915050565b60005b8381101561154557808201518184015260208101905061152a565b83811115611554576000848401525b50505050565b60006115658261150b565b61156f8185611516565b935061157f818560208601611527565b61158881611119565b840191505092915050565b7f4e487b7100000000000000000000000000000000000000000000000000000000600052602160045260246000fd5b600681106115d3576115d2611593565b5b50565b60008190506115e4826115c2565b919050565b60006115f4826115d6565b9050919050565b611604816115e9565b82525050565b611613816112ab565b82525050565b60008115159050919050565b61162e81611619565b82525050565b600061010082019050818103600083015261164f818b61155a565b90508181036020830152611663818a61155a565b90508181036040830152611677818961155a565b905061168660608301886115fb565b8181036080830152611698818761155a565b905081810360a08301526116ac818661155a565b90506116bb60c083018561160a565b6116c860e0830184611625565b9998505050505050505050565b6000602082840312156116eb576116ea611105565b5b60006116f9848285016112cc565b91505092915050565b600080fd5b60008083601f84011261171d5761171c61110f565b5b8235905067ffffffffffffffff81111561173a57611739611702565b5b602083019150836001820283011115611756576117556112a6565b5b9250929050565b60008060008060006080868803121561177957611778611105565b5b600086013567ffffffffffffffff8111156117975761179661110a565b5b6117a388828901611707565b955095505060206117b6888289016112cc565b93505060406117c7888289016112cc565b92505060606117d8888289016112cc565b9150509295509295909350565b600080600080608085870312156117ff576117fe611105565b5b600061180d878288016112cc565b945050602061181e878288016112cc565b935050604061182f878288016112cc565b9250506060611840878288016112cc565b91505092959194509250565b600060a0820190508181036000830152611866818861155a565b9050611875602083018761160a565b611882604083018661160a565b61188f606083018561160a565b61189c6080830184611625565b9695505050505050565b600080604083850312156118bd576118bc611105565b5b600083013567ffffffffffffffff8111156118db576118da61110a565b5b6118e785828601611227565b92505060206118f8858286016112cc565b9150509250929050565b600073ffffffffffffffffffffffffffffffffffffffff82169050919050565b600061192d82611902565b9050919050565b61193d81611922565b82525050565b60006020820190506119586000830184611934565b92915050565b61196781611922565b811461197257600080fd5b50565b6000813590506119848161195e565b92915050565b6000602082840312156119a05761199f611105565b5b60006119ae84828501611975565b91505092915050565b60006020820190506119cc6000830184611625565b92915050565b6000602082840312156119e8576119e7611105565b5b60006119f684828501611265565b91505092915050565b6000602082019050611a1460008301846115fb565b92915050565b7f4e487b7100000000000000000000000000000000000000000000000000000000600052603260045260246000fd5b7f4e487b7100000000000000000000000000000000000000000000000000000000600052601160045260246000fd5b6000611a83826112ab565b9150611a8e836112ab565b9250827fffffffffffffffffffffffffffffffffffffffffffffffffffffffffffffffff03821115611ac357611ac2611a49565b5b828201905092915050565b6000611ad9826112ab565b91507fffffffffffffffffffffffffffffffffffffffffffffffffffffffffffffffff821415611b0c57611b0b611a49565b5b600182019050919050565b600081905092915050565b6000611b2d8261150b565b611b378185611b17565b9350611b47818560208601611527565b80840191505092915050565b6000611b5f8284611b22565b915081905092915050565b7f4e487b7100000000000000000000000000000000000000000000000000000000600052602260045260246000fd5b60006002820490506001821680611bb157607f821691505b60208210811415611bc557611bc4611b6a565b5b5091905056fea264697066735822122013137802272cf693bc6744e5466df10068a7914861c29ddc0f52498a24daadda64736f6c634300080a0033",
  "immutableReferences": {},
  "source": "// SPDX-License-Identifier: MIT\r\npragma solidity >=0.4.22 <0.9.0;\r\n\r\ncontract Final5{\r\n    enum VehicleType {Motorcycle,Motorcar,Jeep,PublicServiceVehicle,PrivateCarrier,PublicCarrier}\r\n\r\n    struct Challan{\r\n    string LicenseID; //license id of citizen\r\n    string CitizenName; \r\n    string CitizenCNIC;\r\n    VehicleType CarType; \r\n    string CarNumberPlate;\r\n    uint[] VoilationCode;  //------list of voilated rules\r\n    string timeStamp;\r\n    uint Fine;\r\n    bool status;\r\n    }\r\n\r\n    struct VoilationRule{\r\n    string Description; //description of the rule\r\n    // uint Fine; \r\n    uint ACategoryVehicle_Fine;  //includes motorcycle\r\n    uint BCategoryVehicle_Fine;\r\n    uint CCategoryVehicle_Fine;\r\n    bool status;\r\n    }\r\n\r\n    address public Owner; //adminstrator who manages who can add challan etc.\r\n    mapping(string=>Challan[]) public PreviousChallan; //use to store all previous challans of citizens\r\n    mapping(string=>Challan) public ActiveChallan;  //use to store current active challans of citizen\r\n    mapping(address=>bool) public TP; //mapping for traffic police(TP) , who can add Challan\r\n    VoilationRule[] public RuleList; //list of traffic rules\r\n\r\n    constructor(){\r\n        Owner=msg.sender;\r\n    }\r\n\r\n////////////////////////////////////////////////////////////////functions related to admin\r\n    function addTrafficPolice(address _TP) public{//add traffic police who can add challans\r\n        require(msg.sender==Owner);\r\n        TP[_TP]=true;\r\n    }\r\n\r\n    function addTrafficRule(string calldata _description,uint _Afine,uint _Bfine,uint _Cfine) public{  \r\n        require(msg.sender==Owner);\r\n        RuleList.push(VoilationRule(_description,_Afine,_Bfine,_Cfine,true));\r\n    }\r\n\r\n    function updatePriceForRule(uint _ruleID,uint _Afine,uint _Bfine,uint _Cfine) public{ //update price of rule by giving its rule code \r\n        require(msg.sender==Owner);\r\n        require(_ruleID<(RuleList.length));\r\n        RuleList[_ruleID]. ACategoryVehicle_Fine=_Afine;\r\n        RuleList[_ruleID]. ACategoryVehicle_Fine=_Bfine;\r\n        RuleList[_ruleID]. ACategoryVehicle_Fine=_Cfine;\r\n    }\r\n\r\n    \r\n    function deactivateRule(uint _ruleID) public{\r\n        require(msg.sender==Owner);\r\n        RuleList[_ruleID].status=false;\r\n    }\r\n\r\n    function activateRule(uint _ruleID) public{\r\n        require(msg.sender==Owner);\r\n        RuleList[_ruleID].status=true;\r\n    } \r\n\r\n    //////////////////////////////////////////////////////////////////////////////////////////////////////////\r\n\r\n    function deleteActiveChallan(string memory _LicenseID) internal { //removes user from active challan\r\n        delete ActiveChallan[_LicenseID];\r\n    }\r\n\r\n    function addChallan(string memory _LicenseID,string memory _Name,string memory _CNIC,VehicleType _Car,string memory _carPlate,uint[] memory _voilatedRules,string memory _timeStamp) public{\r\n        // require(TP[msg.sender]==true);\r\n        uint VoilationFee=0;\r\n        for(uint i=0;i<_voilatedRules.length;i++){\r\n            VoilationFee+=RuleList[i].ACategoryVehicle_Fine;\r\n        }\r\n        ActiveChallan[_LicenseID]=Challan(_LicenseID,_Name,_CNIC,_Car,_carPlate,_voilatedRules,_timeStamp,VoilationFee,true);\r\n    }\r\n\r\n    function test(VehicleType _temp) public pure returns(VehicleType){\r\n        return _temp;\r\n    }\r\n\r\n    // function getChallan(string calldata) public returns(){\r\n\r\n    // } \r\n\r\n    // function getChallan(string calldata LicenseID) public{\r\n        \r\n    // }\r\n    \r\n\r\n}",
  "sourcePath": "F:\\BL project\\contracts\\Final5.sol",
  "compiler": {
    "name": "solc",
    "version": "0.8.10+commit.fc410830.Emscripten.clang"
  },
  "schemaVersion": "3.4.3",
  "updatedAt": "2021-12-19T20:28:03.931Z",
  "devdoc": {
    "kind": "dev",
    "methods": {},
    "version": 1
  },
  "userdoc": {
    "kind": "user",
    "methods": {},
    "version": 1
  }
}