{
  "contractName": "Final8",
  "abi": [
    {
      "inputs": [],
      "stateMutability": "nonpayable",
      "type": "constructor"
    },
    {
      "inputs": [
        {
          "internalType": "string",
          "name": "",
          "type": "string"
        }
      ],
      "name": "ActiveChallan",
      "outputs": [
        {
          "internalType": "string",
          "name": "LicenseID",
          "type": "string"
        },
        {
          "internalType": "string",
          "name": "CitizenName",
          "type": "string"
        },
        {
          "internalType": "string",
          "name": "CitizenCNIC",
          "type": "string"
        },
        {
          "internalType": "enum Final8.VehicleType",
          "name": "CarType",
          "type": "uint8"
        },
        {
          "internalType": "string",
          "name": "CarNumberPlate",
          "type": "string"
        },
        {
          "internalType": "string",
          "name": "timeStamp",
          "type": "string"
        },
        {
          "internalType": "uint256",
          "name": "Fine",
          "type": "uint256"
        },
        {
          "internalType": "bool",
          "name": "status",
          "type": "bool"
        }
      ],
      "stateMutability": "view",
      "type": "function"
    },
    {
      "inputs": [],
      "name": "Owner",
      "outputs": [
        {
          "internalType": "address",
          "name": "",
          "type": "address"
        }
      ],
      "stateMutability": "view",
      "type": "function"
    },
    {
      "inputs": [
        {
          "internalType": "string",
          "name": "",
          "type": "string"
        },
        {
          "internalType": "uint256",
          "name": "",
          "type": "uint256"
        }
      ],
      "name": "PreviousChallan",
      "outputs": [
        {
          "internalType": "string",
          "name": "LicenseID",
          "type": "string"
        },
        {
          "internalType": "string",
          "name": "CitizenName",
          "type": "string"
        },
        {
          "internalType": "string",
          "name": "CitizenCNIC",
          "type": "string"
        },
        {
          "internalType": "enum Final8.VehicleType",
          "name": "CarType",
          "type": "uint8"
        },
        {
          "internalType": "string",
          "name": "CarNumberPlate",
          "type": "string"
        },
        {
          "internalType": "string",
          "name": "timeStamp",
          "type": "string"
        },
        {
          "internalType": "uint256",
          "name": "Fine",
          "type": "uint256"
        },
        {
          "internalType": "bool",
          "name": "status",
          "type": "bool"
        }
      ],
      "stateMutability": "view",
      "type": "function"
    },
    {
      "inputs": [
        {
          "internalType": "uint256",
          "name": "",
          "type": "uint256"
        }
      ],
      "name": "RuleList",
      "outputs": [
        {
          "internalType": "string",
          "name": "Description",
          "type": "string"
        },
        {
          "internalType": "uint256",
          "name": "ACategoryVehicle_Fine",
          "type": "uint256"
        },
        {
          "internalType": "uint256",
          "name": "BCategoryVehicle_Fine",
          "type": "uint256"
        },
        {
          "internalType": "uint256",
          "name": "CCategoryVehicle_Fine",
          "type": "uint256"
        },
        {
          "internalType": "bool",
          "name": "status",
          "type": "bool"
        }
      ],
      "stateMutability": "view",
      "type": "function"
    },
    {
      "inputs": [
        {
          "internalType": "address",
          "name": "",
          "type": "address"
        }
      ],
      "name": "TP",
      "outputs": [
        {
          "internalType": "bool",
          "name": "",
          "type": "bool"
        }
      ],
      "stateMutability": "view",
      "type": "function"
    },
    {
      "inputs": [
        {
          "internalType": "address",
          "name": "_TP",
          "type": "address"
        }
      ],
      "name": "addTrafficPolice",
      "outputs": [],
      "stateMutability": "nonpayable",
      "type": "function"
    },
    {
      "inputs": [
        {
          "internalType": "string",
          "name": "_description",
          "type": "string"
        },
        {
          "internalType": "uint256",
          "name": "_Afine",
          "type": "uint256"
        },
        {
          "internalType": "uint256",
          "name": "_Bfine",
          "type": "uint256"
        },
        {
          "internalType": "uint256",
          "name": "_Cfine",
          "type": "uint256"
        }
      ],
      "name": "addTrafficRule",
      "outputs": [],
      "stateMutability": "nonpayable",
      "type": "function"
    },
    {
      "inputs": [
        {
          "internalType": "uint256",
          "name": "_ruleID",
          "type": "uint256"
        },
        {
          "internalType": "uint256",
          "name": "_Afine",
          "type": "uint256"
        },
        {
          "internalType": "uint256",
          "name": "_Bfine",
          "type": "uint256"
        },
        {
          "internalType": "uint256",
          "name": "_Cfine",
          "type": "uint256"
        }
      ],
      "name": "updatePriceForRule",
      "outputs": [],
      "stateMutability": "nonpayable",
      "type": "function"
    },
    {
      "inputs": [
        {
          "internalType": "uint256",
          "name": "_ruleID",
          "type": "uint256"
        }
      ],
      "name": "deactivateRule",
      "outputs": [],
      "stateMutability": "nonpayable",
      "type": "function"
    },
    {
      "inputs": [
        {
          "internalType": "uint256",
          "name": "_ruleID",
          "type": "uint256"
        }
      ],
      "name": "activateRule",
      "outputs": [],
      "stateMutability": "nonpayable",
      "type": "function"
    },
    {
      "inputs": [
        {
          "internalType": "string",
          "name": "_LicenseID",
          "type": "string"
        },
        {
          "internalType": "string",
          "name": "_Name",
          "type": "string"
        },
        {
          "internalType": "string",
          "name": "_CNIC",
          "type": "string"
        },
        {
          "internalType": "enum Final8.VehicleType",
          "name": "_CarType",
          "type": "uint8"
        },
        {
          "internalType": "string",
          "name": "_carPlate",
          "type": "string"
        },
        {
          "internalType": "uint256[]",
          "name": "_voilatedRules",
          "type": "uint256[]"
        },
        {
          "internalType": "string",
          "name": "_timeStamp",
          "type": "string"
        }
      ],
      "name": "addChallan",
      "outputs": [],
      "stateMutability": "nonpayable",
      "type": "function"
    },
    {
      "inputs": [
        {
          "internalType": "string",
          "name": "_LicenseID",
          "type": "string"
        }
      ],
      "name": "getCurrentChallan",
      "outputs": [
        {
          "components": [
            {
              "internalType": "string",
              "name": "LicenseID",
              "type": "string"
            },
            {
              "internalType": "string",
              "name": "CitizenName",
              "type": "string"
            },
            {
              "internalType": "string",
              "name": "CitizenCNIC",
              "type": "string"
            },
            {
              "internalType": "enum Final8.VehicleType",
              "name": "CarType",
              "type": "uint8"
            },
            {
              "internalType": "string",
              "name": "CarNumberPlate",
              "type": "string"
            },
            {
              "internalType": "uint256[]",
              "name": "VoilationCode",
              "type": "uint256[]"
            },
            {
              "internalType": "string",
              "name": "timeStamp",
              "type": "string"
            },
            {
              "internalType": "uint256",
              "name": "Fine",
              "type": "uint256"
            },
            {
              "internalType": "bool",
              "name": "status",
              "type": "bool"
            }
          ],
          "internalType": "struct Final8.Challan",
          "name": "",
          "type": "tuple"
        }
      ],
      "stateMutability": "view",
      "type": "function"
    },
    {
      "inputs": [
        {
          "internalType": "string",
          "name": "_LicenseID",
          "type": "string"
        }
      ],
      "name": "getALLChallan",
      "outputs": [
        {
          "components": [
            {
              "internalType": "string",
              "name": "LicenseID",
              "type": "string"
            },
            {
              "internalType": "string",
              "name": "CitizenName",
              "type": "string"
            },
            {
              "internalType": "string",
              "name": "CitizenCNIC",
              "type": "string"
            },
            {
              "internalType": "enum Final8.VehicleType",
              "name": "CarType",
              "type": "uint8"
            },
            {
              "internalType": "string",
              "name": "CarNumberPlate",
              "type": "string"
            },
            {
              "internalType": "uint256[]",
              "name": "VoilationCode",
              "type": "uint256[]"
            },
            {
              "internalType": "string",
              "name": "timeStamp",
              "type": "string"
            },
            {
              "internalType": "uint256",
              "name": "Fine",
              "type": "uint256"
            },
            {
              "internalType": "bool",
              "name": "status",
              "type": "bool"
            }
          ],
          "internalType": "struct Final8.Challan[]",
          "name": "",
          "type": "tuple[]"
        }
      ],
      "stateMutability": "view",
      "type": "function"
    },
    {
      "inputs": [],
      "name": "getTrafficRules",
      "outputs": [
        {
          "components": [
            {
              "internalType": "string",
              "name": "Description",
              "type": "string"
            },
            {
              "internalType": "uint256",
              "name": "ACategoryVehicle_Fine",
              "type": "uint256"
            },
            {
              "internalType": "uint256",
              "name": "BCategoryVehicle_Fine",
              "type": "uint256"
            },
            {
              "internalType": "uint256",
              "name": "CCategoryVehicle_Fine",
              "type": "uint256"
            },
            {
              "internalType": "bool",
              "name": "status",
              "type": "bool"
            }
          ],
          "internalType": "struct Final8.VoilationRule[]",
          "name": "",
          "type": "tuple[]"
        }
      ],
      "stateMutability": "view",
      "type": "function"
    },
    {
      "inputs": [
        {
          "internalType": "enum Final8.VehicleType",
          "name": "_temp",
          "type": "uint8"
        }
      ],
      "name": "test",
      "outputs": [
        {
          "internalType": "enum Final8.VehicleType",
          "name": "",
          "type": "uint8"
        }
      ],
      "stateMutability": "pure",
      "type": "function"
    },
    {
      "inputs": [
        {
          "internalType": "string",
          "name": "_LicenseID",
          "type": "string"
        }
      ],
      "name": "payChallan",
      "outputs": [],
      "stateMutability": "payable",
      "type": "function"
    }
  ],
  "bytecode": "0x60806040523480156200001157600080fd5b50336000806101000a81548173ffffffffffffffffffffffffffffffffffffffff021916908373ffffffffffffffffffffffffffffffffffffffff16021790555060046040518060a001604052806040518060400160405280602081526020017f457863656564696e672070726573637269626564207370656564206c696d6974815250815260200160c881526020016101f481526020016102ee81526020016001151581525090806001815401808255809150506001900390600052602060002090600502016000909190919091506000820151816000019080519060200190620000ff929190620004aa565b5060208201518160010155604082015181600201556060820151816003015560808201518160040160006101000a81548160ff021916908315150217905550505060046040518060a001604052806040518060800160405280604b815260200162003442604b91398152602001600081526020016101f481526020016102ee81526020016001151581525090806001815401808255809150506001900390600052602060002090600502016000909190919091506000820151816000019080519060200190620001d1929190620004aa565b5060208201518160010155604082015181600201556060820151816003015560808201518160040160006101000a81548160ff021916908315150217905550505060046040518060a001604052806040518060600160405280602f81526020016200348d602f9139815260200160c881526020016101f481526020016103e881526020016001151581525090806001815401808255809150506001900390600052602060002090600502016000909190919091506000820151816000019080519060200190620002a3929190620004aa565b5060208201518160010155604082015181600201556060820151816003015560808201518160040160006101000a81548160ff021916908315150217905550505060046040518060a001604052806040518060400160405280601b81526020017f4f7665726c6f6164696e67206120676f6f64732076656869636c6500000000008152508152602001600081526020016101f481526020016101f48152602001600115158152509080600181540180825580915050600190039060005260206000209060050201600090919091909150600082015181600001908051906020019062000391929190620004aa565b5060208201518160010155604082015181600201556060820151816003015560808201518160040160006101000a81548160ff021916908315150217905550505060046040518060a00160405280604051806060016040528060368152602001620034bc60369139815260200160c8815260200161012c81526020016101f48152602001600115158152509080600181540180825580915050600190039060005260206000209060050201600090919091909150600082015181600001908051906020019062000463929190620004aa565b5060208201518160010155604082015181600201556060820151816003015560808201518160040160006101000a81548160ff0219169083151502179055505050620005bf565b828054620004b89062000589565b90600052602060002090601f016020900481019282620004dc576000855562000528565b82601f10620004f757805160ff191683800117855562000528565b8280016001018555821562000528579182015b82811115620005275782518255916020019190600101906200050a565b5b5090506200053791906200053b565b5090565b5b80821115620005565760008160009055506001016200053c565b5090565b7f4e487b7100000000000000000000000000000000000000000000000000000000600052602260045260246000fd5b60006002820490506001821680620005a257607f821691505b60208210811415620005b957620005b86200055a565b5b50919050565b612e7380620005cf6000396000f3fe6080604052600436106100f35760003560e01c80636794fa9f1161008a578063bd8a048011610059578063bd8a04801461033d578063e051347b1461037a578063f0661a64146103b7578063f1820bdc146103e0576100f3565b80636794fa9f1461028e57806373f13d1d146102aa57806395490de0146102d5578063b4a99a4e14610312576100f3565b806332fd20cd116100c657806332fd20cd146101b75780633a758ccc146101e05780633ed70cd51461020957806356beeaf01461024a576100f3565b806301ccde53146100f857806320e2bf85146101215780632b942d5b146101655780632e2c0aae1461018e575b600080fd5b34801561010457600080fd5b5061011f600480360381019061011a9190612009565b61041d565b005b34801561012d57600080fd5b5061014860048036038101906101439190612153565b610780565b60405161015c9897969594939291906122c5565b60405180910390f35b34801561017157600080fd5b5061018c60048036038101906101879190612366565b610aa0565b005b34801561019a57600080fd5b506101b560048036038101906101b091906123ee565b610b39565b005b3480156101c357600080fd5b506101de60048036038101906101d99190612476565b610c8e565b005b3480156101ec57600080fd5b5061020760048036038101906102029190612366565b610d7b565b005b34801561021557600080fd5b50610230600480360381019061022b9190612366565b610e14565b6040516102419594939291906124dd565b60405180910390f35b34801561025657600080fd5b50610271600480360381019061026c9190612537565b610eef565b6040516102859897969594939291906122c5565b60405180910390f35b6102a860048036038101906102a39190612593565b61122c565b005b3480156102b657600080fd5b506102bf611230565b6040516102cc9190612780565b60405180910390f35b3480156102e157600080fd5b506102fc60048036038101906102f79190612593565b61135a565b6040516103099190612948565b60405180910390f35b34801561031e57600080fd5b50610327611728565b60405161033491906129ab565b60405180910390f35b34801561034957600080fd5b50610364600480360381019061035f9190612593565b61174c565b6040516103719190612b70565b60405180910390f35b34801561038657600080fd5b506103a1600480360381019061039c9190612bbe565b611b5f565b6040516103ae9190612beb565b60405180910390f35b3480156103c357600080fd5b506103de60048036038101906103d99190612bbe565b611b7f565b005b3480156103ec57600080fd5b5061040760048036038101906104029190612c06565b611c32565b6040516104149190612c33565b60405180910390f35b6000805b83518110156105f6576000600581111561043e5761043d612224565b5b86600581111561045157610450612224565b5b141561048f576004818154811061046b5761046a612c4e565b5b906000526020600020906005020160010154826104889190612cac565b91506105e3565b600260058111156104a3576104a2612224565b5b8660058111156104b6576104b5612224565b5b14806104e65750600160058111156104d1576104d0612224565b5b8660058111156104e4576104e3612224565b5b145b1561052357600481815481106104ff576104fe612c4e565b5b9060005260206000209060050201600201548261051c9190612cac565b91506105e2565b6003600581111561053757610536612224565b5b86600581111561054a57610549612224565b5b148061057a57506004600581111561056557610564612224565b5b86600581111561057857610577612224565b5b145b806105a8575060058081111561059357610592612224565b5b8660058111156105a6576105a5612224565b5b145b156105e157600481815481106105c1576105c0612c4e565b5b906000526020600020906005020160030154826105de9190612cac565b91505b5b5b80806105ee90612d02565b915050610421565b5060405180610120016040528089815260200188815260200187815260200186600581111561062857610627612224565b5b81526020018581526020018481526020018381526020018281526020016001151581525060028960405161065c9190612d87565b90815260200160405180910390206000820151816000019080519060200190610686929190611c3c565b5060208201518160010190805190602001906106a3929190611c3c565b5060408201518160020190805190602001906106c0929190611c3c565b5060608201518160030160006101000a81548160ff021916908360058111156106ec576106eb612224565b5b0217905550608082015181600401908051906020019061070d929190611c3c565b5060a082015181600501908051906020019061072a929190611cc2565b5060c0820151816006019080519060200190610747929190611c3c565b5060e082015181600701556101008201518160080160006101000a81548160ff0219169083151502179055509050505050505050505050565b6002818051602081018201805184825260208301602085012081835280955050505050506000915090508060000180546107b990612dcd565b80601f01602080910402602001604051908101604052809291908181526020018280546107e590612dcd565b80156108325780601f1061080757610100808354040283529160200191610832565b820191906000526020600020905b81548152906001019060200180831161081557829003601f168201915b50505050509080600101805461084790612dcd565b80601f016020809104026020016040519081016040528092919081815260200182805461087390612dcd565b80156108c05780601f10610895576101008083540402835291602001916108c0565b820191906000526020600020905b8154815290600101906020018083116108a357829003601f168201915b5050505050908060020180546108d590612dcd565b80601f016020809104026020016040519081016040528092919081815260200182805461090190612dcd565b801561094e5780601f106109235761010080835404028352916020019161094e565b820191906000526020600020905b81548152906001019060200180831161093157829003601f168201915b5050505050908060030160009054906101000a900460ff169080600401805461097690612dcd565b80601f01602080910402602001604051908101604052809291908181526020018280546109a290612dcd565b80156109ef5780601f106109c4576101008083540402835291602001916109ef565b820191906000526020600020905b8154815290600101906020018083116109d257829003601f168201915b505050505090806006018054610a0490612dcd565b80601f0160208091040260200160405190810160405280929190818152602001828054610a3090612dcd565b8015610a7d5780601f10610a5257610100808354040283529160200191610a7d565b820191906000526020600020905b815481529060010190602001808311610a6057829003601f168201915b5050505050908060070154908060080160009054906101000a900460ff16905088565b60008054906101000a900473ffffffffffffffffffffffffffffffffffffffff1673ffffffffffffffffffffffffffffffffffffffff163373ffffffffffffffffffffffffffffffffffffffff1614610af857600080fd5b600160048281548110610b0e57610b0d612c4e565b5b906000526020600020906005020160040160006101000a81548160ff02191690831515021790555050565b60008054906101000a900473ffffffffffffffffffffffffffffffffffffffff1673ffffffffffffffffffffffffffffffffffffffff163373ffffffffffffffffffffffffffffffffffffffff1614610b9157600080fd5b60046040518060a0016040528087878080601f016020809104026020016040519081016040528093929190818152602001838380828437600081840152601f19601f8201169050808301925050505050505081526020018581526020018481526020018381526020016001151581525090806001815401808255809150506001900390600052602060002090600502016000909190919091506000820151816000019080519060200190610c46929190611c3c565b5060208201518160010155604082015181600201556060820151816003015560808201518160040160006101000a81548160ff02191690831515021790555050505050505050565b60008054906101000a900473ffffffffffffffffffffffffffffffffffffffff1673ffffffffffffffffffffffffffffffffffffffff163373ffffffffffffffffffffffffffffffffffffffff1614610ce657600080fd5b6004805490508410610cf757600080fd5b8260048581548110610d0c57610d0b612c4e565b5b9060005260206000209060050201600101819055508160048581548110610d3657610d35612c4e565b5b9060005260206000209060050201600101819055508060048581548110610d6057610d5f612c4e565b5b90600052602060002090600502016001018190555050505050565b60008054906101000a900473ffffffffffffffffffffffffffffffffffffffff1673ffffffffffffffffffffffffffffffffffffffff163373ffffffffffffffffffffffffffffffffffffffff1614610dd357600080fd5b600060048281548110610de957610de8612c4e565b5b906000526020600020906005020160040160006101000a81548160ff02191690831515021790555050565b60048181548110610e2457600080fd5b9060005260206000209060050201600091509050806000018054610e4790612dcd565b80601f0160208091040260200160405190810160405280929190818152602001828054610e7390612dcd565b8015610ec05780601f10610e9557610100808354040283529160200191610ec0565b820191906000526020600020905b815481529060010190602001808311610ea357829003601f168201915b5050505050908060010154908060020154908060030154908060040160009054906101000a900460ff16905085565b6001828051602081018201805184825260208301602085012081835280955050505050508181548110610f2157600080fd5b906000526020600020906009020160009150915050806000018054610f4590612dcd565b80601f0160208091040260200160405190810160405280929190818152602001828054610f7190612dcd565b8015610fbe5780601f10610f9357610100808354040283529160200191610fbe565b820191906000526020600020905b815481529060010190602001808311610fa157829003601f168201915b505050505090806001018054610fd390612dcd565b80601f0160208091040260200160405190810160405280929190818152602001828054610fff90612dcd565b801561104c5780601f106110215761010080835404028352916020019161104c565b820191906000526020600020905b81548152906001019060200180831161102f57829003601f168201915b50505050509080600201805461106190612dcd565b80601f016020809104026020016040519081016040528092919081815260200182805461108d90612dcd565b80156110da5780601f106110af576101008083540402835291602001916110da565b820191906000526020600020905b8154815290600101906020018083116110bd57829003601f168201915b5050505050908060030160009054906101000a900460ff169080600401805461110290612dcd565b80601f016020809104026020016040519081016040528092919081815260200182805461112e90612dcd565b801561117b5780601f106111505761010080835404028352916020019161117b565b820191906000526020600020905b81548152906001019060200180831161115e57829003601f168201915b50505050509080600601805461119090612dcd565b80601f01602080910402602001604051908101604052809291908181526020018280546111bc90612dcd565b80156112095780601f106111de57610100808354040283529160200191611209565b820191906000526020600020905b8154815290600101906020018083116111ec57829003601f168201915b5050505050908060070154908060080160009054906101000a900460ff16905088565b5050565b60606004805480602002602001604051908101604052809291908181526020016000905b8282101561135157838290600052602060002090600502016040518060a001604052908160008201805461128790612dcd565b80601f01602080910402602001604051908101604052809291908181526020018280546112b390612dcd565b80156113005780601f106112d557610100808354040283529160200191611300565b820191906000526020600020905b8154815290600101906020018083116112e357829003601f168201915b505050505081526020016001820154815260200160028201548152602001600382015481526020016004820160009054906101000a900460ff16151515158152505081526020019060010190611254565b50505050905090565b611362611d0f565b60028383604051611374929190612e24565b90815260200160405180910390206040518061012001604052908160008201805461139e90612dcd565b80601f01602080910402602001604051908101604052809291908181526020018280546113ca90612dcd565b80156114175780601f106113ec57610100808354040283529160200191611417565b820191906000526020600020905b8154815290600101906020018083116113fa57829003601f168201915b5050505050815260200160018201805461143090612dcd565b80601f016020809104026020016040519081016040528092919081815260200182805461145c90612dcd565b80156114a95780601f1061147e576101008083540402835291602001916114a9565b820191906000526020600020905b81548152906001019060200180831161148c57829003601f168201915b505050505081526020016002820180546114c290612dcd565b80601f01602080910402602001604051908101604052809291908181526020018280546114ee90612dcd565b801561153b5780601f106115105761010080835404028352916020019161153b565b820191906000526020600020905b81548152906001019060200180831161151e57829003601f168201915b505050505081526020016003820160009054906101000a900460ff16600581111561156957611568612224565b5b600581111561157b5761157a612224565b5b815260200160048201805461158f90612dcd565b80601f01602080910402602001604051908101604052809291908181526020018280546115bb90612dcd565b80156116085780601f106115dd57610100808354040283529160200191611608565b820191906000526020600020905b8154815290600101906020018083116115eb57829003601f168201915b505050505081526020016005820180548060200260200160405190810160405280929190818152602001828054801561166057602002820191906000526020600020905b81548152602001906001019080831161164c575b5050505050815260200160068201805461167990612dcd565b80601f01602080910402602001604051908101604052809291908181526020018280546116a590612dcd565b80156116f25780601f106116c7576101008083540402835291602001916116f2565b820191906000526020600020905b8154815290600101906020018083116116d557829003601f168201915b50505050508152602001600782015481526020016008820160009054906101000a900460ff161515151581525050905092915050565b60008054906101000a900473ffffffffffffffffffffffffffffffffffffffff1681565b606060018383604051611760929190612e24565b9081526020016040518091039020805480602002602001604051908101604052809291908181526020016000905b82821015611b535783829060005260206000209060090201604051806101200160405290816000820180546117c290612dcd565b80601f01602080910402602001604051908101604052809291908181526020018280546117ee90612dcd565b801561183b5780601f106118105761010080835404028352916020019161183b565b820191906000526020600020905b81548152906001019060200180831161181e57829003601f168201915b5050505050815260200160018201805461185490612dcd565b80601f016020809104026020016040519081016040528092919081815260200182805461188090612dcd565b80156118cd5780601f106118a2576101008083540402835291602001916118cd565b820191906000526020600020905b8154815290600101906020018083116118b057829003601f168201915b505050505081526020016002820180546118e690612dcd565b80601f016020809104026020016040519081016040528092919081815260200182805461191290612dcd565b801561195f5780601f106119345761010080835404028352916020019161195f565b820191906000526020600020905b81548152906001019060200180831161194257829003601f168201915b505050505081526020016003820160009054906101000a900460ff16600581111561198d5761198c612224565b5b600581111561199f5761199e612224565b5b81526020016004820180546119b390612dcd565b80601f01602080910402602001604051908101604052809291908181526020018280546119df90612dcd565b8015611a2c5780601f10611a0157610100808354040283529160200191611a2c565b820191906000526020600020905b815481529060010190602001808311611a0f57829003601f168201915b5050505050815260200160058201805480602002602001604051908101604052809291908181526020018280548015611a8457602002820191906000526020600020905b815481526020019060010190808311611a70575b50505050508152602001600682018054611a9d90612dcd565b80601f0160208091040260200160405190810160405280929190818152602001828054611ac990612dcd565b8015611b165780601f10611aeb57610100808354040283529160200191611b16565b820191906000526020600020905b815481529060010190602001808311611af957829003601f168201915b50505050508152602001600782015481526020016008820160009054906101000a900460ff1615151515815250508152602001906001019061178e565b50505050905092915050565b60036020528060005260406000206000915054906101000a900460ff1681565b60008054906101000a900473ffffffffffffffffffffffffffffffffffffffff1673ffffffffffffffffffffffffffffffffffffffff163373ffffffffffffffffffffffffffffffffffffffff1614611bd757600080fd5b6001600360008373ffffffffffffffffffffffffffffffffffffffff1673ffffffffffffffffffffffffffffffffffffffff16815260200190815260200160002060006101000a81548160ff02191690831515021790555050565b6000819050919050565b828054611c4890612dcd565b90600052602060002090601f016020900481019282611c6a5760008555611cb1565b82601f10611c8357805160ff1916838001178555611cb1565b82800160010185558215611cb1579182015b82811115611cb0578251825591602001919060010190611c95565b5b509050611cbe9190611d6f565b5090565b828054828255906000526020600020908101928215611cfe579160200282015b82811115611cfd578251825591602001919060010190611ce2565b5b509050611d0b9190611d6f565b5090565b60405180610120016040528060608152602001606081526020016060815260200160006005811115611d4457611d43612224565b5b8152602001606081526020016060815260200160608152602001600081526020016000151581525090565b5b80821115611d88576000816000905550600101611d70565b5090565b6000604051905090565b600080fd5b600080fd5b600080fd5b600080fd5b6000601f19601f8301169050919050565b7f4e487b7100000000000000000000000000000000000000000000000000000000600052604160045260246000fd5b611df382611daa565b810181811067ffffffffffffffff82111715611e1257611e11611dbb565b5b80604052505050565b6000611e25611d8c565b9050611e318282611dea565b919050565b600067ffffffffffffffff821115611e5157611e50611dbb565b5b611e5a82611daa565b9050602081019050919050565b82818337600083830152505050565b6000611e89611e8484611e36565b611e1b565b905082815260208101848484011115611ea557611ea4611da5565b5b611eb0848285611e67565b509392505050565b600082601f830112611ecd57611ecc611da0565b5b8135611edd848260208601611e76565b91505092915050565b60068110611ef357600080fd5b50565b600081359050611f0581611ee6565b92915050565b600067ffffffffffffffff821115611f2657611f25611dbb565b5b602082029050602081019050919050565b600080fd5b6000819050919050565b611f4f81611f3c565b8114611f5a57600080fd5b50565b600081359050611f6c81611f46565b92915050565b6000611f85611f8084611f0b565b611e1b565b90508083825260208201905060208402830185811115611fa857611fa7611f37565b5b835b81811015611fd15780611fbd8882611f5d565b845260208401935050602081019050611faa565b5050509392505050565b600082601f830112611ff057611fef611da0565b5b8135612000848260208601611f72565b91505092915050565b600080600080600080600060e0888a03121561202857612027611d96565b5b600088013567ffffffffffffffff81111561204657612045611d9b565b5b6120528a828b01611eb8565b975050602088013567ffffffffffffffff81111561207357612072611d9b565b5b61207f8a828b01611eb8565b965050604088013567ffffffffffffffff8111156120a05761209f611d9b565b5b6120ac8a828b01611eb8565b95505060606120bd8a828b01611ef6565b945050608088013567ffffffffffffffff8111156120de576120dd611d9b565b5b6120ea8a828b01611eb8565b93505060a088013567ffffffffffffffff81111561210b5761210a611d9b565b5b6121178a828b01611fdb565b92505060c088013567ffffffffffffffff81111561213857612137611d9b565b5b6121448a828b01611eb8565b91505092959891949750929550565b60006020828403121561216957612168611d96565b5b600082013567ffffffffffffffff81111561218757612186611d9b565b5b61219384828501611eb8565b91505092915050565b600081519050919050565b600082825260208201905092915050565b60005b838110156121d65780820151818401526020810190506121bb565b838111156121e5576000848401525b50505050565b60006121f68261219c565b61220081856121a7565b93506122108185602086016121b8565b61221981611daa565b840191505092915050565b7f4e487b7100000000000000000000000000000000000000000000000000000000600052602160045260246000fd5b6006811061226457612263612224565b5b50565b600081905061227582612253565b919050565b600061228582612267565b9050919050565b6122958161227a565b82525050565b6122a481611f3c565b82525050565b60008115159050919050565b6122bf816122aa565b82525050565b60006101008201905081810360008301526122e0818b6121eb565b905081810360208301526122f4818a6121eb565b9050818103604083015261230881896121eb565b9050612317606083018861228c565b818103608083015261232981876121eb565b905081810360a083015261233d81866121eb565b905061234c60c083018561229b565b61235960e08301846122b6565b9998505050505050505050565b60006020828403121561237c5761237b611d96565b5b600061238a84828501611f5d565b91505092915050565b600080fd5b60008083601f8401126123ae576123ad611da0565b5b8235905067ffffffffffffffff8111156123cb576123ca612393565b5b6020830191508360018202830111156123e7576123e6611f37565b5b9250929050565b60008060008060006080868803121561240a57612409611d96565b5b600086013567ffffffffffffffff81111561242857612427611d9b565b5b61243488828901612398565b9550955050602061244788828901611f5d565b935050604061245888828901611f5d565b925050606061246988828901611f5d565b9150509295509295909350565b600080600080608085870312156124905761248f611d96565b5b600061249e87828801611f5d565b94505060206124af87828801611f5d565b93505060406124c087828801611f5d565b92505060606124d187828801611f5d565b91505092959194509250565b600060a08201905081810360008301526124f781886121eb565b9050612506602083018761229b565b612513604083018661229b565b612520606083018561229b565b61252d60808301846122b6565b9695505050505050565b6000806040838503121561254e5761254d611d96565b5b600083013567ffffffffffffffff81111561256c5761256b611d9b565b5b61257885828601611eb8565b925050602061258985828601611f5d565b9150509250929050565b600080602083850312156125aa576125a9611d96565b5b600083013567ffffffffffffffff8111156125c8576125c7611d9b565b5b6125d485828601612398565b92509250509250929050565b600081519050919050565b600082825260208201905092915050565b6000819050602082019050919050565b600082825260208201905092915050565b60006126288261219c565b612632818561260c565b93506126428185602086016121b8565b61264b81611daa565b840191505092915050565b61265f81611f3c565b82525050565b61266e816122aa565b82525050565b600060a0830160008301518482036000860152612691828261261d565b91505060208301516126a66020860182612656565b5060408301516126b96040860182612656565b5060608301516126cc6060860182612656565b5060808301516126df6080860182612665565b508091505092915050565b60006126f68383612674565b905092915050565b6000602082019050919050565b6000612716826125e0565b61272081856125eb565b935083602082028501612732856125fc565b8060005b8581101561276e578484038952815161274f85826126ea565b945061275a836126fe565b925060208a01995050600181019050612736565b50829750879550505050505092915050565b6000602082019050818103600083015261279a818461270b565b905092915050565b6127ab8161227a565b82525050565b600081519050919050565b600082825260208201905092915050565b6000819050602082019050919050565b60006127e98383612656565b60208301905092915050565b6000602082019050919050565b600061280d826127b1565b61281781856127bc565b9350612822836127cd565b8060005b8381101561285357815161283a88826127dd565b9750612845836127f5565b925050600181019050612826565b5085935050505092915050565b600061012083016000830151848203600086015261287e828261261d565b91505060208301518482036020860152612898828261261d565b915050604083015184820360408601526128b2828261261d565b91505060608301516128c760608601826127a2565b50608083015184820360808601526128df828261261d565b91505060a083015184820360a08601526128f98282612802565b91505060c083015184820360c0860152612913828261261d565b91505060e083015161292860e0860182612656565b5061010083015161293d610100860182612665565b508091505092915050565b600060208201905081810360008301526129628184612860565b905092915050565b600073ffffffffffffffffffffffffffffffffffffffff82169050919050565b60006129958261296a565b9050919050565b6129a58161298a565b82525050565b60006020820190506129c0600083018461299c565b92915050565b600081519050919050565b600082825260208201905092915050565b6000819050602082019050919050565b6000610120830160008301518482036000860152612a10828261261d565b91505060208301518482036020860152612a2a828261261d565b91505060408301518482036040860152612a44828261261d565b9150506060830151612a5960608601826127a2565b5060808301518482036080860152612a71828261261d565b91505060a083015184820360a0860152612a8b8282612802565b91505060c083015184820360c0860152612aa5828261261d565b91505060e0830151612aba60e0860182612656565b50610100830151612acf610100860182612665565b508091505092915050565b6000612ae683836129f2565b905092915050565b6000602082019050919050565b6000612b06826129c6565b612b1081856129d1565b935083602082028501612b22856129e2565b8060005b85811015612b5e5784840389528151612b3f8582612ada565b9450612b4a83612aee565b925060208a01995050600181019050612b26565b50829750879550505050505092915050565b60006020820190508181036000830152612b8a8184612afb565b905092915050565b612b9b8161298a565b8114612ba657600080fd5b50565b600081359050612bb881612b92565b92915050565b600060208284031215612bd457612bd3611d96565b5b6000612be284828501612ba9565b91505092915050565b6000602082019050612c0060008301846122b6565b92915050565b600060208284031215612c1c57612c1b611d96565b5b6000612c2a84828501611ef6565b91505092915050565b6000602082019050612c48600083018461228c565b92915050565b7f4e487b7100000000000000000000000000000000000000000000000000000000600052603260045260246000fd5b7f4e487b7100000000000000000000000000000000000000000000000000000000600052601160045260246000fd5b6000612cb782611f3c565b9150612cc283611f3c565b9250827fffffffffffffffffffffffffffffffffffffffffffffffffffffffffffffffff03821115612cf757612cf6612c7d565b5b828201905092915050565b6000612d0d82611f3c565b91507fffffffffffffffffffffffffffffffffffffffffffffffffffffffffffffffff821415612d4057612d3f612c7d565b5b600182019050919050565b600081905092915050565b6000612d618261219c565b612d6b8185612d4b565b9350612d7b8185602086016121b8565b80840191505092915050565b6000612d938284612d56565b915081905092915050565b7f4e487b7100000000000000000000000000000000000000000000000000000000600052602260045260246000fd5b60006002820490506001821680612de557607f821691505b60208210811415612df957612df8612d9e565b5b50919050565b6000612e0b8385612d4b565b9350612e18838584611e67565b82840190509392505050565b6000612e31828486612dff565b9150819050939250505056fea26469706673582212204957a180ea526197a90cdda933a60acf803c31272b4d259a20d156d65c68cb4864736f6c634300080a00334361727279696e672070617373656e6765727320696e2061207075626c696320736572766963652076656869636c6520657863656564696e67207065726d69737369626c65206c696d697456696f6c6174696f6e206f662074726166666963207369676e616c7328456c656374726f6e69632f4d616e75616c2944726976696e672061206d6f746f722076656869636c65206174206e6967687420776974686f75742070726f706572206c6967687473",
  "immutableReferences": {},
  "source": "// SPDX-License-Identifier: MIT\r\npragma solidity >=0.4.22 <0.9.0;\r\n\r\ncontract Final8{\r\n    enum VehicleType {Motorcycle,Motorcar,Jeep,PublicServiceVehicle,PrivateCarrier,PublicCarrier}\r\n\r\n    struct Challan{\r\n    string LicenseID; //license id of citizen\r\n    string CitizenName; \r\n    string CitizenCNIC;\r\n    VehicleType CarType; \r\n    string CarNumberPlate;\r\n    uint[] VoilationCode;  //------list of voilated rules\r\n    string timeStamp;\r\n    uint Fine;\r\n    bool status;\r\n    }\r\n\r\n    struct VoilationRule{\r\n    string Description; //description of the rule\r\n    // uint Fine; \r\n    uint ACategoryVehicle_Fine;   //includes motorcycle\r\n    uint BCategoryVehicle_Fine;  //includes Motorcar,Jeep,\r\n    uint CCategoryVehicle_Fine; //includes PrivateCarrier,PublicCarrier\r\n    bool status;\r\n    }\r\n\r\n    address public Owner; //adminstrator who manages who can add challan etc.\r\n    mapping(string=>Challan[]) public PreviousChallan; //use to store all previous challans of citizens\r\n    mapping(string=>Challan) public ActiveChallan;  //use to store current active challans of citizen\r\n    mapping(address=>bool) public TP; //mapping for traffic police(TP) , who can add Challan\r\n    VoilationRule[] public RuleList; //list of traffic rules\r\n\r\n    constructor(){\r\n        Owner=msg.sender;\r\n        \r\n        RuleList.push(VoilationRule(\"Exceeding prescribed speed limit\",200,500,750,true));\r\n        RuleList.push(VoilationRule(\"Carrying passengers in a public service vehicle exceeding permissible limit\",0,500,750,true));\r\n        RuleList.push(VoilationRule(\"Violation of traffic signals(Electronic/Manual)\",200,500,1000,true));\r\n        RuleList.push(VoilationRule(\"Overloading a goods vehicle\",0,500,500,true));\r\n        RuleList.push(VoilationRule(\"Driving a motor vehicle at night without proper lights\",200,300,500,true));\r\n        //append all rules in the start of the application\r\n    }\r\n\r\n////////////////////////////////////////////////////////////////functions related to admin\r\n    function addTrafficPolice(address _TP) public{//add traffic police who can add challans\r\n        require(msg.sender==Owner);\r\n        TP[_TP]=true;\r\n    }\r\n\r\n    function addTrafficRule(string calldata _description,uint _Afine,uint _Bfine,uint _Cfine) public{  \r\n        require(msg.sender==Owner);\r\n        RuleList.push(VoilationRule(_description,_Afine,_Bfine,_Cfine,true));\r\n    }\r\n\r\n    function updatePriceForRule(uint _ruleID,uint _Afine,uint _Bfine,uint _Cfine) public{ //update price of rule by giving its rule code \r\n        require(msg.sender==Owner);\r\n        require(_ruleID<(RuleList.length));\r\n        RuleList[_ruleID]. ACategoryVehicle_Fine=_Afine;\r\n        RuleList[_ruleID]. ACategoryVehicle_Fine=_Bfine;\r\n        RuleList[_ruleID]. ACategoryVehicle_Fine=_Cfine;\r\n    }\r\n\r\n    \r\n    function deactivateRule(uint _ruleID) public{\r\n        require(msg.sender==Owner);\r\n        RuleList[_ruleID].status=false;\r\n    }\r\n\r\n    function activateRule(uint _ruleID) public{\r\n        require(msg.sender==Owner);\r\n        RuleList[_ruleID].status=true;\r\n    } \r\n\r\n    //////////////////////////////////////////////////////////////////////////////////////////////////////////\r\n\r\n    function deleteActiveChallan(string memory _LicenseID) internal { //removes user from active challan\r\n        Challan[] memory ChallanList=PreviousChallan[_LicenseID];\r\n        uint length=ChallanList.length;\r\n        PreviousChallan[_LicenseID][length-1].status=false; //change status in its list of challans\r\n        // PreviousChallan[_LicenseID]=Challan(_LicenseID,PreviousChallan[_LicenseID].CitizenName,PreviousChallan[_LicenseID].CitizenCNIC,PreviousChallan[_LicenseID].CarType,PreviousChallan[_LicenseID].CarNumberPlate,PreviousChallan[_LicenseID].VoilationCode,PreviousChallan[_LicenseID].timeStamp,PreviousChallan[_LicenseID].fine,false);\r\n        delete ActiveChallan[_LicenseID];\r\n    }\r\n\r\n    function addChallan(string memory _LicenseID,string memory _Name,string memory _CNIC,VehicleType _CarType,string memory _carPlate,uint[] memory _voilatedRules,string memory _timeStamp) public{\r\n        // require(TP[msg.sender]==true); //only filled by traffic police officer\r\n        uint VoilationFee=0;\r\n        for(uint i=0;i<_voilatedRules.length;i++){\r\n            if(_CarType==VehicleType.Motorcycle){\r\n                VoilationFee+=RuleList[i].ACategoryVehicle_Fine;\r\n            }else if(_CarType==VehicleType.Jeep || _CarType==VehicleType.Motorcar){\r\n                VoilationFee+=RuleList[i].BCategoryVehicle_Fine;\r\n            }else if(_CarType==VehicleType.PublicServiceVehicle || _CarType==VehicleType.PrivateCarrier || _CarType==VehicleType.PublicCarrier){\r\n                VoilationFee+=RuleList[i].CCategoryVehicle_Fine;\r\n            }\r\n        }\r\n        ActiveChallan[_LicenseID]=Challan(_LicenseID,_Name,_CNIC,_CarType,_carPlate,_voilatedRules,_timeStamp,VoilationFee,true);\r\n    }\r\n\r\n\r\n    function getCurrentChallan(string calldata _LicenseID) public view returns(Challan memory){\r\n        return ActiveChallan[_LicenseID];\r\n    }\r\n\r\n    function getALLChallan(string calldata _LicenseID) public view returns(Challan[] memory){\r\n        return PreviousChallan[_LicenseID];\r\n    }\r\n\r\n    function getTrafficRules() public view returns(VoilationRule[] memory){\r\n        return RuleList;\r\n    }\r\n\r\n    function test(VehicleType _temp) public pure returns(VehicleType){\r\n        return _temp;\r\n    }\r\n\r\n    function payChallan(string calldata _LicenseID) public payable{\r\n\r\n    }\r\n\r\n    // function getChallan(string calldata) public returns(){\r\n\r\n    // } \r\n\r\n    // function getChallan(string calldata LicenseID) public{\r\n        \r\n    // }\r\n    \r\n\r\n}",
  "sourcePath": "F:\\BL project\\contracts\\Final8.sol",
  "compiler": {
    "name": "solc",
    "version": "0.8.10+commit.fc410830.Emscripten.clang"
  },
  "schemaVersion": "3.4.3",
  "updatedAt": "2021-12-19T18:26:55.353Z",
  "devdoc": {
    "kind": "dev",
    "methods": {},
    "version": 1
  },
  "userdoc": {
    "kind": "user",
    "methods": {},
    "version": 1
  }
}