{
  "contractName": "Main",
  "abi": [
    {
      "inputs": [],
      "stateMutability": "nonpayable",
      "type": "constructor"
    },
    {
      "inputs": [
        {
          "internalType": "address",
          "name": "",
          "type": "address"
        }
      ],
      "name": "ActiveChallan",
      "outputs": [
        {
          "internalType": "string",
          "name": "LicenseID",
          "type": "string"
        },
        {
          "internalType": "string",
          "name": "CitizenName",
          "type": "string"
        },
        {
          "internalType": "string",
          "name": "CitizenCNIC",
          "type": "string"
        },
        {
          "internalType": "enum Main.VehicleType",
          "name": "CarType",
          "type": "uint8"
        },
        {
          "internalType": "string",
          "name": "CarNumberPlate",
          "type": "string"
        },
        {
          "internalType": "uint256",
          "name": "VoilationCode",
          "type": "uint256"
        },
        {
          "internalType": "uint256",
          "name": "Fine",
          "type": "uint256"
        },
        {
          "internalType": "bool",
          "name": "status",
          "type": "bool"
        }
      ],
      "stateMutability": "view",
      "type": "function"
    },
    {
      "inputs": [],
      "name": "Owner",
      "outputs": [
        {
          "internalType": "address",
          "name": "",
          "type": "address"
        }
      ],
      "stateMutability": "view",
      "type": "function"
    },
    {
      "inputs": [
        {
          "internalType": "address",
          "name": "",
          "type": "address"
        },
        {
          "internalType": "uint256",
          "name": "",
          "type": "uint256"
        }
      ],
      "name": "PreviousChallan",
      "outputs": [
        {
          "internalType": "string",
          "name": "LicenseID",
          "type": "string"
        },
        {
          "internalType": "string",
          "name": "CitizenName",
          "type": "string"
        },
        {
          "internalType": "string",
          "name": "CitizenCNIC",
          "type": "string"
        },
        {
          "internalType": "enum Main.VehicleType",
          "name": "CarType",
          "type": "uint8"
        },
        {
          "internalType": "string",
          "name": "CarNumberPlate",
          "type": "string"
        },
        {
          "internalType": "uint256",
          "name": "VoilationCode",
          "type": "uint256"
        },
        {
          "internalType": "uint256",
          "name": "Fine",
          "type": "uint256"
        },
        {
          "internalType": "bool",
          "name": "status",
          "type": "bool"
        }
      ],
      "stateMutability": "view",
      "type": "function"
    },
    {
      "inputs": [
        {
          "internalType": "uint256",
          "name": "",
          "type": "uint256"
        }
      ],
      "name": "RuleList",
      "outputs": [
        {
          "internalType": "string",
          "name": "Description",
          "type": "string"
        },
        {
          "internalType": "uint256",
          "name": "Fine",
          "type": "uint256"
        },
        {
          "internalType": "bool",
          "name": "status",
          "type": "bool"
        }
      ],
      "stateMutability": "view",
      "type": "function"
    },
    {
      "inputs": [
        {
          "internalType": "address",
          "name": "",
          "type": "address"
        }
      ],
      "name": "TP",
      "outputs": [
        {
          "internalType": "bool",
          "name": "",
          "type": "bool"
        }
      ],
      "stateMutability": "view",
      "type": "function"
    },
    {
      "inputs": [
        {
          "internalType": "address",
          "name": "_TP",
          "type": "address"
        }
      ],
      "name": "addTrafficPolice",
      "outputs": [],
      "stateMutability": "nonpayable",
      "type": "function"
    },
    {
      "inputs": [
        {
          "internalType": "string",
          "name": "_description",
          "type": "string"
        },
        {
          "internalType": "uint256",
          "name": "_price",
          "type": "uint256"
        }
      ],
      "name": "addTrafficRule",
      "outputs": [],
      "stateMutability": "nonpayable",
      "type": "function"
    },
    {
      "inputs": [
        {
          "internalType": "uint256",
          "name": "_ruleID",
          "type": "uint256"
        },
        {
          "internalType": "uint256",
          "name": "_price",
          "type": "uint256"
        }
      ],
      "name": "updatePriceForRule",
      "outputs": [],
      "stateMutability": "nonpayable",
      "type": "function"
    },
    {
      "inputs": [
        {
          "internalType": "uint256",
          "name": "_ruleID",
          "type": "uint256"
        }
      ],
      "name": "deactivateRule",
      "outputs": [],
      "stateMutability": "nonpayable",
      "type": "function"
    },
    {
      "inputs": [
        {
          "internalType": "uint256",
          "name": "_ruleID",
          "type": "uint256"
        }
      ],
      "name": "activateRule",
      "outputs": [],
      "stateMutability": "nonpayable",
      "type": "function"
    }
  ],
  "bytecode": "0x608060405234801561001057600080fd5b50336000806101000a81548173ffffffffffffffffffffffffffffffffffffffff021916908373ffffffffffffffffffffffffffffffffffffffff1602179055506110f5806100606000396000f3fe608060405234801561001057600080fd5b506004361061009e5760003560e01c8063b4a99a4e11610066578063b4a99a4e14610160578063bf338aca1461017e578063e051347b146101b5578063e6e75aa9146101e5578063f0661a64146102015761009e565b8063094223fe146100a3578063250c6c1f146100bf5780632b942d5b146100f65780633a758ccc146101125780633ed70cd51461012e575b600080fd5b6100bd60048036038101906100b89190610bdb565b61021d565b005b6100d960048036038101906100d49190610c79565b61025c565b6040516100ed989796959493929190610df3565b60405180910390f35b610110600480360381019061010b9190610e8d565b6104fb565b005b61012c60048036038101906101279190610e8d565b61053c565b005b61014860048036038101906101439190610e8d565b61057d565b60405161015793929190610eba565b60405180910390f35b61016861064c565b6040516101759190610f07565b60405180910390f35b61019860048036038101906101939190610f22565b610670565b6040516101ac989796959493929190610df3565b60405180910390f35b6101cf60048036038101906101ca9190610f22565b6108f2565b6040516101dc9190610f4f565b60405180910390f35b6101ff60048036038101906101fa9190610fcf565b610912565b005b61021b60048036038101906102169190610f22565b610a45565b005b600480549050821061022e57600080fd5b80600483815481106102435761024261102f565b5b9060005260206000209060030201600101819055505050565b6001602052816000526040600020818154811061027857600080fd5b90600052602060002090600802016000915091505080600001805461029c9061108d565b80601f01602080910402602001604051908101604052809291908181526020018280546102c89061108d565b80156103155780601f106102ea57610100808354040283529160200191610315565b820191906000526020600020905b8154815290600101906020018083116102f857829003601f168201915b50505050509080600101805461032a9061108d565b80601f01602080910402602001604051908101604052809291908181526020018280546103569061108d565b80156103a35780601f10610378576101008083540402835291602001916103a3565b820191906000526020600020905b81548152906001019060200180831161038657829003601f168201915b5050505050908060020180546103b89061108d565b80601f01602080910402602001604051908101604052809291908181526020018280546103e49061108d565b80156104315780601f1061040657610100808354040283529160200191610431565b820191906000526020600020905b81548152906001019060200180831161041457829003601f168201915b5050505050908060030160009054906101000a900460ff16908060040180546104599061108d565b80601f01602080910402602001604051908101604052809291908181526020018280546104859061108d565b80156104d25780601f106104a7576101008083540402835291602001916104d2565b820191906000526020600020905b8154815290600101906020018083116104b557829003601f168201915b5050505050908060050154908060060154908060070160009054906101000a900460ff16905088565b6001600482815481106105115761051061102f565b5b906000526020600020906003020160020160006101000a81548160ff02191690831515021790555050565b6000600482815481106105525761055161102f565b5b906000526020600020906003020160020160006101000a81548160ff02191690831515021790555050565b6004818154811061058d57600080fd5b90600052602060002090600302016000915090508060000180546105b09061108d565b80601f01602080910402602001604051908101604052809291908181526020018280546105dc9061108d565b80156106295780601f106105fe57610100808354040283529160200191610629565b820191906000526020600020905b81548152906001019060200180831161060c57829003601f168201915b5050505050908060010154908060020160009054906101000a900460ff16905083565b60008054906101000a900473ffffffffffffffffffffffffffffffffffffffff1681565b60026020528060005260406000206000915090508060000180546106939061108d565b80601f01602080910402602001604051908101604052809291908181526020018280546106bf9061108d565b801561070c5780601f106106e15761010080835404028352916020019161070c565b820191906000526020600020905b8154815290600101906020018083116106ef57829003601f168201915b5050505050908060010180546107219061108d565b80601f016020809104026020016040519081016040528092919081815260200182805461074d9061108d565b801561079a5780601f1061076f5761010080835404028352916020019161079a565b820191906000526020600020905b81548152906001019060200180831161077d57829003601f168201915b5050505050908060020180546107af9061108d565b80601f01602080910402602001604051908101604052809291908181526020018280546107db9061108d565b80156108285780601f106107fd57610100808354040283529160200191610828565b820191906000526020600020905b81548152906001019060200180831161080b57829003601f168201915b5050505050908060030160009054906101000a900460ff16908060040180546108509061108d565b80601f016020809104026020016040519081016040528092919081815260200182805461087c9061108d565b80156108c95780601f1061089e576101008083540402835291602001916108c9565b820191906000526020600020905b8154815290600101906020018083116108ac57829003601f168201915b5050505050908060050154908060060154908060070160009054906101000a900460ff16905088565b60036020528060005260406000206000915054906101000a900460ff1681565b60008054906101000a900473ffffffffffffffffffffffffffffffffffffffff1673ffffffffffffffffffffffffffffffffffffffff163373ffffffffffffffffffffffffffffffffffffffff161461096a57600080fd5b6004604051806060016040528085858080601f016020809104026020016040519081016040528093929190818152602001838380828437600081840152601f19601f8201169050808301925050505050505081526020018381526020016001151581525090806001815401808255809150506001900390600052602060002090600302016000909190919091506000820151816000019080519060200190610a13929190610af8565b506020820151816001015560408201518160020160006101000a81548160ff0219169083151502179055505050505050565b60008054906101000a900473ffffffffffffffffffffffffffffffffffffffff1673ffffffffffffffffffffffffffffffffffffffff163373ffffffffffffffffffffffffffffffffffffffff1614610a9d57600080fd5b6001600360008373ffffffffffffffffffffffffffffffffffffffff1673ffffffffffffffffffffffffffffffffffffffff16815260200190815260200160002060006101000a81548160ff02191690831515021790555050565b828054610b049061108d565b90600052602060002090601f016020900481019282610b265760008555610b6d565b82601f10610b3f57805160ff1916838001178555610b6d565b82800160010185558215610b6d579182015b82811115610b6c578251825591602001919060010190610b51565b5b509050610b7a9190610b7e565b5090565b5b80821115610b97576000816000905550600101610b7f565b5090565b600080fd5b600080fd5b6000819050919050565b610bb881610ba5565b8114610bc357600080fd5b50565b600081359050610bd581610baf565b92915050565b60008060408385031215610bf257610bf1610b9b565b5b6000610c0085828601610bc6565b9250506020610c1185828601610bc6565b9150509250929050565b600073ffffffffffffffffffffffffffffffffffffffff82169050919050565b6000610c4682610c1b565b9050919050565b610c5681610c3b565b8114610c6157600080fd5b50565b600081359050610c7381610c4d565b92915050565b60008060408385031215610c9057610c8f610b9b565b5b6000610c9e85828601610c64565b9250506020610caf85828601610bc6565b9150509250929050565b600081519050919050565b600082825260208201905092915050565b60005b83811015610cf3578082015181840152602081019050610cd8565b83811115610d02576000848401525b50505050565b6000601f19601f8301169050919050565b6000610d2482610cb9565b610d2e8185610cc4565b9350610d3e818560208601610cd5565b610d4781610d08565b840191505092915050565b7f4e487b7100000000000000000000000000000000000000000000000000000000600052602160045260246000fd5b60068110610d9257610d91610d52565b5b50565b6000819050610da382610d81565b919050565b6000610db382610d95565b9050919050565b610dc381610da8565b82525050565b610dd281610ba5565b82525050565b60008115159050919050565b610ded81610dd8565b82525050565b6000610100820190508181036000830152610e0e818b610d19565b90508181036020830152610e22818a610d19565b90508181036040830152610e368189610d19565b9050610e456060830188610dba565b8181036080830152610e578187610d19565b9050610e6660a0830186610dc9565b610e7360c0830185610dc9565b610e8060e0830184610de4565b9998505050505050505050565b600060208284031215610ea357610ea2610b9b565b5b6000610eb184828501610bc6565b91505092915050565b60006060820190508181036000830152610ed48186610d19565b9050610ee36020830185610dc9565b610ef06040830184610de4565b949350505050565b610f0181610c3b565b82525050565b6000602082019050610f1c6000830184610ef8565b92915050565b600060208284031215610f3857610f37610b9b565b5b6000610f4684828501610c64565b91505092915050565b6000602082019050610f646000830184610de4565b92915050565b600080fd5b600080fd5b600080fd5b60008083601f840112610f8f57610f8e610f6a565b5b8235905067ffffffffffffffff811115610fac57610fab610f6f565b5b602083019150836001820283011115610fc857610fc7610f74565b5b9250929050565b600080600060408486031215610fe857610fe7610b9b565b5b600084013567ffffffffffffffff81111561100657611005610ba0565b5b61101286828701610f79565b9350935050602061102586828701610bc6565b9150509250925092565b7f4e487b7100000000000000000000000000000000000000000000000000000000600052603260045260246000fd5b7f4e487b7100000000000000000000000000000000000000000000000000000000600052602260045260246000fd5b600060028204905060018216806110a557607f821691505b602082108114156110b9576110b861105e565b5b5091905056fea264697066735822122015355d46eb2c35c74973e6f15ca00a1d7023309bb5f82d5b1d0f728685f6e86464736f6c634300080a0033",
  "immutableReferences": {},
  "source": "// SPDX-License-Identifier: MIT\r\npragma solidity >=0.4.22 <0.9.0;\r\n\r\ncontract Main{\r\n    enum VehicleType {Motorcycle,Motorcar,Jeep,PublicServiceVehicle,PrivateCarrier,PublicCarrier}\r\n\r\n    struct Challan{\r\n    string LicenseID; //license id of citizen\r\n    string CitizenName; \r\n    string CitizenCNIC;\r\n    VehicleType CarType; \r\n    string CarNumberPlate;\r\n    uint VoilationCode;\r\n    uint Fine;\r\n    bool status;\r\n    }\r\n\r\n    struct VoilationRule{\r\n    string Description; //description of the rule\r\n    uint Fine; \r\n    bool status;\r\n    }\r\n\r\n    address public Owner; //adminstrator who manages who can add challan etc.\r\n    mapping(address=>Challan[]) public PreviousChallan; //use to store all previous challans of citizens\r\n    mapping(address=>Challan) public ActiveChallan;  //use to store current active challans of citizen\r\n    mapping(address=>bool) public TP; //mapping for traffic police(TP) , who can add Challan\r\n    VoilationRule[] public RuleList; //list of traffic rules\r\n\r\n    constructor(){\r\n        Owner=msg.sender;\r\n    }\r\n\r\n    function addTrafficPolice(address _TP) public{//add traffic police who can add challans\r\n        require(msg.sender==Owner);\r\n        TP[_TP]=true;\r\n    }\r\n\r\n    function addTrafficRule(string calldata _description,uint _price) public{  \r\n        require(msg.sender==Owner);\r\n        RuleList.push(VoilationRule(_description,_price,true));\r\n    }\r\n\r\n    function updatePriceForRule(uint _ruleID,uint _price) public{ //update price of rule by giving its rule code \r\n        require(_ruleID<(RuleList.length));\r\n        RuleList[_ruleID].Fine=_price;\r\n    }\r\n\r\n    \r\n    function deactivateRule(uint _ruleID) public{\r\n        RuleList[_ruleID].status=false;\r\n    }\r\n\r\n    function activateRule(uint _ruleID) public{\r\n        RuleList[_ruleID].status=true;\r\n    } \r\n\r\n    function deleteActiveChallan(address _user) internal { //remooves user from active challan\r\n        delete ActiveChallan[_user];\r\n    }\r\n    // function getChallan(string calldata LicenseID) public{\r\n        \r\n    // }\r\n\r\n\r\n}",
  "sourcePath": "F:\\BL project\\contracts\\main.sol",
  "compiler": {
    "name": "solc",
    "version": "0.8.10+commit.fc410830.Emscripten.clang"
  },
  "schemaVersion": "3.4.3",
  "updatedAt": "2021-12-19T17:50:53.072Z",
  "devdoc": {
    "kind": "dev",
    "methods": {},
    "version": 1
  },
  "userdoc": {
    "kind": "user",
    "methods": {},
    "version": 1
  }
}